{
  "contractName": "AssetConsumingRegistryLogic",
  "abi": [
    {
      "constant": false,
      "inputs": [
        {
          "name": "_assetId",
          "type": "uint256"
        },
        {
          "name": "_newSmartMeter",
          "type": "address"
        }
      ],
      "name": "updateSmartMeter",
      "outputs": [],
      "payable": false,
      "stateMutability": "nonpayable",
      "type": "function"
    },
    {
      "constant": true,
      "inputs": [
        {
          "name": "_assetId",
          "type": "uint256"
        }
      ],
      "name": "getAssetLocation",
      "outputs": [
        {
          "name": "country",
          "type": "bytes32"
        },
        {
          "name": "region",
          "type": "bytes32"
        },
        {
          "name": "zip",
          "type": "bytes32"
        },
        {
          "name": "city",
          "type": "bytes32"
        },
        {
          "name": "street",
          "type": "bytes32"
        },
        {
          "name": "houseNumber",
          "type": "bytes32"
        },
        {
          "name": "gpsLatitude",
          "type": "bytes32"
        },
        {
          "name": "gpsLongitude",
          "type": "bytes32"
        }
      ],
      "payable": false,
      "stateMutability": "view",
      "type": "function"
    },
    {
      "constant": false,
      "inputs": [
        {
          "name": "_dbAddress",
          "type": "address"
        }
      ],
      "name": "init",
      "outputs": [],
      "payable": false,
      "stateMutability": "nonpayable",
      "type": "function"
    },
    {
      "constant": false,
      "inputs": [
        {
          "name": "_newLogic",
          "type": "address"
        }
      ],
      "name": "update",
      "outputs": [],
      "payable": false,
      "stateMutability": "nonpayable",
      "type": "function"
    },
    {
      "constant": false,
      "inputs": [],
      "name": "createAsset",
      "outputs": [],
      "payable": false,
      "stateMutability": "nonpayable",
      "type": "function"
    },
    {
      "constant": true,
      "inputs": [],
      "name": "db",
      "outputs": [
        {
          "name": "",
          "type": "address"
        }
      ],
      "payable": false,
      "stateMutability": "view",
      "type": "function"
    },
    {
      "constant": false,
      "inputs": [
        {
          "name": "_assetId",
          "type": "uint256"
        },
        {
          "name": "_country",
          "type": "bytes32"
        },
        {
          "name": "_region",
          "type": "bytes32"
        },
        {
          "name": "_zip",
          "type": "bytes32"
        },
        {
          "name": "_city",
          "type": "bytes32"
        },
        {
          "name": "_street",
          "type": "bytes32"
        },
        {
          "name": "_houseNumber",
          "type": "bytes32"
        },
        {
          "name": "_gpsLatitude",
          "type": "bytes32"
        },
        {
          "name": "_gpsLongitude",
          "type": "bytes32"
        }
      ],
      "name": "initLocation",
      "outputs": [],
      "payable": false,
      "stateMutability": "nonpayable",
      "type": "function"
    },
    {
      "constant": true,
      "inputs": [],
      "name": "getAssetListLength",
      "outputs": [
        {
          "name": "",
          "type": "uint256"
        }
      ],
      "payable": false,
      "stateMutability": "view",
      "type": "function"
    },
    {
      "constant": true,
      "inputs": [],
      "name": "cooContract",
      "outputs": [
        {
          "name": "",
          "type": "address"
        }
      ],
      "payable": false,
      "stateMutability": "view",
      "type": "function"
    },
    {
      "constant": true,
      "inputs": [
        {
          "name": "_role",
          "type": "uint8"
        },
        {
          "name": "_caller",
          "type": "address"
        }
      ],
      "name": "isRole",
      "outputs": [
        {
          "name": "",
          "type": "bool"
        }
      ],
      "payable": false,
      "stateMutability": "view",
      "type": "function"
    },
    {
      "constant": true,
      "inputs": [
        {
          "name": "_assetId",
          "type": "uint256"
        }
      ],
      "name": "getActive",
      "outputs": [
        {
          "name": "",
          "type": "bool"
        }
      ],
      "payable": false,
      "stateMutability": "view",
      "type": "function"
    },
    {
      "constant": false,
      "inputs": [
        {
          "name": "_assetId",
          "type": "uint256"
        },
        {
          "name": "_active",
          "type": "bool"
        }
      ],
      "name": "setActive",
      "outputs": [],
      "payable": false,
      "stateMutability": "nonpayable",
      "type": "function"
    },
    {
      "constant": true,
      "inputs": [
        {
          "name": "_assetId",
          "type": "uint256"
        }
      ],
      "name": "getLastSmartMeterReadFileHash",
      "outputs": [
        {
          "name": "datalog",
          "type": "bytes32"
        }
      ],
      "payable": false,
      "stateMutability": "view",
      "type": "function"
    },
    {
      "inputs": [
        {
          "name": "_cooContract",
          "type": "address"
        }
      ],
      "payable": false,
      "stateMutability": "nonpayable",
      "type": "constructor"
    },
    {
      "anonymous": false,
      "inputs": [
        {
          "indexed": true,
          "name": "_assetId",
          "type": "uint256"
        },
        {
          "indexed": true,
          "name": "_fileHash",
          "type": "bytes32"
        },
        {
          "indexed": false,
          "name": "_oldMeterRead",
          "type": "uint256"
        },
        {
          "indexed": false,
          "name": "_newMeterRead",
          "type": "uint256"
        },
        {
          "indexed": false,
          "name": "_certificatesUsedForWh",
          "type": "uint256"
        },
        {
          "indexed": false,
          "name": "_smartMeterDown",
          "type": "bool"
        }
      ],
      "name": "LogNewMeterRead",
      "type": "event"
    },
    {
      "anonymous": false,
      "inputs": [
        {
          "indexed": false,
          "name": "sender",
          "type": "address"
        },
        {
          "indexed": true,
          "name": "_assetId",
          "type": "uint256"
        }
      ],
      "name": "LogAssetCreated",
      "type": "event"
    },
    {
      "anonymous": false,
      "inputs": [
        {
          "indexed": true,
          "name": "_assetId",
          "type": "uint256"
        }
      ],
      "name": "LogAssetFullyInitialized",
      "type": "event"
    },
    {
      "anonymous": false,
      "inputs": [
        {
          "indexed": true,
          "name": "_assetId",
          "type": "uint256"
        }
      ],
      "name": "LogAssetSetActive",
      "type": "event"
    },
    {
      "anonymous": false,
      "inputs": [
        {
          "indexed": true,
          "name": "_assetId",
          "type": "uint256"
        }
      ],
      "name": "LogAssetSetInactive",
      "type": "event"
    },
    {
      "constant": false,
      "inputs": [
        {
          "name": "_assetId",
          "type": "uint256"
        },
        {
          "name": "_smartMeter",
          "type": "address"
        },
        {
          "name": "_owner",
          "type": "address"
        },
        {
          "name": "_operationalSince",
          "type": "uint256"
        },
        {
          "name": "_capacityWh",
          "type": "uint256"
        },
        {
          "name": "_maxCapacitySet",
          "type": "bool"
        },
        {
          "name": "_active",
          "type": "bool"
        }
      ],
      "name": "initGeneral",
      "outputs": [],
      "payable": false,
      "stateMutability": "nonpayable",
      "type": "function"
    },
    {
      "constant": false,
      "inputs": [
        {
          "name": "_assetId",
          "type": "uint256"
        },
        {
          "name": "_newMeterRead",
          "type": "uint256"
        },
        {
          "name": "_lastSmartMeterReadFileHash",
          "type": "bytes32"
        },
        {
          "name": "_smartMeterDown",
          "type": "bool"
        }
      ],
      "name": "saveSmartMeterRead",
      "outputs": [],
      "payable": false,
      "stateMutability": "nonpayable",
      "type": "function"
    },
    {
      "constant": true,
      "inputs": [
        {
          "name": "_assetId",
          "type": "uint256"
        }
      ],
      "name": "getAssetGeneral",
      "outputs": [
        {
          "name": "_smartMeter",
          "type": "address"
        },
        {
          "name": "_owner",
          "type": "address"
        },
        {
          "name": "_operationalSince",
          "type": "uint256"
        },
        {
          "name": "_capacityWh",
          "type": "uint256"
        },
        {
          "name": "_maxCapacitySet",
          "type": "bool"
        },
        {
          "name": "_lastSmartMeterReadWh",
          "type": "uint256"
        },
        {
          "name": "_certificatesUsedForWh",
          "type": "uint256"
        },
        {
          "name": "_active",
          "type": "bool"
        },
        {
          "name": "_lastSmartMeterReadFileHash",
          "type": "bytes32"
        }
      ],
      "payable": false,
      "stateMutability": "view",
      "type": "function"
    },
    {
      "constant": true,
      "inputs": [
        {
          "name": "_assetId",
          "type": "uint256"
        }
      ],
      "name": "getConsumingProperies",
      "outputs": [
        {
          "name": "capacityWh",
          "type": "uint256"
        },
        {
          "name": "maxCapacitySet",
          "type": "bool"
        },
        {
          "name": "certificatesUsedForWh",
          "type": "uint256"
        }
      ],
      "payable": false,
      "stateMutability": "view",
      "type": "function"
    },
    {
      "constant": false,
      "inputs": [
        {
          "name": "_assetId",
          "type": "uint256"
        },
        {
          "name": "_consumed",
          "type": "uint256"
        }
      ],
      "name": "setConsumptionForPeriode",
      "outputs": [],
      "payable": false,
      "stateMutability": "nonpayable",
      "type": "function"
    }
  ],
  "bytecode": "0x608060405234801561001057600080fd5b506040516020806116c3833981016040525160008054600160a060020a03909216600160a060020a0319909216919091179055611671806100526000396000f3006080604052600436106100e25763ffffffff60e060020a6000350416630705244281146100e75780631314394d1461010d57806319ab453c146101665780631c1b877214610187578063244a613a146101a8578063312f9a8c146101e257806331a5daf3146102185780634d655aff1461022d5780637715ad901461025e5780639963aece14610281578063a861c6ef146102b2578063ade1e992146102cd578063ae51439c1461033a578063b1f2cc9d14610361578063bb5a389e14610376578063c53fb1a5146103b1578063e60a955d146103c9578063f7105c05146103e6575b600080fd5b3480156100f357600080fd5b5061010b600435600160a060020a03602435166103fe565b005b34801561011957600080fd5b506101256004356104b7565b604080519889526020890197909752878701959095526060870193909352608086019190915260a085015260c084015260e083015251908190036101000190f35b34801561017257600080fd5b5061010b600160a060020a0360043516610593565b34801561019357600080fd5b5061010b600160a060020a03600435166105f0565b3480156101b457600080fd5b5061010b600435600160a060020a036024358116906044351660643560843560a435151560c435151561068b565b3480156101ee57600080fd5b506101fa6004356107a8565b60408051938452911515602084015282820152519081900360600190f35b34801561022457600080fd5b5061010b610859565b34801561023957600080fd5b50610242610944565b60408051600160a060020a039092168252519081900360200190f35b34801561026a57600080fd5b5061010b6004356024356044356064351515610953565b34801561028d57600080fd5b5061010b60043560243560443560643560843560a43560c43560e43561010435610cb6565b3480156102be57600080fd5b5061010b600435602435610d84565b3480156102d957600080fd5b506102e5600435610e84565b60408051600160a060020a039a8b168152989099166020890152878901969096526060870194909452911515608086015260a085015260c0840152151560e08301526101008201529051908190036101200190f35b34801561034657600080fd5b5061034f610f9c565b60408051918252519081900360200190f35b34801561036d57600080fd5b5061024261102c565b34801561038257600080fd5b5061039d60ff60043516600160a060020a036024351661103b565b604080519115158252519081900360200190f35b3480156103bd57600080fd5b5061039d60043561122b565b3480156103d557600080fd5b5061010b60043560243515156112c3565b3480156103f257600080fd5b5061034f6004356113de565b600154600160a060020a0316151561041557600080fd5b6002610421813361103b565b151561042c57600080fd5b600154604080517f0ff85b9400000000000000000000000000000000000000000000000000000000815260048101869052600160a060020a03858116602483015291519190921691630ff85b9491604480830192600092919082900301818387803b15801561049a57600080fd5b505af11580156104ae573d6000803e3d6000fd5b50505050505050565b600080600080600080600080600160009054906101000a9004600160a060020a0316600160a060020a0316631314394d8a6040518263ffffffff1660e060020a0281526004018082815260200191505061010060405180830381600087803b15801561052257600080fd5b505af1158015610536573d6000803e3d6000fd5b505050506040513d61010081101561054d57600080fd5b508051602082015160408301516060840151608085015160a086015160c087015160e090970151959e50939c50919a509850965094509092509050919395975091939597565b600061059f813361103b565b15156105aa57600080fd5b600154600160a060020a0316156105c057600080fd5b506001805473ffffffffffffffffffffffffffffffffffffffff1916600160a060020a0392909216919091179055565b600054600160a060020a031633811461060857600080fd5b600154604080517fa6f9dae1000000000000000000000000000000000000000000000000000000008152600160a060020a0385811660048301529151919092169163a6f9dae191602480830192600092919082900301818387803b15801561066f57600080fd5b505af1158015610683573d6000803e3d6000fd5b505050505050565b600154600160a060020a031615156106a257600080fd5b6004856106af828261103b565b15156106ba57600080fd5b60026106c6813361103b565b15156106d157600080fd5b600154604080517fde280a63000000000000000000000000000000000000000000000000000000008152600481018d9052600160a060020a038c811660248301528b81166044830152606482018b9052608482018a905288151560a4830152600060c4830181905260e483018190528815156101048401526101248301819052925193169263de280a63926101448084019391929182900301818387803b15801561077b57600080fd5b505af115801561078f573d6000803e3d6000fd5b5050505061079c8a611444565b50505050505050505050565b600154604080517f312f9a8c00000000000000000000000000000000000000000000000000000000815260048101849052905160009283928392600160a060020a039092169163312f9a8c9160248082019260609290919082900301818787803b15801561081557600080fd5b505af1158015610829573d6000803e3d6000fd5b505050506040513d606081101561083f57600080fd5b508051602082015160409092015190969195509350915050565b60006002610867813361103b565b151561087257600080fd5b600154600160a060020a0316151561088957600080fd5b600160009054906101000a9004600160a060020a0316600160a060020a03166331a5daf36040518163ffffffff1660e060020a028152600401602060405180830381600087803b1580156108dc57600080fd5b505af11580156108f0573d6000803e3d6000fd5b505050506040513d602081101561090657600080fd5b505160408051338152905191935083917fd3ab0c36887772472a25b1c1cecc0dee794b7c5ca472edaa2db255346878ee6b9181900360200190a25050565b600154600160a060020a031681565b600154600090600160a060020a0316151561096d57600080fd5b600154604080517fed9c058b000000000000000000000000000000000000000000000000000000008152600481018890529051600160a060020a039092169163ed9c058b916024808201926020929091908290030181600087803b1580156109d457600080fd5b505af11580156109e8573d6000803e3d6000fd5b505050506040513d60208110156109fe57600080fd5b505133600160a060020a03821614610a1557600080fd5b600154604080517fc53fb1a5000000000000000000000000000000000000000000000000000000008152600481018990529051600160a060020a039092169163c53fb1a5916024808201926020929091908290030181600087803b158015610a7c57600080fd5b505af1158015610a90573d6000803e3d6000fd5b505050506040513d6020811015610aa657600080fd5b50511515610ab357600080fd5b600154604080517f042157c2000000000000000000000000000000000000000000000000000000008152600481018990529051600160a060020a039092169163042157c2916024808201926020929091908290030181600087803b158015610b1a57600080fd5b505af1158015610b2e573d6000803e3d6000fd5b505050506040513d6020811015610b4457600080fd5b5051600154604080517fb91dccde000000000000000000000000000000000000000000000000000000008152600481018a90529051929450869289927fa0ab5f173b69a28f81848a665a77213faedda299f939f047032c1e714ce6e94b9287928b92600160a060020a03169163b91dccde9160248083019260209291908290030181600087803b158015610bd757600080fd5b505af1158015610beb573d6000803e3d6000fd5b505050506040513d6020811015610c0157600080fd5b5051604080519384526020840192909252828201528715156060830152519081900360800190a3600154604080517f98d61f150000000000000000000000000000000000000000000000000000000081526004810189905260248101889052604481018790524260648201529051600160a060020a03909216916398d61f159160848082019260009290919082900301818387803b158015610ca257600080fd5b505af115801561079c573d6000803e3d6000fd5b600154600160a060020a03161515610ccd57600080fd5b6002610cd9813361103b565b1515610ce457600080fd5b600154604080517f9963aece000000000000000000000000000000000000000000000000000000008152600481018d9052602481018c9052604481018b9052606481018a90526084810189905260a4810188905260c4810187905260e4810186905261010481018590529051600160a060020a0390921691639963aece916101248082019260009290919082900301818387803b15801561077b57600080fd5b6000809054906101000a9004600160a060020a0316600160a060020a031663a34b80b06040518163ffffffff1660e060020a028152600401602060405180830381600087803b158015610dd657600080fd5b505af1158015610dea573d6000803e3d6000fd5b505050506040513d6020811015610e0057600080fd5b505133600160a060020a03821614610e1757600080fd5b600154604080517fc279130600000000000000000000000000000000000000000000000000000000815260048101869052602481018590529051600160a060020a039092169163c27913069160448082019260009290919082900301818387803b15801561049a57600080fd5b6000806000806000806000806000600160009054906101000a9004600160a060020a0316600160a060020a031663ade1e9928b6040518263ffffffff1660e060020a0281526004018082815260200191505061012060405180830381600087803b158015610ef157600080fd5b505af1158015610f05573d6000803e3d6000fd5b505050506040513d610120811015610f1c57600080fd5b810190808051906020019092919080519060200190929190805190602001909291908051906020019092919080519060200190929190805190602001909291908051906020019092919080519060200190929190805190602001909291905050509850985098509850985098509850985098509193959799909294969850565b600154604080517fae51439c0000000000000000000000000000000000000000000000000000000081529051600092600160a060020a03169163ae51439c91600480830192602092919082900301818787803b158015610ffb57600080fd5b505af115801561100f573d6000803e3d6000fd5b505050506040513d602081101561102557600080fd5b5051905090565b600054600160a060020a031681565b6000806000600785600681111561104e57fe5b111561105957600080fd5b83600160a060020a03166000809054906101000a9004600160a060020a0316600160a060020a0316638da5cb5b6040518163ffffffff1660e060020a028152600401602060405180830381600087803b1580156110b557600080fd5b505af11580156110c9573d6000803e3d6000fd5b505050506040513d60208110156110df57600080fd5b5051600160a060020a031614156110f95760019250611223565b6000809054906101000a9004600160a060020a0316600160a060020a0316635c7460d66040518163ffffffff1660e060020a028152600401602060405180830381600087803b15801561114b57600080fd5b505af115801561115f573d6000803e3d6000fd5b505050506040513d602081101561117557600080fd5b5051604080517f265209f2000000000000000000000000000000000000000000000000000000008152600160a060020a0387811660048301529151919092169163265209f29160248083019260209291908290030181600087803b1580156111dc57600080fd5b505af11580156111f0573d6000803e3d6000fd5b505050506040513d602081101561120657600080fd5b5051915084600681111561121657fe5b60020a8281161515935090505b505092915050565b600154604080517fc53fb1a5000000000000000000000000000000000000000000000000000000008152600481018490529051600092600160a060020a03169163c53fb1a591602480830192602092919082900301818787803b15801561129157600080fd5b505af11580156112a5573d6000803e3d6000fd5b505050506040513d60208110156112bb57600080fd5b505192915050565b600154600160a060020a031615156112da57600080fd5b60026112e6813361103b565b15156112f157600080fd5b600154604080517fe60a955d0000000000000000000000000000000000000000000000000000000081526004810186905284151560248201529051600160a060020a039092169163e60a955d9160448082019260009290919082900301818387803b15801561135f57600080fd5b505af1158015611373573d6000803e3d6000fd5b5050505081156113ad5760405183907fbb4a2f3fc0f65f1ee98dc140226f7718191ba94892efdc55613785ccbf00a8e890600090a26113d9565b60405183907f61f3fbe0c2049de9b0219669983a937b4377c1dced582b6a720a87b49ae3c08b90600090a25b505050565b600154604080517ff7105c05000000000000000000000000000000000000000000000000000000008152600481018490529051600092600160a060020a03169163f7105c0591602480830192602092919082900301818787803b15801561129157600080fd5b600154604080517fc6bc1a7600000000000000000000000000000000000000000000000000000000815260048101849052905160009283928392600160a060020a039092169163c6bc1a769160248082019260609290919082900301818787803b1580156114b157600080fd5b505af11580156114c5573d6000803e3d6000fd5b505050506040513d60608110156114db57600080fd5b508051602082015160409092015190945090925090508280156114fb5750815b8015611505575080155b1561163f5760018054604080517f054dddde00000000000000000000000000000000000000000000000000000000815260048101889052602481019390935251600160a060020a039091169163054dddde91604480830192600092919082900301818387803b15801561157757600080fd5b505af115801561158b573d6000803e3d6000fd5b50506040518692507f1952717c0461c82af1fee2f55fe9887230a44916d9214bcdf89905bd2c3918a99150600090a2600154604080517f36016d71000000000000000000000000000000000000000000000000000000008152600481018790524260248201529051600160a060020a03909216916336016d719160448082019260009290919082900301818387803b15801561162657600080fd5b505af115801561163a573d6000803e3d6000fd5b505050505b505050505600a165627a7a72305820d174abf809f1831909d61b6144262864a42c03810a34a6c81c018cf012107c040029",
  "source": "// Copyright 2018 Energy Web Foundation\n// This file is part of the Origin Application brought to you by the Energy Web Foundation,\n// a global non-profit organization focused on accelerating blockchain technology across the energy sector, \n// incorporated in Zug, Switzerland.\n//\n// The Origin Application is free software: you can redistribute it and/or modify\n// it under the terms of the GNU General Public License as published by\n// the Free Software Foundation, either version 3 of the License, or\n// (at your option) any later version.\n// This is distributed in the hope that it will be useful,\n// but WITHOUT ANY WARRANTY and without an implied warranty of\n// MERCHANTABILITY or FITNESS FOR A PARTICULAR PURPOSE.  See the\n// GNU General Public License for more details, at <http://www.gnu.org/licenses/>.\n//\n// @authors: slock.it GmbH, Martin Kuechler, martin.kuechler@slock.it\n\npragma solidity ^0.4.18;\n\nimport \"./AssetConsumingRegistryDB.sol\";\nimport \"./UserLogic.sol\";\nimport \"./CoO.sol\";\nimport \"./RoleManagement.sol\";\nimport \"./CertificateLogic.sol\";\nimport \"./Updatable.sol\";\nimport \"./AssetLogic.sol\";\n\n/// @title The logic contract for the asset registration\n/// @notice This contract provides the logic that determines how the data is stored\n/// @dev Needs a valid AssetProducingRegistryDB contract to function correctly \ncontract AssetConsumingRegistryLogic is AssetLogic {\n\n    event LogNewMeterRead(\n        uint indexed _assetId, \n        bytes32 indexed _fileHash, \n        uint _oldMeterRead, \n        uint _newMeterRead, \n        uint _certificatesUsedForWh,\n        bool _smartMeterDown\n    );\n\n    /// @notice Constructor\n    /// @param _cooContract The address of the coo contract\n    function AssetConsumingRegistryLogic(CoO _cooContract) \n        public\n        AssetLogic(_cooContract) \n    {\n  \n    }\n\n    /// @notice Sets the general information of an asset in the database\n    /// @param _assetId the The index / identifier of an asset\n    /// @param _smartMeter The address of the smart meter\n    /// @param _owner The address of the asset owner\n    /// @param _operationalSince The timestamp since the asset is operational\n    /// @param _capacityWh The capacity in Wh of the asset\n    /// @param _maxCapacitySet flag whether there should be a max capacity\n    /// @param _active true if active\n    function initGeneral (\n        uint _assetId,\n        address _smartMeter,\n        address _owner,\n        uint _operationalSince,\n        uint _capacityWh,\n        bool _maxCapacitySet,\n        bool _active\n    ) \n        external\n        isInitialized\n        userHasRole(RoleManagement.Role.AssetManager, _owner)\n        onlyRole(RoleManagement.Role.AssetAdmin)\n    {  \n        AssetConsumingRegistryDB(db).initGeneral(_assetId, _smartMeter, _owner, _operationalSince, _capacityWh, _maxCapacitySet, 0, 0, _active, 0x0);\n        updateAssetExistStatus(_assetId);\n    }\n    \n    /// @notice Logs meter read\n    /// @param _assetId The id belonging to an entry in the asset registry\n    /// @param _newMeterRead The current meter read of the asset\n    /// @param _lastSmartMeterReadFileHash Last meter read file hash\n    /// @param _smartMeterDown flag whether the smartmeter was down\n    /// @dev The client needs to check if the blockgas limit could be reached and if so the log should be splitted \n    function saveSmartMeterRead(uint _assetId, uint _newMeterRead, bytes32 _lastSmartMeterReadFileHash, bool _smartMeterDown) \n        external\n        isInitialized\n        onlyAccount(AssetConsumingRegistryDB((db)).getSmartMeter(_assetId))\n    {\n        require(db.getActive(_assetId));\n        uint oldMeterRead = AssetConsumingRegistryDB((db)).getLastSmartMeterReadWh(_assetId);\n        LogNewMeterRead(_assetId, _lastSmartMeterReadFileHash, oldMeterRead, _newMeterRead, AssetConsumingRegistryDB((db)).getCertificatesUsedForWh(_assetId), _smartMeterDown);\n        /// @dev need to check if new meter read is higher then the old one\n        AssetConsumingRegistryDB((db)).setSmartMeterReadData(_assetId, _newMeterRead, _lastSmartMeterReadFileHash,  now);\n\n    }\n\n    /// @notice Gets an asset\n    /// @param _assetId The id belonging to an entry in the asset registry\n    /// @return general information of an asset\n    function getAssetGeneral(uint _assetId) \n        external\n        view\n        returns (\n            address _smartMeter,\n            address _owner,\n            uint _operationalSince,\n            uint _capacityWh,\n            bool _maxCapacitySet,\n            uint _lastSmartMeterReadWh,\n            uint _certificatesUsedForWh,\n            bool _active,\n            bytes32 _lastSmartMeterReadFileHash\n            )\n    {\n        return AssetConsumingRegistryDB(address(db)).getAssetGeneral(_assetId);\n    }\n\n    /// @notice gets the consuming properties of an asset\n    /// @param _assetId the assetId\n    /// @return retuns capacity, maxCapacitySet-falg and certificatesUsedForWh\n    function getConsumingProperies(uint _assetId) \n        external\n        view\n        returns (\n            uint capacityWh,\n            bool maxCapacitySet,\n            uint certificatesUsedForWh\n        )\n    {\n        (capacityWh, maxCapacitySet, certificatesUsedForWh) = AssetConsumingRegistryDB(address(db)).getConsumingProperies(_assetId);\n    }\n\n    /// @notice sets the consumption for a period (in Wh)\n    /// @param _assetId assetId\n    /// @param _consumed the amount of energy consumed\n    function setConsumptionForPeriode(uint _assetId, uint _consumed)\n        external\n        onlyAccount(address(cooContract.demandRegistry()))\n    {\n        AssetConsumingRegistryDB(db).setCertificatesUsedForWh(_assetId, _consumed);\n    }\n}",
  "sourcePath": "/Users/unomasanori/projects/DEMO_MVP/Ethereum-Madrid-Hackathon/stor-madrid/contracts/AssetConsumingRegistryLogic.sol",
  "compiler": {
    "name": "solc",
    "version": "0.4.25+commit.59dbf8f1.Emscripten.clang"
  },
  "schemaVersion": "2.0.2",
  "updatedAt": "2019-05-25T12:04:23.165Z"
}