{
  "contractName": "AssetProducingRegistryDB",
  "abi": [
    {
      "constant": true,
      "inputs": [],
      "name": "owner",
      "outputs": [
        {
          "name": "",
          "type": "address"
        }
      ],
      "payable": false,
      "stateMutability": "view",
      "type": "function"
    },
    {
      "constant": false,
      "inputs": [
        {
          "name": "_newOwner",
          "type": "address"
        }
      ],
      "name": "changeOwner",
      "outputs": [],
      "payable": false,
      "stateMutability": "nonpayable",
      "type": "function"
    },
    {
      "inputs": [
        {
          "name": "_owner",
          "type": "address"
        }
      ],
      "payable": false,
      "stateMutability": "nonpayable",
      "type": "constructor"
    },
    {
      "anonymous": false,
      "inputs": [
        {
          "indexed": false,
          "name": "_newOwner",
          "type": "address"
        }
      ],
      "name": "LogChangeOwner",
      "type": "event"
    },
    {
      "constant": false,
      "inputs": [],
      "name": "createAsset",
      "outputs": [
        {
          "name": "_assetId",
          "type": "uint256"
        }
      ],
      "payable": false,
      "stateMutability": "nonpayable",
      "type": "function"
    },
    {
      "constant": false,
      "inputs": [
        {
          "name": "_assetId",
          "type": "uint256"
        },
        {
          "name": "_smartMeter",
          "type": "address"
        },
        {
          "name": "_owner",
          "type": "address"
        },
        {
          "name": "_operationalSince",
          "type": "uint256"
        },
        {
          "name": "_lastSmartMeterReadWh",
          "type": "uint256"
        },
        {
          "name": "_active",
          "type": "bool"
        },
        {
          "name": "_lastSmartMeterReadFileHash",
          "type": "bytes32"
        }
      ],
      "name": "initGeneral",
      "outputs": [],
      "payable": false,
      "stateMutability": "nonpayable",
      "type": "function"
    },
    {
      "constant": false,
      "inputs": [
        {
          "name": "_assetId",
          "type": "uint256"
        },
        {
          "name": "_assetType",
          "type": "uint256"
        },
        {
          "name": "_lastSmartMeterCO2OffsetRead",
          "type": "uint256"
        },
        {
          "name": "_cO2UsedForCertificate",
          "type": "uint256"
        },
        {
          "name": "_capacityWh",
          "type": "uint256"
        },
        {
          "name": "_certificatesCreatedForWh",
          "type": "uint256"
        },
        {
          "name": "_registryCompliance",
          "type": "uint256"
        },
        {
          "name": "_otherGreenAttributes",
          "type": "bytes32"
        },
        {
          "name": "_typeOfPublicSupport",
          "type": "bytes32"
        }
      ],
      "name": "initProducing",
      "outputs": [],
      "payable": false,
      "stateMutability": "nonpayable",
      "type": "function"
    },
    {
      "constant": false,
      "inputs": [
        {
          "name": "_assetId",
          "type": "uint256"
        },
        {
          "name": "_country",
          "type": "bytes32"
        },
        {
          "name": "_region",
          "type": "bytes32"
        },
        {
          "name": "_zip",
          "type": "bytes32"
        },
        {
          "name": "_city",
          "type": "bytes32"
        },
        {
          "name": "_street",
          "type": "bytes32"
        },
        {
          "name": "_houseNumber",
          "type": "bytes32"
        },
        {
          "name": "_gpsLatitude",
          "type": "bytes32"
        },
        {
          "name": "_gpsLongitude",
          "type": "bytes32"
        }
      ],
      "name": "initLocation",
      "outputs": [],
      "payable": false,
      "stateMutability": "nonpayable",
      "type": "function"
    },
    {
      "constant": false,
      "inputs": [
        {
          "name": "_assetId",
          "type": "uint256"
        },
        {
          "name": "_active",
          "type": "bool"
        }
      ],
      "name": "setActive",
      "outputs": [],
      "payable": false,
      "stateMutability": "nonpayable",
      "type": "function"
    },
    {
      "constant": false,
      "inputs": [
        {
          "name": "_assetId",
          "type": "uint256"
        },
        {
          "name": "_exist",
          "type": "bool"
        }
      ],
      "name": "setAssetExistStatus",
      "outputs": [],
      "payable": false,
      "stateMutability": "nonpayable",
      "type": "function"
    },
    {
      "constant": false,
      "inputs": [
        {
          "name": "_assetId",
          "type": "uint256"
        },
        {
          "name": "_assetType",
          "type": "uint256"
        }
      ],
      "name": "setAssetType",
      "outputs": [],
      "payable": false,
      "stateMutability": "nonpayable",
      "type": "function"
    },
    {
      "constant": false,
      "inputs": [
        {
          "name": "_assetId",
          "type": "uint256"
        },
        {
          "name": "_capacityWh",
          "type": "uint256"
        }
      ],
      "name": "setCapacityWh",
      "outputs": [],
      "payable": false,
      "stateMutability": "nonpayable",
      "type": "function"
    },
    {
      "constant": false,
      "inputs": [
        {
          "name": "_assetId",
          "type": "uint256"
        },
        {
          "name": "_certificatesCreatedForWh",
          "type": "uint256"
        }
      ],
      "name": "setCertificatesCreatedForWh",
      "outputs": [],
      "payable": false,
      "stateMutability": "nonpayable",
      "type": "function"
    },
    {
      "constant": false,
      "inputs": [
        {
          "name": "_assetId",
          "type": "uint256"
        },
        {
          "name": "_used",
          "type": "uint256"
        }
      ],
      "name": "setCO2UsedForCertificate",
      "outputs": [],
      "payable": false,
      "stateMutability": "nonpayable",
      "type": "function"
    },
    {
      "constant": false,
      "inputs": [
        {
          "name": "_assetId",
          "type": "uint256"
        },
        {
          "name": "_lastCO2OffsetReading",
          "type": "uint256"
        }
      ],
      "name": "setLastCO2OffsetReading",
      "outputs": [],
      "payable": false,
      "stateMutability": "nonpayable",
      "type": "function"
    },
    {
      "constant": false,
      "inputs": [
        {
          "name": "_assetId",
          "type": "uint256"
        },
        {
          "name": "_timestamp",
          "type": "uint256"
        }
      ],
      "name": "setLastSmartMeterReadDate",
      "outputs": [],
      "payable": false,
      "stateMutability": "nonpayable",
      "type": "function"
    },
    {
      "constant": false,
      "inputs": [
        {
          "name": "_assetId",
          "type": "uint256"
        },
        {
          "name": "_lastSmartMeterReadFileHash",
          "type": "bytes32"
        }
      ],
      "name": "setLastSmartMeterReadFileHash",
      "outputs": [],
      "payable": false,
      "stateMutability": "nonpayable",
      "type": "function"
    },
    {
      "constant": false,
      "inputs": [
        {
          "name": "_assetId",
          "type": "uint256"
        },
        {
          "name": "_lastSmartMeterReadWh",
          "type": "uint256"
        }
      ],
      "name": "setLastSmartMeterReadWh",
      "outputs": [],
      "payable": false,
      "stateMutability": "nonpayable",
      "type": "function"
    },
    {
      "constant": false,
      "inputs": [
        {
          "name": "_assetId",
          "type": "uint256"
        },
        {
          "name": "_country",
          "type": "bytes32"
        }
      ],
      "name": "setLocationCountry",
      "outputs": [],
      "payable": false,
      "stateMutability": "nonpayable",
      "type": "function"
    },
    {
      "constant": false,
      "inputs": [
        {
          "name": "_assetId",
          "type": "uint256"
        },
        {
          "name": "_region",
          "type": "bytes32"
        }
      ],
      "name": "setLocationRegion",
      "outputs": [],
      "payable": false,
      "stateMutability": "nonpayable",
      "type": "function"
    },
    {
      "constant": false,
      "inputs": [
        {
          "name": "_assetId",
          "type": "uint256"
        },
        {
          "name": "_newMeterRead",
          "type": "uint256"
        },
        {
          "name": "_CO2OffsetMeterRead",
          "type": "uint256"
        },
        {
          "name": "_lastSmartMeterReadFileHash",
          "type": "bytes32"
        },
        {
          "name": "_timestamp",
          "type": "uint256"
        }
      ],
      "name": "setSmartMeterReadData",
      "outputs": [],
      "payable": false,
      "stateMutability": "nonpayable",
      "type": "function"
    },
    {
      "constant": false,
      "inputs": [
        {
          "name": "_assetId",
          "type": "uint256"
        },
        {
          "name": "_operationalSince",
          "type": "uint256"
        }
      ],
      "name": "setOperationalSince",
      "outputs": [],
      "payable": false,
      "stateMutability": "nonpayable",
      "type": "function"
    },
    {
      "constant": false,
      "inputs": [
        {
          "name": "_assetId",
          "type": "uint256"
        },
        {
          "name": "_owner",
          "type": "address"
        }
      ],
      "name": "setOwner",
      "outputs": [],
      "payable": false,
      "stateMutability": "nonpayable",
      "type": "function"
    },
    {
      "constant": false,
      "inputs": [
        {
          "name": "_assetId",
          "type": "uint256"
        },
        {
          "name": "_smartMeter",
          "type": "address"
        }
      ],
      "name": "setSmartMeter",
      "outputs": [],
      "payable": false,
      "stateMutability": "nonpayable",
      "type": "function"
    },
    {
      "constant": true,
      "inputs": [
        {
          "name": "_assetId",
          "type": "uint256"
        }
      ],
      "name": "getActive",
      "outputs": [
        {
          "name": "",
          "type": "bool"
        }
      ],
      "payable": false,
      "stateMutability": "view",
      "type": "function"
    },
    {
      "constant": true,
      "inputs": [
        {
          "name": "_assetId",
          "type": "uint256"
        }
      ],
      "name": "getAssetGeneral",
      "outputs": [
        {
          "name": "_smartMeter",
          "type": "address"
        },
        {
          "name": "_owner",
          "type": "address"
        },
        {
          "name": "_operationalSince",
          "type": "uint256"
        },
        {
          "name": "_lastSmartMeterReadWh",
          "type": "uint256"
        },
        {
          "name": "_active",
          "type": "bool"
        },
        {
          "name": "_lastSmartMeterReadFileHash",
          "type": "bytes32"
        }
      ],
      "payable": false,
      "stateMutability": "view",
      "type": "function"
    },
    {
      "constant": true,
      "inputs": [],
      "name": "getAssetListLength",
      "outputs": [
        {
          "name": "",
          "type": "uint256"
        }
      ],
      "payable": false,
      "stateMutability": "view",
      "type": "function"
    },
    {
      "constant": true,
      "inputs": [
        {
          "name": "_assetId",
          "type": "uint256"
        }
      ],
      "name": "getAssetLocation",
      "outputs": [
        {
          "name": "country",
          "type": "bytes32"
        },
        {
          "name": "region",
          "type": "bytes32"
        },
        {
          "name": "zip",
          "type": "bytes32"
        },
        {
          "name": "city",
          "type": "bytes32"
        },
        {
          "name": "street",
          "type": "bytes32"
        },
        {
          "name": "houseNumber",
          "type": "bytes32"
        },
        {
          "name": "gpsLatitude",
          "type": "bytes32"
        },
        {
          "name": "gpsLongitude",
          "type": "bytes32"
        }
      ],
      "payable": false,
      "stateMutability": "view",
      "type": "function"
    },
    {
      "constant": true,
      "inputs": [
        {
          "name": "_assetId",
          "type": "uint256"
        }
      ],
      "name": "getAssetProducingProperties",
      "outputs": [
        {
          "name": "assetType",
          "type": "uint256"
        },
        {
          "name": "capacityWh",
          "type": "uint256"
        },
        {
          "name": "certificatesCreatedForWh",
          "type": "uint256"
        },
        {
          "name": "lastSmartMeterCO2OffsetRead",
          "type": "uint256"
        },
        {
          "name": "cO2UsedForCertificate",
          "type": "uint256"
        },
        {
          "name": "registryCompliance",
          "type": "uint256"
        },
        {
          "name": "otherGreenAttributes",
          "type": "bytes32"
        },
        {
          "name": "typeOfPublicSupport",
          "type": "bytes32"
        }
      ],
      "payable": false,
      "stateMutability": "view",
      "type": "function"
    },
    {
      "constant": true,
      "inputs": [
        {
          "name": "_assetId",
          "type": "uint256"
        }
      ],
      "name": "getAssetType",
      "outputs": [
        {
          "name": "",
          "type": "uint256"
        }
      ],
      "payable": false,
      "stateMutability": "view",
      "type": "function"
    },
    {
      "constant": true,
      "inputs": [
        {
          "name": "_assetId",
          "type": "uint256"
        }
      ],
      "name": "getCapacityWh",
      "outputs": [
        {
          "name": "",
          "type": "uint256"
        }
      ],
      "payable": false,
      "stateMutability": "view",
      "type": "function"
    },
    {
      "constant": true,
      "inputs": [
        {
          "name": "_assetId",
          "type": "uint256"
        }
      ],
      "name": "getCertificatesCreatedForWh",
      "outputs": [
        {
          "name": "",
          "type": "uint256"
        }
      ],
      "payable": false,
      "stateMutability": "view",
      "type": "function"
    },
    {
      "constant": true,
      "inputs": [
        {
          "name": "_assetId",
          "type": "uint256"
        }
      ],
      "name": "getCo2UsedForCertificate",
      "outputs": [
        {
          "name": "",
          "type": "uint256"
        }
      ],
      "payable": false,
      "stateMutability": "view",
      "type": "function"
    },
    {
      "constant": true,
      "inputs": [
        {
          "name": "_assetId",
          "type": "uint256"
        }
      ],
      "name": "getExistStatus",
      "outputs": [
        {
          "name": "general",
          "type": "bool"
        },
        {
          "name": "location",
          "type": "bool"
        },
        {
          "name": "asset",
          "type": "bool"
        }
      ],
      "payable": false,
      "stateMutability": "view",
      "type": "function"
    },
    {
      "constant": false,
      "inputs": [
        {
          "name": "_assetId",
          "type": "uint256"
        }
      ],
      "name": "getLastSmartMeterRead",
      "outputs": [
        {
          "name": "",
          "type": "uint256"
        }
      ],
      "payable": false,
      "stateMutability": "nonpayable",
      "type": "function"
    },
    {
      "constant": true,
      "inputs": [
        {
          "name": "_assetId",
          "type": "uint256"
        }
      ],
      "name": "getlastSmartMeterCO2OffsetRead",
      "outputs": [
        {
          "name": "",
          "type": "uint256"
        }
      ],
      "payable": false,
      "stateMutability": "view",
      "type": "function"
    },
    {
      "constant": false,
      "inputs": [
        {
          "name": "_assetId",
          "type": "uint256"
        }
      ],
      "name": "getLastSmartMeterReadDate",
      "outputs": [
        {
          "name": "",
          "type": "uint256"
        }
      ],
      "payable": false,
      "stateMutability": "nonpayable",
      "type": "function"
    },
    {
      "constant": true,
      "inputs": [
        {
          "name": "_assetId",
          "type": "uint256"
        }
      ],
      "name": "getLastSmartMeterReadFileHash",
      "outputs": [
        {
          "name": "",
          "type": "bytes32"
        }
      ],
      "payable": false,
      "stateMutability": "view",
      "type": "function"
    },
    {
      "constant": true,
      "inputs": [
        {
          "name": "_assetId",
          "type": "uint256"
        }
      ],
      "name": "getLastSmartMeterReadWh",
      "outputs": [
        {
          "name": "",
          "type": "uint256"
        }
      ],
      "payable": false,
      "stateMutability": "view",
      "type": "function"
    },
    {
      "constant": true,
      "inputs": [
        {
          "name": "_assetId",
          "type": "uint256"
        }
      ],
      "name": "getLocationCountry",
      "outputs": [
        {
          "name": "",
          "type": "bytes32"
        }
      ],
      "payable": false,
      "stateMutability": "view",
      "type": "function"
    },
    {
      "constant": true,
      "inputs": [
        {
          "name": "_assetId",
          "type": "uint256"
        }
      ],
      "name": "getLocationRegion",
      "outputs": [
        {
          "name": "",
          "type": "bytes32"
        }
      ],
      "payable": false,
      "stateMutability": "view",
      "type": "function"
    },
    {
      "constant": true,
      "inputs": [
        {
          "name": "_assetId",
          "type": "uint256"
        }
      ],
      "name": "getOperationalSince",
      "outputs": [
        {
          "name": "",
          "type": "uint256"
        }
      ],
      "payable": false,
      "stateMutability": "view",
      "type": "function"
    },
    {
      "constant": true,
      "inputs": [
        {
          "name": "_assetId",
          "type": "uint256"
        }
      ],
      "name": "getOwner",
      "outputs": [
        {
          "name": "",
          "type": "address"
        }
      ],
      "payable": false,
      "stateMutability": "view",
      "type": "function"
    },
    {
      "constant": true,
      "inputs": [
        {
          "name": "_assetId",
          "type": "uint256"
        }
      ],
      "name": "getSmartMeter",
      "outputs": [
        {
          "name": "",
          "type": "address"
        }
      ],
      "payable": false,
      "stateMutability": "view",
      "type": "function"
    }
  ],
  "bytecode": "0x6060604052341561000f57600080fd5b604051602080611fa88339810160405280805160008054600160a060020a03909216600160a060020a03199092169190911790555050611f54806100546000396000f3006060604052600436106102035763ffffffff7c01000000000000000000000000000000000000000000000000000000006000350416630216a1388114610208578063042157c214610240578063054dddde146102685780630ff85b94146102835780631314394d146102a557806331a5daf31461030257806333b6ff8214610315578063353fc6c31461033757806336016d711461034d578063437992c8146102405780634694cc43146103665780634f9d76151461037c57806350ddca551461039257806351f19298146103ab57806357c3bc60146103c45780637b5d3d3e146103dd5780637fd39247146103f3578063830be6e91461041557806384487d811461042e578063883583ce1461045d5780638c26afa6146104735780638da5cb5b146104895780639346e7c5146104b857806398766e8a146104ce5780639963aece146104e75780639a4b8c0d14610516578063a12df7501461052c578063a60b6fdc14610545578063a6f9dae11461055e578063ade1e9921461057d578063adfe021b146105d7578063ae51439c146105ed578063af55ac2814610600578063c41a360a14610619578063c53fb1a51461062f578063c6bc1a7614610659578063d91521d514610697578063e60a955d146106b0578063ed9c058b146106cb578063f1d03e93146106e1578063f7105c05146106f7578063fc56a99c1461070d575b600080fd5b341561021357600080fd5b61023e600435600160a060020a036024358116906044351660643560843560a435151560c435610726565b005b341561024b57600080fd5b61025660043561077c565b60405190815260200160405180910390f35b341561027357600080fd5b61023e60043560243515156107c2565b341561028e57600080fd5b61023e600435600160a060020a0360243516610813565b34156102b057600080fd5b6102bb600435610870565b60405197885260208801969096526040808801959095526060870193909352608086019190915260a085015260c084015260e0830191909152610100909101905180910390f35b341561030d57600080fd5b61025661094d565b341561032057600080fd5b61023e600435602435604435606435608435610c7b565b341561034257600080fd5b610256600435610d30565b341561035857600080fd5b61023e600435602435610d76565b341561037157600080fd5b610256600435610db9565b341561038757600080fd5b610256600435610dff565b341561039d57600080fd5b61023e600435602435610e45565b34156103b657600080fd5b61023e600435602435610e88565b34156103cf57600080fd5b61023e600435602435610ecb565b34156103e857600080fd5b610256600435610f0e565b34156103fe57600080fd5b61023e600435600160a060020a0360243516610f54565b341561042057600080fd5b61023e600435602435610fb4565b341561043957600080fd5b61023e60043560243560443560643560843560a43560c43560e43561010435610ff7565b341561046857600080fd5b6102bb60043561106d565b341561047e57600080fd5b610256600435611283565b341561049457600080fd5b61049c6112c9565b604051600160a060020a03909116815260200160405180910390f35b34156104c357600080fd5b6102566004356112d8565b34156104d957600080fd5b61023e60043560243561131e565b34156104f257600080fd5b61023e60043560243560443560643560843560a43560c43560e43561010435611361565b341561052157600080fd5b6102566004356113bb565b341561053757600080fd5b61023e600435602435611401565b341561055057600080fd5b61023e600435602435611444565b341561056957600080fd5b61023e600160a060020a0360043516611487565b341561058857600080fd5b610593600435611512565b604051600160a060020a03968716815294909516602085015260408085019390935260608401919091521515608083015260a082019290925260c001905180910390f35b34156105e257600080fd5b61025660043561170b565b34156105f857600080fd5b610256611751565b341561060b57600080fd5b61023e600435602435611775565b341561062457600080fd5b61049c6004356117b8565b341561063a57600080fd5b610645600435611805565b604051901515815260200160405180910390f35b341561066457600080fd5b61066f60043561184c565b6040519215158352901515602083015215156040808301919091526060909101905180910390f35b34156106a257600080fd5b61023e600435602435611a41565b34156106bb57600080fd5b61023e6004356024351515611a84565b34156106d657600080fd5b61049c600435611ad5565b34156106ec57600080fd5b610256600435611b1f565b341561070257600080fd5b610256600435611b65565b341561071857600080fd5b61023e600435602435611bab565b6000805433600160a060020a0390811691161461074257600080fd5b600180548990811061075057fe5b90600052602060002090601a0201905061077281600001888888888888611bee565b5050505050505050565b6000805433600160a060020a0390811691161461079857600080fd5b60018054839081106107a657fe5b90600052602060002090601a0201600001600301549050919050565b6000805433600160a060020a039081169116146107de57600080fd5b60018054849081106107ec57fe5b60009182526020909120601a90910201601901805460ff1916921515929092179091555050565b60005433600160a060020a0390811691161461082e57600080fd5b8060018381548110151561083e57fe5b60009182526020909120601a909102018054600160a060020a031916600160a060020a03929092169190911790555050565b600080600080600080600080610884611ced565b60005433600160a060020a0390811691161461089f57600080fd5b600180548b9081106108ad57fe5b90600052602060002090601a0201601001610120604051908101604090815282548252600183015460208301526002830154908201526003820154606082015260048201546080820152600582015460a0820152600682015460c0820152600782015460e082015260089091015460ff161515610100820152905061093181611c5f565b9850985098509850985098509850985050919395975091939597565b6000805433600160a060020a0390811691161461096957600080fd5b5060018054908180820161097d8382611d39565b91600052602060002090601a02016000608060405190810160405280600261010060405190810160409081528254600160a060020a03908116835260018401541660208084019190915260028401548284015260038401546060840152600484015460ff90811615156080850152600585015460a0850152600685015460c0850152600790940154909316151560e0830152908352910190601390610100905190810160409081528254825260018301546020808401919091526002840154828401526003840154606084015260048401546080840152600584015460a0840152600684015460c084015260079093015460e0830152908352910190600a90610120905190810160409081528254825260018301546020808401919091526002840154918301919091526003830154606083015260048301546080830152600583015460a0830152600683015460c0830152600783015460e083015260089092015460ff1615156101008201528252600091015291905081518181518154600160a060020a031916600160a060020a03919091161781556020820151600182018054600160a060020a031916600160a060020a03929092169190911790556040820151816002015560608201518160030155608082015160048201805460ff191691151591909117905560a0820151600582015560c0820151816006015560e0820151600791909101805460ff191691151591909117905550602082015160088201815181556020820151816001015560408201518160020155606082015181600301556080820151816004015560a0820151816005015560c0820151600682015560e082015160079091015550604082015160108201815181556020820151600182015560408201516002820155606082015160038201556080820151600482015560a0820151600582015560c0820151600682015560e08201516007820155610100820151600891909101805460ff1916911515919091179055506060820151601991909101805460ff19169115159190911790555090919050565b60005433600160a060020a03908116911614610c9657600080fd5b82600186815481101515610ca657fe5b60009182526020909120600b601a9092020101556001805485919087908110610ccb57fe5b600091825260209091206003601a9092020101556001805483919087908110610cf057fe5b600091825260209091206005601a9092020101556001805482919087908110610d1557fe5b600091825260209091206006601a9092020101555050505050565b6000805433600160a060020a03908116911614610d4c57600080fd5b6001805483908110610d5a57fe5b90600052602060002090601a0201600801600201549050919050565b60005433600160a060020a03908116911614610d9157600080fd5b80600183815481101515610da157fe5b600091825260209091206006601a9092020101555050565b6000805433600160a060020a03908116911614610dd557600080fd5b6001805483908110610de357fe5b90600052602060002090601a0201600001600201549050919050565b6000805433600160a060020a03908116911614610e1b57600080fd5b6001805483908110610e2957fe5b90600052602060002090601a0201600801600301549050919050565b60005433600160a060020a03908116911614610e6057600080fd5b80600183815481101515610e7057fe5b60009182526020909120600c601a9092020101555050565b60005433600160a060020a03908116911614610ea357600080fd5b80600183815481101515610eb357fe5b600091825260209091206002601a9092020101555050565b60005433600160a060020a03908116911614610ee657600080fd5b80600183815481101515610ef657fe5b600091825260209091206003601a9092020101555050565b6000805433600160a060020a03908116911614610f2a57600080fd5b6001805483908110610f3857fe5b90600052602060002090601a0201600801600401549050919050565b60005433600160a060020a03908116911614610f6f57600080fd5b80600183815481101515610f7f57fe5b60009182526020909120601a909102016001018054600160a060020a031916600160a060020a03929092169190911790555050565b60005433600160a060020a03908116911614610fcf57600080fd5b80600183815481101515610fdf57fe5b600091825260209091206009601a9092020101555050565b6000805433600160a060020a0390811691161461101357600080fd5b600180548b90811061102157fe5b60009182526020909120601a90910201600881019990995550600b880196909655600c870194909455600a8601919091556009850191909155600d840155600e830155600f9091015550565b600080600080600080600080611081611d6a565b611089611da6565b60005433600160a060020a039081169116146110a457600080fd5b600180548c9081106110b257fe5b90600052602060002090601a0201608060405190810160405290816000820161010060405190810160409081528254600160a060020a03908116835260018401541660208084019190915260028401548284015260038401546060840152600484015460ff90811615156080850152600585015460a0850152600685015460c0850152600790940154909316151560e08301529083529101906008830190610100905190810160409081528254825260018301546020808401919091526002840154828401526003840154606084015260048401546080840152600584015460a0840152600684015460c084015260079093015460e08301529083529101906010830190610120905190810160409081528254825260018301546020808401919091526002840154918301919091526003830154606083015260048301546080830152600583015460a0830152600683015460c0830152600783015460e083015260089092015460ff908116151561010083015290835260199390930154909216151590820152909250820151905080519950806020015198508060400151975080606001519650806080015195508060a0015194508060c0015193508060e0015192505050919395975091939597565b6000805433600160a060020a0390811691161461129f57600080fd5b60018054839081106112ad57fe5b90600052602060002090601a0201600001600601549050919050565b600054600160a060020a031681565b6000805433600160a060020a039081169116146112f457600080fd5b600180548390811061130257fe5b90600052602060002090601a0201601001600101549050919050565b60005433600160a060020a0390811691161461133957600080fd5b8060018381548110151561134957fe5b60009182526020909120600a601a9092020101555050565b6000805433600160a060020a0390811691161461137d57600080fd5b600180548b90811061138b57fe5b90600052602060002090601a020160100190506113af818a8a8a8a8a8a8a8a611ca8565b50505050505050505050565b6000805433600160a060020a039081169116146113d757600080fd5b60018054839081106113e557fe5b90600052602060002090601a0201600801600001549050919050565b60005433600160a060020a0390811691161461141c57600080fd5b8060018381548110151561142c57fe5b600091825260209091206011601a9092020101555050565b60005433600160a060020a0390811691161461145f57600080fd5b8060018381548110151561146f57fe5b600091825260209091206005601a9092020101555050565b60005433600160a060020a039081169116146114a257600080fd5b600160a060020a03811615156114b757600080fd5b60008054600160a060020a031916600160a060020a0383161790557f95fd54179c11867fb083dd94347ea50f144dd4cfd7612b7bca169f162824af1681604051600160a060020a03909116815260200160405180910390a150565b600080600080600080611523611d6a565b60005433600160a060020a0390811691161461153e57600080fd5b600180548990811061154c57fe5b90600052602060002090601a0201608060405190810160405290816000820161010060405190810160409081528254600160a060020a03908116835260018401541660208084019190915260028401548284015260038401546060840152600484015460ff90811615156080850152600585015460a0850152600685015460c0850152600790940154909316151560e08301529083529101906008830190610100905190810160409081528254825260018301546020808401919091526002840154828401526003840154606084015260048401546080840152600584015460a0840152600684015460c084015260079093015460e08301529083529101906010830190610120905190810160409081528254825260018301546020808401919091526002840154918301919091526003830154606083015260048301546080830152600583015460a0830152600683015460c0830152600783015460e083015260089092015460ff9081161515610100830152908352601993909301549092161515910152905080515196508051602001519550805160400151945080516060015193508051608001519250805160a0015191505091939550919395565b6000805433600160a060020a0390811691161461172757600080fd5b600180548390811061173557fe5b90600052602060002090601a0201600801600101549050919050565b6000805433600160a060020a0390811691161461176d57600080fd5b506001545b90565b60005433600160a060020a0390811691161461179057600080fd5b806001838154811015156117a057fe5b600091825260209091206010601a9092020101555050565b6000805433600160a060020a039081169116146117d457600080fd5b60018054839081106117e257fe5b60009182526020909120601a9091020160010154600160a060020a031692915050565b6000805433600160a060020a0390811691161461182157600080fd5b600180548390811061182f57fe5b60009182526020909120601a909102016004015460ff1692915050565b6000806000611859611d6a565b60005433600160a060020a0390811691161461187457600080fd5b600180548690811061188257fe5b90600052602060002090601a0201608060405190810160405290816000820161010060405190810160409081528254600160a060020a03908116835260018401541660208084019190915260028401548284015260038401546060840152600484015460ff90811615156080850152600585015460a0850152600685015460c0850152600790940154909316151560e08301529083529101906008830190610100905190810160409081528254825260018301546020808401919091526002840154828401526003840154606084015260048401546080840152600584015460a0840152600684015460c084015260079093015460e08301529083529101906010830190610120905190810160409081528254825260018301546020808401919091526002840154918301919091526003830154606083015260048301546080830152600583015460a0830152600683015460c0830152600783015460e083015260089092015460ff90811615156101008301529083526019939093015490921615159101529050805160e001518015611a2457506000816020015160200151115b816040015161010001518260600151935093509350509193909250565b60005433600160a060020a03908116911614611a5c57600080fd5b80600183815481101515611a6c57fe5b600091825260209091206008601a9092020101555050565b60005433600160a060020a03908116911614611a9f57600080fd5b80600183815481101515611aaf57fe5b60009182526020909120601a90910201600401805460ff19169115159190911790555050565b6000805433600160a060020a03908116911614611af157600080fd5b6001805483908110611aff57fe5b60009182526020909120601a9091020154600160a060020a031692915050565b6000805433600160a060020a03908116911614611b3b57600080fd5b6001805483908110611b4957fe5b90600052602060002090601a0201601001600001549050919050565b6000805433600160a060020a03908116911614611b8157600080fd5b6001805483908110611b8f57fe5b90600052602060002090601a0201600001600501549050919050565b60005433600160a060020a03908116911614611bc657600080fd5b80600183815481101515611bd657fe5b60009182526020909120600b601a9092020101555050565b8654600160a060020a03968716600160a060020a0319918216178855600180890180549790981696909116959095179095556002860192909255600385015560048401805491151560ff19928316179055600584019290925560006006840155600790920180549091169091179055565b60008080808080808088519750886020015196508860800151955088604001519450886060015193508860a0015192508860c0015191508860e001519050919395975091939597565b9688556001808901969096556004880194909455600287019290925560038601556005850155600684015560078301919091556008909101805460ff19169091179055565b6101206040519081016040908152600080835260208301819052908201819052606082018190526080820181905260a0820181905260c0820181905260e0820181905261010082015290565b815481835581811511611d6557601a0281601a028360005260206000209182019101611d659190611df2565b505050565b61034060405190810160405280611d7f611ee4565b8152602001611d8c611da6565b8152602001611d99611ced565b8152600060209091015290565b6101006040519081016040528060008152602001600081526020016000815260200160008152602001600081526020016000815260200160008019168152602001600080191681525090565b61177291905b80821115611ee0578054600160a060020a0319908116825560018201805490911690556000600282018190556003820181905560048201805460ff199081169091556005830182905560068301829055600783018054821690556008830182905560098301829055600a8301829055600b8301829055600c8301829055600d8301829055600e8301829055600f8301829055601083018290556011830182905560128301829055601383018290556014830182905560158301829055601683018290556017830191909155601882018054821690556019820180549091169055601a01611df8565b5090565b6101006040519081016040908152600080835260208301819052908201819052606082018190526080820181905260a0820181905260c0820181905260e0820152905600a165627a7a723058201443558b996ff01727c1074ed3854ed52183e6dcf29e4ef745b0c9f3de7a06070029",
  "source": "// Copyright 2018 Energy Web Foundation\n//\n// This file is part of the Origin Application brought to you by the Energy Web Foundation,\n// a global non-profit organization focused on accelerating blockchain technology across the energy sector, \n// incorporated in Zug, Switzerland.\n//\n// The Origin Application is free software: you can redistribute it and/or modify\n// it under the terms of the GNU General Public License as published by\n// the Free Software Foundation, either version 3 of the License, or\n// (at your option) any later version.\n// This is distributed in the hope that it will be useful,\n// but WITHOUT ANY WARRANTY and without an implied warranty of\n// MERCHANTABILITY or FITNESS FOR A PARTICULAR PURPOSE.  See the\n// GNU General Public License for more details, at <http://www.gnu.org/licenses/>.\n//\n// @authors: slock.it GmbH, Heiko Burkhardt, heiko.burkhardt@slock.it\n\npragma solidity ^0.4.18;\n\nimport \"./LocationDefinition.sol\";\nimport \"./AssetGeneralDefinition.sol\";\nimport \"./AssetDbInterface.sol\";\n\n/// @title The Database contract for the Asset Registration\n/// @notice This contract only provides getter and setter methods\ncontract AssetProducingRegistryDB is AssetGeneralDefinition, AssetDbInterface {\n\n    struct ProducingProperties {\n        uint assetType;\n        uint capacityWh;\n        uint certificatesCreatedForWh;\n        uint lastSmartMeterCO2OffsetRead;\n        uint cO2UsedForCertificate;\n        uint registryCompliance;\n        bytes32 otherGreenAttributes;\n        bytes32 typeOfPublicSupport;\n    }\n\n    struct Asset {\n        AssetGeneralDefinition.GeneralInformation general;\n        ProducingProperties producingProps;\n        LocationDefinition.Location location;\n        bool exists;\n    }\n\n\n    /// @notice An array containing all registerd assets\n    Asset[] private assets;\n\n    /// @dev empty structs for initializing, used to avoid compile warnings\n    AssetGeneralDefinition.GeneralInformation generalEmpty;\n    LocationDefinition.Location locationEmpty;\n    ProducingProperties producingEmpty;\n\n    /// @notice Constructor\n    /// @param _owner The owner of the contract\n    function AssetProducingRegistryDB(address _owner) \n        public\n        Owned(_owner) \n    {\n\n    } \n\n    /// @notice function to create a new empty asset\n    /// @return returns the array-position and thus the index / identifier of this new asset\n    function createAsset() \n        external\n        onlyOwner\n        returns (uint _assetId)\n    {\n        _assetId = assets.length;\n        assets.push(AssetProducingRegistryDB.Asset({\n            general: generalEmpty,\n            producingProps: producingEmpty,\n            location: locationEmpty,\n            exists: false\n        }));   \n    }\n\n    /// @notice function to set the general information for an asset\n    /// @param _assetId the ID belonging to the asset\n    /// @param _smartMeter the smart-meter address\n    /// @param _owner the owner of the asset\n    /// @param _operationalSince timestamp of when the asset started producing energy\n    /// @param _lastSmartMeterReadWh the last reading of the smartmeter\n    /// @param _active active-flag\n    /// @param _lastSmartMeterReadFileHash the last filehash of the smartmeter-readings\n    function initGeneral(       \n        uint _assetId, \n        address _smartMeter,\n        address _owner,\n        uint _operationalSince,\n        uint _lastSmartMeterReadWh,\n        bool _active,\n        bytes32 _lastSmartMeterReadFileHash\n    ) \n        onlyOwner\n        external\n    {\n        Asset storage a = assets[_assetId];\n        setGeneralInformationInternal(a.general, _smartMeter, _owner, _operationalSince,_lastSmartMeterReadWh, _active, _lastSmartMeterReadFileHash);\n    }\n\n    /// @notice function to set the producing-properties of an asset\n    /// @param _assetId the ID belonging to the asset\n    /// @param _assetType the assetType of the asset \n    /// @param _lastSmartMeterCO2OffsetRead the last CO2-Offsetreading of the smartmeter\n    /// @param _cO2UsedForCertificate the amount of CO2 used for certificates already\n    /// @param _capacityWh the capacity of the asset in Wh\n    /// @param _certificatesCreatedForWh the amount of Wh already certificated\n    /// @param _registryCompliance the registry-compliance\n    /// @param _otherGreenAttributes other green attributes\n    /// @param _typeOfPublicSupport type of public support\n    function initProducing(\n        uint _assetId,\n        uint _assetType, \n        uint _lastSmartMeterCO2OffsetRead,\n        uint _cO2UsedForCertificate,\n        uint _capacityWh,\n        uint _certificatesCreatedForWh,\n        uint _registryCompliance,\n        bytes32 _otherGreenAttributes,\n        bytes32 _typeOfPublicSupport\n    )\n        onlyOwner\n        external\n    {\n        Asset storage a = assets[_assetId];\n        a.producingProps.assetType = _assetType;\n        a.producingProps.lastSmartMeterCO2OffsetRead = _lastSmartMeterCO2OffsetRead;\n        a.producingProps.cO2UsedForCertificate = _cO2UsedForCertificate;\n        a.producingProps.certificatesCreatedForWh = _certificatesCreatedForWh;\n        a.producingProps.capacityWh = _capacityWh;\n        a.producingProps.registryCompliance = _registryCompliance;       \n        a.producingProps.otherGreenAttributes = _otherGreenAttributes;\n        a.producingProps.typeOfPublicSupport = _typeOfPublicSupport; \n    }\n\n    /// @notice function to set all the location Informations for an asset\n    /// @param _assetId The identifier / index of an asset\n    /// @param _country The country where the asset is located\n    /// @param _region The region / state where the asset is located\n    /// @param _zip The zip-code of the region where the asset is located\n    /// @param _city The city where the asset is located\n    /// @param _street The streetname where the asset is located\n    /// @param _houseNumber the housenumber where the asset is located\n    /// @param _gpsLatitude The gps-latitude\n    /// @param _gpsLongitude The gps-longitude\n    function initLocation(\n        uint _assetId,\n        bytes32 _country,\n        bytes32 _region,\n        bytes32 _zip,\n        bytes32 _city,\n        bytes32 _street,\n        bytes32 _houseNumber,\n        bytes32 _gpsLatitude,\n        bytes32 _gpsLongitude\n    )\n        onlyOwner\n        external\n    {\n        LocationDefinition.Location storage loc = assets[_assetId].location;\n        initLocationInternal(loc,_country,_region,_zip,_city,_street,_houseNumber,_gpsLatitude,_gpsLongitude);\n    }\n\n    /// @notice Sets if an entry in the asset registry is active\n    /// @param _assetId The id belonging to an entry in the asset registry\n    /// @param _active true if active\n    function setActive(uint _assetId, bool _active) \n        onlyOwner\n        external\n    {\n        assets[_assetId].general.active = _active;\n    }\n\n    /// @notice function to set the existing status of an asset\n    /// @param _assetId The index position / identifier of an asset\n    /// @param _exist flag if the asset should exist\n    function setAssetExistStatus(uint _assetId, bool _exist)\n        external\n        onlyOwner\n    {\n        Asset storage a = assets[_assetId];\n        a.exists = _exist;\n    }\n\n    /// @notice Sets the fuel type belonging to an entry in the asset registry\n    /// @param _assetId The id belonging to an entry in the asset registry\n    /// @param _assetType The new fuel type\n    function setAssetType(uint _assetId, uint _assetType) \n        onlyOwner\n        external\n    {\n        assets[_assetId].producingProps.assetType = _assetType;\n    }\n\n    /// @notice Sets the capacity in Wh of an entry in the asset registry\n    /// @param _assetId The id belonging to an entry in the asset registry\n    /// @param _capacityWh The capacity in Wh\n    function setCapacityWh(uint _assetId, uint _capacityWh) \n        onlyOwner\n        external\n    {\n        assets[_assetId].producingProps.capacityWh = _capacityWh;\n    }\n\n    /// @notice Sets amount of Wh used to issue certificates belonging to an entry in the asset registry\n    /// @param _assetId The id belonging to an entry in the asset registry\n    /// @param _certificatesCreatedForWh The amount of Wh used to issue certificates\n    function setCertificatesCreatedForWh(uint _assetId, uint _certificatesCreatedForWh) \n        onlyOwner\n        external\n    {\n        assets[_assetId].producingProps.certificatesCreatedForWh = _certificatesCreatedForWh;\n    }\n\n    /// @notice Sets amount of saved CO2 used to issue certificates belonging to an entry in the asset registry\n    /// @param _assetId The id belonging to an entry in the asset registry\n    /// @param _used The amount of saved CO2 used to issue certificates\n    function setCO2UsedForCertificate(uint _assetId, uint _used) \n        onlyOwner \n        external \n    {\n        assets[_assetId].producingProps.cO2UsedForCertificate = _used;\n    }\n    \n    /// @notice Sets the last smart meter read in saved CO2 of an entry in the asset registry\n    /// @param _assetId The id belonging to an entry in the asset registry\n    /// @param _lastCO2OffsetReading The new amount of saved CO2\n    function setLastCO2OffsetReading(uint _assetId, uint _lastCO2OffsetReading)\n        onlyOwner\n        external\n    {\n        assets[_assetId].producingProps.lastSmartMeterCO2OffsetRead = _lastCO2OffsetReading;\n    }\n\n    /// @notice Sets the timestamp of the last smartmeter-reading\n    /// @param _assetId the id belonging to the asset \n    /// @param _timestamp the new timestamp of reading\n    function setLastSmartMeterReadDate(uint _assetId, uint _timestamp)\n        onlyOwner\n        external\n    {\n        assets[_assetId].general.lastMeterReadReceived = _timestamp;\n    }\n\n    /// @notice Sets last meter read file hash\n    /// @param _assetId The id belonging to an entry in the asset registry\n    /// @param _lastSmartMeterReadFileHash Last meter read file hash\n    function setLastSmartMeterReadFileHash(uint _assetId, bytes32 _lastSmartMeterReadFileHash)\n        onlyOwner\n        external\n    {\n        assets[_assetId].general.lastSmartMeterReadFileHash = _lastSmartMeterReadFileHash;\n    }\n\n    /// @notice Sets the last smart meter read in Wh of an entry in the asset registry\n    /// @param _assetId The id belonging to an entry in the asset registry\n    /// @param _lastSmartMeterReadWh The smart meter read in Wh\n    function setLastSmartMeterReadWh(uint _assetId, uint _lastSmartMeterReadWh) \n        onlyOwner\n        external\n    {\n        assets[_assetId].general.lastSmartMeterReadWh = _lastSmartMeterReadWh;\n    }\n\n    /// @notice Sets the location-country of an asset\n    /// @param _assetId the id belonging to an entry in the asset registry\n    /// @param _country the new country\n    function setLocationCountry(uint _assetId, bytes32 _country)\n        onlyOwner\n        external\n    {\n        assets[_assetId].location.country = _country;\n    }\n\n    /// @notice Sets the location-region of an asset\n    /// @param _assetId the id belonging to an entry in the asset registry\n    /// @param _region the new region\n    function setLocationRegion(uint _assetId, bytes32 _region)\n        onlyOwner\n        external\n    {\n        assets[_assetId].location.region = _region;\n    }\n\n    /// @notice Sets multiple information of a meterreading\n    /// @param _assetId The id belonging to an entry in the asset registry\n    /// @param _newMeterRead the new meterreading of the smart meter\n    /// @param _CO2OffsetMeterRead the new CO2-offset reading\n    /// @param _lastSmartMeterReadFileHash the filehash belonging to that reading\n    /// @param _timestamp the timestamp of that reading\n    function setSmartMeterReadData(\n        uint _assetId, \n        uint _newMeterRead, \n        uint _CO2OffsetMeterRead, \n        bytes32 _lastSmartMeterReadFileHash, \n        uint _timestamp\n    )\n        onlyOwner\n        external \n    {\n        assets[_assetId].producingProps.lastSmartMeterCO2OffsetRead = _CO2OffsetMeterRead;\n        assets[_assetId].general.lastSmartMeterReadWh = _newMeterRead;\n        assets[_assetId].general.lastSmartMeterReadFileHash = _lastSmartMeterReadFileHash;\n        assets[_assetId].general.lastMeterReadReceived = _timestamp;\n    }\n    \n    /// @notice Sets the operational since field of an entry in the asset registry\n    /// @param _assetId The id belonging to an entry in the asset registry\n    /// @param _operationalSince The timestamp since the asset is operational\n    function setOperationalSince(uint _assetId, uint _operationalSince) \n        onlyOwner\n        external\n    {\n        assets[_assetId].general.operationalSince = _operationalSince;\n    }\n\n    /// @notice Sets the owner of an entry in the asset registry\n    /// @param _assetId The id belonging to an entry in the asset registry\n    /// @param _owner The new owner\n    function setOwner(uint _assetId, address _owner) \n        onlyOwner\n        external\n    {\n        assets[_assetId].general.owner = _owner;\n    }\n\n    /// @notice Sets the smart meter address belonging to an entry in the asset registry\n    /// @param _assetId The id belonging to an entry in the asset registry\n    /// @param _smartMeter The new smart meter address\n    function setSmartMeter(uint _assetId, address _smartMeter) \n        onlyOwner\n        external\n    {\n        assets[_assetId].general.smartMeter = _smartMeter;\n    }\n    \n    /// @notice Gets if an entry in the asset registry is active\n    /// @param _assetId The id belonging to an entry in the asset registry\n    /// @return true if asset is active\n    function getActive(uint _assetId) \n        onlyOwner\n        external\n        view\n        returns(bool)\n    {\n        return assets[_assetId].general.active;\n    }\n\n    /// @notice Returns the general information of an asset\n    /// @param _assetId the id belonging to an entry in the asset registry\n    /// @return smartmeter-address, owner-address, operationalSince, lastSmartMeterReading in Wh, active flag and the filehash of the last reading\n    function getAssetGeneral(uint _assetId)\n        onlyOwner\n        external\n        view \n        returns\n        (\n            address _smartMeter,\n            address _owner,\n            uint _operationalSince,\n            uint _lastSmartMeterReadWh,\n            bool _active,\n            bytes32 _lastSmartMeterReadFileHash\n        )\n    {\n        Asset memory asset = assets[_assetId];\n        _smartMeter = asset.general.smartMeter;\n        _owner = asset.general.owner;\n        _operationalSince = asset.general.operationalSince;\n        _lastSmartMeterReadWh = asset.general.lastSmartMeterReadWh;\n        _active = asset.general.active;\n        _lastSmartMeterReadFileHash = asset.general.lastSmartMeterReadFileHash;\n    }\n\n    /// @notice function to get the amount of assets\n    /// @return amount of assets\n    function getAssetListLength()\n        onlyOwner\n        external\n        view\n        returns (uint)\n    {\n        return assets.length;\n    }\n\n    /// @notice function to get the informations about the location of a struct\n    /// @param _assetId The id belonging to an entry in the asset registry\n    /// @return country, region, zip, city, street, houseNumber, gpsLatitude, gpsLongitude\n    function getAssetLocation(uint _assetId)\n        onlyOwner\n        external\n        view\n        returns(\n            bytes32 country,\n            bytes32 region,\n            bytes32 zip,\n            bytes32 city,\n            bytes32 street,\n            bytes32 houseNumber,\n            bytes32 gpsLatitude,\n            bytes32 gpsLongitude\n        )\n    {\n        LocationDefinition.Location memory loc = assets[_assetId].location;\n        return getAssetLocationInternal(loc);\n\n    }\n\n    /// @notice function to get the producing-properties of an asset\n    /// @param _assetId the id belonging to the asset\n    /// @return returns the producing-properties of an asset\n    function getAssetProducingProperties(uint _assetId)\n        onlyOwner\n        external\n        view\n        returns (\n            uint assetType,\n            uint capacityWh,\n            uint certificatesCreatedForWh,\n            uint lastSmartMeterCO2OffsetRead,\n            uint cO2UsedForCertificate,\n            uint registryCompliance,\n            bytes32 otherGreenAttributes,\n            bytes32 typeOfPublicSupport\n        )\n    {\n        Asset memory a = assets[_assetId];\n        ProducingProperties memory pp = a.producingProps;\n\n        assetType = pp.assetType;\n        capacityWh = pp.capacityWh;\n        certificatesCreatedForWh = pp.certificatesCreatedForWh;\n        lastSmartMeterCO2OffsetRead = pp.lastSmartMeterCO2OffsetRead;\n        cO2UsedForCertificate = pp.cO2UsedForCertificate;\n        registryCompliance = pp.registryCompliance;\n        otherGreenAttributes = pp.otherGreenAttributes;\n        typeOfPublicSupport = pp.typeOfPublicSupport;\n    }\n\n\n    /// @notice Gets the asset type belonging to an entry in the asset registry\n    /// @param _assetId The id belonging to an entry in the asset registry\n    /// @return the type of asset\n    function getAssetType(uint _assetId)\n        onlyOwner\n        external\n        view\n        returns(uint)\n    {\n        return assets[_assetId].producingProps.assetType;\n    }\n\n    /// @notice Gets the capacity in Wh of an entry in the asset registry\n    /// @param _assetId The id belonging to an entry in the asset registry\n    /// @return the capacity in Wh\n    function getCapacityWh(uint _assetId)\n        onlyOwner\n        external\n        view\n        returns(uint)\n    {\n        return assets[_assetId].producingProps.capacityWh;\n    }\n\n    /// @notice Gets amount of Wh used to issue certificates belonging to an entry in the asset registry\n    /// @param _assetId The id belonging to an entry in the asset registry\n    /// @return the amount of Wh used to issue certificates\n    function getCertificatesCreatedForWh(uint _assetId)\n        onlyOwner\n        external\n        view\n        returns(uint)\n    {\n        return assets[_assetId].producingProps.certificatesCreatedForWh;\n    }\n\n\n    /// @notice Gets the amount of already used CO2-offset for creating certificates\n    /// @param _assetId The id belonging to an entry in the asset registry\n    /// @return the aount of already used CO2-offset\n    function getCo2UsedForCertificate(uint _assetId) \n        onlyOwner\n        external \n        view \n        returns (uint) \n    {\n        return assets[_assetId].producingProps.cO2UsedForCertificate;\n    }\n\n    /// @notice function the retrieve the existing status of the general information, the location information and the asset itself\n    /// @param _assetId The index position / identifier of the asset\n    /// @return existing status of the general informaiton, existing status of the location informaiton and where the asset-structs exists\n    function getExistStatus(uint _assetId)\n        onlyOwner\n        external \n        view\n        returns (bool general, bool location, bool asset)\n    {\n        Asset memory a = assets[_assetId];\n        return(a.general.exists && a.producingProps.capacityWh > 0, a.location.exists, a.exists);\n    }\n\n    /// @notice function to get the last smartmeter-reading of an asset\n    /// @param _assetId the id belonging to the asset\n    /// @return the last smartmeter-reading\n    function getLastSmartMeterRead(uint _assetId) \n        onlyOwner\n        external \n        returns (uint)\n    {\n        return assets[_assetId].general.lastSmartMeterReadWh;\n    }\n\n    /// @notice Gets the last CO2-offset read of an entry in the asset registry\n    /// @param _assetId The id belonging to an entry in the asset registry\n    /// @return the last logged CO2-offset read tru\n    function getlastSmartMeterCO2OffsetRead(uint _assetId)\n        onlyOwner\n        external \n        view \n        returns (uint)\n    {\n        return assets[_assetId].producingProps.lastSmartMeterCO2OffsetRead;\n    }\n    \n    /// @notice gets the timestamp of the last reading\n    /// @param _assetId the Id belonging to an entry in the asset registry\n    /// @return the timestamp of the last reading\n    function getLastSmartMeterReadDate(uint _assetId)\n        onlyOwner\n        external\n        returns(uint)\n    {\n        return assets[_assetId].general.lastMeterReadReceived;\n    }\n\n    /// @notice Gets last smart merter read file hash\n    /// @param _assetId The id belonging to an entry in the asset registry\n    /// @return last smart merter read file hash\n    function getLastSmartMeterReadFileHash(uint _assetId)\n        onlyOwner\n        external\n        view\n        returns(bytes32)\n    {\n        return assets[_assetId].general.lastSmartMeterReadFileHash;\n    }\n    \n    /// @notice Gets the last smart merter read in Wh of an entry in the asset registry\n    /// @param _assetId The id belonging to an entry in the asset registry\n    /// @return the last loged smart meter read in Wh\n    function getLastSmartMeterReadWh(uint _assetId)\n        onlyOwner\n        external\n        view\n        returns(uint)\n    {\n        return assets[_assetId].general.lastSmartMeterReadWh;\n    }\n\n    /// @notice Gets the location country of an asset\n    /// @param _assetId the id belonging to an entry in the asset registry\n    /// @return country where the asset is based\n    function getLocationCountry(uint _assetId)\n        onlyOwner\n        external\n        view \n        returns(bytes32)\n    {\n        return assets[_assetId].location.country;\n    }\n\n    /// @notice Gets the location region of an asset\n    /// @param _assetId the id belonging to an entry in the asset registry\n    /// @return region of the country where the asset is based\n    function getLocationRegion(uint _assetId)\n        onlyOwner\n        external\n        view\n        returns(bytes32)\n    {\n        return assets[_assetId].location.region;\n    }\n\n    /// @notice Gets the operational since field of an entry in the asset registry\n    /// @param _assetId The id belonging to an entry in the asset registry\n    function getOperationalSince(uint _assetId)\n        external\n        onlyOwner\n        view\n        returns(uint)\n    {\n        return assets[_assetId].general.operationalSince;\n    }\n\n    /// @notice Gets the owner of an entry in the asset registry\n    /// @param _assetId The id belonging to an entry in the asset registry\n    /// @return the owner address\n    function getOwner(uint _assetId) \n        external\n        onlyOwner\n        view\n        returns(address)\n    {\n        return assets[_assetId].general.owner;\n    }\n\n    /// @notice Gets the smart meter address belonging to an entry in the asset registry\n    /// @param _assetId The id belonging to an entry in the asset registry\n    /// @return the smart meter address\n    function getSmartMeter(uint _assetId)\n        external\n        onlyOwner\n        view\n        returns(address)\n    {\n        return assets[_assetId].general.smartMeter;\n    }\n    \n}",
  "sourcePath": "/Users/mkuechler/ewf/ewf-pushrepo/certificate_of_origin/contracts/AssetProducingRegistryDB.sol",
  "compiler": {
    "name": "solc",
    "version": "0.4.19+commit.c4cbbb05.Emscripten.clang"
  },
  "schemaVersion": "2.0.0",
  "updatedAt": "2018-07-31T09:06:35.526Z"
}