{
  "contractName": "AssetConsumingRegistryDB",
  "abi": [
    {
      "constant": true,
      "inputs": [],
      "name": "owner",
      "outputs": [
        {
          "name": "",
          "type": "address"
        }
      ],
      "payable": false,
      "stateMutability": "view",
      "type": "function"
    },
    {
      "constant": false,
      "inputs": [
        {
          "name": "_newOwner",
          "type": "address"
        }
      ],
      "name": "changeOwner",
      "outputs": [],
      "payable": false,
      "stateMutability": "nonpayable",
      "type": "function"
    },
    {
      "inputs": [
        {
          "name": "_owner",
          "type": "address"
        }
      ],
      "payable": false,
      "stateMutability": "nonpayable",
      "type": "constructor"
    },
    {
      "anonymous": false,
      "inputs": [
        {
          "indexed": false,
          "name": "_newOwner",
          "type": "address"
        }
      ],
      "name": "LogChangeOwner",
      "type": "event"
    },
    {
      "constant": false,
      "inputs": [],
      "name": "createAsset",
      "outputs": [
        {
          "name": "_assetId",
          "type": "uint256"
        }
      ],
      "payable": false,
      "stateMutability": "nonpayable",
      "type": "function"
    },
    {
      "constant": false,
      "inputs": [
        {
          "name": "_assetId",
          "type": "uint256"
        },
        {
          "name": "_smartMeter",
          "type": "address"
        },
        {
          "name": "_owner",
          "type": "address"
        },
        {
          "name": "_operationalSince",
          "type": "uint256"
        },
        {
          "name": "_capacityWh",
          "type": "uint256"
        },
        {
          "name": "_maxCapacitySet",
          "type": "bool"
        },
        {
          "name": "_lastSmartMeterReadWh",
          "type": "uint256"
        },
        {
          "name": "_certificatesUsedForWh",
          "type": "uint256"
        },
        {
          "name": "_active",
          "type": "bool"
        },
        {
          "name": "_lastSmartMeterReadFileHash",
          "type": "bytes32"
        }
      ],
      "name": "initGeneral",
      "outputs": [],
      "payable": false,
      "stateMutability": "nonpayable",
      "type": "function"
    },
    {
      "constant": false,
      "inputs": [
        {
          "name": "_assetId",
          "type": "uint256"
        },
        {
          "name": "_country",
          "type": "bytes32"
        },
        {
          "name": "_region",
          "type": "bytes32"
        },
        {
          "name": "_zip",
          "type": "bytes32"
        },
        {
          "name": "_city",
          "type": "bytes32"
        },
        {
          "name": "_street",
          "type": "bytes32"
        },
        {
          "name": "_houseNumber",
          "type": "bytes32"
        },
        {
          "name": "_gpsLatitude",
          "type": "bytes32"
        },
        {
          "name": "_gpsLongitude",
          "type": "bytes32"
        }
      ],
      "name": "initLocation",
      "outputs": [],
      "payable": false,
      "stateMutability": "nonpayable",
      "type": "function"
    },
    {
      "constant": false,
      "inputs": [
        {
          "name": "_assetId",
          "type": "uint256"
        },
        {
          "name": "_active",
          "type": "bool"
        }
      ],
      "name": "setActive",
      "outputs": [],
      "payable": false,
      "stateMutability": "nonpayable",
      "type": "function"
    },
    {
      "constant": false,
      "inputs": [
        {
          "name": "_assetId",
          "type": "uint256"
        },
        {
          "name": "_exist",
          "type": "bool"
        }
      ],
      "name": "setAssetExistStatus",
      "outputs": [],
      "payable": false,
      "stateMutability": "nonpayable",
      "type": "function"
    },
    {
      "constant": false,
      "inputs": [
        {
          "name": "_assetId",
          "type": "uint256"
        },
        {
          "name": "_capacityWh",
          "type": "uint256"
        }
      ],
      "name": "setCapacityWh",
      "outputs": [],
      "payable": false,
      "stateMutability": "nonpayable",
      "type": "function"
    },
    {
      "constant": false,
      "inputs": [
        {
          "name": "_assetId",
          "type": "uint256"
        },
        {
          "name": "_certificatesUsedForWh",
          "type": "uint256"
        }
      ],
      "name": "setCertificatesUsedForWh",
      "outputs": [],
      "payable": false,
      "stateMutability": "nonpayable",
      "type": "function"
    },
    {
      "constant": false,
      "inputs": [
        {
          "name": "_assetId",
          "type": "uint256"
        },
        {
          "name": "_timestamp",
          "type": "uint256"
        }
      ],
      "name": "setLastSmartMeterReadDate",
      "outputs": [],
      "payable": false,
      "stateMutability": "nonpayable",
      "type": "function"
    },
    {
      "constant": false,
      "inputs": [
        {
          "name": "_assetId",
          "type": "uint256"
        },
        {
          "name": "_lastSmartMeterReadFileHash",
          "type": "bytes32"
        }
      ],
      "name": "setLastSmartMeterReadFileHash",
      "outputs": [],
      "payable": false,
      "stateMutability": "nonpayable",
      "type": "function"
    },
    {
      "constant": false,
      "inputs": [
        {
          "name": "_assetId",
          "type": "uint256"
        },
        {
          "name": "_lastSmartMeterReadWh",
          "type": "uint256"
        }
      ],
      "name": "setLastSmartMeterReadWh",
      "outputs": [],
      "payable": false,
      "stateMutability": "nonpayable",
      "type": "function"
    },
    {
      "constant": false,
      "inputs": [
        {
          "name": "_assetId",
          "type": "uint256"
        },
        {
          "name": "_country",
          "type": "bytes32"
        }
      ],
      "name": "setLocationCountry",
      "outputs": [],
      "payable": false,
      "stateMutability": "nonpayable",
      "type": "function"
    },
    {
      "constant": false,
      "inputs": [
        {
          "name": "_assetId",
          "type": "uint256"
        },
        {
          "name": "_region",
          "type": "bytes32"
        }
      ],
      "name": "setLocationRegion",
      "outputs": [],
      "payable": false,
      "stateMutability": "nonpayable",
      "type": "function"
    },
    {
      "constant": false,
      "inputs": [
        {
          "name": "_assetId",
          "type": "uint256"
        },
        {
          "name": "_operationalSince",
          "type": "uint256"
        }
      ],
      "name": "setOperationalSince",
      "outputs": [],
      "payable": false,
      "stateMutability": "nonpayable",
      "type": "function"
    },
    {
      "constant": false,
      "inputs": [
        {
          "name": "_assetId",
          "type": "uint256"
        },
        {
          "name": "_owner",
          "type": "address"
        }
      ],
      "name": "setOwner",
      "outputs": [],
      "payable": false,
      "stateMutability": "nonpayable",
      "type": "function"
    },
    {
      "constant": false,
      "inputs": [
        {
          "name": "_assetId",
          "type": "uint256"
        },
        {
          "name": "_smartMeter",
          "type": "address"
        }
      ],
      "name": "setSmartMeter",
      "outputs": [],
      "payable": false,
      "stateMutability": "nonpayable",
      "type": "function"
    },
    {
      "constant": false,
      "inputs": [
        {
          "name": "_assetId",
          "type": "uint256"
        },
        {
          "name": "_newMeterRead",
          "type": "uint256"
        },
        {
          "name": "_lastSmartMeterReadFileHash",
          "type": "bytes32"
        },
        {
          "name": "_timestamp",
          "type": "uint256"
        }
      ],
      "name": "setSmartMeterReadData",
      "outputs": [],
      "payable": false,
      "stateMutability": "nonpayable",
      "type": "function"
    },
    {
      "constant": true,
      "inputs": [
        {
          "name": "_assetId",
          "type": "uint256"
        }
      ],
      "name": "getActive",
      "outputs": [
        {
          "name": "",
          "type": "bool"
        }
      ],
      "payable": false,
      "stateMutability": "view",
      "type": "function"
    },
    {
      "constant": true,
      "inputs": [
        {
          "name": "_assetId",
          "type": "uint256"
        }
      ],
      "name": "getAssetGeneral",
      "outputs": [
        {
          "name": "_smartMeter",
          "type": "address"
        },
        {
          "name": "_owner",
          "type": "address"
        },
        {
          "name": "_operationalSince",
          "type": "uint256"
        },
        {
          "name": "_capacityWh",
          "type": "uint256"
        },
        {
          "name": "_maxCapacitySet",
          "type": "bool"
        },
        {
          "name": "_lastSmartMeterReadWh",
          "type": "uint256"
        },
        {
          "name": "_certificatesUsedForWh",
          "type": "uint256"
        },
        {
          "name": "_active",
          "type": "bool"
        },
        {
          "name": "_lastSmartMeterReadFileHash",
          "type": "bytes32"
        }
      ],
      "payable": false,
      "stateMutability": "view",
      "type": "function"
    },
    {
      "constant": true,
      "inputs": [],
      "name": "getAssetListLength",
      "outputs": [
        {
          "name": "",
          "type": "uint256"
        }
      ],
      "payable": false,
      "stateMutability": "view",
      "type": "function"
    },
    {
      "constant": true,
      "inputs": [
        {
          "name": "_assetId",
          "type": "uint256"
        }
      ],
      "name": "getAssetLocation",
      "outputs": [
        {
          "name": "country",
          "type": "bytes32"
        },
        {
          "name": "region",
          "type": "bytes32"
        },
        {
          "name": "zip",
          "type": "bytes32"
        },
        {
          "name": "city",
          "type": "bytes32"
        },
        {
          "name": "street",
          "type": "bytes32"
        },
        {
          "name": "houseNumber",
          "type": "bytes32"
        },
        {
          "name": "gpsLatitude",
          "type": "bytes32"
        },
        {
          "name": "gpsLongitude",
          "type": "bytes32"
        }
      ],
      "payable": false,
      "stateMutability": "view",
      "type": "function"
    },
    {
      "constant": true,
      "inputs": [
        {
          "name": "_assetId",
          "type": "uint256"
        }
      ],
      "name": "getCapacityWh",
      "outputs": [
        {
          "name": "",
          "type": "uint256"
        }
      ],
      "payable": false,
      "stateMutability": "view",
      "type": "function"
    },
    {
      "constant": true,
      "inputs": [
        {
          "name": "_assetId",
          "type": "uint256"
        }
      ],
      "name": "getCertificatesUsedForWh",
      "outputs": [
        {
          "name": "",
          "type": "uint256"
        }
      ],
      "payable": false,
      "stateMutability": "view",
      "type": "function"
    },
    {
      "constant": true,
      "inputs": [
        {
          "name": "_assetId",
          "type": "uint256"
        }
      ],
      "name": "getConsumingProperies",
      "outputs": [
        {
          "name": "_capacityWh",
          "type": "uint256"
        },
        {
          "name": "_maxCapacitySet",
          "type": "bool"
        },
        {
          "name": "_certificatesUsedForWh",
          "type": "uint256"
        }
      ],
      "payable": false,
      "stateMutability": "view",
      "type": "function"
    },
    {
      "constant": true,
      "inputs": [
        {
          "name": "_assetId",
          "type": "uint256"
        }
      ],
      "name": "getExistStatus",
      "outputs": [
        {
          "name": "general",
          "type": "bool"
        },
        {
          "name": "location",
          "type": "bool"
        },
        {
          "name": "asset",
          "type": "bool"
        }
      ],
      "payable": false,
      "stateMutability": "view",
      "type": "function"
    },
    {
      "constant": false,
      "inputs": [
        {
          "name": "_assetId",
          "type": "uint256"
        }
      ],
      "name": "getLastSmartMeterRead",
      "outputs": [
        {
          "name": "",
          "type": "uint256"
        }
      ],
      "payable": false,
      "stateMutability": "nonpayable",
      "type": "function"
    },
    {
      "constant": false,
      "inputs": [
        {
          "name": "_assetId",
          "type": "uint256"
        }
      ],
      "name": "getLastSmartMeterReadDate",
      "outputs": [
        {
          "name": "",
          "type": "uint256"
        }
      ],
      "payable": false,
      "stateMutability": "nonpayable",
      "type": "function"
    },
    {
      "constant": true,
      "inputs": [
        {
          "name": "_assetId",
          "type": "uint256"
        }
      ],
      "name": "getLastSmartMeterReadFileHash",
      "outputs": [
        {
          "name": "",
          "type": "bytes32"
        }
      ],
      "payable": false,
      "stateMutability": "view",
      "type": "function"
    },
    {
      "constant": true,
      "inputs": [
        {
          "name": "_assetId",
          "type": "uint256"
        }
      ],
      "name": "getLastSmartMeterReadWh",
      "outputs": [
        {
          "name": "",
          "type": "uint256"
        }
      ],
      "payable": false,
      "stateMutability": "view",
      "type": "function"
    },
    {
      "constant": true,
      "inputs": [
        {
          "name": "_assetId",
          "type": "uint256"
        }
      ],
      "name": "getLocationCountry",
      "outputs": [
        {
          "name": "",
          "type": "bytes32"
        }
      ],
      "payable": false,
      "stateMutability": "view",
      "type": "function"
    },
    {
      "constant": true,
      "inputs": [
        {
          "name": "_assetId",
          "type": "uint256"
        }
      ],
      "name": "getLocationRegion",
      "outputs": [
        {
          "name": "",
          "type": "bytes32"
        }
      ],
      "payable": false,
      "stateMutability": "view",
      "type": "function"
    },
    {
      "constant": true,
      "inputs": [
        {
          "name": "_assetId",
          "type": "uint256"
        }
      ],
      "name": "getOperationalSince",
      "outputs": [
        {
          "name": "",
          "type": "uint256"
        }
      ],
      "payable": false,
      "stateMutability": "view",
      "type": "function"
    },
    {
      "constant": true,
      "inputs": [
        {
          "name": "_assetId",
          "type": "uint256"
        }
      ],
      "name": "getOwner",
      "outputs": [
        {
          "name": "",
          "type": "address"
        }
      ],
      "payable": false,
      "stateMutability": "view",
      "type": "function"
    },
    {
      "constant": true,
      "inputs": [
        {
          "name": "_assetId",
          "type": "uint256"
        }
      ],
      "name": "getSmartMeter",
      "outputs": [
        {
          "name": "",
          "type": "address"
        }
      ],
      "payable": false,
      "stateMutability": "view",
      "type": "function"
    }
  ],
  "bytecode": "0x608060405234801561001057600080fd5b50604051602080611a18833981016040525160008054600160a060020a03909216600160a060020a03199092169190911790556119c6806100526000396000f3006080604052600436106101b65763ffffffff7c0100000000000000000000000000000000000000000000000000000000600035041663042157c281146101bb578063054dddde146101e55780630ff85b94146102045780631314394d14610228578063312f9a8c1461028157806331a5daf3146102b757806336016d71146102cc578063437992c8146101bb5780634694cc43146102e757806351f19298146102ff57806357c3bc601461031a5780637fd3924714610335578063830be6e9146103595780638c26afa6146103745780638da5cb5b1461038c5780639346e7c5146103bd57806398d61f15146103d55780639963aece146103f6578063a12df75014610427578063a60b6fdc14610442578063a6f9dae11461045d578063ade1e9921461047e578063adfe021b146104eb578063ae51439c14610503578063af55ac2814610518578063b91dccde14610533578063c27913061461054b578063c41a360a14610566578063c53fb1a51461057e578063c6bc1a76146105aa578063de280a63146105e4578063e60a955d14610629578063ed9c058b14610646578063f1d03e931461065e578063f7105c0514610676575b600080fd5b3480156101c757600080fd5b506101d360043561068e565b60408051918252519081900360200190f35b3480156101f157600080fd5b5061020260043560243515156106d0565b005b34801561021057600080fd5b50610202600435600160a060020a036024351661071d565b34801561023457600080fd5b50610240600435610783565b604080519889526020890197909752878701959095526060870193909352608086019190915260a085015260c084015260e083015251908190036101000190f35b34801561028d57600080fd5b50610299600435610861565b60408051938452911515602084015282820152519081900360600190f35b3480156102c357600080fd5b506101d36108e1565b3480156102d857600080fd5b50610202600435602435610cfe565b3480156102f357600080fd5b506101d3600435610d3d565b34801561030b57600080fd5b50610202600435602435610d7f565b34801561032657600080fd5b50610202600435602435610dbe565b34801561034157600080fd5b50610202600435600160a060020a0360243516610dfd565b34801561036557600080fd5b50610202600435602435610e66565b34801561038057600080fd5b506101d3600435610ea5565b34801561039857600080fd5b506103a1610ee7565b60408051600160a060020a039092168252519081900360200190f35b3480156103c957600080fd5b506101d3600435610ef6565b3480156103e157600080fd5b50610202600435602435604435606435610f38565b34801561040257600080fd5b5061020260043560243560443560643560843560a43560c43560e43561010435610fc3565b34801561043357600080fd5b50610202600435602435611019565b34801561044e57600080fd5b50610202600435602435611058565b34801561046957600080fd5b50610202600160a060020a0360043516611097565b34801561048a57600080fd5b50610496600435611124565b60408051600160a060020a039a8b168152989099166020890152878901969096526060870194909452911515608086015260a085015260c0840152151560e08301526101008201529051908190036101200190f35b3480156104f757600080fd5b506101d36004356112df565b34801561050f57600080fd5b506101d3611321565b34801561052457600080fd5b50610202600435602435611340565b34801561053f57600080fd5b506101d360043561137f565b34801561055757600080fd5b506102026004356024356113c1565b34801561057257600080fd5b506103a1600435611400565b34801561058a57600080fd5b50610596600435611449565b604080519115158252519081900360200190f35b3480156105b657600080fd5b506105c260043561148c565b6040805193151584529115156020840152151582820152519081900360600190f35b3480156105f057600080fd5b50610202600435600160a060020a036024358116906044351660643560843560a435151560c43560e43561010435151561012435611622565b34801561063557600080fd5b5061020260043560243515156116a0565b34801561065257600080fd5b506103a16004356116ed565b34801561066a57600080fd5b506101d3600435611733565b34801561068257600080fd5b506101d3600435611775565b60008054600160a060020a031633146106a657600080fd5b60018054839081106106b457fe5b9060005260206000209060150201600001600301549050919050565b600054600160a060020a031633146106e757600080fd5b806001838154811015156106f757fe5b60009182526020909120601590910201601401805460ff19169115159190911790555050565b600054600160a060020a0316331461073457600080fd5b8060018381548110151561074457fe5b60009182526020909120601590910201805473ffffffffffffffffffffffffffffffffffffffff1916600160a060020a03929092169190911790555050565b6000806000806000806000806107976118aa565b600054600160a060020a031633146107ae57600080fd5b600180548b9081106107bc57fe5b60009182526020918290206040805161012081018252601593909302909101600b8101548352600c81015493830193909352600d83015490820152600e8201546060820152600f8201546080820152601082015460a0820152601182015460c0820152601282015460e082015260139091015460ff1615156101008201529050610845816117b7565b9850985098509850985098509850985050919395975091939597565b600080600061086e6118f6565b600054600160a060020a0316331461088557600080fd5b600180548690811061089357fe5b6000918252602091829020604080516060810182526008601590940290920192830154808352600984015460ff161515948301859052600a9093015491018190529097919650945092505050565b60008054600160a060020a031633146108f957600080fd5b60018054905090506001608060405190810160405280600261010060405190810160405290816000820160009054906101000a9004600160a060020a0316600160a060020a0316600160a060020a031681526020016001820160009054906101000a9004600160a060020a0316600160a060020a0316600160a060020a0316815260200160028201548152602001600382015481526020016004820160009054906101000a900460ff16151515158152602001600582015460001916600019168152602001600682015481526020016007820160009054906101000a900460ff1615151515815250508152602001601360606040519081016040529081600082015481526020016001820160009054906101000a900460ff161515151581526020016002820154815250508152602001600a61012060405190810160405290816000820154600019166000191681526020016001820154600019166000191681526020016002820154600019166000191681526020016003820154600019166000191681526020016004820154600019166000191681526020016005820154600019166000191681526020016006820154600019166000191681526020016007820154600019166000191681526020016008820160009054906101000a900460ff1615151515815250508152602001600015158152509080600181540180825580915050906001820390600052602060002090601502016000909192909190915060008201518160000160008201518160000160006101000a815481600160a060020a030219169083600160a060020a0316021790555060208201518160010160006101000a815481600160a060020a030219169083600160a060020a03160217905550604082015181600201556060820151816003015560808201518160040160006101000a81548160ff02191690831515021790555060a0820151816005019060001916905560c0820151816006015560e08201518160070160006101000a81548160ff02191690831515021790555050506020820151816008016000820151816000015560208201518160010160006101000a81548160ff021916908315150217905550604082015181600201555050604082015181600b01600082015181600001906000191690556020820151816001019060001916905560408201518160020190600019169055606082015181600301906000191690556080820151816004019060001916905560a0820151816005019060001916905560c0820151816006019060001916905560e082015181600701906000191690556101008201518160080160006101000a81548160ff021916908315150217905550505060608201518160140160006101000a81548160ff02191690831515021790555050505090565b600054600160a060020a03163314610d1557600080fd5b80600183815481101515610d2557fe5b60009182526020909120600660159092020101555050565b60008054600160a060020a03163314610d5557600080fd5b6001805483908110610d6357fe5b9060005260206000209060150201600001600201549050919050565b600054600160a060020a03163314610d9657600080fd5b80600183815481101515610da657fe5b60009182526020909120600260159092020101555050565b600054600160a060020a03163314610dd557600080fd5b80600183815481101515610de557fe5b60009182526020909120600360159092020101555050565b600054600160a060020a03163314610e1457600080fd5b80600183815481101515610e2457fe5b60009182526020909120601590910201600101805473ffffffffffffffffffffffffffffffffffffffff1916600160a060020a03929092169190911790555050565b600054600160a060020a03163314610e7d57600080fd5b80600183815481101515610e8d57fe5b60009182526020909120600860159092020101555050565b60008054600160a060020a03163314610ebd57600080fd5b6001805483908110610ecb57fe5b9060005260206000209060150201600001600601549050919050565b600054600160a060020a031681565b60008054600160a060020a03163314610f0e57600080fd5b6001805483908110610f1c57fe5b9060005260206000209060150201600b01600101549050919050565b600054600160a060020a03163314610f4f57600080fd5b82600185815481101515610f5f57fe5b60009182526020909120600360159092020101556001805483919086908110610f8457fe5b60009182526020909120600560159092020101556001805482919086908110610fa957fe5b600091825260209091206006601590920201015550505050565b60008054600160a060020a03163314610fdb57600080fd5b600180548b908110610fe957fe5b9060005260206000209060150201600b01905061100d818a8a8a8a8a8a8a8a6117e7565b50505050505050505050565b600054600160a060020a0316331461103057600080fd5b8060018381548110151561104057fe5b60009182526020909120600c60159092020101555050565b600054600160a060020a0316331461106f57600080fd5b8060018381548110151561107f57fe5b60009182526020909120600560159092020101555050565b600054600160a060020a031633146110ae57600080fd5b600160a060020a03811615156110c357600080fd5b60008054600160a060020a03831673ffffffffffffffffffffffffffffffffffffffff19909116811790915560408051918252517f95fd54179c11867fb083dd94347ea50f144dd4cfd7612b7bca169f162824af169181900360200190a150565b60008060008060008060008060008061113b61191a565b6111436118f6565b600054600160a060020a0316331461115a57600080fd5b600180548e90811061116857fe5b906000526020600020906015020192508260000161010060405190810160405290816000820160009054906101000a9004600160a060020a0316600160a060020a0316600160a060020a031681526020016001820160009054906101000a9004600160a060020a0316600160a060020a0316600160a060020a0316815260200160028201548152602001600382015481526020016004820160009054906101000a900460ff16151515158152602001600582015460001916600019168152602001600682015481526020016007820160009054906101000a900460ff16151515158152505091508260080160606040519081016040529081600082015481526020016001820160009054906101000a900460ff16151515158152602001600282015481525050905081600001519b5081602001519a508160400151995080600001519850806020015197508160600151965080604001519550816080015194508160a0015193505050509193959799909294969850565b60008054600160a060020a031633146112f757600080fd5b600180548390811061130557fe5b9060005260206000209060150201600801600001549050919050565b60008054600160a060020a0316331461133957600080fd5b5060015490565b600054600160a060020a0316331461135757600080fd5b8060018381548110151561136757fe5b60009182526020909120600b60159092020101555050565b60008054600160a060020a0316331461139757600080fd5b60018054839081106113a557fe5b9060005260206000209060150201600801600201549050919050565b600054600160a060020a031633146113d857600080fd5b806001838154811015156113e857fe5b60009182526020909120600a60159092020101555050565b60008054600160a060020a0316331461141857600080fd5b600180548390811061142657fe5b6000918252602090912060159091020160010154600160a060020a031692915050565b60008054600160a060020a0316331461146157600080fd5b600180548390811061146f57fe5b600091825260209091206015909102016004015460ff1692915050565b600080600061149961195e565b600054600160a060020a031633146114b057600080fd5b60018054869081106114be57fe5b600091825260209182902060408051610180810182526015939093029091018054600160a060020a039081166080808601918252600184015490921660a080870191909152600284015460c080880191909152600385015460e080890191909152600486015460ff9081161515610100808b01919091526005880154610120808c019190915260068901546101408c01526007890154831615156101608c0152958a52885160608082018b5260088a0154825260098a015484161515828e0152600a8a0154828c01528b8d019190915289519687018a52600b8901548752600c8901549b87019b909b52600d880154868a0152600e880154868c0152600f88015496860196909652601087015493850193909352601186015491840191909152601285015483820152601385015482161515938301938452948601919091526014909201549091161515938301849052915101519051909790965090945092505050565b6000805481908190600160a060020a0316331461163e57600080fd5b600180548e90811061164c57fe5b90600052602060002090601502019250826000019150826008019050611677828d8d8d8b8a8a61182c565b6002810195909555505050938155600101805460ff191692151592909217909155505050505050565b600054600160a060020a031633146116b757600080fd5b806001838154811015156116c757fe5b60009182526020909120601590910201600401805460ff19169115159190911790555050565b60008054600160a060020a0316331461170557600080fd5b600180548390811061171357fe5b6000918252602090912060159091020154600160a060020a031692915050565b60008054600160a060020a0316331461174b57600080fd5b600180548390811061175957fe5b9060005260206000209060150201600b01600001549050919050565b60008054600160a060020a0316331461178d57600080fd5b600180548390811061179b57fe5b9060005260206000209060150201600001600501549050919050565b8051602082015160808301516040840151606085015160a086015160c087015160e0880151919395975091939597565b9688556001808901969096556004880194909455600287019290925560038601556005850155600684015560078301919091556008909101805460ff19169091179055565b8654600160a060020a0396871673ffffffffffffffffffffffffffffffffffffffff19918216178855600180890180549790981696909116959095179095556002860192909255600385015560048401805491151560ff19928316179055600584019290925560006006840155600790920180549091169091179055565b6040805161012081018252600080825260208201819052918101829052606081018290526080810182905260a0810182905260c0810182905260e0810182905261010081019190915290565b60606040519081016040528060008152602001600015158152602001600081525090565b6040805161010081018252600080825260208201819052918101829052606081018290526080810182905260a0810182905260c0810182905260e081019190915290565b6102a06040519081016040528061197361191a565b81526020016119806118f6565b815260200161198d6118aa565b81526000602090910152905600a165627a7a7230582095b9d30aeb2794965e37383e28bc568aa2c879396f2805a1a18ca6a01dc823d80029",
  "source": "// Copyright 2018 Energy Web Foundation\n//\n// This file is part of the Origin Application brought to you by the Energy Web Foundation,\n// a global non-profit organization focused on accelerating blockchain technology across the energy sector, \n// incorporated in Zug, Switzerland.\n//\n// The Origin Application is free software: you can redistribute it and/or modify\n// it under the terms of the GNU General Public License as published by\n// the Free Software Foundation, either version 3 of the License, or\n// (at your option) any later version.\n// This is distributed in the hope that it will be useful,\n// but WITHOUT ANY WARRANTY and without an implied warranty of\n// MERCHANTABILITY or FITNESS FOR A PARTICULAR PURPOSE.  See the\n// GNU General Public License for more details, at <http://www.gnu.org/licenses/>.\n//\n// @authors: slock.it GmbH, Martin Kuechler, martin.kuechler@slock.it\n\npragma solidity ^0.4.18;\n\nimport \"./Owned.sol\";\nimport \"./LocationDefinition.sol\";\nimport \"./AssetGeneralDefinition.sol\";\nimport \"./AssetDbInterface.sol\";\n\n/// @title The Database contract for the Asset Registration\n/// @notice This contract only provides getter and setter methods\ncontract AssetConsumingRegistryDB is Owned, AssetGeneralDefinition, AssetDbInterface {\n\n    struct ConsumingProperties {\n        uint capacityWh;\n        bool maxCapacitySet;\n        uint certificatesUsedForWh;\n    }\n\n    struct Asset {\n        GeneralInformation general;\n        ConsumingProperties consumingProps;\n        LocationDefinition.Location location;\n        bool exists;\n    }\n\n\n    /// @notice An array containing all registerd assets\n    Asset[] private assets;\n\n    /// @dev empty structs for initializing, used to avoid compile warnings\n    GeneralInformation generalEmpty;\n    LocationDefinition.Location locationEmpty;\n    ConsumingProperties consumingEmpty;\n\n    /// @notice Constructor\n    /// @param _owner The owner of the contract\n    function AssetConsumingRegistryDB(address _owner) \n        public\n        Owned(_owner) \n    {\n\n    } \n\n    /// @notice function to create a new empty asset\n    /// @return returns the array-position and thus the index / identifier of this new asset\n    function createAsset() \n        external\n        onlyOwner\n        returns (uint _assetId)\n    {\n        _assetId = assets.length;\n        assets.push(AssetConsumingRegistryDB.Asset({\n            general: generalEmpty,\n            consumingProps: consumingEmpty,\n            location: locationEmpty,\n            exists: false\n        }));\n    }\n\n    /// @notice Sets the general information for an asset\n    /// @param _assetId The index / identifier for that asset\n    /// @param _smartMeter The address of the smart meter\n    /// @param _owner The address of the asset owner\n    /// @param _operationalSince The timestamp since the asset is operational\n    /// @param _capacityWh The capacity in Wh of the asset\n    /// @param _lastSmartMeterReadWh The smart meter read in Wh\n    /// @param _certificatesUsedForWh The amount of Wh used to issue certificates\n    /// @param _active true if active\n    /// @param _lastSmartMeterReadFileHash The last meter read file hash\n    function initGeneral (       \n        uint _assetId, \n        address _smartMeter,\n        address _owner,\n        uint _operationalSince,\n        uint _capacityWh,\n        bool _maxCapacitySet,\n        uint _lastSmartMeterReadWh,\n        uint _certificatesUsedForWh,\n        bool _active,\n        bytes32 _lastSmartMeterReadFileHash\n    ) \n        onlyOwner\n        external\n    {\n        Asset storage a = assets[_assetId];\n\n        GeneralInformation storage gi = a.general; // just want to doublecheck, gi is a pointer to the storage, right?\n        ConsumingProperties storage cp = a.consumingProps;\n        setGeneralInformationInternal(gi, _smartMeter, _owner, _operationalSince,_lastSmartMeterReadWh, _active, _lastSmartMeterReadFileHash);\n   \n        cp.certificatesUsedForWh = _certificatesUsedForWh;\n        cp.capacityWh = _capacityWh;\n        cp.maxCapacitySet = _maxCapacitySet;\n    }\n \n    /// @notice function to set all the location Informations for an asset\n    /// @param _assetId The identifier / index of an asset\n    /// @param _country The country where the asset is located\n    /// @param _region The region / state where the asset is located\n    /// @param _zip The zip-code of the region where the asset is located\n    /// @param _city The city where the asset is located\n    /// @param _street The streetname where the asset is located\n    /// @param _houseNumber the housenumber where the asset is located\n    /// @param _gpsLatitude The gps-latitude\n    /// @param _gpsLongitude The gps-longitude\n    function initLocation(\n        uint _assetId,\n        bytes32 _country,\n        bytes32 _region,\n        bytes32 _zip,\n        bytes32 _city,\n        bytes32 _street,\n        bytes32 _houseNumber,\n        bytes32 _gpsLatitude,\n        bytes32 _gpsLongitude\n    )\n        onlyOwner\n        external\n    {\n        LocationDefinition.Location storage loc = assets[_assetId].location;\n        initLocationInternal(loc, _country, _region, _zip, _city, _street, _houseNumber, _gpsLatitude, _gpsLongitude);\n    } \n \n    /// @notice Sets if an entry in the asset registry is active\n    /// @param _assetId The id belonging to an entry in the asset registry\n    /// @param _active true if active\n    function setActive(uint _assetId, bool _active) \n        onlyOwner\n        external\n    {\n        assets[_assetId].general.active = _active;\n    }\n\n    /// @notice function to set the existing status of an asset\n    /// @param _assetId The index position / identifier of an asset\n    /// @param _exist flag if the asset should exist\n    function setAssetExistStatus(uint _assetId, bool _exist)\n        external\n        onlyOwner\n    {\n        assets[_assetId].exists = _exist;\n    }\n\n\n    /// @notice Sets the capacity in Wh of an entry in the asset registry\n    /// @param _assetId The id belonging to an entry in the asset registry\n    /// @param _capacityWh The capacity in Wh\n    function setCapacityWh(uint _assetId, uint _capacityWh) \n        onlyOwner\n        external\n    {        \n        assets[_assetId].consumingProps.capacityWh = _capacityWh;\n    }\n\n    /// @notice Sets amount of Wh used to issue certificates belonging to an entry in the asset registry\n    /// @param _assetId The id belonging to an entry in the asset registry\n    /// @param _certificatesUsedForWh The amount of Wh used to issue certificates\n    function setCertificatesUsedForWh(uint _assetId, uint _certificatesUsedForWh) \n        onlyOwner\n        external\n    {\n        assets[_assetId].consumingProps.certificatesUsedForWh = _certificatesUsedForWh;\n    }\n\n    /// @notice Sets a timestamp for the last meterreading\n    /// @param _assetId the id belonging to an entry in the asset registry\n    /// @param _timestamp new UNIX-timestamp\n    function setLastSmartMeterReadDate(uint _assetId, uint _timestamp)\n        onlyOwner\n        external\n    {\n        assets[_assetId].general.lastMeterReadReceived = _timestamp;\n    }\n\n    /// @notice Sets last meter read file hash\n    /// @param _assetId The id belonging to an entry in the asset registry\n    /// @param _lastSmartMeterReadFileHash Last meter read file hash\n    function setLastSmartMeterReadFileHash(uint _assetId, bytes32 _lastSmartMeterReadFileHash)\n        onlyOwner\n        external\n    {\n        assets[_assetId].general.lastSmartMeterReadFileHash = _lastSmartMeterReadFileHash;\n    }\n\n    /// @notice Sets the last smart meter read in Wh of an entry in the asset registry\n    /// @param _assetId The id belonging to an entry in the asset registry\n    /// @param _lastSmartMeterReadWh The smart meter read in Wh\n    function setLastSmartMeterReadWh(uint _assetId, uint _lastSmartMeterReadWh) \n        onlyOwner\n        external\n    {\n        assets[_assetId].general.lastSmartMeterReadWh = _lastSmartMeterReadWh;\n    }\n\n    /// @notice Sets the location-country of an asset\n    /// @param _assetId the id belonging to an entry in the asset registry\n    /// @param _country the new country\n    function setLocationCountry(uint _assetId, bytes32 _country)\n        onlyOwner\n        external\n    {\n        assets[_assetId].location.country = _country;\n    }\n\n    /// @notice Sets the location-region of an asset\n    /// @param _assetId the id belonging to an entry in the asset registry\n    /// @param _region the new region\n    function setLocationRegion(uint _assetId, bytes32 _region)\n        onlyOwner\n        external\n    {\n        assets[_assetId].location.region = _region;\n    }\n\n    \n    /// @notice Sets the operational since field of an entry in the asset registry\n    /// @param _assetId The id belonging to an entry in the asset registry\n    /// @param _operationalSince The timestamp since the asset is operational\n    function setOperationalSince(uint _assetId, uint _operationalSince) \n        onlyOwner\n        external\n    {\n        assets[_assetId].general.operationalSince = _operationalSince;\n    }\n\n    /// @notice Sets the owner of an entry in the asset registry\n    /// @param _assetId The id belonging to an entry in the asset registry\n    /// @param _owner The new owner\n    function setOwner(uint _assetId, address _owner) \n        onlyOwner\n        external\n    {\n        assets[_assetId].general.owner = _owner;\n    }\n\n    /// @notice Sets the smart meter address belonging to an entry in the asset registry\n    /// @param _assetId The id belonging to an entry in the asset registry\n    /// @param _smartMeter The new smart meter address\n    function setSmartMeter(uint _assetId, address _smartMeter) \n        onlyOwner\n        external\n    {\n        assets[_assetId].general.smartMeter = _smartMeter;\n    }\n\n    /// @notice Sets multiple information of a meterreading\n    /// @param _assetId The id belonging to an entry in the asset registry\n    /// @param _newMeterRead the new meterreading\n    /// @param _lastSmartMeterReadFileHash the filehash belonging to that reading\n    /// @param _timestamp the timestamp of that reading\n    function setSmartMeterReadData(uint _assetId, uint _newMeterRead, bytes32 _lastSmartMeterReadFileHash, uint _timestamp)\n        onlyOwner\n        external \n    {\n        assets[_assetId].general.lastSmartMeterReadWh = _newMeterRead;\n        assets[_assetId].general.lastSmartMeterReadFileHash = _lastSmartMeterReadFileHash;\n        assets[_assetId].general.lastMeterReadReceived = _timestamp;\n\n    }\n    \n    /// @notice Gets if an entry in the asset registry is active\n    /// @param _assetId The id belonging to an entry in the asset registry\n    /// @return true if asset is active\n    function getActive(uint _assetId)\n        onlyOwner\n        external\n        view\n        returns(bool)\n    {\n        return assets[_assetId].general.active;\n    }\n\n    /// @notice Gets the general information of an asset\n    /// @param _assetId The id belonging to an entry in the asset registry\n    /// @return general information of an asset\n    function getAssetGeneral(uint _assetId)\n        onlyOwner\n        external\n        view\n        returns(\n            address _smartMeter,\n            address _owner,\n            uint _operationalSince,\n            uint _capacityWh,\n            bool _maxCapacitySet,\n            uint _lastSmartMeterReadWh,\n            uint _certificatesUsedForWh,\n            bool _active,\n            bytes32 _lastSmartMeterReadFileHash\n            )\n    {\n        Asset storage asset = assets[_assetId];\n        GeneralInformation memory gi = asset.general;\n        ConsumingProperties memory cp = asset.consumingProps;\n\n        _smartMeter = gi.smartMeter;\n        _owner = gi.owner;\n        _operationalSince = gi.operationalSince;\n        _capacityWh = cp.capacityWh;\n        _maxCapacitySet = cp.maxCapacitySet;\n        _lastSmartMeterReadWh = gi.lastSmartMeterReadWh;\n        _certificatesUsedForWh = cp.certificatesUsedForWh;\n        _active = gi.active;\n        _lastSmartMeterReadFileHash = gi.lastSmartMeterReadFileHash;\n    }\n\n    /// @notice function to get the amount of assets\n    /// @return amount of assets\n    function getAssetListLength()\n        onlyOwner\n        external\n        view\n        returns (uint)\n    {\n        return assets.length;\n    }\n\n     /// @notice function to get the informations about the location of a struct\n    /// @param _assetId The id belonging to an entry in the asset registry\n    /// @return country, region, zip, city, street, houseNumber, gpsLatitude, gpsLongitude\n    function getAssetLocation(uint _assetId)\n        onlyOwner\n        external\n        view\n        returns(\n            bytes32 country,\n            bytes32 region,\n            bytes32 zip,\n            bytes32 city,\n            bytes32 street,\n            bytes32 houseNumber,\n            bytes32 gpsLatitude,\n            bytes32 gpsLongitude\n        )\n    {\n        LocationDefinition.Location memory loc = assets[_assetId].location;\n        return getAssetLocationInternal(loc);\n    } \n\n    /// @notice Gets the capacity in Wh of an entry in the asset registry\n    /// @param _assetId The id belonging to an entry in the asset registry\n    /// @return the capacity in Wh\n    function getCapacityWh(uint _assetId)\n        onlyOwner\n        external\n        view\n        returns(uint)\n    {\n        return assets[_assetId].consumingProps.capacityWh;\n    }\n\n    /// @notice Gets amount of Wh used to issue certificates belonging to an entry in the asset registry\n    /// @param _assetId The id belonging to an entry in the asset registry\n    /// @return the amount of Wh used to issue certificates\n    function getCertificatesUsedForWh(uint _assetId)\n        onlyOwner\n        external\n        view\n        returns(uint)\n    {\n        return assets[_assetId].consumingProps.certificatesUsedForWh;\n    }\n\n    /// @notice gets the consuming properties of an asset\n    /// @param _assetId the id belonging to an entry in the asset registry\n    /// @return the consuming properteis\n    function getConsumingProperies(uint _assetId) \n        onlyOwner\n        external\n        view\n        returns (\n            uint _capacityWh,\n            bool _maxCapacitySet,\n            uint _certificatesUsedForWh\n        )\n    {\n        ConsumingProperties memory c = assets[_assetId].consumingProps;\n        _capacityWh = c.capacityWh;\n        _maxCapacitySet = c.maxCapacitySet;\n        _certificatesUsedForWh = c.certificatesUsedForWh;\n    }\n\n    /// @notice function the retrieve the existing status of the general information, the location information and the asset itself\n    /// @param _assetId The index position / identifier of the asset\n    /// @return existing status of the general informaiton, existing status of the location informaiton and where the asset-structs exists\n    function getExistStatus(uint _assetId)\n        onlyOwner\n        external \n        view\n        returns (bool general, bool location, bool asset)\n    {\n        Asset memory a = assets[_assetId];\n        return(a.general.exists, a.location.exists, a.exists);\n    }\n\n    /// @notice function to retrieve the last smartmeter-reading of an asset\n    /// @param _assetId the asset-id\n    /// @return the last smartmeter-reading\n    function getLastSmartMeterRead(uint _assetId) \n        onlyOwner\n        external \n        returns (uint)\n    {\n        return assets[_assetId].general.lastSmartMeterReadWh;\n    }\n\n    /// @notice function to retrieve the timestamp of the last smartmeter-reading\n    /// @param _assetId the asset-id\n    /// @return the timestamp of the last smartmeter-reading\n    function getLastSmartMeterReadDate(uint _assetId)\n        onlyOwner\n        external\n        returns(uint)\n    {\n        return assets[_assetId].general.lastMeterReadReceived;\n    }\n    \n    /// @notice Gets last smart merter read file hash\n    /// @param _assetId The id belonging to an entry in the asset registry\n    /// @return last smart merter read file hash\n    function getLastSmartMeterReadFileHash(uint _assetId)\n        onlyOwner\n        external\n        view\n        returns(bytes32)\n    {\n        return assets[_assetId].general.lastSmartMeterReadFileHash;\n    }\n    \n    /// @notice Gets the last smart merter read in Wh of an entry in the asset registry\n    /// @param _assetId The id belonging to an entry in the asset registry\n    /// @return the last loged smart meter read in Wh\n    function getLastSmartMeterReadWh(uint _assetId)\n        onlyOwner\n        external\n        view\n        returns(uint)\n    {\n        return assets[_assetId].general.lastSmartMeterReadWh;\n    }\n\n    /// @notice Gets the location country of an asset\n    /// @param _assetId the id belonging to an entry in the asset registry\n    /// @return country where the asset is based\n    function getLocationCountry(uint _assetId)\n        onlyOwner\n        external\n        view \n        returns(bytes32)\n    {\n        return assets[_assetId].location.country;\n    }\n\n    /// @notice Gets the location region of an asset\n    /// @param _assetId the id belonging to an entry in the asset registry\n    /// @return region of the country where the asset is based\n    function getLocationRegion(uint _assetId)\n        onlyOwner\n        external\n        view\n        returns(bytes32)\n    {\n        return assets[_assetId].location.region;\n    }\n\n    /// @notice Gets the operational since field of an entry in the asset registry\n    /// @param _assetId The id belonging to an entry in the asset registry\n    /// @return date when the asset went into production \n    function getOperationalSince(uint _assetId)\n        onlyOwner\n        external\n        view\n        returns(uint)\n    {\n        return assets[_assetId].general.operationalSince;\n    }\n\n    /// @notice Gets the owner of an entry in the asset registry\n    /// @param _assetId The id belonging to an entry in the asset registry\n    /// @return the owner address\n    function getOwner(uint _assetId) \n        onlyOwner\n        external\n        view\n        returns(address)\n    {\n        return assets[_assetId].general.owner;\n    }\n\n    /// @notice Gets the smart meter address belonging to an entry in the asset registry\n    /// @param _assetId The id belonging to an entry in the asset registry\n    /// @return the smart meter address\n    function getSmartMeter(uint _assetId)\n        onlyOwner\n        external\n        view\n        returns(address)\n    {\n        return assets[_assetId].general.smartMeter;\n    }\n}",
  "sourcePath": "/Users/unomasanori/projects/DEMO_MVP/Ethereum-Madrid-Hackathon/stor-madrid/contracts/AssetConsumingRegistryDB.sol",
  "compiler": {
    "name": "solc",
    "version": "0.4.25+commit.59dbf8f1.Emscripten.clang"
  },
  "schemaVersion": "2.0.2",
  "updatedAt": "2019-05-25T12:04:23.219Z"
}