{
  "contractName": "CertificateLogic",
  "abi": [
    {
      "constant": true,
      "inputs": [],
      "name": "cooContract",
      "outputs": [
        {
          "name": "",
          "type": "address"
        }
      ],
      "payable": false,
      "stateMutability": "view",
      "type": "function"
    },
    {
      "constant": true,
      "inputs": [
        {
          "name": "_role",
          "type": "uint8"
        },
        {
          "name": "_caller",
          "type": "address"
        }
      ],
      "name": "isRole",
      "outputs": [
        {
          "name": "",
          "type": "bool"
        }
      ],
      "payable": false,
      "stateMutability": "view",
      "type": "function"
    },
    {
      "constant": true,
      "inputs": [],
      "name": "certificateDb",
      "outputs": [
        {
          "name": "",
          "type": "address"
        }
      ],
      "payable": false,
      "stateMutability": "view",
      "type": "function"
    },
    {
      "inputs": [
        {
          "name": "_coo",
          "type": "address"
        }
      ],
      "payable": false,
      "stateMutability": "nonpayable",
      "type": "constructor"
    },
    {
      "anonymous": false,
      "inputs": [
        {
          "indexed": true,
          "name": "_certificateId",
          "type": "uint256"
        },
        {
          "indexed": false,
          "name": "powerInW",
          "type": "uint256"
        },
        {
          "indexed": false,
          "name": "owner",
          "type": "address"
        },
        {
          "indexed": false,
          "name": "escrow",
          "type": "address"
        }
      ],
      "name": "LogCreatedCertificate",
      "type": "event"
    },
    {
      "anonymous": false,
      "inputs": [
        {
          "indexed": true,
          "name": "_certificateId",
          "type": "uint256"
        },
        {
          "indexed": false,
          "name": "_retire",
          "type": "bool"
        }
      ],
      "name": "LogRetireRequest",
      "type": "event"
    },
    {
      "anonymous": false,
      "inputs": [
        {
          "indexed": true,
          "name": "_certificateId",
          "type": "uint256"
        },
        {
          "indexed": false,
          "name": "_oldOwner",
          "type": "address"
        },
        {
          "indexed": false,
          "name": "_newOwner",
          "type": "address"
        },
        {
          "indexed": false,
          "name": "_oldEscrow",
          "type": "address"
        },
        {
          "indexed": false,
          "name": "_newEscrow",
          "type": "address"
        }
      ],
      "name": "LogCertificateOwnerChanged",
      "type": "event"
    },
    {
      "constant": false,
      "inputs": [
        {
          "name": "_database",
          "type": "address"
        }
      ],
      "name": "init",
      "outputs": [],
      "payable": false,
      "stateMutability": "nonpayable",
      "type": "function"
    },
    {
      "constant": false,
      "inputs": [
        {
          "name": "_assetId",
          "type": "uint256"
        },
        {
          "name": "_owner",
          "type": "address"
        },
        {
          "name": "_powerInW",
          "type": "uint256"
        }
      ],
      "name": "createCertificate",
      "outputs": [
        {
          "name": "",
          "type": "uint256"
        }
      ],
      "payable": false,
      "stateMutability": "nonpayable",
      "type": "function"
    },
    {
      "constant": false,
      "inputs": [
        {
          "name": "_assetId",
          "type": "uint256"
        },
        {
          "name": "_powerInW",
          "type": "uint256"
        }
      ],
      "name": "createCertificateForAssetOwner",
      "outputs": [
        {
          "name": "",
          "type": "uint256"
        }
      ],
      "payable": false,
      "stateMutability": "nonpayable",
      "type": "function"
    },
    {
      "constant": false,
      "inputs": [
        {
          "name": "_id",
          "type": "uint256"
        }
      ],
      "name": "retireCertificate",
      "outputs": [],
      "payable": false,
      "stateMutability": "nonpayable",
      "type": "function"
    },
    {
      "constant": false,
      "inputs": [
        {
          "name": "_id",
          "type": "uint256"
        },
        {
          "name": "_newOwner",
          "type": "address"
        }
      ],
      "name": "transferOwnershipByEscrow",
      "outputs": [],
      "payable": false,
      "stateMutability": "nonpayable",
      "type": "function"
    },
    {
      "constant": false,
      "inputs": [
        {
          "name": "_id",
          "type": "uint256"
        },
        {
          "name": "_newOwner",
          "type": "address"
        }
      ],
      "name": "changeCertificateOwner",
      "outputs": [],
      "payable": false,
      "stateMutability": "nonpayable",
      "type": "function"
    },
    {
      "constant": true,
      "inputs": [
        {
          "name": "_certificateId",
          "type": "uint256"
        }
      ],
      "name": "getCertificate",
      "outputs": [
        {
          "name": "_assetId",
          "type": "uint256"
        },
        {
          "name": "_owner",
          "type": "address"
        },
        {
          "name": "_powerInW",
          "type": "uint256"
        },
        {
          "name": "_retired",
          "type": "bool"
        },
        {
          "name": "_dataLog",
          "type": "bytes32"
        },
        {
          "name": "_coSaved",
          "type": "uint256"
        },
        {
          "name": "_escrow",
          "type": "address"
        },
        {
          "name": "_creationTime",
          "type": "uint256"
        }
      ],
      "payable": false,
      "stateMutability": "view",
      "type": "function"
    },
    {
      "constant": true,
      "inputs": [
        {
          "name": "_certificateId",
          "type": "uint256"
        }
      ],
      "name": "getCertificateOwner",
      "outputs": [
        {
          "name": "",
          "type": "address"
        }
      ],
      "payable": false,
      "stateMutability": "view",
      "type": "function"
    },
    {
      "constant": true,
      "inputs": [
        {
          "name": "_certificateId",
          "type": "uint256"
        }
      ],
      "name": "isRetired",
      "outputs": [
        {
          "name": "",
          "type": "bool"
        }
      ],
      "payable": false,
      "stateMutability": "view",
      "type": "function"
    },
    {
      "constant": true,
      "inputs": [],
      "name": "getCertificateListLength",
      "outputs": [
        {
          "name": "",
          "type": "uint256"
        }
      ],
      "payable": false,
      "stateMutability": "view",
      "type": "function"
    },
    {
      "constant": false,
      "inputs": [
        {
          "name": "_newLogic",
          "type": "address"
        }
      ],
      "name": "update",
      "outputs": [],
      "payable": false,
      "stateMutability": "nonpayable",
      "type": "function"
    }
  ],
  "bytecode": "0x608060405234801561001057600080fd5b50604051602080611b08833981016040525160008054600160a060020a03909216600160a060020a0319909216919091179055611ab6806100526000396000f3006080604052600436106100b65763ffffffff60e060020a60003504166319ab453c81146100bb5780631c1b8772146100de5780632c76a1b6146100ff57806351640fee14610138578063544dd3901461019f57806384e814ef146101c3578063af277395146101f7578063b1f2cc9d1461020c578063bb5a389e14610221578063c90ad7eb1461025c578063cbbf9f3814610271578063cf6ebee714610295578063d50bba1a146102ad578063daba9203146102c5575b600080fd5b3480156100c757600080fd5b506100dc600160a060020a03600435166102e0565b005b3480156100ea57600080fd5b506100dc600160a060020a036004351661033d565b34801561010b57600080fd5b50610126600435600160a060020a03602435166044356103ef565b60408051918252519081900360200190f35b34801561014457600080fd5b506101506004356104b2565b60408051988952600160a060020a0397881660208a0152888101969096529315156060880152608087019290925260a086015290921660c084015260e083019190915251908190036101000190f35b3480156101ab57600080fd5b506100dc600435600160a060020a036024351661058e565b3480156101cf57600080fd5b506101db600435610a17565b60408051600160a060020a039092168252519081900360200190f35b34801561020357600080fd5b50610126610aaf565b34801561021857600080fd5b506101db610b3f565b34801561022d57600080fd5b5061024860ff60043516600160a060020a0360243516610b4e565b604080519115158252519081900360200190f35b34801561026857600080fd5b506101db610d3e565b34801561027d57600080fd5b506100dc600435600160a060020a0360243516610d4d565b3480156102a157600080fd5b5061024860043561101a565b3480156102b957600080fd5b506100dc600435611080565b3480156102d157600080fd5b5061012660043560243561129b565b60006102ec8133610b4e565b15156102f757600080fd5b600154600160a060020a03161561030d57600080fd5b506001805473ffffffffffffffffffffffffffffffffffffffff1916600160a060020a0392909216919091179055565b600054600160a060020a031633811461035557600080fd5b600054600160a060020a0316331461036c57600080fd5b600154604080517fa6f9dae1000000000000000000000000000000000000000000000000000000008152600160a060020a0385811660048301529151919092169163a6f9dae191602480830192600092919082900301818387803b1580156103d357600080fd5b505af11580156103e7573d6000803e3d6000fd5b505050505050565b600154600090600160a060020a0316151561040957600080fd5b6000809054906101000a9004600160a060020a0316600160a060020a031663a34b80b06040518163ffffffff1660e060020a028152600401602060405180830381600087803b15801561045b57600080fd5b505af115801561046f573d6000803e3d6000fd5b505050506040513d602081101561048557600080fd5b505133600160a060020a0382161461049c57600080fd5b6104a98585856000611500565b95945050505050565b600080600080600080600080600160009054906101000a9004600160a060020a0316600160a060020a03166351640fee8a6040518263ffffffff1660e060020a0281526004018082815260200191505061010060405180830381600087803b15801561051d57600080fd5b505af1158015610531573d6000803e3d6000fd5b505050506040513d61010081101561054857600080fd5b508051602082015160408301516060840151608085015160a086015160c087015160e090970151959e50939c50919a509850965094509092509050919395975091939597565b6001546000908190600160a060020a031615156105aa57600080fd5b826000809054906101000a9004600160a060020a0316600160a060020a0316635c7460d66040518163ffffffff1660e060020a028152600401602060405180830381600087803b1580156105fd57600080fd5b505af1158015610611573d6000803e3d6000fd5b505050506040513d602081101561062757600080fd5b5051604080517fecb41054000000000000000000000000000000000000000000000000000000008152600160a060020a0384811660048301529151919092169163ecb410549160248083019260209291908290030181600087803b15801561068e57600080fd5b505af11580156106a2573d6000803e3d6000fd5b505050506040513d60208110156106b857600080fd5b505115156106c557600080fd5b600154604080517f84e814ef000000000000000000000000000000000000000000000000000000008152600481018890529051600160a060020a03909216916384e814ef916024808201926020929091908290030181600087803b15801561072c57600080fd5b505af1158015610740573d6000803e3d6000fd5b505050506040513d602081101561075657600080fd5b5051600160a060020a0316331480156107ff5750600154604080517fcf6ebee7000000000000000000000000000000000000000000000000000000008152600481018890529051600160a060020a039092169163cf6ebee7916024808201926020929091908290030181600087803b1580156107d157600080fd5b505af11580156107e5573d6000803e3d6000fd5b505050506040513d60208110156107fb57600080fd5b5051155b151561080a57600080fd5b600154604080517fbdd7504800000000000000000000000000000000000000000000000000000000815260048101889052600160a060020a0387811660248301529151919092169163bdd7504891604480830192600092919082900301818387803b15801561087857600080fd5b505af115801561088c573d6000803e3d6000fd5b5050600154604080517f84e814ef000000000000000000000000000000000000000000000000000000008152600481018a90529051600160a060020a0390921693506384e814ef92506024808201926020929091908290030181600087803b1580156108f757600080fd5b505af115801561090b573d6000803e3d6000fd5b505050506040513d602081101561092157600080fd5b5051600154604080517fd90561ba000000000000000000000000000000000000000000000000000000008152600481018990529051929550600160a060020a039091169163d90561ba916024808201926020929091908290030181600087803b15801561098d57600080fd5b505af11580156109a1573d6000803e3d6000fd5b505050506040513d60208110156109b757600080fd5b505160408051600160a060020a038087168252808816602083015283168183018190526060820152905191935086917f1d7a993900fc1aacdea8768b0618d014b58445a8255572d28b19e64bb71d95959181900360800190a25050505050565b600154604080517f84e814ef000000000000000000000000000000000000000000000000000000008152600481018490529051600092600160a060020a0316916384e814ef91602480830192602092919082900301818787803b158015610a7d57600080fd5b505af1158015610a91573d6000803e3d6000fd5b505050506040513d6020811015610aa757600080fd5b505192915050565b600154604080517faf2773950000000000000000000000000000000000000000000000000000000081529051600092600160a060020a03169163af27739591600480830192602092919082900301818787803b158015610b0e57600080fd5b505af1158015610b22573d6000803e3d6000fd5b505050506040513d6020811015610b3857600080fd5b5051905090565b600054600160a060020a031681565b60008060006007856006811115610b6157fe5b1115610b6c57600080fd5b83600160a060020a03166000809054906101000a9004600160a060020a0316600160a060020a0316638da5cb5b6040518163ffffffff1660e060020a028152600401602060405180830381600087803b158015610bc857600080fd5b505af1158015610bdc573d6000803e3d6000fd5b505050506040513d6020811015610bf257600080fd5b5051600160a060020a03161415610c0c5760019250610d36565b6000809054906101000a9004600160a060020a0316600160a060020a0316635c7460d66040518163ffffffff1660e060020a028152600401602060405180830381600087803b158015610c5e57600080fd5b505af1158015610c72573d6000803e3d6000fd5b505050506040513d6020811015610c8857600080fd5b5051604080517f265209f2000000000000000000000000000000000000000000000000000000008152600160a060020a0387811660048301529151919092169163265209f29160248083019260209291908290030181600087803b158015610cef57600080fd5b505af1158015610d03573d6000803e3d6000fd5b505050506040513d6020811015610d1957600080fd5b50519150846006811115610d2957fe5b60020a8281161515935090505b505092915050565b600154600160a060020a031681565b60015460009081908190600160a060020a03161515610d6b57600080fd5b6000809054906101000a9004600160a060020a0316600160a060020a031663a34b80b06040518163ffffffff1660e060020a028152600401602060405180830381600087803b158015610dbd57600080fd5b505af1158015610dd1573d6000803e3d6000fd5b505050506040513d6020811015610de757600080fd5b505133600160a060020a03821614610dfe57600080fd5b600154604080517f51640fee000000000000000000000000000000000000000000000000000000008152600481018990529051600160a060020a03909216916351640fee91602480820192610100929091908290030181600087803b158015610e6657600080fd5b505af1158015610e7a573d6000803e3d6000fd5b505050506040513d610100811015610e9157600080fd5b506020810151606082015160c09092015190955090935091508215610eb557600080fd5b600154604080517fbdd7504800000000000000000000000000000000000000000000000000000000815260048101899052600160a060020a0388811660248301529151919092169163bdd7504891604480830192600092919082900301818387803b158015610f2357600080fd5b505af1158015610f37573d6000803e3d6000fd5b5050600154604080517f06ec8982000000000000000000000000000000000000000000000000000000008152600481018b90526000602482018190529151600160a060020a0390931694506306ec898293506044808201939182900301818387803b158015610fa557600080fd5b505af1158015610fb9573d6000803e3d6000fd5b505060408051600160a060020a038089168252808a1660208301528616818301526000606082015290518993507f1d7a993900fc1aacdea8768b0618d014b58445a8255572d28b19e64bb71d959592509081900360800190a2505050505050565b600154604080517fcf6ebee7000000000000000000000000000000000000000000000000000000008152600481018490529051600092600160a060020a03169163cf6ebee791602480830192602092919082900301818787803b158015610a7d57600080fd5b6001546000908190600160a060020a0316151561109c57600080fd5b600154604080517f51640fee000000000000000000000000000000000000000000000000000000008152600481018690529051600160a060020a03909216916351640fee91602480820192610100929091908290030181600087803b15801561110457600080fd5b505af1158015611118573d6000803e3d6000fd5b505050506040513d61010081101561112f57600080fd5b5060208101516060909101519092509050600160a060020a038216331461115557600080fd5b80151561129657600154604080517f06ec8982000000000000000000000000000000000000000000000000000000008152600481018690526000602482018190529151600160a060020a03909316926306ec89829260448084019391929182900301818387803b1580156111c857600080fd5b505af11580156111dc573d6000803e3d6000fd5b5050600154604080517fd50bba1a000000000000000000000000000000000000000000000000000000008152600481018890529051600160a060020a03909216935063d50bba1a925060248082019260009290919082900301818387803b15801561124657600080fd5b505af115801561125a573d6000803e3d6000fd5b5050604080516001815290518693507f4c9e4e2878404da5e23cb4c5ef447b8e31155efa1229be3e2a8541cc5aab275d92509081900360200190a25b505050565b60008060066112aa8133610b4e565b15156112b557600080fd5b600154600160a060020a031615156112cc57600080fd5b6000809054906101000a9004600160a060020a0316600160a060020a03166324a793c46040518163ffffffff1660e060020a028152600401602060405180830381600087803b15801561131e57600080fd5b505af1158015611332573d6000803e3d6000fd5b505050506040513d602081101561134857600080fd5b5051604080517fc6bc1a76000000000000000000000000000000000000000000000000000000008152600481018890529051600160a060020a039092169163c6bc1a76916024808201926020929091908290030181600087803b1580156113ae57600080fd5b505af11580156113c2573d6000803e3d6000fd5b505050506040513d60208110156113d857600080fd5b505115156113e557600080fd5b6000809054906101000a9004600160a060020a0316600160a060020a03166324a793c46040518163ffffffff1660e060020a028152600401602060405180830381600087803b15801561143757600080fd5b505af115801561144b573d6000803e3d6000fd5b505050506040513d602081101561146157600080fd5b5051604080517fade1e992000000000000000000000000000000000000000000000000000000008152600481018890529051600160a060020a039092169163ade1e9929160248082019260c0929091908290030181600087803b1580156114c757600080fd5b505af11580156114db573d6000803e3d6000fd5b505050506040513d60c08110156114f157600080fd5b506020015191506104a9858386335b600154600090819081908190600160a060020a0316151561152057600080fd5b6000809054906101000a9004600160a060020a0316600160a060020a03166324a793c46040518163ffffffff1660e060020a028152600401602060405180830381600087803b15801561157257600080fd5b505af1158015611586573d6000803e3d6000fd5b505050506040513d602081101561159c57600080fd5b5051604080517f76b240ee000000000000000000000000000000000000000000000000000000008152600481018b9052602481018990529051600160a060020a03909216916376b240ee916044808201926020929091908290030181600087803b15801561160957600080fd5b505af115801561161d573d6000803e3d6000fd5b505050506040513d602081101561163357600080fd5b505160008054604080517f24a793c40000000000000000000000000000000000000000000000000000000081529051939650600160a060020a03909116926324a793c492600480840193602093929083900390910190829087803b15801561169a57600080fd5b505af11580156116ae573d6000803e3d6000fd5b505050506040513d60208110156116c457600080fd5b5051604080517f1e13970b000000000000000000000000000000000000000000000000000000008152600481018b9052602481018990529051600160a060020a0390921691631e13970b916044808201926020929091908290030181600087803b15801561173157600080fd5b505af1158015611745573d6000803e3d6000fd5b505050506040513d602081101561175b57600080fd5b5051151561176857600080fd5b6000809054906101000a9004600160a060020a0316600160a060020a03166324a793c46040518163ffffffff1660e060020a028152600401602060405180830381600087803b1580156117ba57600080fd5b505af11580156117ce573d6000803e3d6000fd5b505050506040513d60208110156117e457600080fd5b5051604080517ff7105c05000000000000000000000000000000000000000000000000000000008152600481018b90529051600160a060020a039092169163f7105c05916024808201926020929091908290030181600087803b15801561184a57600080fd5b505af115801561185e573d6000803e3d6000fd5b505050506040513d602081101561187457600080fd5b5051600154604080517f42c366a5000000000000000000000000000000000000000000000000000000008152600481018c9052600160a060020a038b81166024830152604482018b9052606482018590526084820188905289811660a483015291519395509116916342c366a59160c4808201926020929091908290030181600087803b15801561190457600080fd5b505af1158015611918573d6000803e3d6000fd5b505050506040513d602081101561192e57600080fd5b505160408051888152600160a060020a03808b166020830152881681830152905191925082917f05763c5a99ca059f9fba5a40ed660f24ddd30b3a3d6f367bc071fbc22a79ffaf9181900360600190a26000809054906101000a9004600160a060020a0316600160a060020a03166324a793c46040518163ffffffff1660e060020a028152600401602060405180830381600087803b1580156119d057600080fd5b505af11580156119e4573d6000803e3d6000fd5b505050506040513d60208110156119fa57600080fd5b5051604080517f50ddca55000000000000000000000000000000000000000000000000000000008152600481018b9052602481018690529051600160a060020a03909216916350ddca559160448082019260009290919082900301818387803b158015611a6657600080fd5b505af1158015611a7a573d6000803e3d6000fd5b50929a99505050505050505050505600a165627a7a723058207e02c31429cb386e3b0eef7305c94cfeea4e1b407b62c595d71b2d04d404062e0029",
  "source": "// Copyright 2018 Energy Web Foundation\n// This file is part of the Origin Application brought to you by the Energy Web Foundation,\n// a global non-profit organization focused on accelerating blockchain technology across the energy sector, \n// incorporated in Zug, Switzerland.\n//\n// The Origin Application is free software: you can redistribute it and/or modify\n// it under the terms of the GNU General Public License as published by\n// the Free Software Foundation, either version 3 of the License, or\n// (at your option) any later version.\n// This is distributed in the hope that it will be useful,\n// but WITHOUT ANY WARRANTY and without an implied warranty of\n// MERCHANTABILITY or FITNESS FOR A PARTICULAR PURPOSE.  See the\n// GNU General Public License for more details, at <http://www.gnu.org/licenses/>.\n//\n// @authors: slock.it GmbH, Jonas Bentke, jonas.bentke@slock.it\n\npragma solidity ^0.4.17;\n\n/// @title The logic contract for the Certificate of Origin list\n/// @notice This contract provides the logic that determines how the data is stored\n/// @dev Needs a valid CertificateDB contract to function correctly\n\nimport \"./RoleManagement.sol\";\nimport \"./UserDB.sol\";\nimport \"./CoO.sol\";\nimport \"./CertificateDB.sol\";\nimport \"./Updatable.sol\";\nimport \"./AssetProducingRegistryLogic.sol\";\n\ncontract CertificateLogic is RoleManagement, Updatable {\n\n    ///@notice The address of a CertificateDB contract\n    CertificateDB public certificateDb;\n\n    /// @notice Logs the creation of an event\n    event LogCreatedCertificate(uint indexed _certificateId, uint powerInW, address owner, address escrow);\n    /// @notice Logs the request of an retirement of a certificate\n    event LogRetireRequest(uint indexed _certificateId, bool _retire);\n\n    event LogCertificateOwnerChanged(uint indexed _certificateId, address _oldOwner, address _newOwner, address _oldEscrow, address _newEscrow);\n    \n    /// @notice Checks if the contract is initialized\n    modifier isInitialized() {\n        require(certificateDb != CertificateDB(0x0));\n        _;\n    }\n    \n    /// @notice Constructor\n    /// @param _coo The Master contract\n    function CertificateLogic(CoO _coo) RoleManagement(_coo) public {\n\n    }\n\n    /// @notice Initialises the contract by binding it to a logic contract\n    /// @param _database Sets the logic contract\n    function init(address _database) public onlyRole(RoleManagement.Role.TopAdmin) {\n        require(certificateDb == CertificateDB(0x0));\n        certificateDb = CertificateDB(_database);\n    }\n\n    /// @notice Creates a certificate of origin. Checks in the AssetRegistry if requested wh are available.\n    /// @param _assetId The id of the Certificate\n    /// @param _owner The owner of the Certificate\n    /// @param _powerInW The amount of Watts the Certificate holds\n    function createCertificate(uint _assetId, address _owner, uint _powerInW) \n        public \n        isInitialized\n        onlyAccount(address(cooContract.demandRegistry()) )  \n        returns (uint) \n    {\n        return createCertificateIntern(_assetId, _owner, _powerInW, 0x0);\n    }\n\n    /// @notice Creates a certificate of origin. Checks in the AssetRegistry if requested wh are available.\n    /// @param _assetId The id of the Certificate\n    /// @param _owner The owner of the Certificate\n    /// @param _powerInW The amount of Watts the Certificate holds\n    /// @param _escrow The escrow of a certificate\n    /// @return a certificate-id\n    function createCertificateIntern(uint _assetId, address _owner, uint _powerInW, address _escrow) \n        internal \n        isInitialized  \n        returns (uint) \n    {\n        uint co = AssetProducingRegistryLogic(address(cooContract.assetProducingRegistry())).getCoSaved(_assetId, _powerInW);\n        require(AssetProducingRegistryLogic(address(cooContract.assetProducingRegistry())).useWhForCertificate(_assetId, _powerInW));\n        bytes32 dataLog = AssetProducingRegistryLogic(address(cooContract.assetProducingRegistry())).getLastSmartMeterReadFileHash(_assetId);\n        uint certId = certificateDb.createCertificate(_assetId, _owner, _powerInW, dataLog, co, _escrow);\n        LogCreatedCertificate(certId, _powerInW, _owner, _escrow);\n        AssetProducingRegistryLogic(address(cooContract.assetProducingRegistry())).setCO2UsedForCertificate(_assetId,co);\n        return certId;\n    }\n\n    /// @notice Creates a certificate of origin for the asset owner. Checks in the AssetRegistry if requested wh are available. \n    /// @dev the msg.sender (a matcher) will become the escrow-of that certificate and is allowed to change the change the ownership\n    /// @param _assetId The id of the Certificate\n    /// @param _powerInW The amount of Watts the Certificate holds\n    /// @return the certificate-id\n    function createCertificateForAssetOwner(uint _assetId, uint _powerInW) \n        public \n        onlyRole(RoleManagement.Role.Matcher)\n        isInitialized  \n        returns (uint) \n    {\n        require( AssetProducingRegistryLogic(address(cooContract.assetProducingRegistry())).getExistStatus(_assetId));\n        var ( , ownerAddress, , , , ) = AssetProducingRegistryLogic(address(cooContract.assetProducingRegistry())).getAssetGeneral(_assetId);\n        return createCertificateIntern(_assetId, ownerAddress, _powerInW, msg.sender);\n    }\n\n    /// @notice Request a certificate to retire. Only Certificate owner can retire\n    /// @param _id The id of the certificate\n    function retireCertificate(uint _id) \n        public \n        isInitialized\n    {\n        var (, owner, , retired,, ,,) = certificateDb.getCertificate(_id);\n        require(owner == msg.sender);\n        if (!retired) {\n            certificateDb.setCertificateEscrow(_id, 0x0);\n            certificateDb.retireCertificate(_id);\n            LogRetireRequest(_id, true);\n        }\n    }\n\n    /// @notice function to allow an escrow-address to change the ownership of a certificate\n    /// @dev this function can only be called by the demandLogic\n    /// @param _id the certificate-id\n    /// @param _newOwner the new owner of the certificate\n    function transferOwnershipByEscrow(uint _id, address _newOwner) \n        public \n        isInitialized \n        onlyAccount(address(cooContract.demandRegistry()) )  \n    {   \n           \n        address oldOwner;\n        bool retired;\n        address oldEscrow; \n        \n        ( ,oldOwner,,retired,,,oldEscrow,) = certificateDb.getCertificate(_id); \n\n        require(!retired);\n        certificateDb.setCertificateOwner(_id, _newOwner);\n        certificateDb.setCertificateEscrow(_id, 0x0);\n        LogCertificateOwnerChanged(_id, oldOwner, _newOwner, oldEscrow, 0x0);\n    }\n\n    /// @notice Sets a new owner for the certificate\n    /// @param _id The id of the certificate\n    /// @param _newOwner The address of the new owner of the certificate\n    function changeCertificateOwner(uint _id, address _newOwner) \n        public \n        isInitialized() \n        userExists(_newOwner) \n    {\n        require(msg.sender == certificateDb.getCertificateOwner(_id) && !(certificateDb.isRetired(_id)));\n        certificateDb.setCertificateOwner(_id, _newOwner);\n        \n        address oldOwner = certificateDb.getCertificateOwner(_id); \n        address oldEscrow = certificateDb.getCertificateEscrow(_id);\n\n        LogCertificateOwnerChanged(_id, oldOwner, _newOwner, oldEscrow, oldEscrow);\n\n    }\n\n    /// @notice Getter for a specific Certificate\n    /// @param _certificateId The id of the requested certificate\n    /// @return the certificate as single values\n    function getCertificate(uint _certificateId) \n        public \n        view \n        returns (  \n            uint _assetId, \n            address _owner, \n            uint _powerInW, \n            bool _retired, \n            bytes32 _dataLog, \n            uint _coSaved, \n            address _escrow, \n            uint _creationTime\n        ) \n    {\n        return certificateDb.getCertificate(_certificateId);\n    }\n\n    /// @notice Getter for a specific Certificate\n    /// @param _certificateId The id of the requested certificate\n    /// @return the certificate as single values\n    function getCertificateOwner(uint _certificateId) \n        public \n        view \n        returns (address) \n    {\n        return certificateDb.getCertificateOwner(_certificateId);\n    }\n\n    /// @notice Getter for a specific Certificate\n    /// @param _certificateId The id of the requested certificate\n    /// @return the certificate as single values\n    function isRetired(uint _certificateId) \n        public \n        view \n        returns (bool) \n    {\n        return certificateDb.isRetired(_certificateId);\n    }\n\n    /// @notice Getter for the length of the list of certificates\n    /// @return the length of the array\n    function getCertificateListLength() \n        public \n        view \n        returns (uint) \n    {\n        return certificateDb.getCertificateListLength();\n    }\n\n    /// @notice Updates the logic contract\n    /// @param _newLogic Address of the new logic contract\n    function update(address _newLogic) \n        external\n        onlyAccount(address(cooContract)) \n    {\n        require(address(cooContract) == msg.sender);\n        certificateDb.changeOwner(_newLogic);\n    }\n}",
  "sourcePath": "/Users/unomasanori/projects/DEMO_MVP/Ethereum-Madrid-Hackathon/stor-madrid/contracts/CertificateLogic.sol",
  "compiler": {
    "name": "solc",
    "version": "0.4.25+commit.59dbf8f1.Emscripten.clang"
  },
  "schemaVersion": "2.0.2",
  "updatedAt": "2019-05-25T11:56:11.345Z"
}