{
  "contractName": "DemandDB",
  "abi": [
    {
      "constant": true,
      "inputs": [],
      "name": "owner",
      "outputs": [
        {
          "name": "",
          "type": "address"
        }
      ],
      "payable": false,
      "stateMutability": "view",
      "type": "function"
    },
    {
      "constant": false,
      "inputs": [
        {
          "name": "_newOwner",
          "type": "address"
        }
      ],
      "name": "changeOwner",
      "outputs": [],
      "payable": false,
      "stateMutability": "nonpayable",
      "type": "function"
    },
    {
      "inputs": [
        {
          "name": "_owner",
          "type": "address"
        }
      ],
      "payable": false,
      "stateMutability": "nonpayable",
      "type": "constructor"
    },
    {
      "anonymous": false,
      "inputs": [
        {
          "indexed": false,
          "name": "_newOwner",
          "type": "address"
        }
      ],
      "name": "LogChangeOwner",
      "type": "event"
    },
    {
      "constant": false,
      "inputs": [
        {
          "name": "_demandId",
          "type": "uint256"
        }
      ],
      "name": "addActiveDemand",
      "outputs": [],
      "payable": false,
      "stateMutability": "nonpayable",
      "type": "function"
    },
    {
      "constant": false,
      "inputs": [
        {
          "name": "_demandId",
          "type": "uint256"
        },
        {
          "name": "_prodAssets",
          "type": "uint256"
        },
        {
          "name": "_consAssets",
          "type": "uint256"
        }
      ],
      "name": "createCoupling",
      "outputs": [],
      "payable": false,
      "stateMutability": "nonpayable",
      "type": "function"
    },
    {
      "constant": false,
      "inputs": [
        {
          "name": "_mask",
          "type": "uint256"
        }
      ],
      "name": "createEmptyDemand",
      "outputs": [
        {
          "name": "_demandId",
          "type": "uint256"
        }
      ],
      "payable": false,
      "stateMutability": "nonpayable",
      "type": "function"
    },
    {
      "constant": false,
      "inputs": [
        {
          "name": "_demandId",
          "type": "uint256"
        },
        {
          "name": "_originator",
          "type": "address"
        },
        {
          "name": "_buyer",
          "type": "address"
        },
        {
          "name": "_startTime",
          "type": "uint256"
        },
        {
          "name": "_endTime",
          "type": "uint256"
        },
        {
          "name": "_timeframe",
          "type": "uint256"
        },
        {
          "name": "_pricePerCertifiedKWh",
          "type": "uint256"
        },
        {
          "name": "_currency",
          "type": "uint256"
        }
      ],
      "name": "createGeneralDemand",
      "outputs": [],
      "payable": false,
      "stateMutability": "nonpayable",
      "type": "function"
    },
    {
      "constant": false,
      "inputs": [
        {
          "name": "_demandId",
          "type": "uint256"
        },
        {
          "name": "_WhAmountPerperiod",
          "type": "uint256"
        },
        {
          "name": "_currentWhPerperiod",
          "type": "uint256"
        },
        {
          "name": "_certInCurrentperiod",
          "type": "uint256"
        },
        {
          "name": "_productionLastSetInPeriod",
          "type": "uint256"
        },
        {
          "name": "_matcher",
          "type": "address"
        }
      ],
      "name": "createMatchProperties",
      "outputs": [],
      "payable": false,
      "stateMutability": "nonpayable",
      "type": "function"
    },
    {
      "constant": false,
      "inputs": [
        {
          "name": "_demandId",
          "type": "uint256"
        },
        {
          "name": "_country",
          "type": "bytes32"
        },
        {
          "name": "_region",
          "type": "bytes32"
        },
        {
          "name": "_zip",
          "type": "bytes32"
        },
        {
          "name": "_city",
          "type": "bytes32"
        },
        {
          "name": "_street",
          "type": "bytes32"
        },
        {
          "name": "_houseNumber",
          "type": "bytes32"
        },
        {
          "name": "_gpsLatitude",
          "type": "bytes32"
        },
        {
          "name": "_gpsLongitude",
          "type": "bytes32"
        },
        {
          "name": "_type",
          "type": "uint256"
        },
        {
          "name": "_minCO2Offset",
          "type": "uint256"
        },
        {
          "name": "_registryCompliance",
          "type": "uint256"
        },
        {
          "name": "_otherGreenAttributes",
          "type": "bytes32"
        },
        {
          "name": "_typeOfPublicSupport",
          "type": "bytes32"
        }
      ],
      "name": "createPriceDriving",
      "outputs": [],
      "payable": false,
      "stateMutability": "nonpayable",
      "type": "function"
    },
    {
      "constant": false,
      "inputs": [
        {
          "name": "_demandId",
          "type": "uint256"
        },
        {
          "name": "_from",
          "type": "uint256"
        },
        {
          "name": "_to",
          "type": "uint256"
        }
      ],
      "name": "removeActiveDemand",
      "outputs": [
        {
          "name": "_success",
          "type": "bool"
        }
      ],
      "payable": false,
      "stateMutability": "nonpayable",
      "type": "function"
    },
    {
      "constant": false,
      "inputs": [
        {
          "name": "_demandId",
          "type": "uint256"
        },
        {
          "name": "_time",
          "type": "uint256"
        }
      ],
      "name": "setDemandCreationTime",
      "outputs": [],
      "payable": false,
      "stateMutability": "nonpayable",
      "type": "function"
    },
    {
      "constant": false,
      "inputs": [
        {
          "name": "_demandId",
          "type": "uint256"
        },
        {
          "name": "_enabled",
          "type": "bool"
        }
      ],
      "name": "setEnabled",
      "outputs": [],
      "payable": false,
      "stateMutability": "nonpayable",
      "type": "function"
    },
    {
      "constant": false,
      "inputs": [
        {
          "name": "_demandId",
          "type": "uint256"
        },
        {
          "name": "_currentWhPerperiod",
          "type": "uint256"
        },
        {
          "name": "_certInCurrentperiod",
          "type": "uint256"
        },
        {
          "name": "_productionLastSetInPeriod",
          "type": "uint256"
        }
      ],
      "name": "updateMatchProperties",
      "outputs": [],
      "payable": false,
      "stateMutability": "nonpayable",
      "type": "function"
    },
    {
      "constant": true,
      "inputs": [
        {
          "name": "_demandId",
          "type": "uint256"
        }
      ],
      "name": "demandExists",
      "outputs": [
        {
          "name": "",
          "type": "bool"
        }
      ],
      "payable": false,
      "stateMutability": "view",
      "type": "function"
    },
    {
      "constant": true,
      "inputs": [
        {
          "name": "_demandId",
          "type": "uint256"
        }
      ],
      "name": "getActiveDemandIdAt",
      "outputs": [
        {
          "name": "",
          "type": "uint256"
        }
      ],
      "payable": false,
      "stateMutability": "view",
      "type": "function"
    },
    {
      "constant": true,
      "inputs": [],
      "name": "getActiveDemandListLength",
      "outputs": [
        {
          "name": "",
          "type": "uint256"
        }
      ],
      "payable": false,
      "stateMutability": "view",
      "type": "function"
    },
    {
      "constant": true,
      "inputs": [],
      "name": "getAllDemandListLength",
      "outputs": [
        {
          "name": "",
          "type": "uint256"
        }
      ],
      "payable": false,
      "stateMutability": "view",
      "type": "function"
    },
    {
      "constant": true,
      "inputs": [
        {
          "name": "_demandId",
          "type": "uint256"
        }
      ],
      "name": "getDemandCoupling",
      "outputs": [
        {
          "name": "producingAssets",
          "type": "uint256"
        },
        {
          "name": "consumingAssets",
          "type": "uint256"
        }
      ],
      "payable": false,
      "stateMutability": "view",
      "type": "function"
    },
    {
      "constant": true,
      "inputs": [
        {
          "name": "_assetId",
          "type": "uint256"
        }
      ],
      "name": "getDemandGeneral",
      "outputs": [
        {
          "name": "originator",
          "type": "address"
        },
        {
          "name": "buyer",
          "type": "address"
        },
        {
          "name": "startTime",
          "type": "uint256"
        },
        {
          "name": "endTime",
          "type": "uint256"
        },
        {
          "name": "timeframe",
          "type": "uint256"
        },
        {
          "name": "pricePerCertifiedKWh",
          "type": "uint256"
        },
        {
          "name": "currency",
          "type": "uint256"
        },
        {
          "name": "demandMask",
          "type": "uint256"
        }
      ],
      "payable": false,
      "stateMutability": "view",
      "type": "function"
    },
    {
      "constant": true,
      "inputs": [
        {
          "name": "_assetId",
          "type": "uint256"
        }
      ],
      "name": "getDemandMatcherProperties",
      "outputs": [
        {
          "name": "wHAmountPerperiod",
          "type": "uint256"
        },
        {
          "name": "currentWhPerperiod",
          "type": "uint256"
        },
        {
          "name": "certInCurrentperiod",
          "type": "uint256"
        },
        {
          "name": "productionLastSetInPeriod",
          "type": "uint256"
        },
        {
          "name": "matcher",
          "type": "address"
        }
      ],
      "payable": false,
      "stateMutability": "view",
      "type": "function"
    },
    {
      "constant": true,
      "inputs": [
        {
          "name": "_assetId",
          "type": "uint256"
        }
      ],
      "name": "getDemandPriceDriving",
      "outputs": [
        {
          "name": "locationCountry",
          "type": "bytes32"
        },
        {
          "name": "locationRegion",
          "type": "bytes32"
        },
        {
          "name": "assettype",
          "type": "uint256"
        },
        {
          "name": "minCO2Offset",
          "type": "uint256"
        },
        {
          "name": "registryCompliance",
          "type": "uint256"
        },
        {
          "name": "_otherGreenAttributes",
          "type": "bytes32"
        },
        {
          "name": "_typeOfPublicSupport",
          "type": "bytes32"
        },
        {
          "name": "isInitialized",
          "type": "bool"
        }
      ],
      "payable": false,
      "stateMutability": "view",
      "type": "function"
    },
    {
      "constant": true,
      "inputs": [
        {
          "name": "_demandId",
          "type": "uint256"
        }
      ],
      "name": "getDemandMask",
      "outputs": [
        {
          "name": "",
          "type": "uint256"
        }
      ],
      "payable": false,
      "stateMutability": "view",
      "type": "function"
    },
    {
      "constant": true,
      "inputs": [
        {
          "name": "_demandId",
          "type": "uint256"
        }
      ],
      "name": "getStartEpoche",
      "outputs": [
        {
          "name": "",
          "type": "uint256"
        }
      ],
      "payable": false,
      "stateMutability": "view",
      "type": "function"
    },
    {
      "constant": true,
      "inputs": [
        {
          "name": "_assetId",
          "type": "uint256"
        }
      ],
      "name": "getTimeFrame",
      "outputs": [
        {
          "name": "",
          "type": "uint256"
        }
      ],
      "payable": false,
      "stateMutability": "view",
      "type": "function"
    },
    {
      "constant": true,
      "inputs": [
        {
          "name": "_demandId",
          "type": "uint256"
        },
        {
          "name": "_from",
          "type": "uint256"
        },
        {
          "name": "_to",
          "type": "uint256"
        }
      ],
      "name": "searchForDemand",
      "outputs": [
        {
          "name": "",
          "type": "bool"
        },
        {
          "name": "",
          "type": "uint256"
        }
      ],
      "payable": false,
      "stateMutability": "view",
      "type": "function"
    }
  ],
  "bytecode": "0x608060405234801561001057600080fd5b50604051602080611bc6833981016040525160008054600160a060020a03909216600160a060020a0319909216919091179055611b74806100526000396000f30060806040526004361061013d5763ffffffff7c01000000000000000000000000000000000000000000000000000000006000350416630261f91f8114610142578063092b1ea1146101655780630a085b251461019157806310cbcab1146101ec5780631239726d1461020a578063245c1007146102435780633b18f68e1461026d5780634419bbdc146102a65780634620ce17146102bb578063572a7664146102d657806371c574a61461030657806378e8f75a1461031e578063803952fe1461036a5780638da5cb5b14610388578063a2c58f4b146103b9578063a6f9dae1146103d1578063ae7f119b146103f2578063b03d8b2e14610423578063b8f082851461043b578063c3324e27146104a0578063d6ff6171146104b8578063e5c13dd1146104d0578063f50c82e7146104ed578063f9e170db14610532575b600080fd5b34801561014e57600080fd5b50610163600435602435604435606435610547565b005b34801561017157600080fd5b5061017d600435610598565b604080519115158252519081900360200190f35b34801561019d57600080fd5b506101a96004356105d9565b604080519889526020890197909752878701959095526060870193909352608086019190915260a085015260c0840152151560e083015251908190036101000190f35b3480156101f857600080fd5b5061017d60043560243560443561079b565b34801561021657600080fd5b50610163600435600160a060020a036024358116906044351660643560843560a43560c43560e435610822565b34801561024f57600080fd5b5061025b6004356108b9565b60408051918252519081900360200190f35b34801561027957600080fd5b5061028b6004356024356044356108f1565b60408051921515835260208301919091528051918290030190f35b3480156102b257600080fd5b5061025b610973565b3480156102c757600080fd5b50610163600435602435610993565b3480156102e257600080fd5b50610163600435602435604435606435608435600160a060020a0360a435166109d3565b34801561031257600080fd5b5061025b600435610a5a565b34801561032a57600080fd5b50610336600435610a99565b604080519586526020860194909452848401929092526060840152600160a060020a03166080830152519081900360a00190f35b34801561037657600080fd5b50610163600435602435604435610b3b565b34801561039457600080fd5b5061039d610b84565b60408051600160a060020a039092168252519081900360200190f35b3480156103c557600080fd5b5061025b600435610b93565b3480156103dd57600080fd5b50610163600160a060020a0360043516610bd5565b3480156103fe57600080fd5b5061040a600435610c62565b6040805192835260208301919091528051918290030190f35b34801561042f57600080fd5b50610163600435610ccb565b34801561044757600080fd5b50610453600435610d17565b60408051600160a060020a03998a168152979098166020880152868801959095526060860193909352608085019190915260a084015260c083015260e08201529051908190036101000190f35b3480156104ac57600080fd5b5061025b60043561103e565b3480156104c457600080fd5b5061025b60043561107d565b3480156104dc57600080fd5b5061016360043560243515156115b5565b3480156104f957600080fd5b5061016360043560243560443560643560843560a43560c43560e43561010435610124356101443561016435610184356101a435611600565b34801561053e57600080fd5b5061025b611804565b600080548190600160a060020a0316331461056157600080fd5b602880548790811061056f57fe5b600091825260209182902091020160198101959095555050601a830191909155601b9091015550565b60008054600160a060020a031633146105b057600080fd5b60288054839081106105be57fe5b6000918252602091829020910201601d015460ff1692915050565b6000806000806000806000806105ed611977565b600054600160a060020a0316331461060457600080fd5b602880548b90811061061257fe5b906000526020600020906020020160090160e060405190810160405290816000820161012060405190810160405290816000820154600019166000191681526020016001820154600019166000191681526020016002820154600019166000191681526020016003820154600019166000191681526020016004820154600019166000191681526020016005820154600019166000191681526020016006820154600019166000191681526020016007820154600019166000191681526020016008820160009054906101000a900460ff161515151581525050815260200160098201548152602001600a8201548152602001600b8201548152602001600c82015460001916600019168152602001600d82015460001916600019168152602001600e820160009054906101000a900460ff161515151581525050905080600001516000015181600001516020015182604001518360600151846020015185608001518660a001518760c001519850985098509850985098509850985050919395975091939597565b6000805481908190600160a060020a031633146107b757600080fd5b6107c28686866108f1565b91509150811561081957601e805460001981019081106107de57fe5b9060005260206000200154601e828154811015156107f857fe5b600091825260209091200155601e8054906108179060001983016119bc565b505b50949350505050565b600080548190600160a060020a0316331461083c57600080fd5b602880548b90811061084a57fe5b60009182526020918290209102018054600160a060020a039a8b1673ffffffffffffffffffffffffffffffffffffffff199182161782556001820180549a909b169916989098179098555060028601949094556003850192909255600484015560058301556006909101555050565b60008054600160a060020a031633146108d157600080fd5b601e8054839081106108df57fe5b90600052602060002001549050919050565b60008054819081908190600160a060020a0316331461090f57600080fd5b601e54851061092457601e5460001901610926565b845b91508590505b818110156109695786601e8281548110151561094457fe5b906000526020600020015414156109615760018193509350610969565b60010161092c565b5050935093915050565b60008054600160a060020a0316331461098b57600080fd5b50601e545b90565b600054600160a060020a031633146109aa57600080fd5b806028838154811015156109ba57fe5b9060005260206000209060200201601e01819055505050565b600080548190600160a060020a031633146109ed57600080fd5b60288054899081106109fb57fe5b6000918252602091829020910201601881019790975550506019850193909355601a840191909155601b830155601c909101805473ffffffffffffffffffffffffffffffffffffffff1916600160a060020a0390921691909117905550565b60008054600160a060020a03163314610a7257600080fd5b6028805483908110610a8057fe5b9060005260206000209060200201601e01549050919050565b6000806000806000610aa96119e5565b600054600160a060020a03163314610ac057600080fd5b6028805488908110610ace57fe5b60009182526020918290206040805160a08101825292840290910160188101548084526019820154948401859052601a820154928401839052601b82015460608501819052601c90920154600160a060020a031660809094018490529b939a509098509650945092505050565b600080548190600160a060020a03163314610b5557600080fd5b6028805486908110610b6357fe5b60009182526020918290209102016007810194909455505060089091015550565b600054600160a060020a031681565b60008054600160a060020a03163314610bab57600080fd5b6028805483908110610bb957fe5b9060005260206000209060200201600001600401549050919050565b600054600160a060020a03163314610bec57600080fd5b600160a060020a0381161515610c0157600080fd5b60008054600160a060020a03831673ffffffffffffffffffffffffffffffffffffffff19909116811790915560408051918252517f95fd54179c11867fb083dd94347ea50f144dd4cfd7612b7bca169f162824af169181900360200190a150565b600080610c6d611a1e565b600054600160a060020a03163314610c8457600080fd5b6028805485908110610c9257fe5b60009182526020918290206040805180820190915291830201600781015480835260089091015491909201819052909590945092505050565b600054600160a060020a03163314610ce257600080fd5b601e80546001810182556000919091527f50bb669a95c7b50b7e8a6f09454034b2b14cf2b85c730dca9a539ca82cb6e3500155565b600080600080600080600080610d2b611a35565b610d33611a8e565b600054600160a060020a03163314610d4a57600080fd5b602880548c908110610d5857fe5b6000918252602091829020604080516101c080820183529385029092018054600160a060020a0390811660e085810191825260018401548316610100808801919091526002850154610120808901919091526003860154610140808a01919091526004870154610160808b01919091526005880154610180808c019190915260068901546101a0808d0191909152968b528951808b018b5260078a0154815260088a0154818f01528b8e0152895161020081018b5260098a0154968101968752600a8a015495810195909552600b89015493850193909352600c88015491840191909152600d87015490830152600e86015490820152600f85015492810192909252601084015496820196909652601183015460ff90811615156101e083015295815260128301548188015260138301548185015260148301546060808301919091526015840154608080840191909152601685015460a08481019190915260178601548916151560c08581019190915288880194909452865180820188526018870154815260198701549a81019a909a52601a860154968a0196909652601b85015489830152601c85015490931688840152850196909652601d820154909416151593830193909352601e83015490820152601f909101549181019190915260288054919350908c908110610f4a57fe5b906000526020600020906020020160000160e060405190810160405290816000820160009054906101000a9004600160a060020a0316600160a060020a0316600160a060020a031681526020016001820160009054906101000a9004600160a060020a0316600160a060020a0316600160a060020a03168152602001600282015481526020016003820154815260200160048201548152602001600582015481526020016006820154815250509050806000015181602001518260400151836060015184608001518560a001518660c001518860c00151995099509950995099509950995099505050919395975091939597565b60008054600160a060020a0316331461105657600080fd5b602880548390811061106457fe5b9060005260206000209060200201601f01549050919050565b60008054600160a060020a0316331461109557600080fd5b6028805490509050602860e060405190810160405280600160e060405190810160405290816000820160009054906101000a9004600160a060020a0316600160a060020a0316600160a060020a031681526020016001820160009054906101000a9004600160a060020a0316600160a060020a0316600160a060020a031681526020016002820154815260200160038201548152602001600482015481526020016005820154815260200160068201548152505081526020016008604080519081016040529081600082015481526020016001820154815250508152602001600a60e060405190810160405290816000820161012060405190810160405290816000820154600019166000191681526020016001820154600019166000191681526020016002820154600019166000191681526020016003820154600019166000191681526020016004820154600019166000191681526020016005820154600019166000191681526020016006820154600019166000191681526020016007820154600019166000191681526020016008820160009054906101000a900460ff161515151581525050815260200160098201548152602001600a8201548152602001600b8201548152602001600c82015460001916600019168152602001600d82015460001916600019168152602001600e820160009054906101000a900460ff1615151515815250508152602001601960a06040519081016040529081600082015481526020016001820154815260200160028201548152602001600382015481526020016004820160009054906101000a9004600160a060020a0316600160a060020a0316600160a060020a031681525050815260200160001515815260200160008152602001848152509080600181540180825580915050906001820390600052602060002090602002016000909192909190915060008201518160000160008201518160000160006101000a815481600160a060020a030219169083600160a060020a0316021790555060208201518160010160006101000a815481600160a060020a030219169083600160a060020a0316021790555060408201518160020155606082015181600301556080820151816004015560a0820151816005015560c08201518160060155505060208201518160070160008201518160000155602082015181600101555050604082015181600901600082015181600001600082015181600001906000191690556020820151816001019060001916905560408201518160020190600019169055606082015181600301906000191690556080820151816004019060001916905560a0820151816005019060001916905560c0820151816006019060001916905560e082015181600701906000191690556101008201518160080160006101000a81548160ff021916908315150217905550505060208201518160090155604082015181600a0155606082015181600b0155608082015181600c019060001916905560a082015181600d019060001916905560c082015181600e0160006101000a81548160ff02191690831515021790555050506060820151816018016000820151816000015560208201518160010155604082015181600201556060820151816003015560808201518160040160006101000a815481600160a060020a030219169083600160a060020a031602179055505050608082015181601d0160006101000a81548160ff02191690831515021790555060a082015181601e015560c082015181601f0155505050919050565b60008054600160a060020a031633146115cd57600080fd5b60288054849081106115db57fe5b6000918252602091829020910201601d01805460ff1916921515929092179091555050565b600054600160a060020a0316331461161757600080fd5b601f60288f81548110151561162857fe5b906000526020600020906020020160090160000160008201548160000190600019169055600182015481600101906000191690556002820154816002019060001916905560038201548160030190600019169055600482015481600401906000191690556005820154816005019060001916905560068201548160060190600019169055600782015481600701906000191690556008820160009054906101000a900460ff168160080160006101000a81548160ff0219169083151502179055509050508460288f8154811015156116fc57fe5b9060005260206000209060200201600901600a01819055508360288f81548110151561172457fe5b9060005260206000209060200201600901600b01819055508260288f81548110151561174c57fe5b9060005260206000209060200201600901600901819055508160288f81548110151561177457fe5b9060005260206000209060200201600901600c0181600019169055508060288f8154811015156117a057fe5b6000918252602091829020910201601601556117c38e8e8e8e8e8e8e8e8e611823565b600160288f8154811015156117d457fe5b6000918252602091829020910201601701805460ff19169115159190911790555050505050505050505050505050565b60008054600160a060020a0316331461181c57600080fd5b5060285490565b8760288a81548110151561183357fe5b600091825260209182902091020160090155602880548891908b90811061185657fe5b6000918252602091829020910201600a0155602880548791908b90811061187957fe5b6000918252602091829020910201600d0155602880548691908b90811061189c57fe5b6000918252602091829020910201600b0155602880548591908b9081106118bf57fe5b6000918252602091829020910201600c0155602880548491908b9081106118e257fe5b6000918252602091829020910201600e0155602880548391908b90811061190557fe5b6000918252602091829020910201600f0155602880548291908b90811061192857fe5b60009182526020918290209102016010015560288054600191908b90811061194c57fe5b6000918252602091829020910201601101805460ff1916911515919091179055505050505050505050565b6101e06040519081016040528061198c611ade565b815260006020820181905260408201819052606082018190526080820181905260a0820181905260c09091015290565b8154818355818111156119e0576000838152602090206119e0918101908301611b2a565b505050565b60a060405190810160405280600081526020016000815260200160008152602001600081526020016000600160a060020a031681525090565b604080518082019091526000808252602082015290565b61040060405190810160405280611a4a611a8e565b8152602001611a57611a1e565b8152602001611a64611977565b8152602001611a716119e5565b815260200160001515815260200160008152602001600081525090565b60e0604051908101604052806000600160a060020a031681526020016000600160a060020a0316815260200160008152602001600081526020016000815260200160008152602001600081525090565b6040805161012081018252600080825260208201819052918101829052606081018290526080810182905260a0810182905260c0810182905260e0810182905261010081019190915290565b61099091905b80821115611b445760008155600101611b30565b50905600a165627a7a7230582073bd1b050d3a6f11c6e3d94e431fe562eb336986dc6a151670680e2d6944846b0029",
  "source": "// Copyright 2018 Energy Web Foundation\n// This file is part of the Origin Application brought to you by the Energy Web Foundation,\n// a global non-profit organization focused on accelerating blockchain technology across the energy sector, \n// incorporated in Zug, Switzerland.\n//\n// The Origin Application is free software: you can redistribute it and/or modify\n// it under the terms of the GNU General Public License as published by\n// the Free Software Foundation, either version 3 of the License, or\n// (at your option) any later version.\n// This is distributed in the hope that it will be useful,\n// but WITHOUT ANY WARRANTY and without an implied warranty of\n// MERCHANTABILITY or FITNESS FOR A PARTICULAR PURPOSE.  See the\n// GNU General Public License for more details, at <http://www.gnu.org/licenses/>.\n//\n// @authors: slock.it GmbH, Martin Kuechler, martin.kuchler@slock.it\npragma solidity ^0.4.19;\n\nimport \"./Owned.sol\";\nimport \"./LocationDefinition.sol\";\n\n/// @title The Database contract for the AgreementDB of Origin list\n/// @notice This contract only provides getter and setter methods and only its logic-contract is able to call the functions\ncontract DemandDB is Owned {\n\n    /// @notice struct for all the data belonging to the matcher\n    struct MatcherProperties {\n        // how many Wh per Period\n        uint targetWhPerperiod;\n        // amount of Wh the demand has already received\n        uint currentWhPerperiod;\n        uint certInCurrentperiod;\n        uint productionLastSetInPeriod;\n        // simple address of privateKey-keypair\n        address matcher; \n    }\n\n    /// @notice struct for all the information belonging to the coupling, can be 0\n    struct Coupling {\n        uint producingAssets;\n        uint consumingAssets;\n    }\n\n    /// @notice struct for all the information that can affect a price\n    struct PriceDriving {\n        LocationDefinition.Location location;\n        uint registryCompliance;\n        uint assettype;\n        // \tproportion between CO2 and wh in percent (100 * CO2 / Wh)\n        uint minCO2Offset; \n        bytes32 otherGreenAttributes;\n        bytes32 typeOfPublicSupport;\n        bool isInitialized;\n    }\n\n    /// @notice struct for all the general information about a demand\n    struct GeneralInfo {\n        address originator;\n        address buyer;\n        uint startTime;\n        uint endTime;\n        uint timeframe;\n        uint pricePerCertifiedKWh;\n        uint currency;\n    }\n    \n    /// @notice struct for gather all information\n    struct Demand {\n        GeneralInfo general;\n        Coupling couple;\n        PriceDriving priceDriving;\n        MatcherProperties matchProp; \n        bool enabled;\n        uint created;\n        uint demandMask;\n    }\n\n    GeneralInfo generalEmpty;\n    Coupling coupleEmpty;\n    PriceDriving  priceDrivingEmpty;\n    MatcherProperties matchPropEmpty; \n\n    /// @notice list with all currenty active Demands\n    uint[] private activeDemands; \n\n    /// @notice empty location struct for initializing, used to avoid compile warnings\n    LocationDefinition.Location private locationEmpty;  \n\n    /// @notice list with all created demands\n    Demand[] private allDemands;  \n\n    /// @notice Constructor\n    /// @param _owner The owner of the contract\n    function DemandDB(address _owner) \n        public\n        Owned(_owner) \n    {\n\n    } \n\n    /// @notice function to add a demand to the activeDemands-array\n    /// @param _demandId hash-identifier of a demand\n    function addActiveDemand(uint _demandId)\n        external \n        onlyOwner\n    {\n        activeDemands.push(_demandId);\n    }\n\n    /// @notice function to create a coupling\n    /// @param _demandId identifier\n    /// @param _prodAssets array with assets that are allowed to produce energy for this agreement\n    /// @param _consAssets array with assets that are allowed to consume energy for this agreement\n    function createCoupling(\n        uint _demandId,\n        uint _prodAssets,\n        uint _consAssets\n    )\n        external \n        onlyOwner\n    {\n        Demand storage d = allDemands[_demandId];\n\n        Coupling storage c = d.couple;\n        c.producingAssets = _prodAssets;\n        c.consumingAssets = _consAssets;\n    }\n\n    /// @notice function to create an empty demand\n    /// @param _mask bitmask with the demand properties\n    /// @return the index and thus the identifier of a demand\n    function createEmptyDemand(uint _mask)\n        external\n        onlyOwner\n        returns (uint _demandId)\n    {\n        _demandId = allDemands.length;\n        allDemands.push(Demand({\n            general: generalEmpty,\n            couple: coupleEmpty,\n            priceDriving: priceDrivingEmpty,\n            matchProp: matchPropEmpty,\n            enabled: false,\n            created : 0,\n            demandMask: _mask\n        }));\n    }\n\n    /// @notice function to create the general informations of a demand\n    /// @param _demandId identifier\n    /// @param _originator producer of energy\n    /// @param _buyer buyer of a certiface, can be 0x0\n    /// @param _startTime eariest accepted certificates\n    /// @param _endTime latest accepted certificates\n    /// @param _timeframe the timeframe for the demand\n    /// @param _pricePerCertifiedKWh price per certified kWh\n    /// @param _currency currency the originator wants to be paid with\n    function createGeneralDemand(\n        uint _demandId,\n        address _originator,\n        address _buyer,\n        uint _startTime,\n        uint _endTime,\n        uint _timeframe,\n        uint _pricePerCertifiedKWh,\n        uint _currency\n    )\n        external\n        onlyOwner \n    {\n\n        Demand storage d = allDemands[_demandId];\n\n        GeneralInfo storage g = d.general;\n        g.originator = _originator;\n        g.buyer = _buyer;\n        g.startTime = _startTime;\n        g.endTime = _endTime;\n        g.timeframe = _timeframe;\n        g.pricePerCertifiedKWh = _pricePerCertifiedKWh;\n        g.currency = _currency;\n        \n    }\n\n    /// @notice function to create the matching-properties\n    /// @param _demandId identifier\n    /// @param _WhAmountPerperiod the desired amount of Wh per period\n    /// @param _currentWhPerperiod the current amount of Wh\n    /// @param _certInCurrentperiod the amount of certificates created in the current period\n    /// @param _productionLastSetInPeriod the last period where the consumption was set\n    /// @param _matcher account of the javaScript-matcher\n    function createMatchProperties(\n        uint _demandId,\n        uint _WhAmountPerperiod,\n        uint _currentWhPerperiod,\n        uint _certInCurrentperiod,\n        uint _productionLastSetInPeriod,\n        address _matcher\n    )\n        external\n        onlyOwner\n    {\n\n        Demand storage d = allDemands[_demandId];\n\n        MatcherProperties storage m = d.matchProp;\n        m.targetWhPerperiod = _WhAmountPerperiod;\n        m.currentWhPerperiod = _currentWhPerperiod;\n        m.certInCurrentperiod = _certInCurrentperiod;\n        m.productionLastSetInPeriod = _productionLastSetInPeriod;\n        m.matcher = _matcher;\n    }\n\n    /// @notice function to create the pricedriving-factors of a demand\n    /// @param _demandId identifier\n    /// @param _country country the engery has to come from\n    /// @param _region region the energy has to come from\n    /// @param _zip zip code the energy has to come from\n    /// @param _street the streetname\n    /// @param _houseNumber the housenumber\n    /// @param _gpsLatitude latitude of coordinates\n    /// @param _gpsLongitude longitude of coordinates\n    /// @param _type fuel-tyoe \n    /// @param _minCO2Offset CO2-offset\n    /// @param _registryCompliance compliance\n    /// @param _otherGreenAttributes other green attributes \n    /// @param _typeOfPublicSupport type of public support\n    function createPriceDriving(\n        uint _demandId,\n        bytes32 _country,\n        bytes32 _region,\n        bytes32 _zip,\n        bytes32 _city,\n        bytes32 _street,\n        bytes32 _houseNumber,\n        bytes32 _gpsLatitude,\n        bytes32 _gpsLongitude,\n        uint _type,\n        uint _minCO2Offset,\n        uint _registryCompliance,\n        bytes32 _otherGreenAttributes,\n        bytes32 _typeOfPublicSupport\n    )\n        external\n        onlyOwner\n    {\n\n        allDemands[_demandId].priceDriving.location = locationEmpty;\n        allDemands[_demandId].priceDriving.assettype = _type;\n        allDemands[_demandId].priceDriving.minCO2Offset = _minCO2Offset;\n        allDemands[_demandId].priceDriving.registryCompliance = _registryCompliance;\n        allDemands[_demandId].priceDriving.otherGreenAttributes = _otherGreenAttributes;\n        allDemands[_demandId].priceDriving.typeOfPublicSupport = _typeOfPublicSupport;\n\n        setDemandLocation(_demandId,_country,_region,_zip,_city,_street, _houseNumber, _gpsLatitude, _gpsLongitude);\n        allDemands[_demandId].priceDriving.isInitialized = true;    \n    }\n\n    /// @notice function to remove an entry in the activeDemands-array\n    /// @param _demandId the index position of the full demand in the allDemands-array\n    /// @param _from the start-index to search for the demandID\n    /// @param _to the end-index to search for the demandID\n    /// @dev due to the design the order of elements in the array will change when removing an element!\n    function removeActiveDemand(uint _demandId, uint _from, uint _to)\n        external\n        onlyOwner\n        returns (bool _success)\n    {\n        /*\n        uint end = _to < activeDemands.length ? _to : activeDemands.length-1;\n\n        for (uint i = _from; i < end; i++) { \n            if ( activeDemands[i] == _demandId) {\n                activeDemands[i] = activeDemands[activeDemands.length-1];\n                activeDemands.length--;\n                return _success;\n            }\n        }*/\n        var (found, index) = searchForDemand(_demandId, _from, _to);\n\n        if(found){\n            activeDemands[index] = activeDemands[activeDemands.length-1];\n            activeDemands.length--;\n        }\n\n        return found;\n\n    }\n\n    /// @notice function to set the creation-time of a demand\n    /// @param _demandId identifier\n    /// @param _time creation-time\n    function setDemandCreationTime(uint _demandId, uint _time)\n        external \n        onlyOwner\n    {\n        allDemands[_demandId].created = _time;\n    }\n\n    /// @notice function to en- or disable a demand\n    /// @param _demandId identifier\n    /// @param _enabled flag if the demand should be enabled\n    function setEnabled(uint _demandId, bool _enabled)\n        external \n        onlyOwner\n    {\n        Demand storage d = allDemands[_demandId];\n        d.enabled = _enabled;\n    }\n\n    /// @notice function to update some matching parameters\n    /// @param _demandId identifier\n    /// @param _currentWhPerperiod the current amount of Wh\n    /// @param _certInCurrentperiod the amount of certificates created in the current period\n    /// @param _productionLastSetInPeriod the last period where the consumption was set\n    function updateMatchProperties(\n        uint _demandId,\n        uint _currentWhPerperiod,\n        uint _certInCurrentperiod,\n        uint _productionLastSetInPeriod\n    )\n        external\n        onlyOwner\n    {\n        Demand storage d = allDemands[_demandId];\n\n        MatcherProperties storage m = d.matchProp;\n        m.currentWhPerperiod = _currentWhPerperiod;\n        m.certInCurrentperiod = _certInCurrentperiod;\n        m.productionLastSetInPeriod = _productionLastSetInPeriod;\n    }\n\n    /// @notice function that returns if a demands exists\n    /// @param _demandId identifier\n    /// @return true if demand exists\n    function demandExists(uint _demandId)\n        onlyOwner\n        external\n        view \n        returns (bool)\n    {\n        return allDemands[_demandId].enabled;\n    }\n\n    /// @notice function to get the hash-identifier of an active demand in the activeDemands-array\n    /// @param _demandId index of the element in the array\n    /// @return hash-identifier of an active demand\n    function getActiveDemandIdAt(uint _demandId)\n        external \n        onlyOwner\n        view \n        returns (uint)\n    {\n        return activeDemands[_demandId];\n    }\n\n    /// @notice function to retrieve the length of the activeDemands-array\n    /// @return the length of the activeDemands-array\n    function getActiveDemandListLength()\n        external\n        onlyOwner\n        view \n        returns (uint)\n    {\n        return activeDemands.length;\n    }\n\n    /// @notice funtion to retrieve the length of the allDemands-array\n    /// @return the length of the allDemands-array\n    function getAllDemandListLength() \n        external\n        onlyOwner\n        view\n        returns (uint)\n    {\n        return allDemands.length;\n    }\n    \n    /// @notice function to get the information if the coupling-struct\n    /// @dev at the moment arrays can't be accessed in other contracts due to their dynamic length\n    /// @param _demandId identifier\n    /// @return used timeFrame, arrays of producing and consuming assets\n    function getDemandCoupling(uint _demandId)\n        external\n        onlyOwner\n        view \n        returns(\n            uint producingAssets,\n            uint consumingAssets\n        ) \n    {\n        Coupling memory s = allDemands[_demandId].couple;\n        return (s.producingAssets,s.consumingAssets);\n    }\n\n    \n    /// @notice function to retrieve the general informations of a demand\n    /// @param _assetId identifier of the demand\n    /// @return the originator, buyer, startTime, endTime, currency, coupled\n    function getDemandGeneral(uint _assetId)\n        external\n        onlyOwner\n        view \n        returns(\n            address originator,\n            address buyer,\n            uint startTime,\n            uint endTime,\n            uint timeframe,\n            uint pricePerCertifiedKWh,\n            uint currency,\n            uint demandMask\n        ) \n    {\n        Demand memory d = allDemands[_assetId];\t\n        GeneralInfo memory g = allDemands[_assetId].general;\n        return (g.originator, g.buyer, g.startTime, g.endTime, g.timeframe, g.pricePerCertifiedKWh, g.currency, d.demandMask);\n    }\n\n    /// @notice function to get the matcher-properties of a demand\n    /// @param _assetId identifier\n    /// @return amount of Wh per period, current Wh per period, certificates in current period, last period where a consumption was set and the matcher-address\n    function getDemandMatcherProperties(uint _assetId)\n        external\n        onlyOwner\n        view \n        returns (  \n            uint wHAmountPerperiod,\n            uint currentWhPerperiod,\n            uint certInCurrentperiod,\n            uint productionLastSetInPeriod,\n            address matcher\n        ) \n    {\n        MatcherProperties memory m = allDemands[_assetId].matchProp;\n        return (m.targetWhPerperiod, m.currentWhPerperiod, m.certInCurrentperiod, m.productionLastSetInPeriod, m.matcher);\n    }\n\n\n    /// @notice function to get the price-driving informations\n    /// @param _assetId identifier\n    /// @return location country and region, fueltype and CO2-offset\n    function getDemandPriceDriving(uint _assetId)\n        external\n        onlyOwner\n        view \n        returns (\n            bytes32 locationCountry,\n            bytes32 locationRegion,\n            uint assettype,\n            uint minCO2Offset,\n            uint registryCompliance,\n            bytes32 _otherGreenAttributes,\n            bytes32 _typeOfPublicSupport,\n            bool isInitialized\n        ) \n    {\n        PriceDriving memory p = allDemands[_assetId].priceDriving;\n        return (p.location.country, p.location.region, p.assettype, p.minCO2Offset, p.registryCompliance, p.otherGreenAttributes, p.typeOfPublicSupport, p.isInitialized);\n    }\n\n    /// @notice gets the bitmask of a demand\n    /// @param _demandId the demand-id\n    /// @return bitmask with the set properties of a demand\n    function getDemandMask(uint _demandId)\n        external\n        onlyOwner\n        view \n        returns (uint)\n    {\n        return allDemands[_demandId].demandMask;\n    }\n\n    /// @notice function to return the creationtime of the demand\n    /// @param _demandId identifier\n    /// @return blocktime of the creation of the demand\n    function getStartEpoche(uint _demandId)\n        external\n        onlyOwner\n        view \n        returns (uint)\n    {    \n        return allDemands[_demandId].created;\n    }\n\n    /// @notice Funtion to get the used timeframe for an demand\n    /// @param _assetId the asset-id\n    /// @dev will return an unsigned integer, that has to be converted to a timeframe in the logic-contract\n    /// @return the chosen timeframe for a demand\n    function getTimeFrame(uint _assetId)\n        public\n        onlyOwner\n        view\n        returns (uint)\n    {\n        return allDemands[_assetId].general.timeframe;\n    }\n\n    /// @notice funciton to search for an active demands\n    /// @param _demandId the demandId to search for\n    /// @param _from starting index\n    /// @param _to ending index\n    /// @return returns true and index if an index was found, otherwise false and 0\n    function searchForDemand(\n        uint _demandId, \n        uint _from, \n        uint _to\n    ) \n        onlyOwner\n        public \n        view \n        returns (bool, uint)\n    {\n        uint end = _to < activeDemands.length ? _to : activeDemands.length-1;\n\n        for(uint i = _from; i < end; i++){\n            if(activeDemands[i] == _demandId) {\n                return (true,i);\n            }\n        }\n    }\n\n    /// @notice sets the demand Location\n    /// @dev internal helper function\n    /// @param _assetId identifier\n    /// @param _country country the engery has to come from\n    /// @param _region region the energy has to come from\n    /// @param _zip zip code the energy has to come from\n    /// @param _city the city the energy has to come from\n    /// @param _street the streetname\n    /// @param _houseNumber the housenumber the energy has to come from\n    /// @param _gpsLatitude latitude of coordinates\n    /// @param _gpsLongitude longitude of coordinates\n    function setDemandLocation(\n        uint _assetId,\n        bytes32 _country,\n        bytes32 _region,\n        bytes32 _zip,\n        bytes32 _city,\n        bytes32 _street,\n        bytes32 _houseNumber,\n        bytes32 _gpsLatitude,\n        bytes32 _gpsLongitude\n    )\n        internal\n    {\n        allDemands[_assetId].priceDriving.location.country = _country;\n        allDemands[_assetId].priceDriving.location.region = _region;\n        allDemands[_assetId].priceDriving.location.zip = _zip;\n        allDemands[_assetId].priceDriving.location.city = _city;\n        allDemands[_assetId].priceDriving.location.street = _street;\n        allDemands[_assetId].priceDriving.location.houseNumber = _houseNumber;\n        allDemands[_assetId].priceDriving.location.gpsLatitude = _gpsLatitude;\n        allDemands[_assetId].priceDriving.location.gpsLongitude = _gpsLongitude;\n        allDemands[_assetId].priceDriving.location.exists = true;\n    }\n\n}\n\n\n\n\n",
  "sourcePath": "/Users/unomasanori/projects/DEMO_MVP/Ethereum-Madrid-Hackathon/stor-madrid/contracts/DemandDB.sol",
  "compiler": {
    "name": "solc",
    "version": "0.4.25+commit.59dbf8f1.Emscripten.clang"
  },
  "schemaVersion": "2.0.2",
  "updatedAt": "2019-05-25T11:56:11.367Z"
}