{
  "contractName": "RoleManagement",
  "abi": [
    {
      "constant": true,
      "inputs": [],
      "name": "cooContract",
      "outputs": [
        {
          "name": "",
          "type": "address"
        }
      ],
      "payable": false,
      "stateMutability": "view",
      "type": "function"
    },
    {
      "inputs": [
        {
          "name": "_cooContract",
          "type": "address"
        }
      ],
      "payable": false,
      "stateMutability": "nonpayable",
      "type": "constructor"
    },
    {
      "constant": true,
      "inputs": [
        {
          "name": "_role",
          "type": "uint8"
        },
        {
          "name": "_caller",
          "type": "address"
        }
      ],
      "name": "isRole",
      "outputs": [
        {
          "name": "",
          "type": "bool"
        }
      ],
      "payable": false,
      "stateMutability": "view",
      "type": "function"
    }
  ],
  "bytecode": "0x6060604052341561000f57600080fd5b6040516020806102c58339810160405280805160008054600160a060020a03909216600160a060020a03199092169190911790555050610271806100546000396000f3006060604052600436106100325763ffffffff60e060020a600035041663b1f2cc9d8114610037578063bb5a389e14610066575b600080fd5b341561004257600080fd5b61004a61009f565b604051600160a060020a03909116815260200160405180910390f35b341561007157600080fd5b61008b60ff60043516600160a060020a03602435166100ae565b604051901515815260200160405180910390f35b600054600160a060020a031681565b600080600060078560068111156100c157fe5b11156100cc57600080fd5b60008054600160a060020a0380871692911690638da5cb5b90604051602001526040518163ffffffff1660e060020a028152600401602060405180830381600087803b151561011a57600080fd5b6102c65a03f1151561012b57600080fd5b50505060405180519050600160a060020a0316141561014d576001925061023d565b60008054600160a060020a031690635c7460d690604051602001526040518163ffffffff1660e060020a028152600401602060405180830381600087803b151561019657600080fd5b6102c65a03f115156101a757600080fd5b50505060405180519050600160a060020a031663265209f28560006040516020015260405160e060020a63ffffffff8416028152600160a060020a039091166004820152602401602060405180830381600087803b151561020757600080fd5b6102c65a03f1151561021857600080fd5b50505060405180519050915084600681111561023057fe5b60020a8281161515935090505b5050929150505600a165627a7a723058201d1e41c87c93ed330f2f3a6dc6ba1f19fe7450c72d05912114e31accd08c95000029",
  "source": "// Copyright 2018 Energy Web Foundation\n// This file is part of the Origin Application brought to you by the Energy Web Foundation,\n// a global non-profit organization focused on accelerating blockchain technology across the energy sector, \n// incorporated in Zug, Switzerland.\n//\n// The Origin Application is free software: you can redistribute it and/or modify\n// it under the terms of the GNU General Public License as published by\n// the Free Software Foundation, either version 3 of the License, or\n// (at your option) any later version.\n// This is distributed in the hope that it will be useful,\n// but WITHOUT ANY WARRANTY and without an implied warranty of\n// MERCHANTABILITY or FITNESS FOR A PARTICULAR PURPOSE.  See the\n// GNU General Public License for more details, at <http://www.gnu.org/licenses/>.\n//\n// @authors: slock.it GmbH, Martin Kuechler, martin.kuchler@slock.it\n\n\npragma solidity ^0.4.17;\n\nimport \"./CoO.sol\";\nimport \"./RolesInterface.sol\";\n\n/// @notice contract for managing the rights and roles\ncontract RoleManagement {\n\n    /// @notice central registry contract \n    CoO public cooContract;\n\n    /// @notice all possible available roles\n    /*\n    no role:        0x0...0000000\n    TopAdmin:       0x0...------1\n    UserAdmin:      0x0...-----1-\n    AssetAdmin:     0x0...----1--\n    AgreementAdmin: 0x0...---1---\n    AssetManager:   0x0...--1----\n    Trader:         0x0...-1-----\n    Matcher:        0x0...1-----\n    */\n    enum Role{\n        TopAdmin, \n        UserAdmin,\n        AssetAdmin,\n        AgreementAdmin, \n        AssetManager,  \n        Trader, \n        Matcher\n    } \n\n    /// @notice modifier for checking if an user is allowed to execute the intended action\n    modifier onlyRole (RoleManagement.Role _role) { \n        require (isRole(_role, msg.sender)); \n        _; \n    }\n\n    modifier onlyAccount(address accountAddress) {\n        require(msg.sender == accountAddress);\n        _;\n    }\n\n    modifier userExists(address _user){\n        require(RolesInterface(cooContract.userRegistry()).doesUserExist(_user));\n        _;\n    }\n\n    modifier userHasRole(RoleManagement.Role _role, address _user){\n        require (isRole(_role, _user)); \n        _; \n    }\n\n    /// @notice constructor \n    /// @param _cooContract CoO.sol-registry contract\n    function RoleManagement (CoO _cooContract) public {\n        cooContract = _cooContract;\n    }\n\n    /// @notice funciton for comparing the role and the needed rights of an user\n    /// @param _role role of a user\n    /// @param _caller the address calling that function\n    /// @return whether the user has the corresponding rights for the intended action\n    function isRole(RoleManagement.Role _role, address _caller) public view returns (bool) { \n        require(uint(_role) <= 7);\n        if (cooContract.owner() == _caller) {\n            return true;\n        }\n        /// @dev reading the rights for the user from the userDB-contract\n        uint rights = RolesInterface(cooContract.userRegistry()).getRolesRights(_caller);\n        /// @dev converting the used enum to the corresponding bitmask \n        uint role = uint(2) ** uint(_role);\n        /// @dev comparing rights and roles, if the result is not 0 the user has the right (bitwise comparison)\n        /// we also don't have to check for a potential overflow here, because the used enum will prevent using roles that do not exist\n        return (rights & role != 0);\n    }\n}",
  "sourcePath": "/Users/mkuechler/ewf/ewf-pushrepo/certificate_of_origin/contracts/RoleManagement.sol",
  "compiler": {
    "name": "solc",
    "version": "0.4.19+commit.c4cbbb05.Emscripten.clang"
  },
  "schemaVersion": "2.0.0",
  "updatedAt": "2018-07-31T09:06:35.575Z"
}