{
  "contractName": "UserLogic",
  "abi": [
    {
      "constant": true,
      "inputs": [],
      "name": "db",
      "outputs": [
        {
          "name": "",
          "type": "address"
        }
      ],
      "payable": false,
      "stateMutability": "view",
      "type": "function"
    },
    {
      "constant": true,
      "inputs": [],
      "name": "cooContract",
      "outputs": [
        {
          "name": "",
          "type": "address"
        }
      ],
      "payable": false,
      "stateMutability": "view",
      "type": "function"
    },
    {
      "constant": true,
      "inputs": [
        {
          "name": "_role",
          "type": "uint8"
        },
        {
          "name": "_caller",
          "type": "address"
        }
      ],
      "name": "isRole",
      "outputs": [
        {
          "name": "",
          "type": "bool"
        }
      ],
      "payable": false,
      "stateMutability": "view",
      "type": "function"
    },
    {
      "inputs": [
        {
          "name": "_coo",
          "type": "address"
        }
      ],
      "payable": false,
      "stateMutability": "nonpayable",
      "type": "constructor"
    },
    {
      "constant": false,
      "inputs": [
        {
          "name": "_user",
          "type": "address"
        },
        {
          "name": "role",
          "type": "uint8"
        }
      ],
      "name": "addAdminRole",
      "outputs": [],
      "payable": false,
      "stateMutability": "nonpayable",
      "type": "function"
    },
    {
      "constant": false,
      "inputs": [
        {
          "name": "_user",
          "type": "address"
        }
      ],
      "name": "addAssetManagerRole",
      "outputs": [],
      "payable": false,
      "stateMutability": "nonpayable",
      "type": "function"
    },
    {
      "constant": false,
      "inputs": [
        {
          "name": "_user",
          "type": "address"
        }
      ],
      "name": "addMatcherRole",
      "outputs": [],
      "payable": false,
      "stateMutability": "nonpayable",
      "type": "function"
    },
    {
      "constant": false,
      "inputs": [
        {
          "name": "_user",
          "type": "address"
        }
      ],
      "name": "addTraderRole",
      "outputs": [],
      "payable": false,
      "stateMutability": "nonpayable",
      "type": "function"
    },
    {
      "constant": false,
      "inputs": [
        {
          "name": "_database",
          "type": "address"
        }
      ],
      "name": "init",
      "outputs": [],
      "payable": false,
      "stateMutability": "nonpayable",
      "type": "function"
    },
    {
      "constant": false,
      "inputs": [
        {
          "name": "_user",
          "type": "address"
        }
      ],
      "name": "deactivateUser",
      "outputs": [],
      "payable": false,
      "stateMutability": "nonpayable",
      "type": "function"
    },
    {
      "constant": false,
      "inputs": [
        {
          "name": "_user",
          "type": "address"
        },
        {
          "name": "role",
          "type": "uint8"
        }
      ],
      "name": "removeAdminRole",
      "outputs": [],
      "payable": false,
      "stateMutability": "nonpayable",
      "type": "function"
    },
    {
      "constant": false,
      "inputs": [
        {
          "name": "_user",
          "type": "address"
        }
      ],
      "name": "removeAssetManagerRole",
      "outputs": [],
      "payable": false,
      "stateMutability": "nonpayable",
      "type": "function"
    },
    {
      "constant": false,
      "inputs": [
        {
          "name": "_user",
          "type": "address"
        }
      ],
      "name": "removeTraderRole",
      "outputs": [],
      "payable": false,
      "stateMutability": "nonpayable",
      "type": "function"
    },
    {
      "constant": false,
      "inputs": [
        {
          "name": "_user",
          "type": "address"
        },
        {
          "name": "_organization",
          "type": "bytes32"
        }
      ],
      "name": "setOrganization",
      "outputs": [],
      "payable": false,
      "stateMutability": "nonpayable",
      "type": "function"
    },
    {
      "constant": false,
      "inputs": [
        {
          "name": "_user",
          "type": "address"
        },
        {
          "name": "_street",
          "type": "bytes32"
        },
        {
          "name": "_number",
          "type": "bytes32"
        },
        {
          "name": "_zip",
          "type": "bytes32"
        },
        {
          "name": "_city",
          "type": "bytes32"
        },
        {
          "name": "_country",
          "type": "bytes32"
        },
        {
          "name": "_state",
          "type": "bytes32"
        }
      ],
      "name": "setOrganizationAddress",
      "outputs": [],
      "payable": false,
      "stateMutability": "nonpayable",
      "type": "function"
    },
    {
      "constant": false,
      "inputs": [
        {
          "name": "_user",
          "type": "address"
        },
        {
          "name": "_firstName",
          "type": "bytes32"
        },
        {
          "name": "_surname",
          "type": "bytes32"
        },
        {
          "name": "_organization",
          "type": "bytes32"
        },
        {
          "name": "_street",
          "type": "bytes32"
        },
        {
          "name": "_number",
          "type": "bytes32"
        },
        {
          "name": "_zip",
          "type": "bytes32"
        },
        {
          "name": "_city",
          "type": "bytes32"
        },
        {
          "name": "_country",
          "type": "bytes32"
        },
        {
          "name": "_state",
          "type": "bytes32"
        }
      ],
      "name": "setUser",
      "outputs": [],
      "payable": false,
      "stateMutability": "nonpayable",
      "type": "function"
    },
    {
      "constant": false,
      "inputs": [
        {
          "name": "_user",
          "type": "address"
        },
        {
          "name": "_firstName",
          "type": "bytes32"
        },
        {
          "name": "_surname",
          "type": "bytes32"
        }
      ],
      "name": "setUserName",
      "outputs": [],
      "payable": false,
      "stateMutability": "nonpayable",
      "type": "function"
    },
    {
      "constant": false,
      "inputs": [
        {
          "name": "_user",
          "type": "address"
        },
        {
          "name": "_rights",
          "type": "uint256"
        }
      ],
      "name": "setRoles",
      "outputs": [],
      "payable": false,
      "stateMutability": "nonpayable",
      "type": "function"
    },
    {
      "constant": false,
      "inputs": [
        {
          "name": "_newLogic",
          "type": "address"
        }
      ],
      "name": "update",
      "outputs": [],
      "payable": false,
      "stateMutability": "nonpayable",
      "type": "function"
    },
    {
      "constant": true,
      "inputs": [
        {
          "name": "_user",
          "type": "address"
        }
      ],
      "name": "doesUserExist",
      "outputs": [
        {
          "name": "",
          "type": "bool"
        }
      ],
      "payable": false,
      "stateMutability": "view",
      "type": "function"
    },
    {
      "constant": true,
      "inputs": [
        {
          "name": "_user",
          "type": "address"
        }
      ],
      "name": "getFullUser",
      "outputs": [
        {
          "name": "firstName",
          "type": "bytes32"
        },
        {
          "name": "surname",
          "type": "bytes32"
        },
        {
          "name": "organization",
          "type": "bytes32"
        },
        {
          "name": "street",
          "type": "bytes32"
        },
        {
          "name": "number",
          "type": "bytes32"
        },
        {
          "name": "zip",
          "type": "bytes32"
        },
        {
          "name": "city",
          "type": "bytes32"
        },
        {
          "name": "country",
          "type": "bytes32"
        },
        {
          "name": "state",
          "type": "bytes32"
        },
        {
          "name": "roles",
          "type": "uint256"
        },
        {
          "name": "active",
          "type": "bool"
        }
      ],
      "payable": false,
      "stateMutability": "view",
      "type": "function"
    },
    {
      "constant": true,
      "inputs": [
        {
          "name": "_user",
          "type": "address"
        }
      ],
      "name": "getRolesRights",
      "outputs": [
        {
          "name": "",
          "type": "uint256"
        }
      ],
      "payable": false,
      "stateMutability": "view",
      "type": "function"
    }
  ],
  "bytecode": "0x608060405234801561001057600080fd5b50604051602080611ed7833981016040525160008054600160a060020a03909216600160a060020a0319909216919091179055611e85806100526000396000f3006080604052600436106101035763ffffffff60e060020a60003504166311f2da5d811461010857806319ab453c146101315780631a47767b146101525780631c1b877214610173578063265209f2146101945780632dbc54a4146101c757806333a3ad8f146101e8578063468135251461020c5780634d655aff1461022d5780635c4e0d021461025e57806368639f88146102855780638254c316146102ac57806384b99b33146102cd57806395d435b6146102ee578063b1f2cc9d1461030f578063bb5a389e14610324578063c0e7967e1461035f578063c7247af21461039d578063c7af3efc146103c1578063d44404301461043a578063ecb410541461046d575b600080fd5b34801561011457600080fd5b5061012f600160a060020a036004351660ff6024351661048e565b005b34801561013d57600080fd5b5061012f600160a060020a036004351661071b565b34801561015e57600080fd5b5061012f600160a060020a03600435166107fc565b34801561017f57600080fd5b5061012f600160a060020a0360043516610905565b3480156101a057600080fd5b506101b5600160a060020a036004351661099b565b60408051918252519081900360200190f35b3480156101d357600080fd5b5061012f600160a060020a0360043516610a22565b3480156101f457600080fd5b5061012f600160a060020a0360043516602435610c50565b34801561021857600080fd5b5061012f600160a060020a0360043516610df1565b34801561023957600080fd5b50610242611001565b60408051600160a060020a039092168252519081900360200190f35b34801561026a57600080fd5b5061012f600160a060020a0360043516602435604435611010565b34801561029157600080fd5b5061012f600160a060020a036004351660ff602435166110b5565b3480156102b857600080fd5b5061012f600160a060020a0360043516611323565b3480156102d957600080fd5b5061012f600160a060020a03600435166114e0565b3480156102fa57600080fd5b5061012f600160a060020a036004351661169c565b34801561031b57600080fd5b506102426117d2565b34801561033057600080fd5b5061034b60ff60043516600160a060020a03602435166117e1565b604080519115158252519081900360200190f35b34801561036b57600080fd5b5061012f600160a060020a036004351660243560443560643560843560a43560c43560e43561010435610124356119bb565b3480156103a957600080fd5b5061012f600160a060020a0360043516602435611b27565b3480156103cd57600080fd5b506103e2600160a060020a0360043516611bb8565b604080519b8c5260208c019a909a528a8a019890985260608a0196909652608089019490945260a088019290925260c087015260e0860152610100850152610120840152151561014083015251908190036101600190f35b34801561044657600080fd5b5061012f600160a060020a036004351660243560443560643560843560a43560c435611cff565b34801561047957600080fd5b5061034b600160a060020a0360043516611e04565b600080546040805160e160020a632e3a306b02815290518592600160a060020a031691635c7460d691600480830192602092919082900301818887803b1580156104d757600080fd5b505af11580156104eb573d6000803e3d6000fd5b505050506040513d602081101561050157600080fd5b50516040805160e260020a633b2d0415028152600160a060020a0384811660048301529151919092169163ecb410549160248083019260209291908290030181600087803b15801561055257600080fd5b505af1158015610566573d6000803e3d6000fd5b505050506040513d602081101561057c57600080fd5b5051151561058957600080fd5b600061059581336117e1565b15156105a057600080fd5b60008460068111156105ae57fe5b14806105c5575060018460068111156105c357fe5b145b806105db575060028460068111156105d957fe5b145b806105f1575060038460068111156105ef57fe5b145b156107145761060084866117e1565b15610714576001546040805160e160020a63132904f9028152600160a060020a0388811660048301529151919092169163265209f29160248083019260209291908290030181600087803b15801561065757600080fd5b505af115801561066b573d6000803e3d6000fd5b505050506040513d602081101561068157600080fd5b5051600154909350600160a060020a03166333a3ad8f868660068111156106a457fe5b60020a86036040518363ffffffff1660e060020a0281526004018083600160a060020a0316600160a060020a0316815260200182815260200192505050600060405180830381600087803b1580156106fb57600080fd5b505af115801561070f573d6000803e3d6000fd5b505050505b5050505050565b600154600160a060020a03161580156107c2575033600160a060020a03166000809054906101000a9004600160a060020a0316600160a060020a0316638da5cb5b6040518163ffffffff1660e060020a028152600401602060405180830381600087803b15801561078b57600080fd5b505af115801561079f573d6000803e3d6000fd5b505050506040513d60208110156107b557600080fd5b5051600160a060020a0316145b15156107cd57600080fd5b6001805473ffffffffffffffffffffffffffffffffffffffff1916600160a060020a0392909216919091179055565b600161080881336117e1565b151561081357600080fd5b600154600160a060020a0316151561082a57600080fd5b6108356000836117e1565b15801561084a57506108486001836117e1565b155b801561085e575061085c6002836117e1565b155b801561087257506108706003836117e1565b155b151561087d57600080fd5b600154604080517f88e084ca000000000000000000000000000000000000000000000000000000008152600160a060020a03858116600483015260006024830181905292519316926388e084ca9260448084019391929182900301818387803b1580156108e957600080fd5b505af11580156108fd573d6000803e3d6000fd5b505050505050565b600054600160a060020a031633811461091d57600080fd5b600154600160a060020a0316151561093457600080fd5b600154604080517fa6f9dae1000000000000000000000000000000000000000000000000000000008152600160a060020a0385811660048301529151919092169163a6f9dae191602480830192600092919082900301818387803b1580156108e957600080fd5b6001546040805160e160020a63132904f9028152600160a060020a0384811660048301529151600093929092169163265209f29160248082019260209290919082900301818787803b1580156109f057600080fd5b505af1158015610a04573d6000803e3d6000fd5b505050506040513d6020811015610a1a57600080fd5b505192915050565b600080546040805160e160020a632e3a306b02815290518492600160a060020a031691635c7460d691600480830192602092919082900301818887803b158015610a6b57600080fd5b505af1158015610a7f573d6000803e3d6000fd5b505050506040513d6020811015610a9557600080fd5b50516040805160e260020a633b2d0415028152600160a060020a0384811660048301529151919092169163ecb410549160248083019260209291908290030181600087803b158015610ae657600080fd5b505af1158015610afa573d6000803e3d6000fd5b505050506040513d6020811015610b1057600080fd5b50511515610b1d57600080fd5b6002610b2981336117e1565b1515610b3457600080fd5b610b3f6004856117e1565b15610c4a576001546040805160e160020a63132904f9028152600160a060020a0387811660048301529151919092169163265209f29160248083019260209291908290030181600087803b158015610b9657600080fd5b505af1158015610baa573d6000803e3d6000fd5b505050506040513d6020811015610bc057600080fd5b5051600154909350600160a060020a03166333a3ad8f8560045b60020a86036040518363ffffffff1660e060020a0281526004018083600160a060020a0316600160a060020a0316815260200182815260200192505050600060405180830381600087803b158015610c3157600080fd5b505af1158015610c45573d6000803e3d6000fd5b505050505b50505050565b6001610c5c81336117e1565b1515610c6757600080fd5b600154600160a060020a03161515610c7e57600080fd5b826000809054906101000a9004600160a060020a0316600160a060020a0316635c7460d66040518163ffffffff1660e060020a028152600401602060405180830381600087803b158015610cd157600080fd5b505af1158015610ce5573d6000803e3d6000fd5b505050506040513d6020811015610cfb57600080fd5b50516040805160e260020a633b2d0415028152600160a060020a0384811660048301529151919092169163ecb410549160248083019260209291908290030181600087803b158015610d4c57600080fd5b505af1158015610d60573d6000803e3d6000fd5b505050506040513d6020811015610d7657600080fd5b50511515610d8357600080fd5b600154604080517f33a3ad8f000000000000000000000000000000000000000000000000000000008152600160a060020a03878116600483015260248201879052915191909216916333a3ad8f91604480830192600092919082900301818387803b158015610c3157600080fd5b600080546040805160e160020a632e3a306b02815290518492600160a060020a031691635c7460d691600480830192602092919082900301818887803b158015610e3a57600080fd5b505af1158015610e4e573d6000803e3d6000fd5b505050506040513d6020811015610e6457600080fd5b50516040805160e260020a633b2d0415028152600160a060020a0384811660048301529151919092169163ecb410549160248083019260209291908290030181600087803b158015610eb557600080fd5b505af1158015610ec9573d6000803e3d6000fd5b505050506040513d6020811015610edf57600080fd5b50511515610eec57600080fd5b6003610ef881336117e1565b1515610f0357600080fd5b610f0e6005856117e1565b1515610c4a576001546040805160e160020a63132904f9028152600160a060020a0387811660048301529151919092169163265209f29160248083019260209291908290030181600087803b158015610f6657600080fd5b505af1158015610f7a573d6000803e3d6000fd5b505050506040513d6020811015610f9057600080fd5b5051600154909350600160a060020a03166333a3ad8f8560055b60020a86016040518363ffffffff1660e060020a0281526004018083600160a060020a0316600160a060020a0316815260200182815260200192505050600060405180830381600087803b158015610c3157600080fd5b600154600160a060020a031681565b600161101c81336117e1565b151561102757600080fd5b821580159061103557508115155b151561104057600080fd5b600154604080517f5c4e0d02000000000000000000000000000000000000000000000000000000008152600160a060020a038781166004830152602482018790526044820186905291519190921691635c4e0d0291606480830192600092919082900301818387803b158015610c3157600080fd5b600080546040805160e160020a632e3a306b02815290518592600160a060020a031691635c7460d691600480830192602092919082900301818887803b1580156110fe57600080fd5b505af1158015611112573d6000803e3d6000fd5b505050506040513d602081101561112857600080fd5b50516040805160e260020a633b2d0415028152600160a060020a0384811660048301529151919092169163ecb410549160248083019260209291908290030181600087803b15801561117957600080fd5b505af115801561118d573d6000803e3d6000fd5b505050506040513d60208110156111a357600080fd5b505115156111b057600080fd5b60006111bc81336117e1565b15156111c757600080fd5b60008460068111156111d557fe5b14806111ec575060018460068111156111ea57fe5b145b806112025750600284600681111561120057fe5b145b806112185750600584600681111561121657fe5b145b156107145761122784866117e1565b1515610714576001546040805160e160020a63132904f9028152600160a060020a0388811660048301529151919092169163265209f29160248083019260209291908290030181600087803b15801561127f57600080fd5b505af1158015611293573d6000803e3d6000fd5b505050506040513d60208110156112a957600080fd5b5051600154909350600160a060020a03166333a3ad8f868660068111156112cc57fe5b60020a86016040518363ffffffff1660e060020a0281526004018083600160a060020a0316600160a060020a0316815260200182815260200192505050600060405180830381600087803b1580156106fb57600080fd5b600080546040805160e160020a632e3a306b02815290518492600160a060020a031691635c7460d691600480830192602092919082900301818887803b15801561136c57600080fd5b505af1158015611380573d6000803e3d6000fd5b505050506040513d602081101561139657600080fd5b50516040805160e260020a633b2d0415028152600160a060020a0384811660048301529151919092169163ecb410549160248083019260209291908290030181600087803b1580156113e757600080fd5b505af11580156113fb573d6000803e3d6000fd5b505050506040513d602081101561141157600080fd5b5051151561141e57600080fd5b600261142a81336117e1565b151561143557600080fd5b6114406004856117e1565b1515610c4a576001546040805160e160020a63132904f9028152600160a060020a0387811660048301529151919092169163265209f29160248083019260209291908290030181600087803b15801561149857600080fd5b505af11580156114ac573d6000803e3d6000fd5b505050506040513d60208110156114c257600080fd5b5051600154909350600160a060020a03166333a3ad8f856004610faa565b600080546040805160e160020a632e3a306b02815290518492600160a060020a031691635c7460d691600480830192602092919082900301818887803b15801561152957600080fd5b505af115801561153d573d6000803e3d6000fd5b505050506040513d602081101561155357600080fd5b50516040805160e260020a633b2d0415028152600160a060020a0384811660048301529151919092169163ecb410549160248083019260209291908290030181600087803b1580156115a457600080fd5b505af11580156115b8573d6000803e3d6000fd5b505050506040513d60208110156115ce57600080fd5b505115156115db57600080fd5b60036115e781336117e1565b15156115f257600080fd5b6115fd6005856117e1565b15610c4a576001546040805160e160020a63132904f9028152600160a060020a0387811660048301529151919092169163265209f29160248083019260209291908290030181600087803b15801561165457600080fd5b505af1158015611668573d6000803e3d6000fd5b505050506040513d602081101561167e57600080fd5b5051600154909350600160a060020a03166333a3ad8f856005610bda565b6000806116a981336117e1565b15156116b457600080fd5b6116bf6006846117e1565b15156117cd576001546040805160e160020a63132904f9028152600160a060020a0386811660048301529151919092169163265209f29160248083019260209291908290030181600087803b15801561171757600080fd5b505af115801561172b573d6000803e3d6000fd5b505050506040513d602081101561174157600080fd5b5051600154604080517f33a3ad8f000000000000000000000000000000000000000000000000000000008152600160a060020a038781166004830152828501602483015291519395509116916333a3ad8f9160448082019260009290919082900301818387803b1580156117b457600080fd5b505af11580156117c8573d6000803e3d6000fd5b505050505b505050565b600054600160a060020a031681565b600080600060078560068111156117f457fe5b11156117ff57600080fd5b83600160a060020a03166000809054906101000a9004600160a060020a0316600160a060020a0316638da5cb5b6040518163ffffffff1660e060020a028152600401602060405180830381600087803b15801561185b57600080fd5b505af115801561186f573d6000803e3d6000fd5b505050506040513d602081101561188557600080fd5b5051600160a060020a0316141561189f57600192506119b3565b6000809054906101000a9004600160a060020a0316600160a060020a0316635c7460d66040518163ffffffff1660e060020a028152600401602060405180830381600087803b1580156118f157600080fd5b505af1158015611905573d6000803e3d6000fd5b505050506040513d602081101561191b57600080fd5b50516040805160e160020a63132904f9028152600160a060020a0387811660048301529151919092169163265209f29160248083019260209291908290030181600087803b15801561196c57600080fd5b505af1158015611980573d6000803e3d6000fd5b505050506040513d602081101561199657600080fd5b505191508460068111156119a657fe5b60020a8281161515935090505b505092915050565b60016119c781336117e1565b15156119d257600080fd5b600154600160a060020a031615156119e957600080fd5b600160a060020a038b1615801590611a0057508915155b8015611a0b57508815155b8015611a1657508715155b8015611a2157508315155b8015611a2c57508615155b8015611a385750600086115b8015611a4357508415155b8015611a4e57508215155b1515611a5957600080fd5b600154604080517fc0e7967e000000000000000000000000000000000000000000000000000000008152600160a060020a038e81166004830152602482018e9052604482018d9052606482018c9052608482018b905260a482018a905260c4820189905260e48201889052610104820187905261012482018690529151919092169163c0e7967e9161014480830192600092919082900301818387803b158015611b0257600080fd5b505af1158015611b16573d6000803e3d6000fd5b505050505050505050505050505050565b6001611b3381336117e1565b1515611b3e57600080fd5b811515611b4a57600080fd5b600154604080517fc7247af2000000000000000000000000000000000000000000000000000000008152600160a060020a038681166004830152602482018690529151919092169163c7247af291604480830192600092919082900301818387803b1580156117b457600080fd5b6000806000806000806000806000806000600160009054906101000a9004600160a060020a0316600160a060020a031663c7af3efc8d6040518263ffffffff1660e060020a0281526004018082600160a060020a0316600160a060020a0316815260200191505061016060405180830381600087803b158015611c3a57600080fd5b505af1158015611c4e573d6000803e3d6000fd5b505050506040513d610160811015611c6557600080fd5b8101908080519060200190929190805190602001909291908051906020019092919080519060200190929190805190602001909291908051906020019092919080519060200190929190805190602001909291908051906020019092919080519060200190929190805190602001909291905050509a509a509a509a509a509a509a509a509a509a509a5091939597999b90929496989a50565b6001611d0b81336117e1565b1515611d1657600080fd5b8315801590611d2457508615155b8015611d305750600086115b8015611d3b57508415155b8015611d4657508215155b1515611d5157600080fd5b600154604080517f6c82d8fa000000000000000000000000000000000000000000000000000000008152600160a060020a038b81166004830152602482018b9052604482018a9052606482018990526084820188905260a4820187905260c4820186905291519190921691636c82d8fa9160e480830192600092919082900301818387803b158015611de257600080fd5b505af1158015611df6573d6000803e3d6000fd5b505050505050505050505050565b6001546040805160e260020a633b2d0415028152600160a060020a0384811660048301529151600093929092169163ecb410549160248082019260209290919082900301818787803b1580156109f057600080fd00a165627a7a723058207c9c719f8ef6576aa13834b8bd31bb15abc3fb513e9f794b096a2664e094b5c70029",
  "source": "// Copyright 2018 Energy Web Foundation\n// This file is part of the Origin Application brought to you by the Energy Web Foundation,\n// a global non-profit organization focused on accelerating blockchain technology across the energy sector, \n// incorporated in Zug, Switzerland.\n//\n// The Origin Application is free software: you can redistribute it and/or modify\n// it under the terms of the GNU General Public License as published by\n// the Free Software Foundation, either version 3 of the License, or\n// (at your option) any later version.\n// This is distributed in the hope that it will be useful,\n// but WITHOUT ANY WARRANTY and without an implied warranty of\n// MERCHANTABILITY or FITNESS FOR A PARTICULAR PURPOSE.  See the\n// GNU General Public License for more details, at <http://www.gnu.org/licenses/>.\n//\n// @authors: slock.it GmbH, Martin Kuechler, martin.kuchler@slock.it\n\npragma solidity ^0.4.18;\n\nimport \"./UserDB.sol\";\nimport \"./RoleManagement.sol\";\nimport \"./CoO.sol\";\nimport \"./Updatable.sol\";\nimport \"./RolesInterface.sol\";\n\n/// @title The logic-contract for the user-data\n/// @notice this contract will not directly store any data, instead it will store them into the userDB-contract\ncontract UserLogic is RoleManagement, Updatable, RolesInterface {\n    /// @notice db user-db for storing the contract\n    UserDB public db;\n\n    modifier isInitialized {\n        require(address(db) != 0x0);\n        _;\n    }\n\n    /// @notice constructor \n    /// @param _coo address of the Certificate Registry contract (CoO.sol)\n    /// @dev it will also call the RoleManagement-constructor \n    function UserLogic(CoO _coo) RoleManagement(_coo) public {\n    }\n\n    /// @notice grant a user a an admin-right\n    /// @param _user user that should get rights\n    /// @param role admin-right to be granted\n    function addAdminRole(address _user, RoleManagement.Role role)\n        external \n        userExists(_user)\n        onlyRole(RoleManagement.Role.TopAdmin) \n    {\n        if ((role == RoleManagement.Role.TopAdmin || role == RoleManagement.Role.UserAdmin \n        || role == RoleManagement.Role.AssetAdmin || role == RoleManagement.Role.Trader)\n     //   && role != RoleManagement.Role.Trader && role != RoleManagement.Role.AssetManager\n        ) {\n           \n            if (!isRole(role,_user)) {\n                uint roles = db.getRolesRights(_user);\n                db.setRoles(_user, roles + uint(2) ** uint(role));\n            }\n        }\n    }\n\n    /// @notice grants a user the role AssetManager\n    /// @param _user user \n    function addAssetManagerRole(address _user)\n        external\n        userExists(_user)\n        onlyRole(RoleManagement.Role.AssetAdmin) \n    {\n        if (!isRole(RoleManagement.Role.AssetManager,_user)) {\n            uint roles = db.getRolesRights(_user);\n            db.setRoles(_user, roles + uint(2) ** uint(RoleManagement.Role.AssetManager));\n        }\n    }\n\n    /// @notice grants an ethereum-account the matcher-rights\n    /// @param _user ethereum-account\n    function addMatcherRole(address _user)\n        external\n        onlyRole(RoleManagement.Role.TopAdmin)\n    {\n        if (!isRole(RoleManagement.Role.Matcher,_user)) {\n            uint roles = db.getRolesRights(_user);\n            db.setRoles(_user, roles + uint(2) ** uint(RoleManagement.Role.Matcher));\n        }\n    }\n\n    /// @notice grants a user the trader-Role\n    /// @param _user user\n    function addTraderRole(address _user)\n        external\n        userExists(_user)\n        onlyRole(RoleManagement.Role.AgreementAdmin) \n    {\n        if (!isRole(RoleManagement.Role.Trader,_user)) {\n            uint roles = db.getRolesRights(_user);\n            db.setRoles(_user, roles + uint(2) ** uint(RoleManagement.Role.Trader));\n        }\n    }\n    /// @notice Initialises the contract by binding it to a logic contract\n    /// @param _database Sets the logic contract\n    function init(address _database) external {\n        require(db == UserDB(0x0) && cooContract.owner() == msg.sender);\n        db = UserDB(_database);\n    }\n\n    /// @notice function to deactive an use, only executable for user-admins\n    /// @param _user the user that should be deactivated\n    function deactivateUser(address _user)\n        external\n        onlyRole(RoleManagement.Role.UserAdmin)\n        isInitialized\n    {\n        require(!isRole(RoleManagement.Role.TopAdmin,_user) \n            && !isRole(RoleManagement.Role.UserAdmin,_user) \n            && !isRole(RoleManagement.Role.AssetAdmin,_user)\n            && !isRole(RoleManagement.Role.AgreementAdmin,_user)\n        );\n\n        db.setUserActive(_user, false);\n    }\n\n    /// @notice function to remove an admin-right from a user\n    /// @param _user user\n    /// @param role role to be removed\n    function removeAdminRole(address _user, RoleManagement.Role role)\n        external \n        userExists(_user)\n        onlyRole(RoleManagement.Role.TopAdmin) \n    {\n        if ((role == RoleManagement.Role.TopAdmin || role == RoleManagement.Role.UserAdmin \n        || role == RoleManagement.Role.AssetAdmin || role == RoleManagement.Role.AgreementAdmin)\n      ) {\n            if (isRole(role,_user)) {\n                uint roles = db.getRolesRights(_user);\n                db.setRoles(_user, roles - uint(2) ** uint(role));\n            }\n        }\n    }\n\n    /// @notice removes the assetManagerRole from a user\n    /// @param _user user\n    function removeAssetManagerRole(address _user)\n        external\n        userExists(_user)\n        onlyRole(RoleManagement.Role.AssetAdmin) \n    {\n        if (isRole(RoleManagement.Role.AssetManager,_user)) {\n            uint roles = db.getRolesRights(_user);\n            db.setRoles(_user, roles - uint(2) ** uint(RoleManagement.Role.AssetManager));\n        }\n    }\n\n    /// @notice removes the traderRole from a user\n    /// @param _user user\n    function removeTraderRole(address _user)\n        external\n        userExists(_user)\n        onlyRole(RoleManagement.Role.AgreementAdmin) \n    {\n        if (isRole(RoleManagement.Role.Trader,_user)) {\n            uint roles = db.getRolesRights(_user);\n            db.setRoles(_user, roles - uint(2) ** uint(RoleManagement.Role.Trader));\n        }\n    }\n\n    /// @notice function set change the name of an organization\n    /// @param _user ethereum-address of an user / organization\n    function setOrganization(address _user, bytes32 _organization) \n        external \n        onlyRole(RoleManagement.Role.UserAdmin) \n\n    {\n        require(_organization != 0x0);\n        db.setOrganization(_user,_organization);\n    }\n\n    /// @notice function to set a new address for an existing organization \n    /// @param _user ethereum-address of the organization\n    /// @param _street new streetname\n    /// @param _number new number\n    /// @param _zip new zip-code\n    /// @param _city new city\n    /// @param _country new country\n    /// @param _state new state\n    function setOrganizationAddress(\n        address _user, \n        bytes32 _street, \n        bytes32 _number, \n        bytes32 _zip, \n        bytes32 _city, \n        bytes32 _country, \n        bytes32 _state\n    )\n        external\n        onlyRole(RoleManagement.Role.UserAdmin) \n    {\n        require(_city != 0x0 && _street != 0x0 && _number > 0 && _zip != 0x0 && _country != 0x0);\n        db.setAddress(_user, _street, _number, _zip, _city, _country, _state);\n    }\n\n    /// @notice funciton that can be called to create a new user in the storage-contract, only executable for user-admins!\n    /// @notice if the user does not exists yet it will be creates, otherwise the older userdata will be overwritten\n    /// @param _user address of the user\n    /// @param _firstName first name of the user\n    /// @param _surname surname of the user\n    /// @param _organization organization the user is representing\n    /// @param _street streetname \n    /// @param _number housenumber\n    /// @param _zip zip-code\n    /// @param _city city-name\n    /// @param _country country-name\n    /// @param _state state\n    function setUser(        \n        address _user, \n        bytes32 _firstName, \n        bytes32 _surname, \n        bytes32 _organization,\n        bytes32 _street,\n        bytes32 _number,\n        bytes32 _zip,\n        bytes32 _city,\n        bytes32 _country,\n        bytes32 _state\n    ) \n        external \n        onlyRole(RoleManagement.Role.UserAdmin) \n        isInitialized\n    {  \n        require(\n            _user != address(0x0)\n            && _firstName != 0x0 && _surname != 0x0 \n            && _organization != 0x0 \n            && _city != 0x0 && _street != 0x0 && _number > 0 && _zip != 0x0 && _country != 0x0\n        );    \n        db.setUser( _user, _firstName, _surname, _organization, _street, _number, _zip, _city, _country, _state);   \n\n    }\n\n    /// @notice function to change the name of an user\n    /// @param _user ethereum-account of that user\n    /// @param _firstName new first name\n    /// @param _surname new surname\n    function setUserName(\n        address _user, \n        bytes32 _firstName, \n        bytes32 _surname\n    ) \n        external\n        onlyRole(RoleManagement.Role.UserAdmin) \n    {   \n        require(_firstName != 0x0 && _surname != 0x0);\n        db.setUserName(_user, _firstName, _surname);\n    }\n    \n    /// @notice function to set / edit the rights of an user / account, only executable for Top-Admins!\n    /// @param _user user that rights will change\n    /// @param _rights rights encoded as bitmask\n    function setRoles(address _user, uint _rights) \n        external \n        onlyRole(RoleManagement.Role.UserAdmin)\n        isInitialized\n        userExists(_user)\n    {\n        db.setRoles(_user, _rights);\n    }\n\n    /// @notice function to update the logic of a smart contract\n    /// @param _newLogic contract-address of the new smart contract, replacing the currently active one\n    function update(address _newLogic) \n        external\n        onlyAccount(address(cooContract))\n        isInitialized\n    {\n        db.changeOwner(_newLogic);\n    }\n\n    /// @notice function that checks if there is an user for the provided ethereum-address\n    /// @param _user ethereum-address of that user\n    /// @return bool if the user exists\n    function doesUserExist(address _user) \n        external \n        view \n        returns (bool) \n    {\n        return db.doesUserExist(_user);\n    }\n\n    /// @notice function to return all the data of an user\n    /// @param _user user \n    /// @return returns firstName, surname, organization, street, number, zip, city, country, state, roles and the active-flag\n    function getFullUser(address _user)\n        external\n        view \n        returns (\n            bytes32 firstName,\n            bytes32 surname,\n            bytes32 organization,\n            bytes32 street,\n            bytes32 number,\n            bytes32 zip,\n            bytes32 city,\n            bytes32 country,\n            bytes32 state,\n            uint roles,\n            bool active\n        )\n    {\n        return db.getFullUser(_user);\n    }\n\n    /// @notice function to retrieve the rights of an user\n    /// @dev if the user does not exist in the mapping it will return 0x0 thus preventing them from accidently getting any rights\n    /// @param _user user someone wants to know its rights\n    /// @return bitmask with the rights of the user\n    function getRolesRights(address _user) \n        external \n        view \n        returns (uint) \n    {\n        return db.getRolesRights(_user);\n    }\n}",
  "sourcePath": "/Users/unomasanori/projects/DEMO_MVP/Ethereum-Madrid-Hackathon/stor-madrid/contracts/UserLogic.sol",
  "compiler": {
    "name": "solc",
    "version": "0.4.25+commit.59dbf8f1.Emscripten.clang"
  },
  "schemaVersion": "2.0.2",
  "updatedAt": "2019-05-25T11:56:11.296Z"
}