{
  "contractName": "AssetConsumingRegistryLogic",
  "abi": [
    {
      "constant": false,
      "inputs": [
        {
          "name": "_assetId",
          "type": "uint256"
        },
        {
          "name": "_newSmartMeter",
          "type": "address"
        }
      ],
      "name": "updateSmartMeter",
      "outputs": [],
      "payable": false,
      "stateMutability": "nonpayable",
      "type": "function"
    },
    {
      "constant": true,
      "inputs": [
        {
          "name": "_assetId",
          "type": "uint256"
        }
      ],
      "name": "getAssetLocation",
      "outputs": [
        {
          "name": "country",
          "type": "bytes32"
        },
        {
          "name": "region",
          "type": "bytes32"
        },
        {
          "name": "zip",
          "type": "bytes32"
        },
        {
          "name": "city",
          "type": "bytes32"
        },
        {
          "name": "street",
          "type": "bytes32"
        },
        {
          "name": "houseNumber",
          "type": "bytes32"
        },
        {
          "name": "gpsLatitude",
          "type": "bytes32"
        },
        {
          "name": "gpsLongitude",
          "type": "bytes32"
        }
      ],
      "payable": false,
      "stateMutability": "view",
      "type": "function"
    },
    {
      "constant": false,
      "inputs": [
        {
          "name": "_dbAddress",
          "type": "address"
        }
      ],
      "name": "init",
      "outputs": [],
      "payable": false,
      "stateMutability": "nonpayable",
      "type": "function"
    },
    {
      "constant": false,
      "inputs": [
        {
          "name": "_newLogic",
          "type": "address"
        }
      ],
      "name": "update",
      "outputs": [],
      "payable": false,
      "stateMutability": "nonpayable",
      "type": "function"
    },
    {
      "constant": false,
      "inputs": [],
      "name": "createAsset",
      "outputs": [],
      "payable": false,
      "stateMutability": "nonpayable",
      "type": "function"
    },
    {
      "constant": true,
      "inputs": [],
      "name": "db",
      "outputs": [
        {
          "name": "",
          "type": "address"
        }
      ],
      "payable": false,
      "stateMutability": "view",
      "type": "function"
    },
    {
      "constant": false,
      "inputs": [
        {
          "name": "_assetId",
          "type": "uint256"
        },
        {
          "name": "_country",
          "type": "bytes32"
        },
        {
          "name": "_region",
          "type": "bytes32"
        },
        {
          "name": "_zip",
          "type": "bytes32"
        },
        {
          "name": "_city",
          "type": "bytes32"
        },
        {
          "name": "_street",
          "type": "bytes32"
        },
        {
          "name": "_houseNumber",
          "type": "bytes32"
        },
        {
          "name": "_gpsLatitude",
          "type": "bytes32"
        },
        {
          "name": "_gpsLongitude",
          "type": "bytes32"
        }
      ],
      "name": "initLocation",
      "outputs": [],
      "payable": false,
      "stateMutability": "nonpayable",
      "type": "function"
    },
    {
      "constant": true,
      "inputs": [],
      "name": "getAssetListLength",
      "outputs": [
        {
          "name": "",
          "type": "uint256"
        }
      ],
      "payable": false,
      "stateMutability": "view",
      "type": "function"
    },
    {
      "constant": true,
      "inputs": [],
      "name": "cooContract",
      "outputs": [
        {
          "name": "",
          "type": "address"
        }
      ],
      "payable": false,
      "stateMutability": "view",
      "type": "function"
    },
    {
      "constant": true,
      "inputs": [
        {
          "name": "_role",
          "type": "uint8"
        },
        {
          "name": "_caller",
          "type": "address"
        }
      ],
      "name": "isRole",
      "outputs": [
        {
          "name": "",
          "type": "bool"
        }
      ],
      "payable": false,
      "stateMutability": "view",
      "type": "function"
    },
    {
      "constant": true,
      "inputs": [
        {
          "name": "_assetId",
          "type": "uint256"
        }
      ],
      "name": "getActive",
      "outputs": [
        {
          "name": "",
          "type": "bool"
        }
      ],
      "payable": false,
      "stateMutability": "view",
      "type": "function"
    },
    {
      "constant": false,
      "inputs": [
        {
          "name": "_assetId",
          "type": "uint256"
        },
        {
          "name": "_active",
          "type": "bool"
        }
      ],
      "name": "setActive",
      "outputs": [],
      "payable": false,
      "stateMutability": "nonpayable",
      "type": "function"
    },
    {
      "constant": true,
      "inputs": [
        {
          "name": "_assetId",
          "type": "uint256"
        }
      ],
      "name": "getLastSmartMeterReadFileHash",
      "outputs": [
        {
          "name": "datalog",
          "type": "bytes32"
        }
      ],
      "payable": false,
      "stateMutability": "view",
      "type": "function"
    },
    {
      "inputs": [
        {
          "name": "_cooContract",
          "type": "address"
        }
      ],
      "payable": false,
      "stateMutability": "nonpayable",
      "type": "constructor"
    },
    {
      "anonymous": false,
      "inputs": [
        {
          "indexed": true,
          "name": "_assetId",
          "type": "uint256"
        },
        {
          "indexed": true,
          "name": "_fileHash",
          "type": "bytes32"
        },
        {
          "indexed": false,
          "name": "_oldMeterRead",
          "type": "uint256"
        },
        {
          "indexed": false,
          "name": "_newMeterRead",
          "type": "uint256"
        },
        {
          "indexed": false,
          "name": "_certificatesUsedForWh",
          "type": "uint256"
        },
        {
          "indexed": false,
          "name": "_smartMeterDown",
          "type": "bool"
        }
      ],
      "name": "LogNewMeterRead",
      "type": "event"
    },
    {
      "anonymous": false,
      "inputs": [
        {
          "indexed": false,
          "name": "sender",
          "type": "address"
        },
        {
          "indexed": true,
          "name": "_assetId",
          "type": "uint256"
        }
      ],
      "name": "LogAssetCreated",
      "type": "event"
    },
    {
      "anonymous": false,
      "inputs": [
        {
          "indexed": true,
          "name": "_assetId",
          "type": "uint256"
        }
      ],
      "name": "LogAssetFullyInitialized",
      "type": "event"
    },
    {
      "anonymous": false,
      "inputs": [
        {
          "indexed": true,
          "name": "_assetId",
          "type": "uint256"
        }
      ],
      "name": "LogAssetSetActive",
      "type": "event"
    },
    {
      "anonymous": false,
      "inputs": [
        {
          "indexed": true,
          "name": "_assetId",
          "type": "uint256"
        }
      ],
      "name": "LogAssetSetInactive",
      "type": "event"
    },
    {
      "constant": false,
      "inputs": [
        {
          "name": "_assetId",
          "type": "uint256"
        },
        {
          "name": "_smartMeter",
          "type": "address"
        },
        {
          "name": "_owner",
          "type": "address"
        },
        {
          "name": "_operationalSince",
          "type": "uint256"
        },
        {
          "name": "_capacityWh",
          "type": "uint256"
        },
        {
          "name": "_maxCapacitySet",
          "type": "bool"
        },
        {
          "name": "_active",
          "type": "bool"
        }
      ],
      "name": "initGeneral",
      "outputs": [],
      "payable": false,
      "stateMutability": "nonpayable",
      "type": "function"
    },
    {
      "constant": false,
      "inputs": [
        {
          "name": "_assetId",
          "type": "uint256"
        },
        {
          "name": "_newMeterRead",
          "type": "uint256"
        },
        {
          "name": "_lastSmartMeterReadFileHash",
          "type": "bytes32"
        },
        {
          "name": "_smartMeterDown",
          "type": "bool"
        }
      ],
      "name": "saveSmartMeterRead",
      "outputs": [],
      "payable": false,
      "stateMutability": "nonpayable",
      "type": "function"
    },
    {
      "constant": true,
      "inputs": [
        {
          "name": "_assetId",
          "type": "uint256"
        }
      ],
      "name": "getAssetGeneral",
      "outputs": [
        {
          "name": "_smartMeter",
          "type": "address"
        },
        {
          "name": "_owner",
          "type": "address"
        },
        {
          "name": "_operationalSince",
          "type": "uint256"
        },
        {
          "name": "_capacityWh",
          "type": "uint256"
        },
        {
          "name": "_maxCapacitySet",
          "type": "bool"
        },
        {
          "name": "_lastSmartMeterReadWh",
          "type": "uint256"
        },
        {
          "name": "_certificatesUsedForWh",
          "type": "uint256"
        },
        {
          "name": "_active",
          "type": "bool"
        },
        {
          "name": "_lastSmartMeterReadFileHash",
          "type": "bytes32"
        }
      ],
      "payable": false,
      "stateMutability": "view",
      "type": "function"
    },
    {
      "constant": true,
      "inputs": [
        {
          "name": "_assetId",
          "type": "uint256"
        }
      ],
      "name": "getConsumingProperies",
      "outputs": [
        {
          "name": "capacityWh",
          "type": "uint256"
        },
        {
          "name": "maxCapacitySet",
          "type": "bool"
        },
        {
          "name": "certificatesUsedForWh",
          "type": "uint256"
        }
      ],
      "payable": false,
      "stateMutability": "view",
      "type": "function"
    },
    {
      "constant": false,
      "inputs": [
        {
          "name": "_assetId",
          "type": "uint256"
        },
        {
          "name": "_consumed",
          "type": "uint256"
        }
      ],
      "name": "setConsumptionForPeriode",
      "outputs": [],
      "payable": false,
      "stateMutability": "nonpayable",
      "type": "function"
    }
  ],
  "bytecode": "0x6060604052341561000f57600080fd5b6040516020806113bc8339810160405280805160008054600160a060020a03909216600160a060020a03199092169190911790555050611368806100546000396000f3006060604052600436106100e25763ffffffff60e060020a6000350416630705244281146100e75780631314394d1461010b57806319ab453c146101685780631c1b877214610187578063244a613a146101a6578063312f9a8c146101de57806331a5daf3146102185780634d655aff1461022b5780637715ad901461025a5780639963aece1461027b578063a861c6ef146102aa578063ade1e992146102c3578063ae51439c14610331578063b1f2cc9d14610356578063bb5a389e14610369578063c53fb1a5146103a2578063e60a955d146103b8578063f7105c05146103d3575b600080fd5b34156100f257600080fd5b610109600435600160a060020a03602435166103e9565b005b341561011657600080fd5b610121600435610487565b60405197885260208801969096526040808801959095526060870193909352608086019190915260a085015260c084015260e0830191909152610100909101905180910390f35b341561017357600080fd5b610109600160a060020a036004351661054a565b341561019257600080fd5b610109600160a060020a03600435166105a7565b34156101b157600080fd5b610109600435600160a060020a036024358116906044351660643560843560a435151560c435151561062b565b34156101e957600080fd5b6101f4600435610736565b60405192835290151560208301526040808301919091526060909101905180910390f35b341561022357600080fd5b6101096107c0565b341561023657600080fd5b61023e610897565b604051600160a060020a03909116815260200160405180910390f35b341561026557600080fd5b61010960043560243560443560643515156108a6565b341561028657600080fd5b61010960043560243560443560643560843560a43560c43560e43561010435610b6c565b34156102b557600080fd5b610109600435602435610c20565b34156102ce57600080fd5b6102d9600435610cf2565b604051600160a060020a03998a1681529790981660208801526040808801969096526060870194909452911515608086015260a085015260c0840152151560e083015261010082019290925261012001905180910390f35b341561033c57600080fd5b610344610dd0565b60405190815260200160405180910390f35b341561036157600080fd5b61023e610e39565b341561037457600080fd5b61038e60ff60043516600160a060020a0360243516610e48565b604051901515815260200160405180910390f35b34156103ad57600080fd5b61038e600435610fdf565b34156103c357600080fd5b6101096004356024351515611052565b34156103de57600080fd5b61034460043561114f565b600154600160a060020a0316151561040057600080fd5b600261040c8133610e48565b151561041757600080fd5b600154600160a060020a0316630ff85b94848460405160e060020a63ffffffff85160281526004810192909252600160a060020a03166024820152604401600060405180830381600087803b151561046e57600080fd5b6102c65a03f1151561047f57600080fd5b505050505050565b6001546000908190819081908190819081908190600160a060020a0316631314394d8a83604051610100015260405160e060020a63ffffffff8416028152600481019190915260240161010060405180830381600087803b15156104ea57600080fd5b6102c65a03f115156104fb57600080fd5b5050506040518051906020018051906020018051906020018051906020018051906020018051906020018051906020018051905097509750975097509750975097509750919395975091939597565b60006105568133610e48565b151561056157600080fd5b600154600160a060020a03161561057757600080fd5b506001805473ffffffffffffffffffffffffffffffffffffffff1916600160a060020a0392909216919091179055565b600054600160a060020a0390811690331681146105c357600080fd5b600154600160a060020a031663a6f9dae18360405160e060020a63ffffffff8416028152600160a060020a039091166004820152602401600060405180830381600087803b151561061357600080fd5b6102c65a03f1151561062457600080fd5b5050505050565b600154600160a060020a0316151561064257600080fd5b60048561064f8282610e48565b151561065a57600080fd5b60026106668133610e48565b151561067157600080fd5b600154600160a060020a031663de280a638b8b8b8b8b8b6000808d8160405160e060020a63ffffffff8d16028152600481019a909a52600160a060020a0398891660248b015296909716604489015260648801949094526084870192909252151560a486015260c485015260e484015290151561010483015261012482015261014401600060405180830381600087803b151561070d57600080fd5b6102c65a03f1151561071e57600080fd5b50505061072a8a6111a2565b50505050505050505050565b60015460009081908190600160a060020a031663312f9a8c85836040516060015260405160e060020a63ffffffff84160281526004810191909152602401606060405180830381600087803b151561078d57600080fd5b6102c65a03f1151561079e57600080fd5b5050506040518051906020018051906020018051929791965091945092505050565b600060026107ce8133610e48565b15156107d957600080fd5b600154600160a060020a031615156107f057600080fd5b600154600160a060020a03166331a5daf36000604051602001526040518163ffffffff1660e060020a028152600401602060405180830381600087803b151561083857600080fd5b6102c65a03f1151561084957600080fd5b505050604051805190509150817fd3ab0c36887772472a25b1c1cecc0dee794b7c5ca472edaa2db255346878ee6b33604051600160a060020a03909116815260200160405180910390a25050565b600154600160a060020a031681565b600154600090600160a060020a031615156108c057600080fd5b600154600160a060020a031663ed9c058b8660006040516020015260405160e060020a63ffffffff84160281526004810191909152602401602060405180830381600087803b151561091157600080fd5b6102c65a03f1151561092257600080fd5b5050506040518051905080600160a060020a031633600160a060020a031614151561094c57600080fd5b600154600160a060020a031663c53fb1a58760006040516020015260405160e060020a63ffffffff84160281526004810191909152602401602060405180830381600087803b151561099d57600080fd5b6102c65a03f115156109ae57600080fd5b5050506040518051905015156109c357600080fd5b600154600160a060020a031663042157c28760006040516020015260405160e060020a63ffffffff84160281526004810191909152602401602060405180830381600087803b1515610a1457600080fd5b6102c65a03f11515610a2557600080fd5b505050604051805160015490935085915087907fa0ab5f173b69a28f81848a665a77213faedda299f939f047032c1e714ce6e94b9085908990600160a060020a031663b91dccde8560006040516020015260405160e060020a63ffffffff84160281526004810191909152602401602060405180830381600087803b1515610aac57600080fd5b6102c65a03f11515610abd57600080fd5b5050506040518051905088604051938452602084019290925260408084019190915290151560608301526080909101905180910390a3600154600160a060020a03166398d61f158787874260405160e060020a63ffffffff87160281526004810194909452602484019290925260448301526064820152608401600060405180830381600087803b1515610b5057600080fd5b6102c65a03f11515610b6157600080fd5b505050505050505050565b600154600160a060020a03161515610b8357600080fd5b6002610b8f8133610e48565b1515610b9a57600080fd5b600154600160a060020a0316639963aece8b8b8b8b8b8b8b8b8b60405160e060020a63ffffffff8c160281526004810199909952602489019790975260448801959095526064870193909352608486019190915260a485015260c484015260e483015261010482015261012401600060405180830381600087803b151561070d57600080fd5b60008054600160a060020a03169063a34b80b090604051602001526040518163ffffffff1660e060020a028152600401602060405180830381600087803b1515610c6957600080fd5b6102c65a03f11515610c7a57600080fd5b5050506040518051905080600160a060020a031633600160a060020a0316141515610ca457600080fd5b600154600160a060020a031663c2791306848460405160e060020a63ffffffff851602815260048101929092526024820152604401600060405180830381600087803b151561046e57600080fd5b6000806000806000806000806000600160009054906101000a9004600160a060020a0316600160a060020a031663ade1e9928b6000604051610120015260405160e060020a63ffffffff8416028152600481019190915260240161012060405180830381600087803b1515610d6657600080fd5b6102c65a03f11515610d7757600080fd5b505050604051805190602001805190602001805190602001805190602001805190602001805190602001805190602001805190602001805190509850985098509850985098509850985098509193959799909294969850565b600154600090600160a060020a031663ae51439c82604051602001526040518163ffffffff1660e060020a028152600401602060405180830381600087803b1515610e1a57600080fd5b6102c65a03f11515610e2b57600080fd5b505050604051805191505090565b600054600160a060020a031681565b60008060006007856006811115610e5b57fe5b1115610e6657600080fd5b60008054600160a060020a0380871692911690638da5cb5b90604051602001526040518163ffffffff1660e060020a028152600401602060405180830381600087803b1515610eb457600080fd5b6102c65a03f11515610ec557600080fd5b50505060405180519050600160a060020a03161415610ee75760019250610fd7565b60008054600160a060020a031690635c7460d690604051602001526040518163ffffffff1660e060020a028152600401602060405180830381600087803b1515610f3057600080fd5b6102c65a03f11515610f4157600080fd5b50505060405180519050600160a060020a031663265209f28560006040516020015260405160e060020a63ffffffff8416028152600160a060020a039091166004820152602401602060405180830381600087803b1515610fa157600080fd5b6102c65a03f11515610fb257600080fd5b505050604051805190509150846006811115610fca57fe5b60020a8281161515935090505b505092915050565b600154600090600160a060020a031663c53fb1a583836040516020015260405160e060020a63ffffffff84160281526004810191909152602401602060405180830381600087803b151561103257600080fd5b6102c65a03f1151561104357600080fd5b50505060405180519392505050565b600154600160a060020a0316151561106957600080fd5b60026110758133610e48565b151561108057600080fd5b600154600160a060020a031663e60a955d848460405160e060020a63ffffffff8516028152600481019290925215156024820152604401600060405180830381600087803b15156110d057600080fd5b6102c65a03f115156110e157600080fd5b505050811561111c57827fbb4a2f3fc0f65f1ee98dc140226f7718191ba94892efdc55613785ccbf00a8e860405160405180910390a261114a565b827f61f3fbe0c2049de9b0219669983a937b4377c1dced582b6a720a87b49ae3c08b60405160405180910390a25b505050565b600154600090600160a060020a031663f7105c0583836040516020015260405160e060020a63ffffffff84160281526004810191909152602401602060405180830381600087803b151561103257600080fd5b60015460009081908190600160a060020a031663c6bc1a7685836040516060015260405160e060020a63ffffffff84160281526004810191909152602401606060405180830381600087803b15156111f957600080fd5b6102c65a03f1151561120a57600080fd5b505050604051805190602001805190602001805190509250925092508280156112305750815b801561123a575080155b156113365760018054600160a060020a03169063054dddde90869060405160e060020a63ffffffff8516028152600481019290925215156024820152604401600060405180830381600087803b151561129257600080fd5b6102c65a03f115156112a357600080fd5b505050837f1952717c0461c82af1fee2f55fe9887230a44916d9214bcdf89905bd2c3918a960405160405180910390a2600154600160a060020a03166336016d71854260405160e060020a63ffffffff851602815260048101929092526024820152604401600060405180830381600087803b151561132157600080fd5b6102c65a03f1151561133257600080fd5b5050505b505050505600a165627a7a72305820258010c1eb9bdaa63f53e8955834205f4a7eed418716677418eeaa29acceeeb80029",
  "source": "// Copyright 2018 Energy Web Foundation\n// This file is part of the Origin Application brought to you by the Energy Web Foundation,\n// a global non-profit organization focused on accelerating blockchain technology across the energy sector, \n// incorporated in Zug, Switzerland.\n//\n// The Origin Application is free software: you can redistribute it and/or modify\n// it under the terms of the GNU General Public License as published by\n// the Free Software Foundation, either version 3 of the License, or\n// (at your option) any later version.\n// This is distributed in the hope that it will be useful,\n// but WITHOUT ANY WARRANTY and without an implied warranty of\n// MERCHANTABILITY or FITNESS FOR A PARTICULAR PURPOSE.  See the\n// GNU General Public License for more details, at <http://www.gnu.org/licenses/>.\n//\n// @authors: slock.it GmbH, Martin Kuechler, martin.kuechler@slock.it\n\npragma solidity ^0.4.18;\n\nimport \"./AssetConsumingRegistryDB.sol\";\nimport \"./UserLogic.sol\";\nimport \"./CoO.sol\";\nimport \"./RoleManagement.sol\";\nimport \"./CertificateLogic.sol\";\nimport \"./Updatable.sol\";\nimport \"./AssetLogic.sol\";\n\n/// @title The logic contract for the asset registration\n/// @notice This contract provides the logic that determines how the data is stored\n/// @dev Needs a valid AssetProducingRegistryDB contract to function correctly \ncontract AssetConsumingRegistryLogic is AssetLogic {\n\n    event LogNewMeterRead(\n        uint indexed _assetId, \n        bytes32 indexed _fileHash, \n        uint _oldMeterRead, \n        uint _newMeterRead, \n        uint _certificatesUsedForWh,\n        bool _smartMeterDown\n    );\n\n    /// @notice Constructor\n    /// @param _cooContract The address of the coo contract\n    function AssetConsumingRegistryLogic(CoO _cooContract) \n        public\n        AssetLogic(_cooContract) \n    {\n  \n    }\n\n    /// @notice Sets the general information of an asset in the database\n    /// @param _assetId the The index / identifier of an asset\n    /// @param _smartMeter The address of the smart meter\n    /// @param _owner The address of the asset owner\n    /// @param _operationalSince The timestamp since the asset is operational\n    /// @param _capacityWh The capacity in Wh of the asset\n    /// @param _maxCapacitySet flag whether there should be a max capacity\n    /// @param _active true if active\n    function initGeneral (\n        uint _assetId,\n        address _smartMeter,\n        address _owner,\n        uint _operationalSince,\n        uint _capacityWh,\n        bool _maxCapacitySet,\n        bool _active\n    ) \n        external\n        isInitialized\n        userHasRole(RoleManagement.Role.AssetManager, _owner)\n        onlyRole(RoleManagement.Role.AssetAdmin)\n    {  \n        AssetConsumingRegistryDB(db).initGeneral(_assetId, _smartMeter, _owner, _operationalSince, _capacityWh, _maxCapacitySet, 0, 0, _active, 0x0);\n        updateAssetExistStatus(_assetId);\n    }\n    \n    /// @notice Logs meter read\n    /// @param _assetId The id belonging to an entry in the asset registry\n    /// @param _newMeterRead The current meter read of the asset\n    /// @param _lastSmartMeterReadFileHash Last meter read file hash\n    /// @param _smartMeterDown flag whether the smartmeter was down\n    /// @dev The client needs to check if the blockgas limit could be reached and if so the log should be splitted \n    function saveSmartMeterRead(uint _assetId, uint _newMeterRead, bytes32 _lastSmartMeterReadFileHash, bool _smartMeterDown) \n        external\n        isInitialized\n        onlyAccount(AssetConsumingRegistryDB((db)).getSmartMeter(_assetId))\n    {\n        require(db.getActive(_assetId));\n        uint oldMeterRead = AssetConsumingRegistryDB((db)).getLastSmartMeterReadWh(_assetId);\n        LogNewMeterRead(_assetId, _lastSmartMeterReadFileHash, oldMeterRead, _newMeterRead, AssetConsumingRegistryDB((db)).getCertificatesUsedForWh(_assetId), _smartMeterDown);\n        /// @dev need to check if new meter read is higher then the old one\n        AssetConsumingRegistryDB((db)).setSmartMeterReadData(_assetId, _newMeterRead, _lastSmartMeterReadFileHash,  now);\n\n    }\n\n    /// @notice Gets an asset\n    /// @param _assetId The id belonging to an entry in the asset registry\n    /// @return general information of an asset\n    function getAssetGeneral(uint _assetId) \n        external\n        view\n        returns (\n            address _smartMeter,\n            address _owner,\n            uint _operationalSince,\n            uint _capacityWh,\n            bool _maxCapacitySet,\n            uint _lastSmartMeterReadWh,\n            uint _certificatesUsedForWh,\n            bool _active,\n            bytes32 _lastSmartMeterReadFileHash\n            )\n    {\n        return AssetConsumingRegistryDB(address(db)).getAssetGeneral(_assetId);\n    }\n\n    /// @notice gets the consuming properties of an asset\n    /// @param _assetId the assetId\n    /// @return retuns capacity, maxCapacitySet-falg and certificatesUsedForWh\n    function getConsumingProperies(uint _assetId) \n        external\n        view\n        returns (\n            uint capacityWh,\n            bool maxCapacitySet,\n            uint certificatesUsedForWh\n        )\n    {\n        (capacityWh, maxCapacitySet, certificatesUsedForWh) = AssetConsumingRegistryDB(address(db)).getConsumingProperies(_assetId);\n    }\n\n    /// @notice sets the consumption for a period (in Wh)\n    /// @param _assetId assetId\n    /// @param _consumed the amount of energy consumed\n    function setConsumptionForPeriode(uint _assetId, uint _consumed)\n        external\n        onlyAccount(address(cooContract.demandRegistry()))\n    {\n        AssetConsumingRegistryDB(db).setCertificatesUsedForWh(_assetId, _consumed);\n    }\n}",
  "sourcePath": "/Users/mkuechler/ewf/ewf-pushrepo/certificate_of_origin/contracts/AssetConsumingRegistryLogic.sol",
  "compiler": {
    "name": "solc",
    "version": "0.4.19+commit.c4cbbb05.Emscripten.clang"
  },
  "schemaVersion": "2.0.0",
  "updatedAt": "2018-07-31T09:06:35.520Z"
}