{
  "contractName": "AssetConsumingRegistryDB",
  "abi": [
    {
      "constant": true,
      "inputs": [],
      "name": "owner",
      "outputs": [
        {
          "name": "",
          "type": "address"
        }
      ],
      "payable": false,
      "stateMutability": "view",
      "type": "function"
    },
    {
      "constant": false,
      "inputs": [
        {
          "name": "_newOwner",
          "type": "address"
        }
      ],
      "name": "changeOwner",
      "outputs": [],
      "payable": false,
      "stateMutability": "nonpayable",
      "type": "function"
    },
    {
      "inputs": [
        {
          "name": "_owner",
          "type": "address"
        }
      ],
      "payable": false,
      "stateMutability": "nonpayable",
      "type": "constructor"
    },
    {
      "anonymous": false,
      "inputs": [
        {
          "indexed": false,
          "name": "_newOwner",
          "type": "address"
        }
      ],
      "name": "LogChangeOwner",
      "type": "event"
    },
    {
      "constant": false,
      "inputs": [],
      "name": "createAsset",
      "outputs": [
        {
          "name": "_assetId",
          "type": "uint256"
        }
      ],
      "payable": false,
      "stateMutability": "nonpayable",
      "type": "function"
    },
    {
      "constant": false,
      "inputs": [
        {
          "name": "_assetId",
          "type": "uint256"
        },
        {
          "name": "_smartMeter",
          "type": "address"
        },
        {
          "name": "_owner",
          "type": "address"
        },
        {
          "name": "_operationalSince",
          "type": "uint256"
        },
        {
          "name": "_capacityWh",
          "type": "uint256"
        },
        {
          "name": "_maxCapacitySet",
          "type": "bool"
        },
        {
          "name": "_lastSmartMeterReadWh",
          "type": "uint256"
        },
        {
          "name": "_certificatesUsedForWh",
          "type": "uint256"
        },
        {
          "name": "_active",
          "type": "bool"
        },
        {
          "name": "_lastSmartMeterReadFileHash",
          "type": "bytes32"
        }
      ],
      "name": "initGeneral",
      "outputs": [],
      "payable": false,
      "stateMutability": "nonpayable",
      "type": "function"
    },
    {
      "constant": false,
      "inputs": [
        {
          "name": "_assetId",
          "type": "uint256"
        },
        {
          "name": "_country",
          "type": "bytes32"
        },
        {
          "name": "_region",
          "type": "bytes32"
        },
        {
          "name": "_zip",
          "type": "bytes32"
        },
        {
          "name": "_city",
          "type": "bytes32"
        },
        {
          "name": "_street",
          "type": "bytes32"
        },
        {
          "name": "_houseNumber",
          "type": "bytes32"
        },
        {
          "name": "_gpsLatitude",
          "type": "bytes32"
        },
        {
          "name": "_gpsLongitude",
          "type": "bytes32"
        }
      ],
      "name": "initLocation",
      "outputs": [],
      "payable": false,
      "stateMutability": "nonpayable",
      "type": "function"
    },
    {
      "constant": false,
      "inputs": [
        {
          "name": "_assetId",
          "type": "uint256"
        },
        {
          "name": "_active",
          "type": "bool"
        }
      ],
      "name": "setActive",
      "outputs": [],
      "payable": false,
      "stateMutability": "nonpayable",
      "type": "function"
    },
    {
      "constant": false,
      "inputs": [
        {
          "name": "_assetId",
          "type": "uint256"
        },
        {
          "name": "_exist",
          "type": "bool"
        }
      ],
      "name": "setAssetExistStatus",
      "outputs": [],
      "payable": false,
      "stateMutability": "nonpayable",
      "type": "function"
    },
    {
      "constant": false,
      "inputs": [
        {
          "name": "_assetId",
          "type": "uint256"
        },
        {
          "name": "_capacityWh",
          "type": "uint256"
        }
      ],
      "name": "setCapacityWh",
      "outputs": [],
      "payable": false,
      "stateMutability": "nonpayable",
      "type": "function"
    },
    {
      "constant": false,
      "inputs": [
        {
          "name": "_assetId",
          "type": "uint256"
        },
        {
          "name": "_certificatesUsedForWh",
          "type": "uint256"
        }
      ],
      "name": "setCertificatesUsedForWh",
      "outputs": [],
      "payable": false,
      "stateMutability": "nonpayable",
      "type": "function"
    },
    {
      "constant": false,
      "inputs": [
        {
          "name": "_assetId",
          "type": "uint256"
        },
        {
          "name": "_timestamp",
          "type": "uint256"
        }
      ],
      "name": "setLastSmartMeterReadDate",
      "outputs": [],
      "payable": false,
      "stateMutability": "nonpayable",
      "type": "function"
    },
    {
      "constant": false,
      "inputs": [
        {
          "name": "_assetId",
          "type": "uint256"
        },
        {
          "name": "_lastSmartMeterReadFileHash",
          "type": "bytes32"
        }
      ],
      "name": "setLastSmartMeterReadFileHash",
      "outputs": [],
      "payable": false,
      "stateMutability": "nonpayable",
      "type": "function"
    },
    {
      "constant": false,
      "inputs": [
        {
          "name": "_assetId",
          "type": "uint256"
        },
        {
          "name": "_lastSmartMeterReadWh",
          "type": "uint256"
        }
      ],
      "name": "setLastSmartMeterReadWh",
      "outputs": [],
      "payable": false,
      "stateMutability": "nonpayable",
      "type": "function"
    },
    {
      "constant": false,
      "inputs": [
        {
          "name": "_assetId",
          "type": "uint256"
        },
        {
          "name": "_country",
          "type": "bytes32"
        }
      ],
      "name": "setLocationCountry",
      "outputs": [],
      "payable": false,
      "stateMutability": "nonpayable",
      "type": "function"
    },
    {
      "constant": false,
      "inputs": [
        {
          "name": "_assetId",
          "type": "uint256"
        },
        {
          "name": "_region",
          "type": "bytes32"
        }
      ],
      "name": "setLocationRegion",
      "outputs": [],
      "payable": false,
      "stateMutability": "nonpayable",
      "type": "function"
    },
    {
      "constant": false,
      "inputs": [
        {
          "name": "_assetId",
          "type": "uint256"
        },
        {
          "name": "_operationalSince",
          "type": "uint256"
        }
      ],
      "name": "setOperationalSince",
      "outputs": [],
      "payable": false,
      "stateMutability": "nonpayable",
      "type": "function"
    },
    {
      "constant": false,
      "inputs": [
        {
          "name": "_assetId",
          "type": "uint256"
        },
        {
          "name": "_owner",
          "type": "address"
        }
      ],
      "name": "setOwner",
      "outputs": [],
      "payable": false,
      "stateMutability": "nonpayable",
      "type": "function"
    },
    {
      "constant": false,
      "inputs": [
        {
          "name": "_assetId",
          "type": "uint256"
        },
        {
          "name": "_smartMeter",
          "type": "address"
        }
      ],
      "name": "setSmartMeter",
      "outputs": [],
      "payable": false,
      "stateMutability": "nonpayable",
      "type": "function"
    },
    {
      "constant": false,
      "inputs": [
        {
          "name": "_assetId",
          "type": "uint256"
        },
        {
          "name": "_newMeterRead",
          "type": "uint256"
        },
        {
          "name": "_lastSmartMeterReadFileHash",
          "type": "bytes32"
        },
        {
          "name": "_timestamp",
          "type": "uint256"
        }
      ],
      "name": "setSmartMeterReadData",
      "outputs": [],
      "payable": false,
      "stateMutability": "nonpayable",
      "type": "function"
    },
    {
      "constant": true,
      "inputs": [
        {
          "name": "_assetId",
          "type": "uint256"
        }
      ],
      "name": "getActive",
      "outputs": [
        {
          "name": "",
          "type": "bool"
        }
      ],
      "payable": false,
      "stateMutability": "view",
      "type": "function"
    },
    {
      "constant": true,
      "inputs": [
        {
          "name": "_assetId",
          "type": "uint256"
        }
      ],
      "name": "getAssetGeneral",
      "outputs": [
        {
          "name": "_smartMeter",
          "type": "address"
        },
        {
          "name": "_owner",
          "type": "address"
        },
        {
          "name": "_operationalSince",
          "type": "uint256"
        },
        {
          "name": "_capacityWh",
          "type": "uint256"
        },
        {
          "name": "_maxCapacitySet",
          "type": "bool"
        },
        {
          "name": "_lastSmartMeterReadWh",
          "type": "uint256"
        },
        {
          "name": "_certificatesUsedForWh",
          "type": "uint256"
        },
        {
          "name": "_active",
          "type": "bool"
        },
        {
          "name": "_lastSmartMeterReadFileHash",
          "type": "bytes32"
        }
      ],
      "payable": false,
      "stateMutability": "view",
      "type": "function"
    },
    {
      "constant": true,
      "inputs": [],
      "name": "getAssetListLength",
      "outputs": [
        {
          "name": "",
          "type": "uint256"
        }
      ],
      "payable": false,
      "stateMutability": "view",
      "type": "function"
    },
    {
      "constant": true,
      "inputs": [
        {
          "name": "_assetId",
          "type": "uint256"
        }
      ],
      "name": "getAssetLocation",
      "outputs": [
        {
          "name": "country",
          "type": "bytes32"
        },
        {
          "name": "region",
          "type": "bytes32"
        },
        {
          "name": "zip",
          "type": "bytes32"
        },
        {
          "name": "city",
          "type": "bytes32"
        },
        {
          "name": "street",
          "type": "bytes32"
        },
        {
          "name": "houseNumber",
          "type": "bytes32"
        },
        {
          "name": "gpsLatitude",
          "type": "bytes32"
        },
        {
          "name": "gpsLongitude",
          "type": "bytes32"
        }
      ],
      "payable": false,
      "stateMutability": "view",
      "type": "function"
    },
    {
      "constant": true,
      "inputs": [
        {
          "name": "_assetId",
          "type": "uint256"
        }
      ],
      "name": "getCapacityWh",
      "outputs": [
        {
          "name": "",
          "type": "uint256"
        }
      ],
      "payable": false,
      "stateMutability": "view",
      "type": "function"
    },
    {
      "constant": true,
      "inputs": [
        {
          "name": "_assetId",
          "type": "uint256"
        }
      ],
      "name": "getCertificatesUsedForWh",
      "outputs": [
        {
          "name": "",
          "type": "uint256"
        }
      ],
      "payable": false,
      "stateMutability": "view",
      "type": "function"
    },
    {
      "constant": true,
      "inputs": [
        {
          "name": "_assetId",
          "type": "uint256"
        }
      ],
      "name": "getConsumingProperies",
      "outputs": [
        {
          "name": "_capacityWh",
          "type": "uint256"
        },
        {
          "name": "_maxCapacitySet",
          "type": "bool"
        },
        {
          "name": "_certificatesUsedForWh",
          "type": "uint256"
        }
      ],
      "payable": false,
      "stateMutability": "view",
      "type": "function"
    },
    {
      "constant": true,
      "inputs": [
        {
          "name": "_assetId",
          "type": "uint256"
        }
      ],
      "name": "getExistStatus",
      "outputs": [
        {
          "name": "general",
          "type": "bool"
        },
        {
          "name": "location",
          "type": "bool"
        },
        {
          "name": "asset",
          "type": "bool"
        }
      ],
      "payable": false,
      "stateMutability": "view",
      "type": "function"
    },
    {
      "constant": false,
      "inputs": [
        {
          "name": "_assetId",
          "type": "uint256"
        }
      ],
      "name": "getLastSmartMeterRead",
      "outputs": [
        {
          "name": "",
          "type": "uint256"
        }
      ],
      "payable": false,
      "stateMutability": "nonpayable",
      "type": "function"
    },
    {
      "constant": false,
      "inputs": [
        {
          "name": "_assetId",
          "type": "uint256"
        }
      ],
      "name": "getLastSmartMeterReadDate",
      "outputs": [
        {
          "name": "",
          "type": "uint256"
        }
      ],
      "payable": false,
      "stateMutability": "nonpayable",
      "type": "function"
    },
    {
      "constant": true,
      "inputs": [
        {
          "name": "_assetId",
          "type": "uint256"
        }
      ],
      "name": "getLastSmartMeterReadFileHash",
      "outputs": [
        {
          "name": "",
          "type": "bytes32"
        }
      ],
      "payable": false,
      "stateMutability": "view",
      "type": "function"
    },
    {
      "constant": true,
      "inputs": [
        {
          "name": "_assetId",
          "type": "uint256"
        }
      ],
      "name": "getLastSmartMeterReadWh",
      "outputs": [
        {
          "name": "",
          "type": "uint256"
        }
      ],
      "payable": false,
      "stateMutability": "view",
      "type": "function"
    },
    {
      "constant": true,
      "inputs": [
        {
          "name": "_assetId",
          "type": "uint256"
        }
      ],
      "name": "getLocationCountry",
      "outputs": [
        {
          "name": "",
          "type": "bytes32"
        }
      ],
      "payable": false,
      "stateMutability": "view",
      "type": "function"
    },
    {
      "constant": true,
      "inputs": [
        {
          "name": "_assetId",
          "type": "uint256"
        }
      ],
      "name": "getLocationRegion",
      "outputs": [
        {
          "name": "",
          "type": "bytes32"
        }
      ],
      "payable": false,
      "stateMutability": "view",
      "type": "function"
    },
    {
      "constant": true,
      "inputs": [
        {
          "name": "_assetId",
          "type": "uint256"
        }
      ],
      "name": "getOperationalSince",
      "outputs": [
        {
          "name": "",
          "type": "uint256"
        }
      ],
      "payable": false,
      "stateMutability": "view",
      "type": "function"
    },
    {
      "constant": true,
      "inputs": [
        {
          "name": "_assetId",
          "type": "uint256"
        }
      ],
      "name": "getOwner",
      "outputs": [
        {
          "name": "",
          "type": "address"
        }
      ],
      "payable": false,
      "stateMutability": "view",
      "type": "function"
    },
    {
      "constant": true,
      "inputs": [
        {
          "name": "_assetId",
          "type": "uint256"
        }
      ],
      "name": "getSmartMeter",
      "outputs": [
        {
          "name": "",
          "type": "address"
        }
      ],
      "payable": false,
      "stateMutability": "view",
      "type": "function"
    }
  ],
  "bytecode": "0x6060604052341561000f57600080fd5b6040516020806119c78339810160405280805160008054600160a060020a03909216600160a060020a03199092169190911790555050611973806100546000396000f3006060604052600436106101b65763ffffffff7c0100000000000000000000000000000000000000000000000000000000600035041663042157c281146101bb578063054dddde146101e35780630ff85b94146102005780631314394d14610222578063312f9a8c1461027f57806331a5daf3146102b957806336016d71146102cc578063437992c8146101bb5780634694cc43146102e557806351f19298146102fb57806357c3bc60146103145780637fd392471461032d578063830be6e91461034f5780638c26afa6146103685780638da5cb5b1461037e5780639346e7c5146103ad57806398d61f15146103c35780639963aece146103e2578063a12df75014610411578063a60b6fdc1461042a578063a6f9dae114610443578063ade1e99214610462578063adfe021b146104d0578063ae51439c146104e6578063af55ac28146104f9578063b91dccde14610512578063c279130614610528578063c41a360a14610541578063c53fb1a514610557578063c6bc1a7614610581578063de280a63146105bf578063e60a955d14610602578063ed9c058b1461061d578063f1d03e9314610633578063f7105c0514610649575b600080fd5b34156101c657600080fd5b6101d160043561065f565b60405190815260200160405180910390f35b34156101ee57600080fd5b6101fe60043560243515156106a5565b005b341561020b57600080fd5b6101fe600435600160a060020a03602435166106f6565b341561022d57600080fd5b610238600435610753565b60405197885260208801969096526040808801959095526060870193909352608086019190915260a085015260c084015260e0830191909152610100909101905180910390f35b341561028a57600080fd5b610295600435610830565b60405192835290151560208301526040808301919091526060909101905180910390f35b34156102c457600080fd5b6101d16108bf565b34156102d757600080fd5b6101fe600435602435610b9d565b34156102f057600080fd5b6101d1600435610be0565b341561030657600080fd5b6101fe600435602435610c26565b341561031f57600080fd5b6101fe600435602435610c69565b341561033857600080fd5b6101fe600435600160a060020a0360243516610cac565b341561035a57600080fd5b6101fe600435602435610d0c565b341561037357600080fd5b6101d1600435610d4f565b341561038957600080fd5b610391610d95565b604051600160a060020a03909116815260200160405180910390f35b34156103b857600080fd5b6101d1600435610da4565b34156103ce57600080fd5b6101fe600435602435604435606435610dea565b34156103ed57600080fd5b6101fe60043560243560443560643560843560a43560c43560e43561010435610e79565b341561041c57600080fd5b6101fe600435602435610ed3565b341561043557600080fd5b6101fe600435602435610f16565b341561044e57600080fd5b6101fe600160a060020a0360043516610f59565b341561046d57600080fd5b610478600435610fe4565b604051600160a060020a03998a1681529790981660208801526040808801969096526060870194909452911515608086015260a085015260c0840152151560e083015261010082019290925261012001905180910390f35b34156104db57600080fd5b6101d1600435611131565b34156104f157600080fd5b6101d1611177565b341561050457600080fd5b6101fe60043560243561119b565b341561051d57600080fd5b6101d16004356111de565b341561053357600080fd5b6101fe600435602435611224565b341561054c57600080fd5b610391600435611267565b341561056257600080fd5b61056d6004356112b4565b604051901515815260200160405180910390f35b341561058c57600080fd5b6105976004356112fb565b6040519215158352901515602083015215156040808301919091526060909101905180910390f35b34156105ca57600080fd5b6101fe600435600160a060020a036024358116906044351660643560843560a435151560c43560e435610104351515610124356114b0565b341561060d57600080fd5b6101fe6004356024351515611532565b341561062857600080fd5b610391600435611583565b341561063e57600080fd5b6101d16004356115cd565b341561065457600080fd5b6101d1600435611613565b6000805433600160a060020a0390811691161461067b57600080fd5b600180548390811061068957fe5b9060005260206000209060150201600001600301549050919050565b60005433600160a060020a039081169116146106c057600080fd5b806001838154811015156106d057fe5b60009182526020909120601590910201601401805460ff19169115159190911790555050565b60005433600160a060020a0390811691161461071157600080fd5b8060018381548110151561072157fe5b600091825260209091206015909102018054600160a060020a031916600160a060020a03929092169190911790555050565b600080600080600080600080610767611758565b60005433600160a060020a0390811691161461078257600080fd5b600180548b90811061079057fe5b9060005260206000209060150201600b01610120604051908101604090815282548252600183015460208301526002830154908201526003820154606082015260048201546080820152600582015460a0820152600682015460c0820152600782015460e082015260089091015460ff161515610100820152905061081481611659565b9850985098509850985098509850985050919395975091939597565b600080600061083d6117a4565b60005433600160a060020a0390811691161461085857600080fd5b600180548690811061086657fe5b90600052602060002090601502016008016060604051908101604090815282548252600183015460ff16151560208301526002909201549181019190915290508051935080602001519250806040015193959294505050565b6000805433600160a060020a039081169116146108db57600080fd5b506001805490818082016108ef83826117c4565b91600052602060002090601502016000608060405190810160405280600261010060405190810160409081528254600160a060020a0390811683526001840154166020808401919091526002840154828401526003840154606080850191909152600485015460ff90811615156080860152600586015460a0860152600686015460c0860152600790950154909416151560e08401529184529201916013919051908101604090815282548252600183015460ff16151560208084019190915260029093015481830152908352910190600a90610120905190810160409081528254825260018301546020808401919091526002840154918301919091526003830154606083015260048301546080830152600583015460a0830152600683015460c0830152600783015460e083015260089092015460ff1615156101008201528252600091015291905081518181518154600160a060020a031916600160a060020a03919091161781556020820151600182018054600160a060020a031916600160a060020a03929092169190911790556040820151816002015560608201518160030155608082015160048201805460ff191691151591909117905560a0820151600582015560c0820151816006015560e0820151600791909101805460ff19169115159190911790555060208201516008820181518155602082015160018201805460ff19169115159190911790556040820151816002015550506040820151600b8201815181556020820151600182015560408201516002820155606082015160038201556080820151600482015560a0820151600582015560c0820151600682015560e08201516007820155610100820151600891909101805460ff1916911515919091179055506060820151601491909101805460ff19169115159190911790555090919050565b60005433600160a060020a03908116911614610bb857600080fd5b80600183815481101515610bc857fe5b60009182526020909120600660159092020101555050565b6000805433600160a060020a03908116911614610bfc57600080fd5b6001805483908110610c0a57fe5b9060005260206000209060150201600001600201549050919050565b60005433600160a060020a03908116911614610c4157600080fd5b80600183815481101515610c5157fe5b60009182526020909120600260159092020101555050565b60005433600160a060020a03908116911614610c8457600080fd5b80600183815481101515610c9457fe5b60009182526020909120600360159092020101555050565b60005433600160a060020a03908116911614610cc757600080fd5b80600183815481101515610cd757fe5b600091825260209091206015909102016001018054600160a060020a031916600160a060020a03929092169190911790555050565b60005433600160a060020a03908116911614610d2757600080fd5b80600183815481101515610d3757fe5b60009182526020909120600860159092020101555050565b6000805433600160a060020a03908116911614610d6b57600080fd5b6001805483908110610d7957fe5b9060005260206000209060150201600001600601549050919050565b600054600160a060020a031681565b6000805433600160a060020a03908116911614610dc057600080fd5b6001805483908110610dce57fe5b9060005260206000209060150201600b01600101549050919050565b60005433600160a060020a03908116911614610e0557600080fd5b82600185815481101515610e1557fe5b60009182526020909120600360159092020101556001805483919086908110610e3a57fe5b60009182526020909120600560159092020101556001805482919086908110610e5f57fe5b600091825260209091206006601590920201015550505050565b6000805433600160a060020a03908116911614610e9557600080fd5b600180548b908110610ea357fe5b9060005260206000209060150201600b019050610ec7818a8a8a8a8a8a8a8a6116a2565b50505050505050505050565b60005433600160a060020a03908116911614610eee57600080fd5b80600183815481101515610efe57fe5b60009182526020909120600c60159092020101555050565b60005433600160a060020a03908116911614610f3157600080fd5b80600183815481101515610f4157fe5b60009182526020909120600560159092020101555050565b60005433600160a060020a03908116911614610f7457600080fd5b600160a060020a0381161515610f8957600080fd5b60008054600160a060020a031916600160a060020a0383161790557f95fd54179c11867fb083dd94347ea50f144dd4cfd7612b7bca169f162824af1681604051600160a060020a03909116815260200160405180910390a150565b600080600080600080600080600080610ffb6117f5565b6110036117a4565b60005433600160a060020a0390811691161461101e57600080fd5b600180548e90811061102c57fe5b906000526020600020906015020192508260000161010060405190810160409081528254600160a060020a03908116835260018401541660208301526002830154818301526003830154606080840191909152600484015460ff90811615156080850152600585015460a0850152600685015460c0850152600790940154909316151560e083015290935060088501919051908101604090815282548252600183015460ff161515602083015260029092015491810191909152905081519b5081602001519a508160400151995080519850806020015197508160600151965080604001519550816080015194508160a0015193505050509193959799909294969850565b6000805433600160a060020a0390811691161461114d57600080fd5b600180548390811061115b57fe5b9060005260206000209060150201600801600001549050919050565b6000805433600160a060020a0390811691161461119357600080fd5b506001545b90565b60005433600160a060020a039081169116146111b657600080fd5b806001838154811015156111c657fe5b60009182526020909120600b60159092020101555050565b6000805433600160a060020a039081169116146111fa57600080fd5b600180548390811061120857fe5b9060005260206000209060150201600801600201549050919050565b60005433600160a060020a0390811691161461123f57600080fd5b8060018381548110151561124f57fe5b60009182526020909120600a60159092020101555050565b6000805433600160a060020a0390811691161461128357600080fd5b600180548390811061129157fe5b6000918252602090912060159091020160010154600160a060020a031692915050565b6000805433600160a060020a039081169116146112d057600080fd5b60018054839081106112de57fe5b600091825260209091206015909102016004015460ff1692915050565b6000806000611308611839565b60005433600160a060020a0390811691161461132357600080fd5b600180548690811061133157fe5b9060005260206000209060150201608060405190810160405290816000820161010060405190810160409081528254600160a060020a0390811683526001840154166020808401919091526002840154828401526003840154606080850191909152600485015460ff90811615156080860152600586015460a0860152600686015460c0860152600790950154909416151560e084015291845292019160088401919051908101604090815282548252600183015460ff16151560208084019190915260029093015481830152908352910190600b830190610120905190810160409081528254825260018301546020808401919091526002840154918301919091526003830154606083015260048301546080830152600583015460a0830152600683015460c0830152600783015460e083015260089092015460ff90811615156101008301529083526014939093015490921615159101529050805160e00151816040015161010001518260600151935093509350509193909250565b600080548190819033600160a060020a039081169116146114d057600080fd5b600180548e9081106114de57fe5b90600052602060002090601502019250826000019150826008019050611509828d8d8d8b8a8a6116e7565b6002810195909555505050938155600101805460ff191692151592909217909155505050505050565b60005433600160a060020a0390811691161461154d57600080fd5b8060018381548110151561155d57fe5b60009182526020909120601590910201600401805460ff19169115159190911790555050565b6000805433600160a060020a0390811691161461159f57600080fd5b60018054839081106115ad57fe5b6000918252602090912060159091020154600160a060020a031692915050565b6000805433600160a060020a039081169116146115e957600080fd5b60018054839081106115f757fe5b9060005260206000209060150201600b01600001549050919050565b6000805433600160a060020a0390811691161461162f57600080fd5b600180548390811061163d57fe5b9060005260206000209060150201600001600501549050919050565b60008080808080808088519750886020015196508860800151955088604001519450886060015193508860a0015192508860c0015191508860e001519050919395975091939597565b9688556001808901969096556004880194909455600287019290925560038601556005850155600684015560078301919091556008909101805460ff19169091179055565b8654600160a060020a03968716600160a060020a0319918216178855600180890180549790981696909116959095179095556002860192909255600385015560048401805491151560ff19928316179055600584019290925560006006840155600790920180549091169091179055565b6101206040519081016040908152600080835260208301819052908201819052606082018190526080820181905260a0820181905260c0820181905260e0820181905261010082015290565b606060405190810160409081526000808352602083018190529082015290565b8154818355818115116117f0576015028160150283600052602060002091820191016117f09190611875565b505050565b6101006040519081016040908152600080835260208301819052908201819052606082018190526080820181905260a0820181905260c0820181905260e082015290565b6102a06040519081016040528061184e6117f5565b815260200161185b6117a4565b8152602001611868611758565b8152600060209091015290565b61119891905b80821115611943578054600160a060020a0319908116825560018201805490911690556000600282018190556003820181905560048201805460ff199081169091556005830182905560068301829055600783018054821690556008830182905560098301805482169055600a8301829055600b8301829055600c8301829055600d8301829055600e8301829055600f83018290556010830182905560118301829055601283019190915560138201805482169055601482018054909116905560150161187b565b50905600a165627a7a72305820843470b2f6107f570fe21d760511d0404402068cb31cfa5e791bbe32cd6fc3600029",
  "source": "// Copyright 2018 Energy Web Foundation\n//\n// This file is part of the Origin Application brought to you by the Energy Web Foundation,\n// a global non-profit organization focused on accelerating blockchain technology across the energy sector, \n// incorporated in Zug, Switzerland.\n//\n// The Origin Application is free software: you can redistribute it and/or modify\n// it under the terms of the GNU General Public License as published by\n// the Free Software Foundation, either version 3 of the License, or\n// (at your option) any later version.\n// This is distributed in the hope that it will be useful,\n// but WITHOUT ANY WARRANTY and without an implied warranty of\n// MERCHANTABILITY or FITNESS FOR A PARTICULAR PURPOSE.  See the\n// GNU General Public License for more details, at <http://www.gnu.org/licenses/>.\n//\n// @authors: slock.it GmbH, Martin Kuechler, martin.kuechler@slock.it\n\npragma solidity ^0.4.18;\n\nimport \"./Owned.sol\";\nimport \"./LocationDefinition.sol\";\nimport \"./AssetGeneralDefinition.sol\";\nimport \"./AssetDbInterface.sol\";\n\n/// @title The Database contract for the Asset Registration\n/// @notice This contract only provides getter and setter methods\ncontract AssetConsumingRegistryDB is Owned, AssetGeneralDefinition, AssetDbInterface {\n\n    struct ConsumingProperties {\n        uint capacityWh;\n        bool maxCapacitySet;\n        uint certificatesUsedForWh;\n    }\n\n    struct Asset {\n        GeneralInformation general;\n        ConsumingProperties consumingProps;\n        LocationDefinition.Location location;\n        bool exists;\n    }\n\n\n    /// @notice An array containing all registerd assets\n    Asset[] private assets;\n\n    /// @dev empty structs for initializing, used to avoid compile warnings\n    GeneralInformation generalEmpty;\n    LocationDefinition.Location locationEmpty;\n    ConsumingProperties consumingEmpty;\n\n    /// @notice Constructor\n    /// @param _owner The owner of the contract\n    function AssetConsumingRegistryDB(address _owner) \n        public\n        Owned(_owner) \n    {\n\n    } \n\n    /// @notice function to create a new empty asset\n    /// @return returns the array-position and thus the index / identifier of this new asset\n    function createAsset() \n        external\n        onlyOwner\n        returns (uint _assetId)\n    {\n        _assetId = assets.length;\n        assets.push(AssetConsumingRegistryDB.Asset({\n            general: generalEmpty,\n            consumingProps: consumingEmpty,\n            location: locationEmpty,\n            exists: false\n        }));\n    }\n\n    /// @notice Sets the general information for an asset\n    /// @param _assetId The index / identifier for that asset\n    /// @param _smartMeter The address of the smart meter\n    /// @param _owner The address of the asset owner\n    /// @param _operationalSince The timestamp since the asset is operational\n    /// @param _capacityWh The capacity in Wh of the asset\n    /// @param _lastSmartMeterReadWh The smart meter read in Wh\n    /// @param _certificatesUsedForWh The amount of Wh used to issue certificates\n    /// @param _active true if active\n    /// @param _lastSmartMeterReadFileHash The last meter read file hash\n    function initGeneral (       \n        uint _assetId, \n        address _smartMeter,\n        address _owner,\n        uint _operationalSince,\n        uint _capacityWh,\n        bool _maxCapacitySet,\n        uint _lastSmartMeterReadWh,\n        uint _certificatesUsedForWh,\n        bool _active,\n        bytes32 _lastSmartMeterReadFileHash\n    ) \n        onlyOwner\n        external\n    {\n        Asset storage a = assets[_assetId];\n\n        GeneralInformation storage gi = a.general; // just want to doublecheck, gi is a pointer to the storage, right?\n        ConsumingProperties storage cp = a.consumingProps;\n        setGeneralInformationInternal(gi, _smartMeter, _owner, _operationalSince,_lastSmartMeterReadWh, _active, _lastSmartMeterReadFileHash);\n   \n        cp.certificatesUsedForWh = _certificatesUsedForWh;\n        cp.capacityWh = _capacityWh;\n        cp.maxCapacitySet = _maxCapacitySet;\n    }\n \n    /// @notice function to set all the location Informations for an asset\n    /// @param _assetId The identifier / index of an asset\n    /// @param _country The country where the asset is located\n    /// @param _region The region / state where the asset is located\n    /// @param _zip The zip-code of the region where the asset is located\n    /// @param _city The city where the asset is located\n    /// @param _street The streetname where the asset is located\n    /// @param _houseNumber the housenumber where the asset is located\n    /// @param _gpsLatitude The gps-latitude\n    /// @param _gpsLongitude The gps-longitude\n    function initLocation(\n        uint _assetId,\n        bytes32 _country,\n        bytes32 _region,\n        bytes32 _zip,\n        bytes32 _city,\n        bytes32 _street,\n        bytes32 _houseNumber,\n        bytes32 _gpsLatitude,\n        bytes32 _gpsLongitude\n    )\n        onlyOwner\n        external\n    {\n        LocationDefinition.Location storage loc = assets[_assetId].location;\n        initLocationInternal(loc, _country, _region, _zip, _city, _street, _houseNumber, _gpsLatitude, _gpsLongitude);\n    } \n \n    /// @notice Sets if an entry in the asset registry is active\n    /// @param _assetId The id belonging to an entry in the asset registry\n    /// @param _active true if active\n    function setActive(uint _assetId, bool _active) \n        onlyOwner\n        external\n    {\n        assets[_assetId].general.active = _active;\n    }\n\n    /// @notice function to set the existing status of an asset\n    /// @param _assetId The index position / identifier of an asset\n    /// @param _exist flag if the asset should exist\n    function setAssetExistStatus(uint _assetId, bool _exist)\n        external\n        onlyOwner\n    {\n        assets[_assetId].exists = _exist;\n    }\n\n\n    /// @notice Sets the capacity in Wh of an entry in the asset registry\n    /// @param _assetId The id belonging to an entry in the asset registry\n    /// @param _capacityWh The capacity in Wh\n    function setCapacityWh(uint _assetId, uint _capacityWh) \n        onlyOwner\n        external\n    {        \n        assets[_assetId].consumingProps.capacityWh = _capacityWh;\n    }\n\n    /// @notice Sets amount of Wh used to issue certificates belonging to an entry in the asset registry\n    /// @param _assetId The id belonging to an entry in the asset registry\n    /// @param _certificatesUsedForWh The amount of Wh used to issue certificates\n    function setCertificatesUsedForWh(uint _assetId, uint _certificatesUsedForWh) \n        onlyOwner\n        external\n    {\n        assets[_assetId].consumingProps.certificatesUsedForWh = _certificatesUsedForWh;\n    }\n\n    /// @notice Sets a timestamp for the last meterreading\n    /// @param _assetId the id belonging to an entry in the asset registry\n    /// @param _timestamp new UNIX-timestamp\n    function setLastSmartMeterReadDate(uint _assetId, uint _timestamp)\n        onlyOwner\n        external\n    {\n        assets[_assetId].general.lastMeterReadReceived = _timestamp;\n    }\n\n    /// @notice Sets last meter read file hash\n    /// @param _assetId The id belonging to an entry in the asset registry\n    /// @param _lastSmartMeterReadFileHash Last meter read file hash\n    function setLastSmartMeterReadFileHash(uint _assetId, bytes32 _lastSmartMeterReadFileHash)\n        onlyOwner\n        external\n    {\n        assets[_assetId].general.lastSmartMeterReadFileHash = _lastSmartMeterReadFileHash;\n    }\n\n    /// @notice Sets the last smart meter read in Wh of an entry in the asset registry\n    /// @param _assetId The id belonging to an entry in the asset registry\n    /// @param _lastSmartMeterReadWh The smart meter read in Wh\n    function setLastSmartMeterReadWh(uint _assetId, uint _lastSmartMeterReadWh) \n        onlyOwner\n        external\n    {\n        assets[_assetId].general.lastSmartMeterReadWh = _lastSmartMeterReadWh;\n    }\n\n    /// @notice Sets the location-country of an asset\n    /// @param _assetId the id belonging to an entry in the asset registry\n    /// @param _country the new country\n    function setLocationCountry(uint _assetId, bytes32 _country)\n        onlyOwner\n        external\n    {\n        assets[_assetId].location.country = _country;\n    }\n\n    /// @notice Sets the location-region of an asset\n    /// @param _assetId the id belonging to an entry in the asset registry\n    /// @param _region the new region\n    function setLocationRegion(uint _assetId, bytes32 _region)\n        onlyOwner\n        external\n    {\n        assets[_assetId].location.region = _region;\n    }\n\n    \n    /// @notice Sets the operational since field of an entry in the asset registry\n    /// @param _assetId The id belonging to an entry in the asset registry\n    /// @param _operationalSince The timestamp since the asset is operational\n    function setOperationalSince(uint _assetId, uint _operationalSince) \n        onlyOwner\n        external\n    {\n        assets[_assetId].general.operationalSince = _operationalSince;\n    }\n\n    /// @notice Sets the owner of an entry in the asset registry\n    /// @param _assetId The id belonging to an entry in the asset registry\n    /// @param _owner The new owner\n    function setOwner(uint _assetId, address _owner) \n        onlyOwner\n        external\n    {\n        assets[_assetId].general.owner = _owner;\n    }\n\n    /// @notice Sets the smart meter address belonging to an entry in the asset registry\n    /// @param _assetId The id belonging to an entry in the asset registry\n    /// @param _smartMeter The new smart meter address\n    function setSmartMeter(uint _assetId, address _smartMeter) \n        onlyOwner\n        external\n    {\n        assets[_assetId].general.smartMeter = _smartMeter;\n    }\n\n    /// @notice Sets multiple information of a meterreading\n    /// @param _assetId The id belonging to an entry in the asset registry\n    /// @param _newMeterRead the new meterreading\n    /// @param _lastSmartMeterReadFileHash the filehash belonging to that reading\n    /// @param _timestamp the timestamp of that reading\n    function setSmartMeterReadData(uint _assetId, uint _newMeterRead, bytes32 _lastSmartMeterReadFileHash, uint _timestamp)\n        onlyOwner\n        external \n    {\n        assets[_assetId].general.lastSmartMeterReadWh = _newMeterRead;\n        assets[_assetId].general.lastSmartMeterReadFileHash = _lastSmartMeterReadFileHash;\n        assets[_assetId].general.lastMeterReadReceived = _timestamp;\n\n    }\n    \n    /// @notice Gets if an entry in the asset registry is active\n    /// @param _assetId The id belonging to an entry in the asset registry\n    /// @return true if asset is active\n    function getActive(uint _assetId)\n        onlyOwner\n        external\n        view\n        returns(bool)\n    {\n        return assets[_assetId].general.active;\n    }\n\n    /// @notice Gets the general information of an asset\n    /// @param _assetId The id belonging to an entry in the asset registry\n    /// @return general information of an asset\n    function getAssetGeneral(uint _assetId)\n        onlyOwner\n        external\n        view\n        returns(\n            address _smartMeter,\n            address _owner,\n            uint _operationalSince,\n            uint _capacityWh,\n            bool _maxCapacitySet,\n            uint _lastSmartMeterReadWh,\n            uint _certificatesUsedForWh,\n            bool _active,\n            bytes32 _lastSmartMeterReadFileHash\n            )\n    {\n        Asset storage asset = assets[_assetId];\n        GeneralInformation memory gi = asset.general;\n        ConsumingProperties memory cp = asset.consumingProps;\n\n        _smartMeter = gi.smartMeter;\n        _owner = gi.owner;\n        _operationalSince = gi.operationalSince;\n        _capacityWh = cp.capacityWh;\n        _maxCapacitySet = cp.maxCapacitySet;\n        _lastSmartMeterReadWh = gi.lastSmartMeterReadWh;\n        _certificatesUsedForWh = cp.certificatesUsedForWh;\n        _active = gi.active;\n        _lastSmartMeterReadFileHash = gi.lastSmartMeterReadFileHash;\n    }\n\n    /// @notice function to get the amount of assets\n    /// @return amount of assets\n    function getAssetListLength()\n        onlyOwner\n        external\n        view\n        returns (uint)\n    {\n        return assets.length;\n    }\n\n     /// @notice function to get the informations about the location of a struct\n    /// @param _assetId The id belonging to an entry in the asset registry\n    /// @return country, region, zip, city, street, houseNumber, gpsLatitude, gpsLongitude\n    function getAssetLocation(uint _assetId)\n        onlyOwner\n        external\n        view\n        returns(\n            bytes32 country,\n            bytes32 region,\n            bytes32 zip,\n            bytes32 city,\n            bytes32 street,\n            bytes32 houseNumber,\n            bytes32 gpsLatitude,\n            bytes32 gpsLongitude\n        )\n    {\n        LocationDefinition.Location memory loc = assets[_assetId].location;\n        return getAssetLocationInternal(loc);\n    } \n\n    /// @notice Gets the capacity in Wh of an entry in the asset registry\n    /// @param _assetId The id belonging to an entry in the asset registry\n    /// @return the capacity in Wh\n    function getCapacityWh(uint _assetId)\n        onlyOwner\n        external\n        view\n        returns(uint)\n    {\n        return assets[_assetId].consumingProps.capacityWh;\n    }\n\n    /// @notice Gets amount of Wh used to issue certificates belonging to an entry in the asset registry\n    /// @param _assetId The id belonging to an entry in the asset registry\n    /// @return the amount of Wh used to issue certificates\n    function getCertificatesUsedForWh(uint _assetId)\n        onlyOwner\n        external\n        view\n        returns(uint)\n    {\n        return assets[_assetId].consumingProps.certificatesUsedForWh;\n    }\n\n    /// @notice gets the consuming properties of an asset\n    /// @param _assetId the id belonging to an entry in the asset registry\n    /// @return the consuming properteis\n    function getConsumingProperies(uint _assetId) \n        onlyOwner\n        external\n        view\n        returns (\n            uint _capacityWh,\n            bool _maxCapacitySet,\n            uint _certificatesUsedForWh\n        )\n    {\n        ConsumingProperties memory c = assets[_assetId].consumingProps;\n        _capacityWh = c.capacityWh;\n        _maxCapacitySet = c.maxCapacitySet;\n        _certificatesUsedForWh = c.certificatesUsedForWh;\n    }\n\n    /// @notice function the retrieve the existing status of the general information, the location information and the asset itself\n    /// @param _assetId The index position / identifier of the asset\n    /// @return existing status of the general informaiton, existing status of the location informaiton and where the asset-structs exists\n    function getExistStatus(uint _assetId)\n        onlyOwner\n        external \n        view\n        returns (bool general, bool location, bool asset)\n    {\n        Asset memory a = assets[_assetId];\n        return(a.general.exists, a.location.exists, a.exists);\n    }\n\n    /// @notice function to retrieve the last smartmeter-reading of an asset\n    /// @param _assetId the asset-id\n    /// @return the last smartmeter-reading\n    function getLastSmartMeterRead(uint _assetId) \n        onlyOwner\n        external \n        returns (uint)\n    {\n        return assets[_assetId].general.lastSmartMeterReadWh;\n    }\n\n    /// @notice function to retrieve the timestamp of the last smartmeter-reading\n    /// @param _assetId the asset-id\n    /// @return the timestamp of the last smartmeter-reading\n    function getLastSmartMeterReadDate(uint _assetId)\n        onlyOwner\n        external\n        returns(uint)\n    {\n        return assets[_assetId].general.lastMeterReadReceived;\n    }\n    \n    /// @notice Gets last smart merter read file hash\n    /// @param _assetId The id belonging to an entry in the asset registry\n    /// @return last smart merter read file hash\n    function getLastSmartMeterReadFileHash(uint _assetId)\n        onlyOwner\n        external\n        view\n        returns(bytes32)\n    {\n        return assets[_assetId].general.lastSmartMeterReadFileHash;\n    }\n    \n    /// @notice Gets the last smart merter read in Wh of an entry in the asset registry\n    /// @param _assetId The id belonging to an entry in the asset registry\n    /// @return the last loged smart meter read in Wh\n    function getLastSmartMeterReadWh(uint _assetId)\n        onlyOwner\n        external\n        view\n        returns(uint)\n    {\n        return assets[_assetId].general.lastSmartMeterReadWh;\n    }\n\n    /// @notice Gets the location country of an asset\n    /// @param _assetId the id belonging to an entry in the asset registry\n    /// @return country where the asset is based\n    function getLocationCountry(uint _assetId)\n        onlyOwner\n        external\n        view \n        returns(bytes32)\n    {\n        return assets[_assetId].location.country;\n    }\n\n    /// @notice Gets the location region of an asset\n    /// @param _assetId the id belonging to an entry in the asset registry\n    /// @return region of the country where the asset is based\n    function getLocationRegion(uint _assetId)\n        onlyOwner\n        external\n        view\n        returns(bytes32)\n    {\n        return assets[_assetId].location.region;\n    }\n\n    /// @notice Gets the operational since field of an entry in the asset registry\n    /// @param _assetId The id belonging to an entry in the asset registry\n    /// @return date when the asset went into production \n    function getOperationalSince(uint _assetId)\n        onlyOwner\n        external\n        view\n        returns(uint)\n    {\n        return assets[_assetId].general.operationalSince;\n    }\n\n    /// @notice Gets the owner of an entry in the asset registry\n    /// @param _assetId The id belonging to an entry in the asset registry\n    /// @return the owner address\n    function getOwner(uint _assetId) \n        onlyOwner\n        external\n        view\n        returns(address)\n    {\n        return assets[_assetId].general.owner;\n    }\n\n    /// @notice Gets the smart meter address belonging to an entry in the asset registry\n    /// @param _assetId The id belonging to an entry in the asset registry\n    /// @return the smart meter address\n    function getSmartMeter(uint _assetId)\n        onlyOwner\n        external\n        view\n        returns(address)\n    {\n        return assets[_assetId].general.smartMeter;\n    }\n}",
  "sourcePath": "/Users/mkuechler/ewf/ewf-pushrepo/certificate_of_origin/contracts/AssetConsumingRegistryDB.sol",
  "compiler": {
    "name": "solc",
    "version": "0.4.19+commit.c4cbbb05.Emscripten.clang"
  },
  "schemaVersion": "2.0.0",
  "updatedAt": "2018-07-31T09:06:35.515Z"
}