{
  "contractName": "AssetProducingRegistryDB",
  "abi": [
    {
      "constant": true,
      "inputs": [],
      "name": "owner",
      "outputs": [
        {
          "name": "",
          "type": "address"
        }
      ],
      "payable": false,
      "stateMutability": "view",
      "type": "function"
    },
    {
      "constant": false,
      "inputs": [
        {
          "name": "_newOwner",
          "type": "address"
        }
      ],
      "name": "changeOwner",
      "outputs": [],
      "payable": false,
      "stateMutability": "nonpayable",
      "type": "function"
    },
    {
      "inputs": [
        {
          "name": "_owner",
          "type": "address"
        }
      ],
      "payable": false,
      "stateMutability": "nonpayable",
      "type": "constructor"
    },
    {
      "anonymous": false,
      "inputs": [
        {
          "indexed": false,
          "name": "_newOwner",
          "type": "address"
        }
      ],
      "name": "LogChangeOwner",
      "type": "event"
    },
    {
      "constant": false,
      "inputs": [],
      "name": "createAsset",
      "outputs": [
        {
          "name": "_assetId",
          "type": "uint256"
        }
      ],
      "payable": false,
      "stateMutability": "nonpayable",
      "type": "function"
    },
    {
      "constant": false,
      "inputs": [
        {
          "name": "_assetId",
          "type": "uint256"
        },
        {
          "name": "_smartMeter",
          "type": "address"
        },
        {
          "name": "_owner",
          "type": "address"
        },
        {
          "name": "_operationalSince",
          "type": "uint256"
        },
        {
          "name": "_lastSmartMeterReadWh",
          "type": "uint256"
        },
        {
          "name": "_active",
          "type": "bool"
        },
        {
          "name": "_lastSmartMeterReadFileHash",
          "type": "bytes32"
        }
      ],
      "name": "initGeneral",
      "outputs": [],
      "payable": false,
      "stateMutability": "nonpayable",
      "type": "function"
    },
    {
      "constant": false,
      "inputs": [
        {
          "name": "_assetId",
          "type": "uint256"
        },
        {
          "name": "_assetType",
          "type": "uint256"
        },
        {
          "name": "_lastSmartMeterCO2OffsetRead",
          "type": "uint256"
        },
        {
          "name": "_cO2UsedForCertificate",
          "type": "uint256"
        },
        {
          "name": "_capacityWh",
          "type": "uint256"
        },
        {
          "name": "_certificatesCreatedForWh",
          "type": "uint256"
        },
        {
          "name": "_registryCompliance",
          "type": "uint256"
        },
        {
          "name": "_otherGreenAttributes",
          "type": "bytes32"
        },
        {
          "name": "_typeOfPublicSupport",
          "type": "bytes32"
        }
      ],
      "name": "initProducing",
      "outputs": [],
      "payable": false,
      "stateMutability": "nonpayable",
      "type": "function"
    },
    {
      "constant": false,
      "inputs": [
        {
          "name": "_assetId",
          "type": "uint256"
        },
        {
          "name": "_country",
          "type": "bytes32"
        },
        {
          "name": "_region",
          "type": "bytes32"
        },
        {
          "name": "_zip",
          "type": "bytes32"
        },
        {
          "name": "_city",
          "type": "bytes32"
        },
        {
          "name": "_street",
          "type": "bytes32"
        },
        {
          "name": "_houseNumber",
          "type": "bytes32"
        },
        {
          "name": "_gpsLatitude",
          "type": "bytes32"
        },
        {
          "name": "_gpsLongitude",
          "type": "bytes32"
        }
      ],
      "name": "initLocation",
      "outputs": [],
      "payable": false,
      "stateMutability": "nonpayable",
      "type": "function"
    },
    {
      "constant": false,
      "inputs": [
        {
          "name": "_assetId",
          "type": "uint256"
        },
        {
          "name": "_active",
          "type": "bool"
        }
      ],
      "name": "setActive",
      "outputs": [],
      "payable": false,
      "stateMutability": "nonpayable",
      "type": "function"
    },
    {
      "constant": false,
      "inputs": [
        {
          "name": "_assetId",
          "type": "uint256"
        },
        {
          "name": "_exist",
          "type": "bool"
        }
      ],
      "name": "setAssetExistStatus",
      "outputs": [],
      "payable": false,
      "stateMutability": "nonpayable",
      "type": "function"
    },
    {
      "constant": false,
      "inputs": [
        {
          "name": "_assetId",
          "type": "uint256"
        },
        {
          "name": "_assetType",
          "type": "uint256"
        }
      ],
      "name": "setAssetType",
      "outputs": [],
      "payable": false,
      "stateMutability": "nonpayable",
      "type": "function"
    },
    {
      "constant": false,
      "inputs": [
        {
          "name": "_assetId",
          "type": "uint256"
        },
        {
          "name": "_capacityWh",
          "type": "uint256"
        }
      ],
      "name": "setCapacityWh",
      "outputs": [],
      "payable": false,
      "stateMutability": "nonpayable",
      "type": "function"
    },
    {
      "constant": false,
      "inputs": [
        {
          "name": "_assetId",
          "type": "uint256"
        },
        {
          "name": "_certificatesCreatedForWh",
          "type": "uint256"
        }
      ],
      "name": "setCertificatesCreatedForWh",
      "outputs": [],
      "payable": false,
      "stateMutability": "nonpayable",
      "type": "function"
    },
    {
      "constant": false,
      "inputs": [
        {
          "name": "_assetId",
          "type": "uint256"
        },
        {
          "name": "_used",
          "type": "uint256"
        }
      ],
      "name": "setCO2UsedForCertificate",
      "outputs": [],
      "payable": false,
      "stateMutability": "nonpayable",
      "type": "function"
    },
    {
      "constant": false,
      "inputs": [
        {
          "name": "_assetId",
          "type": "uint256"
        },
        {
          "name": "_lastCO2OffsetReading",
          "type": "uint256"
        }
      ],
      "name": "setLastCO2OffsetReading",
      "outputs": [],
      "payable": false,
      "stateMutability": "nonpayable",
      "type": "function"
    },
    {
      "constant": false,
      "inputs": [
        {
          "name": "_assetId",
          "type": "uint256"
        },
        {
          "name": "_timestamp",
          "type": "uint256"
        }
      ],
      "name": "setLastSmartMeterReadDate",
      "outputs": [],
      "payable": false,
      "stateMutability": "nonpayable",
      "type": "function"
    },
    {
      "constant": false,
      "inputs": [
        {
          "name": "_assetId",
          "type": "uint256"
        },
        {
          "name": "_lastSmartMeterReadFileHash",
          "type": "bytes32"
        }
      ],
      "name": "setLastSmartMeterReadFileHash",
      "outputs": [],
      "payable": false,
      "stateMutability": "nonpayable",
      "type": "function"
    },
    {
      "constant": false,
      "inputs": [
        {
          "name": "_assetId",
          "type": "uint256"
        },
        {
          "name": "_lastSmartMeterReadWh",
          "type": "uint256"
        }
      ],
      "name": "setLastSmartMeterReadWh",
      "outputs": [],
      "payable": false,
      "stateMutability": "nonpayable",
      "type": "function"
    },
    {
      "constant": false,
      "inputs": [
        {
          "name": "_assetId",
          "type": "uint256"
        },
        {
          "name": "_country",
          "type": "bytes32"
        }
      ],
      "name": "setLocationCountry",
      "outputs": [],
      "payable": false,
      "stateMutability": "nonpayable",
      "type": "function"
    },
    {
      "constant": false,
      "inputs": [
        {
          "name": "_assetId",
          "type": "uint256"
        },
        {
          "name": "_region",
          "type": "bytes32"
        }
      ],
      "name": "setLocationRegion",
      "outputs": [],
      "payable": false,
      "stateMutability": "nonpayable",
      "type": "function"
    },
    {
      "constant": false,
      "inputs": [
        {
          "name": "_assetId",
          "type": "uint256"
        },
        {
          "name": "_newMeterRead",
          "type": "uint256"
        },
        {
          "name": "_CO2OffsetMeterRead",
          "type": "uint256"
        },
        {
          "name": "_lastSmartMeterReadFileHash",
          "type": "bytes32"
        },
        {
          "name": "_timestamp",
          "type": "uint256"
        }
      ],
      "name": "setSmartMeterReadData",
      "outputs": [],
      "payable": false,
      "stateMutability": "nonpayable",
      "type": "function"
    },
    {
      "constant": false,
      "inputs": [
        {
          "name": "_assetId",
          "type": "uint256"
        },
        {
          "name": "_operationalSince",
          "type": "uint256"
        }
      ],
      "name": "setOperationalSince",
      "outputs": [],
      "payable": false,
      "stateMutability": "nonpayable",
      "type": "function"
    },
    {
      "constant": false,
      "inputs": [
        {
          "name": "_assetId",
          "type": "uint256"
        },
        {
          "name": "_owner",
          "type": "address"
        }
      ],
      "name": "setOwner",
      "outputs": [],
      "payable": false,
      "stateMutability": "nonpayable",
      "type": "function"
    },
    {
      "constant": false,
      "inputs": [
        {
          "name": "_assetId",
          "type": "uint256"
        },
        {
          "name": "_smartMeter",
          "type": "address"
        }
      ],
      "name": "setSmartMeter",
      "outputs": [],
      "payable": false,
      "stateMutability": "nonpayable",
      "type": "function"
    },
    {
      "constant": true,
      "inputs": [
        {
          "name": "_assetId",
          "type": "uint256"
        }
      ],
      "name": "getActive",
      "outputs": [
        {
          "name": "",
          "type": "bool"
        }
      ],
      "payable": false,
      "stateMutability": "view",
      "type": "function"
    },
    {
      "constant": true,
      "inputs": [
        {
          "name": "_assetId",
          "type": "uint256"
        }
      ],
      "name": "getAssetGeneral",
      "outputs": [
        {
          "name": "_smartMeter",
          "type": "address"
        },
        {
          "name": "_owner",
          "type": "address"
        },
        {
          "name": "_operationalSince",
          "type": "uint256"
        },
        {
          "name": "_lastSmartMeterReadWh",
          "type": "uint256"
        },
        {
          "name": "_active",
          "type": "bool"
        },
        {
          "name": "_lastSmartMeterReadFileHash",
          "type": "bytes32"
        }
      ],
      "payable": false,
      "stateMutability": "view",
      "type": "function"
    },
    {
      "constant": true,
      "inputs": [],
      "name": "getAssetListLength",
      "outputs": [
        {
          "name": "",
          "type": "uint256"
        }
      ],
      "payable": false,
      "stateMutability": "view",
      "type": "function"
    },
    {
      "constant": true,
      "inputs": [
        {
          "name": "_assetId",
          "type": "uint256"
        }
      ],
      "name": "getAssetLocation",
      "outputs": [
        {
          "name": "country",
          "type": "bytes32"
        },
        {
          "name": "region",
          "type": "bytes32"
        },
        {
          "name": "zip",
          "type": "bytes32"
        },
        {
          "name": "city",
          "type": "bytes32"
        },
        {
          "name": "street",
          "type": "bytes32"
        },
        {
          "name": "houseNumber",
          "type": "bytes32"
        },
        {
          "name": "gpsLatitude",
          "type": "bytes32"
        },
        {
          "name": "gpsLongitude",
          "type": "bytes32"
        }
      ],
      "payable": false,
      "stateMutability": "view",
      "type": "function"
    },
    {
      "constant": true,
      "inputs": [
        {
          "name": "_assetId",
          "type": "uint256"
        }
      ],
      "name": "getAssetProducingProperties",
      "outputs": [
        {
          "name": "assetType",
          "type": "uint256"
        },
        {
          "name": "capacityWh",
          "type": "uint256"
        },
        {
          "name": "certificatesCreatedForWh",
          "type": "uint256"
        },
        {
          "name": "lastSmartMeterCO2OffsetRead",
          "type": "uint256"
        },
        {
          "name": "cO2UsedForCertificate",
          "type": "uint256"
        },
        {
          "name": "registryCompliance",
          "type": "uint256"
        },
        {
          "name": "otherGreenAttributes",
          "type": "bytes32"
        },
        {
          "name": "typeOfPublicSupport",
          "type": "bytes32"
        }
      ],
      "payable": false,
      "stateMutability": "view",
      "type": "function"
    },
    {
      "constant": true,
      "inputs": [
        {
          "name": "_assetId",
          "type": "uint256"
        }
      ],
      "name": "getAssetType",
      "outputs": [
        {
          "name": "",
          "type": "uint256"
        }
      ],
      "payable": false,
      "stateMutability": "view",
      "type": "function"
    },
    {
      "constant": true,
      "inputs": [
        {
          "name": "_assetId",
          "type": "uint256"
        }
      ],
      "name": "getCapacityWh",
      "outputs": [
        {
          "name": "",
          "type": "uint256"
        }
      ],
      "payable": false,
      "stateMutability": "view",
      "type": "function"
    },
    {
      "constant": true,
      "inputs": [
        {
          "name": "_assetId",
          "type": "uint256"
        }
      ],
      "name": "getCertificatesCreatedForWh",
      "outputs": [
        {
          "name": "",
          "type": "uint256"
        }
      ],
      "payable": false,
      "stateMutability": "view",
      "type": "function"
    },
    {
      "constant": true,
      "inputs": [
        {
          "name": "_assetId",
          "type": "uint256"
        }
      ],
      "name": "getCo2UsedForCertificate",
      "outputs": [
        {
          "name": "",
          "type": "uint256"
        }
      ],
      "payable": false,
      "stateMutability": "view",
      "type": "function"
    },
    {
      "constant": true,
      "inputs": [
        {
          "name": "_assetId",
          "type": "uint256"
        }
      ],
      "name": "getExistStatus",
      "outputs": [
        {
          "name": "general",
          "type": "bool"
        },
        {
          "name": "location",
          "type": "bool"
        },
        {
          "name": "asset",
          "type": "bool"
        }
      ],
      "payable": false,
      "stateMutability": "view",
      "type": "function"
    },
    {
      "constant": false,
      "inputs": [
        {
          "name": "_assetId",
          "type": "uint256"
        }
      ],
      "name": "getLastSmartMeterRead",
      "outputs": [
        {
          "name": "",
          "type": "uint256"
        }
      ],
      "payable": false,
      "stateMutability": "nonpayable",
      "type": "function"
    },
    {
      "constant": true,
      "inputs": [
        {
          "name": "_assetId",
          "type": "uint256"
        }
      ],
      "name": "getlastSmartMeterCO2OffsetRead",
      "outputs": [
        {
          "name": "",
          "type": "uint256"
        }
      ],
      "payable": false,
      "stateMutability": "view",
      "type": "function"
    },
    {
      "constant": false,
      "inputs": [
        {
          "name": "_assetId",
          "type": "uint256"
        }
      ],
      "name": "getLastSmartMeterReadDate",
      "outputs": [
        {
          "name": "",
          "type": "uint256"
        }
      ],
      "payable": false,
      "stateMutability": "nonpayable",
      "type": "function"
    },
    {
      "constant": true,
      "inputs": [
        {
          "name": "_assetId",
          "type": "uint256"
        }
      ],
      "name": "getLastSmartMeterReadFileHash",
      "outputs": [
        {
          "name": "",
          "type": "bytes32"
        }
      ],
      "payable": false,
      "stateMutability": "view",
      "type": "function"
    },
    {
      "constant": true,
      "inputs": [
        {
          "name": "_assetId",
          "type": "uint256"
        }
      ],
      "name": "getLastSmartMeterReadWh",
      "outputs": [
        {
          "name": "",
          "type": "uint256"
        }
      ],
      "payable": false,
      "stateMutability": "view",
      "type": "function"
    },
    {
      "constant": true,
      "inputs": [
        {
          "name": "_assetId",
          "type": "uint256"
        }
      ],
      "name": "getLocationCountry",
      "outputs": [
        {
          "name": "",
          "type": "bytes32"
        }
      ],
      "payable": false,
      "stateMutability": "view",
      "type": "function"
    },
    {
      "constant": true,
      "inputs": [
        {
          "name": "_assetId",
          "type": "uint256"
        }
      ],
      "name": "getLocationRegion",
      "outputs": [
        {
          "name": "",
          "type": "bytes32"
        }
      ],
      "payable": false,
      "stateMutability": "view",
      "type": "function"
    },
    {
      "constant": true,
      "inputs": [
        {
          "name": "_assetId",
          "type": "uint256"
        }
      ],
      "name": "getOperationalSince",
      "outputs": [
        {
          "name": "",
          "type": "uint256"
        }
      ],
      "payable": false,
      "stateMutability": "view",
      "type": "function"
    },
    {
      "constant": true,
      "inputs": [
        {
          "name": "_assetId",
          "type": "uint256"
        }
      ],
      "name": "getOwner",
      "outputs": [
        {
          "name": "",
          "type": "address"
        }
      ],
      "payable": false,
      "stateMutability": "view",
      "type": "function"
    },
    {
      "constant": true,
      "inputs": [
        {
          "name": "_assetId",
          "type": "uint256"
        }
      ],
      "name": "getSmartMeter",
      "outputs": [
        {
          "name": "",
          "type": "address"
        }
      ],
      "payable": false,
      "stateMutability": "view",
      "type": "function"
    }
  ],
  "bytecode": "0x608060405234801561001057600080fd5b50604051602080612024833981016040525160008054600160a060020a03909216600160a060020a0319909216919091179055611fd2806100526000396000f3006080604052600436106102035763ffffffff7c01000000000000000000000000000000000000000000000000000000006000350416630216a1388114610208578063042157c214610242578063054dddde1461026c5780630ff85b94146102895780631314394d146102ad57806331a5daf31461030657806333b6ff821461031b578063353fc6c31461033f57806336016d7114610357578063437992c8146102425780634694cc43146103725780634f9d76151461038a57806350ddca55146103a257806351f19298146103bd57806357c3bc60146103d85780637b5d3d3e146103f35780637fd392471461040b578063830be6e91461042f57806384487d811461044a578063883583ce1461047b5780638c26afa6146104935780638da5cb5b146104ab5780639346e7c5146104dc57806398766e8a146104f45780639963aece1461050f5780639a4b8c0d14610540578063a12df75014610558578063a60b6fdc14610573578063a6f9dae11461058e578063ade1e992146105af578063adfe021b14610608578063ae51439c14610620578063af55ac2814610635578063c41a360a14610650578063c53fb1a514610668578063c6bc1a7614610694578063d91521d5146106ce578063e60a955d146106e9578063ed9c058b14610706578063f1d03e931461071e578063f7105c0514610736578063fc56a99c1461074e575b600080fd5b34801561021457600080fd5b50610240600435600160a060020a036024358116906044351660643560843560a435151560c435610769565b005b34801561024e57600080fd5b5061025a6004356107bb565b60408051918252519081900360200190f35b34801561027857600080fd5b5061024060043560243515156107fd565b34801561029557600080fd5b50610240600435600160a060020a036024351661084a565b3480156102b957600080fd5b506102c56004356108b0565b604080519889526020890197909752878701959095526060870193909352608086019190915260a085015260c084015260e083015251908190036101000190f35b34801561031257600080fd5b5061025a61098e565b34801561032757600080fd5b50610240600435602435604435606435608435610e05565b34801561034b57600080fd5b5061025a600435610eb6565b34801561036357600080fd5b50610240600435602435610ef8565b34801561037e57600080fd5b5061025a600435610f37565b34801561039657600080fd5b5061025a600435610f79565b3480156103ae57600080fd5b50610240600435602435610fbb565b3480156103c957600080fd5b50610240600435602435610ffa565b3480156103e457600080fd5b50610240600435602435611039565b3480156103ff57600080fd5b5061025a600435611078565b34801561041757600080fd5b50610240600435600160a060020a03602435166110ba565b34801561043b57600080fd5b50610240600435602435611123565b34801561045657600080fd5b5061024060043560243560443560643560843560a43560c43560e43561010435611162565b34801561048757600080fd5b506102c56004356111d4565b34801561049f57600080fd5b5061025a6004356114a9565b3480156104b757600080fd5b506104c06114eb565b60408051600160a060020a039092168252519081900360200190f35b3480156104e857600080fd5b5061025a6004356114fa565b34801561050057600080fd5b5061024060043560243561153c565b34801561051b57600080fd5b5061024060043560243560443560643560843560a43560c43560e4356101043561157b565b34801561054c57600080fd5b5061025a6004356115d1565b34801561056457600080fd5b50610240600435602435611613565b34801561057f57600080fd5b50610240600435602435611652565b34801561059a57600080fd5b50610240600160a060020a0360043516611691565b3480156105bb57600080fd5b506105c760043561171e565b60408051600160a060020a0397881681529590961660208601528486019390935260608401919091521515608083015260a082015290519081900360c00190f35b34801561061457600080fd5b5061025a6004356118f5565b34801561062c57600080fd5b5061025a611937565b34801561064157600080fd5b50610240600435602435611956565b34801561065c57600080fd5b506104c0600435611995565b34801561067457600080fd5b506106806004356119de565b604080519115158252519081900360200190f35b3480156106a057600080fd5b506106ac600435611a21565b6040805193151584529115156020840152151582820152519081900360600190f35b3480156106da57600080fd5b50610240600435602435611c06565b3480156106f557600080fd5b506102406004356024351515611c45565b34801561071257600080fd5b506104c0600435611c92565b34801561072a57600080fd5b5061025a600435611cd8565b34801561074257600080fd5b5061025a600435611d1a565b34801561075a57600080fd5b50610240600435602435611d5c565b60008054600160a060020a0316331461078157600080fd5b600180548990811061078f57fe5b90600052602060002090601a020190506107b181600001888888888888611d9b565b5050505050505050565b60008054600160a060020a031633146107d357600080fd5b60018054839081106107e157fe5b90600052602060002090601a0201600001600301549050919050565b60008054600160a060020a0316331461081557600080fd5b600180548490811061082357fe5b60009182526020909120601a90910201601901805460ff1916921515929092179091555050565b600054600160a060020a0316331461086157600080fd5b8060018381548110151561087157fe5b60009182526020909120601a90910201805473ffffffffffffffffffffffffffffffffffffffff1916600160a060020a03929092169190911790555050565b6000806000806000806000806108c4611e8e565b600054600160a060020a031633146108db57600080fd5b600180548b9081106108e957fe5b60009182526020918290206040805161012081018252601a93909302909101601081015483526011810154938301939093526012830154908201526013820154606082015260148201546080820152601582015460a0820152601682015460c0820152601782015460e082015260189091015460ff161515610100820152905061097281611e19565b9850985098509850985098509850985050919395975091939597565b60008054600160a060020a031633146109a657600080fd5b60018054905090506001608060405190810160405280600261010060405190810160405290816000820160009054906101000a9004600160a060020a0316600160a060020a0316600160a060020a031681526020016001820160009054906101000a9004600160a060020a0316600160a060020a0316600160a060020a0316815260200160028201548152602001600382015481526020016004820160009054906101000a900460ff16151515158152602001600582015460001916600019168152602001600682015481526020016007820160009054906101000a900460ff16151515158152505081526020016013610100604051908101604052908160008201548152602001600182015481526020016002820154815260200160038201548152602001600482015481526020016005820154815260200160068201546000191660001916815260200160078201546000191660001916815250508152602001600a61012060405190810160405290816000820154600019166000191681526020016001820154600019166000191681526020016002820154600019166000191681526020016003820154600019166000191681526020016004820154600019166000191681526020016005820154600019166000191681526020016006820154600019166000191681526020016007820154600019166000191681526020016008820160009054906101000a900460ff1615151515815250508152602001600015158152509080600181540180825580915050906001820390600052602060002090601a02016000909192909190915060008201518160000160008201518160000160006101000a815481600160a060020a030219169083600160a060020a0316021790555060208201518160010160006101000a815481600160a060020a030219169083600160a060020a03160217905550604082015181600201556060820151816003015560808201518160040160006101000a81548160ff02191690831515021790555060a0820151816005019060001916905560c0820151816006015560e08201518160070160006101000a81548160ff0219169083151502179055505050602082015181600801600082015181600001556020820151816001015560408201518160020155606082015181600301556080820151816004015560a0820151816005015560c0820151816006019060001916905560e082015181600701906000191690555050604082015181601001600082015181600001906000191690556020820151816001019060001916905560408201518160020190600019169055606082015181600301906000191690556080820151816004019060001916905560a0820151816005019060001916905560c0820151816006019060001916905560e082015181600701906000191690556101008201518160080160006101000a81548160ff021916908315150217905550505060608201518160190160006101000a81548160ff02191690831515021790555050505090565b600054600160a060020a03163314610e1c57600080fd5b82600186815481101515610e2c57fe5b60009182526020909120600b601a9092020101556001805485919087908110610e5157fe5b600091825260209091206003601a9092020101556001805483919087908110610e7657fe5b600091825260209091206005601a9092020101556001805482919087908110610e9b57fe5b600091825260209091206006601a9092020101555050505050565b60008054600160a060020a03163314610ece57600080fd5b6001805483908110610edc57fe5b90600052602060002090601a0201600801600201549050919050565b600054600160a060020a03163314610f0f57600080fd5b80600183815481101515610f1f57fe5b600091825260209091206006601a9092020101555050565b60008054600160a060020a03163314610f4f57600080fd5b6001805483908110610f5d57fe5b90600052602060002090601a0201600001600201549050919050565b60008054600160a060020a03163314610f9157600080fd5b6001805483908110610f9f57fe5b90600052602060002090601a0201600801600301549050919050565b600054600160a060020a03163314610fd257600080fd5b80600183815481101515610fe257fe5b60009182526020909120600c601a9092020101555050565b600054600160a060020a0316331461101157600080fd5b8060018381548110151561102157fe5b600091825260209091206002601a9092020101555050565b600054600160a060020a0316331461105057600080fd5b8060018381548110151561106057fe5b600091825260209091206003601a9092020101555050565b60008054600160a060020a0316331461109057600080fd5b600180548390811061109e57fe5b90600052602060002090601a0201600801600401549050919050565b600054600160a060020a031633146110d157600080fd5b806001838154811015156110e157fe5b60009182526020909120601a90910201600101805473ffffffffffffffffffffffffffffffffffffffff1916600160a060020a03929092169190911790555050565b600054600160a060020a0316331461113a57600080fd5b8060018381548110151561114a57fe5b600091825260209091206009601a9092020101555050565b60008054600160a060020a0316331461117a57600080fd5b600180548b90811061118857fe5b60009182526020909120601a90910201600881019990995550600b880196909655600c870194909455600a8601919091556009850191909155600d840155600e830155600f9091015550565b6000806000806000806000806111e8611eda565b6111f0611f16565b600054600160a060020a0316331461120757600080fd5b600180548c90811061121557fe5b90600052602060002090601a0201608060405190810160405290816000820161010060405190810160405290816000820160009054906101000a9004600160a060020a0316600160a060020a0316600160a060020a031681526020016001820160009054906101000a9004600160a060020a0316600160a060020a0316600160a060020a0316815260200160028201548152602001600382015481526020016004820160009054906101000a900460ff16151515158152602001600582015460001916600019168152602001600682015481526020016007820160009054906101000a900460ff1615151515815250508152602001600882016101006040519081016040529081600082015481526020016001820154815260200160028201548152602001600382015481526020016004820154815260200160058201548152602001600682015460001916600019168152602001600782015460001916600019168152505081526020016010820161012060405190810160405290816000820154600019166000191681526020016001820154600019166000191681526020016002820154600019166000191681526020016003820154600019166000191681526020016004820154600019166000191681526020016005820154600019166000191681526020016006820154600019166000191681526020016007820154600019166000191681526020016008820160009054906101000a900460ff16151515158152505081526020016019820160009054906101000a900460ff16151515158152505091508160200151905080600001519950806020015198508060400151975080606001519650806080015195508060a0015194508060c0015193508060e0015192505050919395975091939597565b60008054600160a060020a031633146114c157600080fd5b60018054839081106114cf57fe5b90600052602060002090601a0201600001600601549050919050565b600054600160a060020a031681565b60008054600160a060020a0316331461151257600080fd5b600180548390811061152057fe5b90600052602060002090601a0201601001600101549050919050565b600054600160a060020a0316331461155357600080fd5b8060018381548110151561156357fe5b60009182526020909120600a601a9092020101555050565b60008054600160a060020a0316331461159357600080fd5b600180548b9081106115a157fe5b90600052602060002090601a020160100190506115c5818a8a8a8a8a8a8a8a611e49565b50505050505050505050565b60008054600160a060020a031633146115e957600080fd5b60018054839081106115f757fe5b90600052602060002090601a0201600801600001549050919050565b600054600160a060020a0316331461162a57600080fd5b8060018381548110151561163a57fe5b600091825260209091206011601a9092020101555050565b600054600160a060020a0316331461166957600080fd5b8060018381548110151561167957fe5b600091825260209091206005601a9092020101555050565b600054600160a060020a031633146116a857600080fd5b600160a060020a03811615156116bd57600080fd5b60008054600160a060020a03831673ffffffffffffffffffffffffffffffffffffffff19909116811790915560408051918252517f95fd54179c11867fb083dd94347ea50f144dd4cfd7612b7bca169f162824af169181900360200190a150565b60008060008060008061172f611eda565b600054600160a060020a0316331461174657600080fd5b600180548990811061175457fe5b60009182526020918290206040805161018081018252601a9093029091018054600160a060020a039081166080858101918252600184015490921660a080870191909152600284015460c080880191909152600385015460e080890191909152600486015460ff9081161515610100808b01919091526005880154610120808c019190915260068901546101408c01526007890154831615156101608c0152958a5288518082018a52600889015481526009890154818d0152600a890154818b0152600b890154606080830191909152600c8a0154828a0152600d8a015482880152600e8a015482870152600f8a0154828601528b8d019190915289519687018a52601089015487526011890154878d01526012890154878b015260138901548782015260148901548789015260158901548787015260168901549487019490945260178801549286019290925260188701548116151591850191909152878701939093526019909401549091161515838601529351805195810151938101519281015191810151940151949d929c50909a50985090965090945092505050565b60008054600160a060020a0316331461190d57600080fd5b600180548390811061191b57fe5b90600052602060002090601a0201600801600101549050919050565b60008054600160a060020a0316331461194f57600080fd5b5060015490565b600054600160a060020a0316331461196d57600080fd5b8060018381548110151561197d57fe5b600091825260209091206010601a9092020101555050565b60008054600160a060020a031633146119ad57600080fd5b60018054839081106119bb57fe5b60009182526020909120601a9091020160010154600160a060020a031692915050565b60008054600160a060020a031633146119f657600080fd5b6001805483908110611a0457fe5b60009182526020909120601a909102016004015460ff1692915050565b6000806000611a2e611eda565b600054600160a060020a03163314611a4557600080fd5b6001805486908110611a5357fe5b60009182526020918290206040805161018081018252601a9093029091018054600160a060020a039081166080858101918252600184015490921660a080870191909152600284015460c080880191909152600385015460e080890191909152600486015460ff9081161515610100808b01919091526005880154610120808c019190915260068901546101408c01526007890154831615156101608c0152958a5288518082018a52600889015481526009890154818d0152600a890154818b0152600b890154606080830191909152600c8a0154828a0152600d8a015482880152600e8a015482870152600f8a0154828601528b8d019190915289519687018a526010890154875260118901549b87019b909b526012880154868a01526013880154868c015260148801549686019690965260158701549385019390935260168601549184019190915260178501548382015260188501548216151593830193909352938501526019909101549091161515928201929092528051909101519091508015611bea57506000816020015160200151115b6040820151610100015160609092015190969195509350915050565b600054600160a060020a03163314611c1d57600080fd5b80600183815481101515611c2d57fe5b600091825260209091206008601a9092020101555050565b600054600160a060020a03163314611c5c57600080fd5b80600183815481101515611c6c57fe5b60009182526020909120601a90910201600401805460ff19169115159190911790555050565b60008054600160a060020a03163314611caa57600080fd5b6001805483908110611cb857fe5b60009182526020909120601a9091020154600160a060020a031692915050565b60008054600160a060020a03163314611cf057600080fd5b6001805483908110611cfe57fe5b90600052602060002090601a0201601001600001549050919050565b60008054600160a060020a03163314611d3257600080fd5b6001805483908110611d4057fe5b90600052602060002090601a0201600001600501549050919050565b600054600160a060020a03163314611d7357600080fd5b80600183815481101515611d8357fe5b60009182526020909120600b601a9092020101555050565b8654600160a060020a0396871673ffffffffffffffffffffffffffffffffffffffff19918216178855600180890180549790981696909116959095179095556002860192909255600385015560048401805491151560ff19928316179055600584019290925560006006840155600790920180549091169091179055565b8051602082015160808301516040840151606085015160a086015160c087015160e0880151919395975091939597565b9688556001808901969096556004880194909455600287019290925560038601556005850155600684015560078301919091556008909101805460ff19169091179055565b6040805161012081018252600080825260208201819052918101829052606081018290526080810182905260a0810182905260c0810182905260e0810182905261010081019190915290565b61034060405190810160405280611eef611f62565b8152602001611efc611f16565b8152602001611f09611e8e565b8152600060209091015290565b6101006040519081016040528060008152602001600081526020016000815260200160008152602001600081526020016000815260200160008019168152602001600080191681525090565b6040805161010081018252600080825260208201819052918101829052606081018290526080810182905260a0810182905260c0810182905260e0810191909152905600a165627a7a72305820e183a558f6c85a30fb99a43410d135fb18d57e38c68f73cefcf5ddf1303f704e0029",
  "source": "// Copyright 2018 Energy Web Foundation\n//\n// This file is part of the Origin Application brought to you by the Energy Web Foundation,\n// a global non-profit organization focused on accelerating blockchain technology across the energy sector, \n// incorporated in Zug, Switzerland.\n//\n// The Origin Application is free software: you can redistribute it and/or modify\n// it under the terms of the GNU General Public License as published by\n// the Free Software Foundation, either version 3 of the License, or\n// (at your option) any later version.\n// This is distributed in the hope that it will be useful,\n// but WITHOUT ANY WARRANTY and without an implied warranty of\n// MERCHANTABILITY or FITNESS FOR A PARTICULAR PURPOSE.  See the\n// GNU General Public License for more details, at <http://www.gnu.org/licenses/>.\n//\n// @authors: slock.it GmbH, Heiko Burkhardt, heiko.burkhardt@slock.it\n\npragma solidity ^0.4.18;\n\nimport \"./LocationDefinition.sol\";\nimport \"./AssetGeneralDefinition.sol\";\nimport \"./AssetDbInterface.sol\";\n\n/// @title The Database contract for the Asset Registration\n/// @notice This contract only provides getter and setter methods\ncontract AssetProducingRegistryDB is AssetGeneralDefinition, AssetDbInterface {\n\n    struct ProducingProperties {\n        uint assetType;\n        uint capacityWh;\n        uint certificatesCreatedForWh;\n        uint lastSmartMeterCO2OffsetRead;\n        uint cO2UsedForCertificate;\n        uint registryCompliance;\n        bytes32 otherGreenAttributes;\n        bytes32 typeOfPublicSupport;\n    }\n\n    struct Asset {\n        AssetGeneralDefinition.GeneralInformation general;\n        ProducingProperties producingProps;\n        LocationDefinition.Location location;\n        bool exists;\n    }\n\n\n    /// @notice An array containing all registerd assets\n    Asset[] private assets;\n\n    /// @dev empty structs for initializing, used to avoid compile warnings\n    AssetGeneralDefinition.GeneralInformation generalEmpty;\n    LocationDefinition.Location locationEmpty;\n    ProducingProperties producingEmpty;\n\n    /// @notice Constructor\n    /// @param _owner The owner of the contract\n    function AssetProducingRegistryDB(address _owner) \n        public\n        Owned(_owner) \n    {\n\n    } \n\n    /// @notice function to create a new empty asset\n    /// @return returns the array-position and thus the index / identifier of this new asset\n    function createAsset() \n        external\n        onlyOwner\n        returns (uint _assetId)\n    {\n        _assetId = assets.length;\n        assets.push(AssetProducingRegistryDB.Asset({\n            general: generalEmpty,\n            producingProps: producingEmpty,\n            location: locationEmpty,\n            exists: false\n        }));   \n    }\n\n    /// @notice function to set the general information for an asset\n    /// @param _assetId the ID belonging to the asset\n    /// @param _smartMeter the smart-meter address\n    /// @param _owner the owner of the asset\n    /// @param _operationalSince timestamp of when the asset started producing energy\n    /// @param _lastSmartMeterReadWh the last reading of the smartmeter\n    /// @param _active active-flag\n    /// @param _lastSmartMeterReadFileHash the last filehash of the smartmeter-readings\n    function initGeneral(       \n        uint _assetId, \n        address _smartMeter,\n        address _owner,\n        uint _operationalSince,\n        uint _lastSmartMeterReadWh,\n        bool _active,\n        bytes32 _lastSmartMeterReadFileHash\n    ) \n        onlyOwner\n        external\n    {\n        Asset storage a = assets[_assetId];\n        setGeneralInformationInternal(a.general, _smartMeter, _owner, _operationalSince,_lastSmartMeterReadWh, _active, _lastSmartMeterReadFileHash);\n    }\n\n    /// @notice function to set the producing-properties of an asset\n    /// @param _assetId the ID belonging to the asset\n    /// @param _assetType the assetType of the asset \n    /// @param _lastSmartMeterCO2OffsetRead the last CO2-Offsetreading of the smartmeter\n    /// @param _cO2UsedForCertificate the amount of CO2 used for certificates already\n    /// @param _capacityWh the capacity of the asset in Wh\n    /// @param _certificatesCreatedForWh the amount of Wh already certificated\n    /// @param _registryCompliance the registry-compliance\n    /// @param _otherGreenAttributes other green attributes\n    /// @param _typeOfPublicSupport type of public support\n    function initProducing(\n        uint _assetId,\n        uint _assetType, \n        uint _lastSmartMeterCO2OffsetRead,\n        uint _cO2UsedForCertificate,\n        uint _capacityWh,\n        uint _certificatesCreatedForWh,\n        uint _registryCompliance,\n        bytes32 _otherGreenAttributes,\n        bytes32 _typeOfPublicSupport\n    )\n        onlyOwner\n        external\n    {\n        Asset storage a = assets[_assetId];\n        a.producingProps.assetType = _assetType;\n        a.producingProps.lastSmartMeterCO2OffsetRead = _lastSmartMeterCO2OffsetRead;\n        a.producingProps.cO2UsedForCertificate = _cO2UsedForCertificate;\n        a.producingProps.certificatesCreatedForWh = _certificatesCreatedForWh;\n        a.producingProps.capacityWh = _capacityWh;\n        a.producingProps.registryCompliance = _registryCompliance;       \n        a.producingProps.otherGreenAttributes = _otherGreenAttributes;\n        a.producingProps.typeOfPublicSupport = _typeOfPublicSupport; \n    }\n\n    /// @notice function to set all the location Informations for an asset\n    /// @param _assetId The identifier / index of an asset\n    /// @param _country The country where the asset is located\n    /// @param _region The region / state where the asset is located\n    /// @param _zip The zip-code of the region where the asset is located\n    /// @param _city The city where the asset is located\n    /// @param _street The streetname where the asset is located\n    /// @param _houseNumber the housenumber where the asset is located\n    /// @param _gpsLatitude The gps-latitude\n    /// @param _gpsLongitude The gps-longitude\n    function initLocation(\n        uint _assetId,\n        bytes32 _country,\n        bytes32 _region,\n        bytes32 _zip,\n        bytes32 _city,\n        bytes32 _street,\n        bytes32 _houseNumber,\n        bytes32 _gpsLatitude,\n        bytes32 _gpsLongitude\n    )\n        onlyOwner\n        external\n    {\n        LocationDefinition.Location storage loc = assets[_assetId].location;\n        initLocationInternal(loc,_country,_region,_zip,_city,_street,_houseNumber,_gpsLatitude,_gpsLongitude);\n    }\n\n    /// @notice Sets if an entry in the asset registry is active\n    /// @param _assetId The id belonging to an entry in the asset registry\n    /// @param _active true if active\n    function setActive(uint _assetId, bool _active) \n        onlyOwner\n        external\n    {\n        assets[_assetId].general.active = _active;\n    }\n\n    /// @notice function to set the existing status of an asset\n    /// @param _assetId The index position / identifier of an asset\n    /// @param _exist flag if the asset should exist\n    function setAssetExistStatus(uint _assetId, bool _exist)\n        external\n        onlyOwner\n    {\n        Asset storage a = assets[_assetId];\n        a.exists = _exist;\n    }\n\n    /// @notice Sets the fuel type belonging to an entry in the asset registry\n    /// @param _assetId The id belonging to an entry in the asset registry\n    /// @param _assetType The new fuel type\n    function setAssetType(uint _assetId, uint _assetType) \n        onlyOwner\n        external\n    {\n        assets[_assetId].producingProps.assetType = _assetType;\n    }\n\n    /// @notice Sets the capacity in Wh of an entry in the asset registry\n    /// @param _assetId The id belonging to an entry in the asset registry\n    /// @param _capacityWh The capacity in Wh\n    function setCapacityWh(uint _assetId, uint _capacityWh) \n        onlyOwner\n        external\n    {\n        assets[_assetId].producingProps.capacityWh = _capacityWh;\n    }\n\n    /// @notice Sets amount of Wh used to issue certificates belonging to an entry in the asset registry\n    /// @param _assetId The id belonging to an entry in the asset registry\n    /// @param _certificatesCreatedForWh The amount of Wh used to issue certificates\n    function setCertificatesCreatedForWh(uint _assetId, uint _certificatesCreatedForWh) \n        onlyOwner\n        external\n    {\n        assets[_assetId].producingProps.certificatesCreatedForWh = _certificatesCreatedForWh;\n    }\n\n    /// @notice Sets amount of saved CO2 used to issue certificates belonging to an entry in the asset registry\n    /// @param _assetId The id belonging to an entry in the asset registry\n    /// @param _used The amount of saved CO2 used to issue certificates\n    function setCO2UsedForCertificate(uint _assetId, uint _used) \n        onlyOwner \n        external \n    {\n        assets[_assetId].producingProps.cO2UsedForCertificate = _used;\n    }\n    \n    /// @notice Sets the last smart meter read in saved CO2 of an entry in the asset registry\n    /// @param _assetId The id belonging to an entry in the asset registry\n    /// @param _lastCO2OffsetReading The new amount of saved CO2\n    function setLastCO2OffsetReading(uint _assetId, uint _lastCO2OffsetReading)\n        onlyOwner\n        external\n    {\n        assets[_assetId].producingProps.lastSmartMeterCO2OffsetRead = _lastCO2OffsetReading;\n    }\n\n    /// @notice Sets the timestamp of the last smartmeter-reading\n    /// @param _assetId the id belonging to the asset \n    /// @param _timestamp the new timestamp of reading\n    function setLastSmartMeterReadDate(uint _assetId, uint _timestamp)\n        onlyOwner\n        external\n    {\n        assets[_assetId].general.lastMeterReadReceived = _timestamp;\n    }\n\n    /// @notice Sets last meter read file hash\n    /// @param _assetId The id belonging to an entry in the asset registry\n    /// @param _lastSmartMeterReadFileHash Last meter read file hash\n    function setLastSmartMeterReadFileHash(uint _assetId, bytes32 _lastSmartMeterReadFileHash)\n        onlyOwner\n        external\n    {\n        assets[_assetId].general.lastSmartMeterReadFileHash = _lastSmartMeterReadFileHash;\n    }\n\n    /// @notice Sets the last smart meter read in Wh of an entry in the asset registry\n    /// @param _assetId The id belonging to an entry in the asset registry\n    /// @param _lastSmartMeterReadWh The smart meter read in Wh\n    function setLastSmartMeterReadWh(uint _assetId, uint _lastSmartMeterReadWh) \n        onlyOwner\n        external\n    {\n        assets[_assetId].general.lastSmartMeterReadWh = _lastSmartMeterReadWh;\n    }\n\n    /// @notice Sets the location-country of an asset\n    /// @param _assetId the id belonging to an entry in the asset registry\n    /// @param _country the new country\n    function setLocationCountry(uint _assetId, bytes32 _country)\n        onlyOwner\n        external\n    {\n        assets[_assetId].location.country = _country;\n    }\n\n    /// @notice Sets the location-region of an asset\n    /// @param _assetId the id belonging to an entry in the asset registry\n    /// @param _region the new region\n    function setLocationRegion(uint _assetId, bytes32 _region)\n        onlyOwner\n        external\n    {\n        assets[_assetId].location.region = _region;\n    }\n\n    /// @notice Sets multiple information of a meterreading\n    /// @param _assetId The id belonging to an entry in the asset registry\n    /// @param _newMeterRead the new meterreading of the smart meter\n    /// @param _CO2OffsetMeterRead the new CO2-offset reading\n    /// @param _lastSmartMeterReadFileHash the filehash belonging to that reading\n    /// @param _timestamp the timestamp of that reading\n    function setSmartMeterReadData(\n        uint _assetId, \n        uint _newMeterRead, \n        uint _CO2OffsetMeterRead, \n        bytes32 _lastSmartMeterReadFileHash, \n        uint _timestamp\n    )\n        onlyOwner\n        external \n    {\n        assets[_assetId].producingProps.lastSmartMeterCO2OffsetRead = _CO2OffsetMeterRead;\n        assets[_assetId].general.lastSmartMeterReadWh = _newMeterRead;\n        assets[_assetId].general.lastSmartMeterReadFileHash = _lastSmartMeterReadFileHash;\n        assets[_assetId].general.lastMeterReadReceived = _timestamp;\n    }\n    \n    /// @notice Sets the operational since field of an entry in the asset registry\n    /// @param _assetId The id belonging to an entry in the asset registry\n    /// @param _operationalSince The timestamp since the asset is operational\n    function setOperationalSince(uint _assetId, uint _operationalSince) \n        onlyOwner\n        external\n    {\n        assets[_assetId].general.operationalSince = _operationalSince;\n    }\n\n    /// @notice Sets the owner of an entry in the asset registry\n    /// @param _assetId The id belonging to an entry in the asset registry\n    /// @param _owner The new owner\n    function setOwner(uint _assetId, address _owner) \n        onlyOwner\n        external\n    {\n        assets[_assetId].general.owner = _owner;\n    }\n\n    /// @notice Sets the smart meter address belonging to an entry in the asset registry\n    /// @param _assetId The id belonging to an entry in the asset registry\n    /// @param _smartMeter The new smart meter address\n    function setSmartMeter(uint _assetId, address _smartMeter) \n        onlyOwner\n        external\n    {\n        assets[_assetId].general.smartMeter = _smartMeter;\n    }\n    \n    /// @notice Gets if an entry in the asset registry is active\n    /// @param _assetId The id belonging to an entry in the asset registry\n    /// @return true if asset is active\n    function getActive(uint _assetId) \n        onlyOwner\n        external\n        view\n        returns(bool)\n    {\n        return assets[_assetId].general.active;\n    }\n\n    /// @notice Returns the general information of an asset\n    /// @param _assetId the id belonging to an entry in the asset registry\n    /// @return smartmeter-address, owner-address, operationalSince, lastSmartMeterReading in Wh, active flag and the filehash of the last reading\n    function getAssetGeneral(uint _assetId)\n        onlyOwner\n        external\n        view \n        returns\n        (\n            address _smartMeter,\n            address _owner,\n            uint _operationalSince,\n            uint _lastSmartMeterReadWh,\n            bool _active,\n            bytes32 _lastSmartMeterReadFileHash\n        )\n    {\n        Asset memory asset = assets[_assetId];\n        _smartMeter = asset.general.smartMeter;\n        _owner = asset.general.owner;\n        _operationalSince = asset.general.operationalSince;\n        _lastSmartMeterReadWh = asset.general.lastSmartMeterReadWh;\n        _active = asset.general.active;\n        _lastSmartMeterReadFileHash = asset.general.lastSmartMeterReadFileHash;\n    }\n\n    /// @notice function to get the amount of assets\n    /// @return amount of assets\n    function getAssetListLength()\n        onlyOwner\n        external\n        view\n        returns (uint)\n    {\n        return assets.length;\n    }\n\n    /// @notice function to get the informations about the location of a struct\n    /// @param _assetId The id belonging to an entry in the asset registry\n    /// @return country, region, zip, city, street, houseNumber, gpsLatitude, gpsLongitude\n    function getAssetLocation(uint _assetId)\n        onlyOwner\n        external\n        view\n        returns(\n            bytes32 country,\n            bytes32 region,\n            bytes32 zip,\n            bytes32 city,\n            bytes32 street,\n            bytes32 houseNumber,\n            bytes32 gpsLatitude,\n            bytes32 gpsLongitude\n        )\n    {\n        LocationDefinition.Location memory loc = assets[_assetId].location;\n        return getAssetLocationInternal(loc);\n\n    }\n\n    /// @notice function to get the producing-properties of an asset\n    /// @param _assetId the id belonging to the asset\n    /// @return returns the producing-properties of an asset\n    function getAssetProducingProperties(uint _assetId)\n        onlyOwner\n        external\n        view\n        returns (\n            uint assetType,\n            uint capacityWh,\n            uint certificatesCreatedForWh,\n            uint lastSmartMeterCO2OffsetRead,\n            uint cO2UsedForCertificate,\n            uint registryCompliance,\n            bytes32 otherGreenAttributes,\n            bytes32 typeOfPublicSupport\n        )\n    {\n        Asset memory a = assets[_assetId];\n        ProducingProperties memory pp = a.producingProps;\n\n        assetType = pp.assetType;\n        capacityWh = pp.capacityWh;\n        certificatesCreatedForWh = pp.certificatesCreatedForWh;\n        lastSmartMeterCO2OffsetRead = pp.lastSmartMeterCO2OffsetRead;\n        cO2UsedForCertificate = pp.cO2UsedForCertificate;\n        registryCompliance = pp.registryCompliance;\n        otherGreenAttributes = pp.otherGreenAttributes;\n        typeOfPublicSupport = pp.typeOfPublicSupport;\n    }\n\n\n    /// @notice Gets the asset type belonging to an entry in the asset registry\n    /// @param _assetId The id belonging to an entry in the asset registry\n    /// @return the type of asset\n    function getAssetType(uint _assetId)\n        onlyOwner\n        external\n        view\n        returns(uint)\n    {\n        return assets[_assetId].producingProps.assetType;\n    }\n\n    /// @notice Gets the capacity in Wh of an entry in the asset registry\n    /// @param _assetId The id belonging to an entry in the asset registry\n    /// @return the capacity in Wh\n    function getCapacityWh(uint _assetId)\n        onlyOwner\n        external\n        view\n        returns(uint)\n    {\n        return assets[_assetId].producingProps.capacityWh;\n    }\n\n    /// @notice Gets amount of Wh used to issue certificates belonging to an entry in the asset registry\n    /// @param _assetId The id belonging to an entry in the asset registry\n    /// @return the amount of Wh used to issue certificates\n    function getCertificatesCreatedForWh(uint _assetId)\n        onlyOwner\n        external\n        view\n        returns(uint)\n    {\n        return assets[_assetId].producingProps.certificatesCreatedForWh;\n    }\n\n\n    /// @notice Gets the amount of already used CO2-offset for creating certificates\n    /// @param _assetId The id belonging to an entry in the asset registry\n    /// @return the aount of already used CO2-offset\n    function getCo2UsedForCertificate(uint _assetId) \n        onlyOwner\n        external \n        view \n        returns (uint) \n    {\n        return assets[_assetId].producingProps.cO2UsedForCertificate;\n    }\n\n    /// @notice function the retrieve the existing status of the general information, the location information and the asset itself\n    /// @param _assetId The index position / identifier of the asset\n    /// @return existing status of the general informaiton, existing status of the location informaiton and where the asset-structs exists\n    function getExistStatus(uint _assetId)\n        onlyOwner\n        external \n        view\n        returns (bool general, bool location, bool asset)\n    {\n        Asset memory a = assets[_assetId];\n        return(a.general.exists && a.producingProps.capacityWh > 0, a.location.exists, a.exists);\n    }\n\n    /// @notice function to get the last smartmeter-reading of an asset\n    /// @param _assetId the id belonging to the asset\n    /// @return the last smartmeter-reading\n    function getLastSmartMeterRead(uint _assetId) \n        onlyOwner\n        external \n        returns (uint)\n    {\n        return assets[_assetId].general.lastSmartMeterReadWh;\n    }\n\n    /// @notice Gets the last CO2-offset read of an entry in the asset registry\n    /// @param _assetId The id belonging to an entry in the asset registry\n    /// @return the last logged CO2-offset read tru\n    function getlastSmartMeterCO2OffsetRead(uint _assetId)\n        onlyOwner\n        external \n        view \n        returns (uint)\n    {\n        return assets[_assetId].producingProps.lastSmartMeterCO2OffsetRead;\n    }\n    \n    /// @notice gets the timestamp of the last reading\n    /// @param _assetId the Id belonging to an entry in the asset registry\n    /// @return the timestamp of the last reading\n    function getLastSmartMeterReadDate(uint _assetId)\n        onlyOwner\n        external\n        returns(uint)\n    {\n        return assets[_assetId].general.lastMeterReadReceived;\n    }\n\n    /// @notice Gets last smart merter read file hash\n    /// @param _assetId The id belonging to an entry in the asset registry\n    /// @return last smart merter read file hash\n    function getLastSmartMeterReadFileHash(uint _assetId)\n        onlyOwner\n        external\n        view\n        returns(bytes32)\n    {\n        return assets[_assetId].general.lastSmartMeterReadFileHash;\n    }\n    \n    /// @notice Gets the last smart merter read in Wh of an entry in the asset registry\n    /// @param _assetId The id belonging to an entry in the asset registry\n    /// @return the last loged smart meter read in Wh\n    function getLastSmartMeterReadWh(uint _assetId)\n        onlyOwner\n        external\n        view\n        returns(uint)\n    {\n        return assets[_assetId].general.lastSmartMeterReadWh;\n    }\n\n    /// @notice Gets the location country of an asset\n    /// @param _assetId the id belonging to an entry in the asset registry\n    /// @return country where the asset is based\n    function getLocationCountry(uint _assetId)\n        onlyOwner\n        external\n        view \n        returns(bytes32)\n    {\n        return assets[_assetId].location.country;\n    }\n\n    /// @notice Gets the location region of an asset\n    /// @param _assetId the id belonging to an entry in the asset registry\n    /// @return region of the country where the asset is based\n    function getLocationRegion(uint _assetId)\n        onlyOwner\n        external\n        view\n        returns(bytes32)\n    {\n        return assets[_assetId].location.region;\n    }\n\n    /// @notice Gets the operational since field of an entry in the asset registry\n    /// @param _assetId The id belonging to an entry in the asset registry\n    function getOperationalSince(uint _assetId)\n        external\n        onlyOwner\n        view\n        returns(uint)\n    {\n        return assets[_assetId].general.operationalSince;\n    }\n\n    /// @notice Gets the owner of an entry in the asset registry\n    /// @param _assetId The id belonging to an entry in the asset registry\n    /// @return the owner address\n    function getOwner(uint _assetId) \n        external\n        onlyOwner\n        view\n        returns(address)\n    {\n        return assets[_assetId].general.owner;\n    }\n\n    /// @notice Gets the smart meter address belonging to an entry in the asset registry\n    /// @param _assetId The id belonging to an entry in the asset registry\n    /// @return the smart meter address\n    function getSmartMeter(uint _assetId)\n        external\n        onlyOwner\n        view\n        returns(address)\n    {\n        return assets[_assetId].general.smartMeter;\n    }\n    \n}",
  "sourcePath": "/Users/unomasanori/projects/DEMO_MVP/Ethereum-Madrid-Hackathon/stor-madrid/contracts/AssetProducingRegistryDB.sol",
  "compiler": {
    "name": "solc",
    "version": "0.4.25+commit.59dbf8f1.Emscripten.clang"
  },
  "schemaVersion": "2.0.2",
  "updatedAt": "2019-05-25T12:04:23.192Z"
}