{
  "contractName": "CertificateLogic",
  "abi": [
    {
      "constant": true,
      "inputs": [],
      "name": "cooContract",
      "outputs": [
        {
          "name": "",
          "type": "address"
        }
      ],
      "payable": false,
      "stateMutability": "view",
      "type": "function"
    },
    {
      "constant": true,
      "inputs": [
        {
          "name": "_role",
          "type": "uint8"
        },
        {
          "name": "_caller",
          "type": "address"
        }
      ],
      "name": "isRole",
      "outputs": [
        {
          "name": "",
          "type": "bool"
        }
      ],
      "payable": false,
      "stateMutability": "view",
      "type": "function"
    },
    {
      "constant": true,
      "inputs": [],
      "name": "certificateDb",
      "outputs": [
        {
          "name": "",
          "type": "address"
        }
      ],
      "payable": false,
      "stateMutability": "view",
      "type": "function"
    },
    {
      "inputs": [
        {
          "name": "_coo",
          "type": "address"
        }
      ],
      "payable": false,
      "stateMutability": "nonpayable",
      "type": "constructor"
    },
    {
      "anonymous": false,
      "inputs": [
        {
          "indexed": true,
          "name": "_certificateId",
          "type": "uint256"
        },
        {
          "indexed": false,
          "name": "powerInW",
          "type": "uint256"
        },
        {
          "indexed": false,
          "name": "owner",
          "type": "address"
        },
        {
          "indexed": false,
          "name": "escrow",
          "type": "address"
        }
      ],
      "name": "LogCreatedCertificate",
      "type": "event"
    },
    {
      "anonymous": false,
      "inputs": [
        {
          "indexed": true,
          "name": "_certificateId",
          "type": "uint256"
        },
        {
          "indexed": false,
          "name": "_retire",
          "type": "bool"
        }
      ],
      "name": "LogRetireRequest",
      "type": "event"
    },
    {
      "anonymous": false,
      "inputs": [
        {
          "indexed": true,
          "name": "_certificateId",
          "type": "uint256"
        },
        {
          "indexed": false,
          "name": "_oldOwner",
          "type": "address"
        },
        {
          "indexed": false,
          "name": "_newOwner",
          "type": "address"
        },
        {
          "indexed": false,
          "name": "_oldEscrow",
          "type": "address"
        },
        {
          "indexed": false,
          "name": "_newEscrow",
          "type": "address"
        }
      ],
      "name": "LogCertificateOwnerChanged",
      "type": "event"
    },
    {
      "constant": false,
      "inputs": [
        {
          "name": "_database",
          "type": "address"
        }
      ],
      "name": "init",
      "outputs": [],
      "payable": false,
      "stateMutability": "nonpayable",
      "type": "function"
    },
    {
      "constant": false,
      "inputs": [
        {
          "name": "_assetId",
          "type": "uint256"
        },
        {
          "name": "_owner",
          "type": "address"
        },
        {
          "name": "_powerInW",
          "type": "uint256"
        }
      ],
      "name": "createCertificate",
      "outputs": [
        {
          "name": "",
          "type": "uint256"
        }
      ],
      "payable": false,
      "stateMutability": "nonpayable",
      "type": "function"
    },
    {
      "constant": false,
      "inputs": [
        {
          "name": "_assetId",
          "type": "uint256"
        },
        {
          "name": "_powerInW",
          "type": "uint256"
        }
      ],
      "name": "createCertificateForAssetOwner",
      "outputs": [
        {
          "name": "",
          "type": "uint256"
        }
      ],
      "payable": false,
      "stateMutability": "nonpayable",
      "type": "function"
    },
    {
      "constant": false,
      "inputs": [
        {
          "name": "_id",
          "type": "uint256"
        }
      ],
      "name": "retireCertificate",
      "outputs": [],
      "payable": false,
      "stateMutability": "nonpayable",
      "type": "function"
    },
    {
      "constant": false,
      "inputs": [
        {
          "name": "_id",
          "type": "uint256"
        },
        {
          "name": "_newOwner",
          "type": "address"
        }
      ],
      "name": "transferOwnershipByEscrow",
      "outputs": [],
      "payable": false,
      "stateMutability": "nonpayable",
      "type": "function"
    },
    {
      "constant": false,
      "inputs": [
        {
          "name": "_id",
          "type": "uint256"
        },
        {
          "name": "_newOwner",
          "type": "address"
        }
      ],
      "name": "changeCertificateOwner",
      "outputs": [],
      "payable": false,
      "stateMutability": "nonpayable",
      "type": "function"
    },
    {
      "constant": true,
      "inputs": [
        {
          "name": "_certificateId",
          "type": "uint256"
        }
      ],
      "name": "getCertificate",
      "outputs": [
        {
          "name": "_assetId",
          "type": "uint256"
        },
        {
          "name": "_owner",
          "type": "address"
        },
        {
          "name": "_powerInW",
          "type": "uint256"
        },
        {
          "name": "_retired",
          "type": "bool"
        },
        {
          "name": "_dataLog",
          "type": "bytes32"
        },
        {
          "name": "_coSaved",
          "type": "uint256"
        },
        {
          "name": "_escrow",
          "type": "address"
        },
        {
          "name": "_creationTime",
          "type": "uint256"
        }
      ],
      "payable": false,
      "stateMutability": "view",
      "type": "function"
    },
    {
      "constant": true,
      "inputs": [
        {
          "name": "_certificateId",
          "type": "uint256"
        }
      ],
      "name": "getCertificateOwner",
      "outputs": [
        {
          "name": "",
          "type": "address"
        }
      ],
      "payable": false,
      "stateMutability": "view",
      "type": "function"
    },
    {
      "constant": true,
      "inputs": [
        {
          "name": "_certificateId",
          "type": "uint256"
        }
      ],
      "name": "isRetired",
      "outputs": [
        {
          "name": "",
          "type": "bool"
        }
      ],
      "payable": false,
      "stateMutability": "view",
      "type": "function"
    },
    {
      "constant": true,
      "inputs": [],
      "name": "getCertificateListLength",
      "outputs": [
        {
          "name": "",
          "type": "uint256"
        }
      ],
      "payable": false,
      "stateMutability": "view",
      "type": "function"
    },
    {
      "constant": false,
      "inputs": [
        {
          "name": "_newLogic",
          "type": "address"
        }
      ],
      "name": "update",
      "outputs": [],
      "payable": false,
      "stateMutability": "nonpayable",
      "type": "function"
    }
  ],
  "bytecode": "0x6060604052341561000f57600080fd5b60405160208061172a8339810160405280805160008054600160a060020a03909216600160a060020a031990921691909117905550506116d6806100546000396000f3006060604052600436106100b65763ffffffff60e060020a60003504166319ab453c81146100bb5780631c1b8772146100dc5780632c76a1b6146100fb57806351640fee14610132578063544dd3901461019a57806384e814ef146101bc578063af277395146101ee578063b1f2cc9d14610201578063bb5a389e14610214578063c90ad7eb1461024d578063cbbf9f3814610260578063cf6ebee714610282578063d50bba1a14610298578063daba9203146102ae575b600080fd5b34156100c657600080fd5b6100da600160a060020a03600435166102c7565b005b34156100e757600080fd5b6100da600160a060020a0360043516610324565b341561010657600080fd5b610120600435600160a060020a03602435166044356103c3565b60405190815260200160405180910390f35b341561013d57600080fd5b610148600435610477565b604051978852600160a060020a0396871660208901526040808901969096529315156060880152608087019290925260a086015290921660c084015260e0830191909152610100909101905180910390f35b34156101a557600080fd5b6100da600435600160a060020a036024351661053a565b34156101c757600080fd5b6101d26004356108e5565b604051600160a060020a03909116815260200160405180910390f35b34156101f957600080fd5b610120610958565b341561020c57600080fd5b6101d26109c1565b341561021f57600080fd5b61023960ff60043516600160a060020a03602435166109d0565b604051901515815260200160405180910390f35b341561025857600080fd5b6101d2610b67565b341561026b57600080fd5b6100da600435600160a060020a0360243516610b76565b341561028d57600080fd5b610239600435610e06565b34156102a357600080fd5b6100da600435610e59565b34156102b957600080fd5b610120600435602435611044565b60006102d381336109d0565b15156102de57600080fd5b600154600160a060020a0316156102f457600080fd5b506001805473ffffffffffffffffffffffffffffffffffffffff1916600160a060020a0392909216919091179055565b600054600160a060020a03908116903316811461034057600080fd5b60005433600160a060020a0390811691161461035b57600080fd5b600154600160a060020a031663a6f9dae18360405160e060020a63ffffffff8416028152600160a060020a039091166004820152602401600060405180830381600087803b15156103ab57600080fd5b6102c65a03f115156103bc57600080fd5b5050505050565b600154600090600160a060020a031615156103dd57600080fd5b60008054600160a060020a03169063a34b80b090604051602001526040518163ffffffff1660e060020a028152600401602060405180830381600087803b151561042657600080fd5b6102c65a03f1151561043757600080fd5b5050506040518051905080600160a060020a031633600160a060020a031614151561046157600080fd5b61046e8585856000611247565b95945050505050565b6001546000908190819081908190819081908190600160a060020a03166351640fee8a83604051610100015260405160e060020a63ffffffff8416028152600481019190915260240161010060405180830381600087803b15156104da57600080fd5b6102c65a03f115156104eb57600080fd5b5050506040518051906020018051906020018051906020018051906020018051906020018051906020018051906020018051905097509750975097509750975097509750919395975091939597565b6001546000908190600160a060020a0316151561055657600080fd5b600080548491600160a060020a0390911690635c7460d690604051602001526040518163ffffffff1660e060020a028152600401602060405180830381600087803b15156105a357600080fd5b6102c65a03f115156105b457600080fd5b50505060405180519050600160a060020a031663ecb410548260006040516020015260405160e060020a63ffffffff8416028152600160a060020a039091166004820152602401602060405180830381600087803b151561061457600080fd5b6102c65a03f1151561062557600080fd5b50505060405180519050151561063a57600080fd5b600154600160a060020a03166384e814ef8660006040516020015260405160e060020a63ffffffff84160281526004810191909152602401602060405180830381600087803b151561068b57600080fd5b6102c65a03f1151561069c57600080fd5b50505060405180519050600160a060020a031633600160a060020a031614801561072f5750600154600160a060020a031663cf6ebee78660006040516020015260405160e060020a63ffffffff84160281526004810191909152602401602060405180830381600087803b151561071257600080fd5b6102c65a03f1151561072357600080fd5b50505060405180519050155b151561073a57600080fd5b600154600160a060020a031663bdd75048868660405160e060020a63ffffffff85160281526004810192909252600160a060020a03166024820152604401600060405180830381600087803b151561079157600080fd5b6102c65a03f115156107a257600080fd5b5050600154600160a060020a031690506384e814ef8660006040516020015260405160e060020a63ffffffff84160281526004810191909152602401602060405180830381600087803b15156107f757600080fd5b6102c65a03f1151561080857600080fd5b5050506040518051600154909450600160a060020a0316905063d90561ba8660006040516020015260405160e060020a63ffffffff84160281526004810191909152602401602060405180830381600087803b151561086657600080fd5b6102c65a03f1151561087757600080fd5b505050604051805190509150847f1d7a993900fc1aacdea8768b0618d014b58445a8255572d28b19e64bb71d959584868586604051600160a060020a039485168152928416602084015290831660408084019190915292166060820152608001905180910390a25050505050565b600154600090600160a060020a03166384e814ef83836040516020015260405160e060020a63ffffffff84160281526004810191909152602401602060405180830381600087803b151561093857600080fd5b6102c65a03f1151561094957600080fd5b50505060405180519392505050565b600154600090600160a060020a031663af27739582604051602001526040518163ffffffff1660e060020a028152600401602060405180830381600087803b15156109a257600080fd5b6102c65a03f115156109b357600080fd5b505050604051805191505090565b600054600160a060020a031681565b600080600060078560068111156109e357fe5b11156109ee57600080fd5b60008054600160a060020a0380871692911690638da5cb5b90604051602001526040518163ffffffff1660e060020a028152600401602060405180830381600087803b1515610a3c57600080fd5b6102c65a03f11515610a4d57600080fd5b50505060405180519050600160a060020a03161415610a6f5760019250610b5f565b60008054600160a060020a031690635c7460d690604051602001526040518163ffffffff1660e060020a028152600401602060405180830381600087803b1515610ab857600080fd5b6102c65a03f11515610ac957600080fd5b50505060405180519050600160a060020a031663265209f28560006040516020015260405160e060020a63ffffffff8416028152600160a060020a039091166004820152602401602060405180830381600087803b1515610b2957600080fd5b6102c65a03f11515610b3a57600080fd5b505050604051805190509150846006811115610b5257fe5b60020a8281161515935090505b505092915050565b600154600160a060020a031681565b60015460009081908190600160a060020a03161515610b9457600080fd5b60008054600160a060020a03169063a34b80b090604051602001526040518163ffffffff1660e060020a028152600401602060405180830381600087803b1515610bdd57600080fd5b6102c65a03f11515610bee57600080fd5b5050506040518051905080600160a060020a031633600160a060020a0316141515610c1857600080fd5b600154600160a060020a03166351640fee876000604051610100015260405160e060020a63ffffffff8416028152600481019190915260240161010060405180830381600087803b1515610c6b57600080fd5b6102c65a03f11515610c7c57600080fd5b505050604051805190602001805190602001805190602001805190602001805190602001805190602001805190602001805150959a509298509196505086159350610cca9250505057600080fd5b600154600160a060020a031663bdd75048878760405160e060020a63ffffffff85160281526004810192909252600160a060020a03166024820152604401600060405180830381600087803b1515610d2157600080fd5b6102c65a03f11515610d3257600080fd5b5050600154600160a060020a031690506306ec898287600060405160e060020a63ffffffff85160281526004810192909252600160a060020a03166024820152604401600060405180830381600087803b1515610d8e57600080fd5b6102c65a03f11515610d9f57600080fd5b505050857f1d7a993900fc1aacdea8768b0618d014b58445a8255572d28b19e64bb71d95958587856000604051600160a060020a039485168152928416602084015290831660408084019190915292166060820152608001905180910390a2505050505050565b600154600090600160a060020a031663cf6ebee783836040516020015260405160e060020a63ffffffff84160281526004810191909152602401602060405180830381600087803b151561093857600080fd5b6001546000908190600160a060020a03161515610e7557600080fd5b600154600160a060020a03166351640fee846000604051610100015260405160e060020a63ffffffff8416028152600481019190915260240161010060405180830381600087803b1515610ec857600080fd5b6102c65a03f11515610ed957600080fd5b505050604051805190602001805190602001805190602001805190602001805190602001805190602001805190602001805190505050505093505092505033600160a060020a031682600160a060020a0316141515610f3757600080fd5b80151561103f57600154600160a060020a03166306ec898284600060405160e060020a63ffffffff85160281526004810192909252600160a060020a03166024820152604401600060405180830381600087803b1515610f9657600080fd5b6102c65a03f11515610fa757600080fd5b5050600154600160a060020a0316905063d50bba1a8460405160e060020a63ffffffff84160281526004810191909152602401600060405180830381600087803b1515610ff357600080fd5b6102c65a03f1151561100457600080fd5b505050827f4c9e4e2878404da5e23cb4c5ef447b8e31155efa1229be3e2a8541cc5aab275d6001604051901515815260200160405180910390a25b505050565b600080600661105381336109d0565b151561105e57600080fd5b600154600160a060020a0316151561107557600080fd5b60008054600160a060020a0316906324a793c490604051602001526040518163ffffffff1660e060020a028152600401602060405180830381600087803b15156110be57600080fd5b6102c65a03f115156110cf57600080fd5b50505060405180519050600160a060020a031663c6bc1a768660006040516020015260405160e060020a63ffffffff84160281526004810191909152602401602060405180830381600087803b151561112757600080fd5b6102c65a03f1151561113857600080fd5b50505060405180519050151561114d57600080fd5b60008054600160a060020a0316906324a793c490604051602001526040518163ffffffff1660e060020a028152600401602060405180830381600087803b151561119657600080fd5b6102c65a03f115156111a757600080fd5b50505060405180519050600160a060020a031663ade1e99286600060405160c0015260405160e060020a63ffffffff8416028152600481019190915260240160c060405180830381600087803b15156111ff57600080fd5b6102c65a03f1151561121057600080fd5b505050604051805190602001805190602001805190602001805190602001805190602001805190505050505092505061046e858386335b600154600090819081908190600160a060020a0316151561126757600080fd5b60008054600160a060020a0316906324a793c490604051602001526040518163ffffffff1660e060020a028152600401602060405180830381600087803b15156112b057600080fd5b6102c65a03f115156112c157600080fd5b50505060405180519050600160a060020a03166376b240ee898860006040516020015260405160e060020a63ffffffff851602815260048101929092526024820152604401602060405180830381600087803b151561131f57600080fd5b6102c65a03f1151561133057600080fd5b505050604051805160008054919550600160a060020a0390911691506324a793c490604051602001526040518163ffffffff1660e060020a028152600401602060405180830381600087803b151561138757600080fd5b6102c65a03f1151561139857600080fd5b50505060405180519050600160a060020a0316631e13970b898860006040516020015260405160e060020a63ffffffff851602815260048101929092526024820152604401602060405180830381600087803b15156113f657600080fd5b6102c65a03f1151561140757600080fd5b50505060405180519050151561141c57600080fd5b60008054600160a060020a0316906324a793c490604051602001526040518163ffffffff1660e060020a028152600401602060405180830381600087803b151561146557600080fd5b6102c65a03f1151561147657600080fd5b50505060405180519050600160a060020a031663f7105c058960006040516020015260405160e060020a63ffffffff84160281526004810191909152602401602060405180830381600087803b15156114ce57600080fd5b6102c65a03f115156114df57600080fd5b5050506040518051600154909350600160a060020a031690506342c366a589898986888b60006040516020015260405160e060020a63ffffffff89160281526004810196909652600160a060020a0394851660248701526044860193909352606485019190915260848401521660a482015260c401602060405180830381600087803b151561156d57600080fd5b6102c65a03f1151561157e57600080fd5b505050604051805190509050807f05763c5a99ca059f9fba5a40ed660f24ddd30b3a3d6f367bc071fbc22a79ffaf878988604051928352600160a060020a039182166020840152166040808301919091526060909101905180910390a260008054600160a060020a0316906324a793c490604051602001526040518163ffffffff1660e060020a028152600401602060405180830381600087803b151561162457600080fd5b6102c65a03f1151561163557600080fd5b50505060405180519050600160a060020a03166350ddca55898560405160e060020a63ffffffff851602815260048101929092526024820152604401600060405180830381600087803b151561168a57600080fd5b6102c65a03f1151561169b57600080fd5b509199985050505050505050505600a165627a7a72305820d1a8c17e6b23075de53ebe060180b6dba4f8895b9d8123304ee9f6f6d59c246c0029",
  "source": "// Copyright 2018 Energy Web Foundation\n// This file is part of the Origin Application brought to you by the Energy Web Foundation,\n// a global non-profit organization focused on accelerating blockchain technology across the energy sector, \n// incorporated in Zug, Switzerland.\n//\n// The Origin Application is free software: you can redistribute it and/or modify\n// it under the terms of the GNU General Public License as published by\n// the Free Software Foundation, either version 3 of the License, or\n// (at your option) any later version.\n// This is distributed in the hope that it will be useful,\n// but WITHOUT ANY WARRANTY and without an implied warranty of\n// MERCHANTABILITY or FITNESS FOR A PARTICULAR PURPOSE.  See the\n// GNU General Public License for more details, at <http://www.gnu.org/licenses/>.\n//\n// @authors: slock.it GmbH, Jonas Bentke, jonas.bentke@slock.it\n\npragma solidity ^0.4.17;\n\n/// @title The logic contract for the Certificate of Origin list\n/// @notice This contract provides the logic that determines how the data is stored\n/// @dev Needs a valid CertificateDB contract to function correctly\n\nimport \"./RoleManagement.sol\";\nimport \"./UserDB.sol\";\nimport \"./CoO.sol\";\nimport \"./CertificateDB.sol\";\nimport \"./Updatable.sol\";\nimport \"./AssetProducingRegistryLogic.sol\";\n\ncontract CertificateLogic is RoleManagement, Updatable {\n\n    ///@notice The address of a CertificateDB contract\n    CertificateDB public certificateDb;\n\n    /// @notice Logs the creation of an event\n    event LogCreatedCertificate(uint indexed _certificateId, uint powerInW, address owner, address escrow);\n    /// @notice Logs the request of an retirement of a certificate\n    event LogRetireRequest(uint indexed _certificateId, bool _retire);\n\n    event LogCertificateOwnerChanged(uint indexed _certificateId, address _oldOwner, address _newOwner, address _oldEscrow, address _newEscrow);\n    \n    /// @notice Checks if the contract is initialized\n    modifier isInitialized() {\n        require(certificateDb != CertificateDB(0x0));\n        _;\n    }\n    \n    /// @notice Constructor\n    /// @param _coo The Master contract\n    function CertificateLogic(CoO _coo) RoleManagement(_coo) public {\n\n    }\n\n    /// @notice Initialises the contract by binding it to a logic contract\n    /// @param _database Sets the logic contract\n    function init(address _database) public onlyRole(RoleManagement.Role.TopAdmin) {\n        require(certificateDb == CertificateDB(0x0));\n        certificateDb = CertificateDB(_database);\n    }\n\n    /// @notice Creates a certificate of origin. Checks in the AssetRegistry if requested wh are available.\n    /// @param _assetId The id of the Certificate\n    /// @param _owner The owner of the Certificate\n    /// @param _powerInW The amount of Watts the Certificate holds\n    function createCertificate(uint _assetId, address _owner, uint _powerInW) \n        public \n        isInitialized\n        onlyAccount(address(cooContract.demandRegistry()) )  \n        returns (uint) \n    {\n        return createCertificateIntern(_assetId, _owner, _powerInW, 0x0);\n    }\n\n    /// @notice Creates a certificate of origin. Checks in the AssetRegistry if requested wh are available.\n    /// @param _assetId The id of the Certificate\n    /// @param _owner The owner of the Certificate\n    /// @param _powerInW The amount of Watts the Certificate holds\n    /// @param _escrow The escrow of a certificate\n    /// @return a certificate-id\n    function createCertificateIntern(uint _assetId, address _owner, uint _powerInW, address _escrow) \n        internal \n        isInitialized  \n        returns (uint) \n    {\n        uint co = AssetProducingRegistryLogic(address(cooContract.assetProducingRegistry())).getCoSaved(_assetId, _powerInW);\n        require(AssetProducingRegistryLogic(address(cooContract.assetProducingRegistry())).useWhForCertificate(_assetId, _powerInW));\n        bytes32 dataLog = AssetProducingRegistryLogic(address(cooContract.assetProducingRegistry())).getLastSmartMeterReadFileHash(_assetId);\n        uint certId = certificateDb.createCertificate(_assetId, _owner, _powerInW, dataLog, co, _escrow);\n        LogCreatedCertificate(certId, _powerInW, _owner, _escrow);\n        AssetProducingRegistryLogic(address(cooContract.assetProducingRegistry())).setCO2UsedForCertificate(_assetId,co);\n        return certId;\n    }\n\n    /// @notice Creates a certificate of origin for the asset owner. Checks in the AssetRegistry if requested wh are available. \n    /// @dev the msg.sender (a matcher) will become the escrow-of that certificate and is allowed to change the change the ownership\n    /// @param _assetId The id of the Certificate\n    /// @param _powerInW The amount of Watts the Certificate holds\n    /// @return the certificate-id\n    function createCertificateForAssetOwner(uint _assetId, uint _powerInW) \n        public \n        onlyRole(RoleManagement.Role.Matcher)\n        isInitialized  \n        returns (uint) \n    {\n        require( AssetProducingRegistryLogic(address(cooContract.assetProducingRegistry())).getExistStatus(_assetId));\n        var ( , ownerAddress, , , , ) = AssetProducingRegistryLogic(address(cooContract.assetProducingRegistry())).getAssetGeneral(_assetId);\n        return createCertificateIntern(_assetId, ownerAddress, _powerInW, msg.sender);\n    }\n\n    /// @notice Request a certificate to retire. Only Certificate owner can retire\n    /// @param _id The id of the certificate\n    function retireCertificate(uint _id) \n        public \n        isInitialized\n    {\n        var (, owner, , retired,, ,,) = certificateDb.getCertificate(_id);\n        require(owner == msg.sender);\n        if (!retired) {\n            certificateDb.setCertificateEscrow(_id, 0x0);\n            certificateDb.retireCertificate(_id);\n            LogRetireRequest(_id, true);\n        }\n    }\n\n    /// @notice function to allow an escrow-address to change the ownership of a certificate\n    /// @dev this function can only be called by the demandLogic\n    /// @param _id the certificate-id\n    /// @param _newOwner the new owner of the certificate\n    function transferOwnershipByEscrow(uint _id, address _newOwner) \n        public \n        isInitialized \n        onlyAccount(address(cooContract.demandRegistry()) )  \n    {   \n           \n        address oldOwner;\n        bool retired;\n        address oldEscrow; \n        \n        ( ,oldOwner,,retired,,,oldEscrow,) = certificateDb.getCertificate(_id); \n\n        require(!retired);\n        certificateDb.setCertificateOwner(_id, _newOwner);\n        certificateDb.setCertificateEscrow(_id, 0x0);\n        LogCertificateOwnerChanged(_id, oldOwner, _newOwner, oldEscrow, 0x0);\n    }\n\n    /// @notice Sets a new owner for the certificate\n    /// @param _id The id of the certificate\n    /// @param _newOwner The address of the new owner of the certificate\n    function changeCertificateOwner(uint _id, address _newOwner) \n        public \n        isInitialized() \n        userExists(_newOwner) \n    {\n        require(msg.sender == certificateDb.getCertificateOwner(_id) && !(certificateDb.isRetired(_id)));\n        certificateDb.setCertificateOwner(_id, _newOwner);\n        \n        address oldOwner = certificateDb.getCertificateOwner(_id); \n        address oldEscrow = certificateDb.getCertificateEscrow(_id);\n\n        LogCertificateOwnerChanged(_id, oldOwner, _newOwner, oldEscrow, oldEscrow);\n\n    }\n\n    /// @notice Getter for a specific Certificate\n    /// @param _certificateId The id of the requested certificate\n    /// @return the certificate as single values\n    function getCertificate(uint _certificateId) \n        public \n        view \n        returns (  \n            uint _assetId, \n            address _owner, \n            uint _powerInW, \n            bool _retired, \n            bytes32 _dataLog, \n            uint _coSaved, \n            address _escrow, \n            uint _creationTime\n        ) \n    {\n        return certificateDb.getCertificate(_certificateId);\n    }\n\n    /// @notice Getter for a specific Certificate\n    /// @param _certificateId The id of the requested certificate\n    /// @return the certificate as single values\n    function getCertificateOwner(uint _certificateId) \n        public \n        view \n        returns (address) \n    {\n        return certificateDb.getCertificateOwner(_certificateId);\n    }\n\n    /// @notice Getter for a specific Certificate\n    /// @param _certificateId The id of the requested certificate\n    /// @return the certificate as single values\n    function isRetired(uint _certificateId) \n        public \n        view \n        returns (bool) \n    {\n        return certificateDb.isRetired(_certificateId);\n    }\n\n    /// @notice Getter for the length of the list of certificates\n    /// @return the length of the array\n    function getCertificateListLength() \n        public \n        view \n        returns (uint) \n    {\n        return certificateDb.getCertificateListLength();\n    }\n\n    /// @notice Updates the logic contract\n    /// @param _newLogic Address of the new logic contract\n    function update(address _newLogic) \n        external\n        onlyAccount(address(cooContract)) \n    {\n        require(address(cooContract) == msg.sender);\n        certificateDb.changeOwner(_newLogic);\n    }\n}",
  "sourcePath": "/Users/mkuechler/ewf/ewf-pushrepo/certificate_of_origin/contracts/CertificateLogic.sol",
  "compiler": {
    "name": "solc",
    "version": "0.4.19+commit.c4cbbb05.Emscripten.clang"
  },
  "schemaVersion": "2.0.0",
  "updatedAt": "2018-07-31T09:06:35.541Z"
}