{
  "contractName": "CoO",
  "abi": [
    {
      "constant": true,
      "inputs": [],
      "name": "assetProducingRegistry",
      "outputs": [
        {
          "name": "",
          "type": "address"
        }
      ],
      "payable": false,
      "stateMutability": "view",
      "type": "function"
    },
    {
      "constant": true,
      "inputs": [],
      "name": "assetConsumingRegistry",
      "outputs": [
        {
          "name": "",
          "type": "address"
        }
      ],
      "payable": false,
      "stateMutability": "view",
      "type": "function"
    },
    {
      "constant": true,
      "inputs": [],
      "name": "userRegistry",
      "outputs": [
        {
          "name": "",
          "type": "address"
        }
      ],
      "payable": false,
      "stateMutability": "view",
      "type": "function"
    },
    {
      "constant": true,
      "inputs": [],
      "name": "owner",
      "outputs": [
        {
          "name": "",
          "type": "address"
        }
      ],
      "payable": false,
      "stateMutability": "view",
      "type": "function"
    },
    {
      "constant": true,
      "inputs": [],
      "name": "demandRegistry",
      "outputs": [
        {
          "name": "",
          "type": "address"
        }
      ],
      "payable": false,
      "stateMutability": "view",
      "type": "function"
    },
    {
      "constant": false,
      "inputs": [
        {
          "name": "_newOwner",
          "type": "address"
        }
      ],
      "name": "changeOwner",
      "outputs": [],
      "payable": false,
      "stateMutability": "nonpayable",
      "type": "function"
    },
    {
      "constant": true,
      "inputs": [],
      "name": "certificateRegistry",
      "outputs": [
        {
          "name": "",
          "type": "address"
        }
      ],
      "payable": false,
      "stateMutability": "view",
      "type": "function"
    },
    {
      "inputs": [],
      "payable": false,
      "stateMutability": "nonpayable",
      "type": "constructor"
    },
    {
      "anonymous": false,
      "inputs": [
        {
          "indexed": false,
          "name": "_old",
          "type": "address"
        },
        {
          "indexed": false,
          "name": "_new",
          "type": "address"
        }
      ],
      "name": "LogUserRegistryUpdated",
      "type": "event"
    },
    {
      "anonymous": false,
      "inputs": [
        {
          "indexed": false,
          "name": "_old",
          "type": "address"
        },
        {
          "indexed": false,
          "name": "_new",
          "type": "address"
        }
      ],
      "name": "LogAssetProducingRegistryUpdated",
      "type": "event"
    },
    {
      "anonymous": false,
      "inputs": [
        {
          "indexed": false,
          "name": "_old",
          "type": "address"
        },
        {
          "indexed": false,
          "name": "_new",
          "type": "address"
        }
      ],
      "name": "LogCertificateRegistryUpdated",
      "type": "event"
    },
    {
      "anonymous": false,
      "inputs": [
        {
          "indexed": false,
          "name": "_old",
          "type": "address"
        },
        {
          "indexed": false,
          "name": "_new",
          "type": "address"
        }
      ],
      "name": "LogDemandRegistryUpdated",
      "type": "event"
    },
    {
      "anonymous": false,
      "inputs": [
        {
          "indexed": false,
          "name": "_old",
          "type": "address"
        },
        {
          "indexed": false,
          "name": "_new",
          "type": "address"
        }
      ],
      "name": "LogAssetConsumingRegistryUpdated",
      "type": "event"
    },
    {
      "anonymous": false,
      "inputs": [
        {
          "indexed": false,
          "name": "_newOwner",
          "type": "address"
        }
      ],
      "name": "LogChangeOwner",
      "type": "event"
    },
    {
      "constant": false,
      "inputs": [
        {
          "name": "_userRegistry",
          "type": "address"
        },
        {
          "name": "_assetProducingRegistry",
          "type": "address"
        },
        {
          "name": "_certificateRegistry",
          "type": "address"
        },
        {
          "name": "_demandRegistry",
          "type": "address"
        },
        {
          "name": "_assetConsumingRegistry",
          "type": "address"
        }
      ],
      "name": "init",
      "outputs": [],
      "payable": false,
      "stateMutability": "nonpayable",
      "type": "function"
    },
    {
      "constant": false,
      "inputs": [
        {
          "name": "_userRegistry",
          "type": "address"
        },
        {
          "name": "_assetProducingRegistry",
          "type": "address"
        },
        {
          "name": "_certificateRegistry",
          "type": "address"
        },
        {
          "name": "_demandRegistry",
          "type": "address"
        },
        {
          "name": "_assetConsumingRegistry",
          "type": "address"
        }
      ],
      "name": "update",
      "outputs": [],
      "payable": false,
      "stateMutability": "nonpayable",
      "type": "function"
    }
  ],
  "bytecode": "0x608060405234801561001057600080fd5b5060008054600160a060020a03191633179055610886806100326000396000f3006080604052600436106100985763ffffffff7c010000000000000000000000000000000000000000000000000000000060003504166324a793c4811461009d578063359ef75b146100ce578063435b26be14610109578063465f22f01461011e5780635c7460d6146101575780638da5cb5b1461016c578063a34b80b014610181578063a6f9dae114610196578063ced7f449146101b7575b600080fd5b3480156100a957600080fd5b506100b26101cc565b60408051600160a060020a039092168252519081900360200190f35b3480156100da57600080fd5b50610107600160a060020a03600435811690602435811690604435811690606435811690608435166101db565b005b34801561011557600080fd5b506100b2610321565b34801561012a57600080fd5b50610107600160a060020a0360043581169060243581169060443581169060643581169060843516610330565b34801561016357600080fd5b506100b261079e565b34801561017857600080fd5b506100b26107ad565b34801561018d57600080fd5b506100b26107bc565b3480156101a257600080fd5b50610107600160a060020a03600435166107cb565b3480156101c357600080fd5b506100b261084b565b600254600160a060020a031681565b600054600160a060020a031633146101f257600080fd5b600160a060020a038516158015906102125750600160a060020a03841615155b80156102265750600160a060020a03831615155b801561023a5750600160a060020a03821615155b801561024e5750600160a060020a03811615155b80156102635750600154600160a060020a0316155b80156102785750600254600160a060020a0316155b801561028d5750600354600160a060020a0316155b80156102a25750600454600160a060020a0316155b80156102b75750600554600160a060020a0316155b15156102c257600080fd5b60018054600160a060020a0319908116600160a060020a03978816179091556002805482169587169590951790945560038054851693861693909317909255600480548416918516919091179055600580549092169216919091179055565b600554600160a060020a031681565b600054600160a060020a0316331461034757600080fd5b600160a060020a038516156104235760015460408051600160a060020a039283168152918716602083015280517f57b4acdcce9a438138db0edef11e09ded2de1339e2c693a3860053b29f02d4459281900390910190a16001546040805160e160020a630e0dc3b9028152600160a060020a03888116600483015291519190921691631c1b877291602480830192600092919082900301818387803b1580156103ef57600080fd5b505af1158015610403573d6000803e3d6000fd5b505060018054600160a060020a031916600160a060020a03891617905550505b600160a060020a038416156104ff5760025460408051600160a060020a039283168152918616602083015280517fa3ff37cf1ad096a94e6667f5facb596aa4b4f621e71271d970f96525f7f88ddd9281900390910190a16002546040805160e160020a630e0dc3b9028152600160a060020a03878116600483015291519190921691631c1b877291602480830192600092919082900301818387803b1580156104cb57600080fd5b505af11580156104df573d6000803e3d6000fd5b505060028054600160a060020a031916600160a060020a03881617905550505b600160a060020a038316156105db5760035460408051600160a060020a039283168152918516602083015280517fcac1d34085b7588b77cec2769da366a1890d791e11088ceebcab67af051532bc9281900390910190a16003546040805160e160020a630e0dc3b9028152600160a060020a03868116600483015291519190921691631c1b877291602480830192600092919082900301818387803b1580156105a757600080fd5b505af11580156105bb573d6000803e3d6000fd5b505060038054600160a060020a031916600160a060020a03871617905550505b600160a060020a038216156106bb5760045460408051600160a060020a039283168152918416602083015280517f555c7135f0d1bfae914030424949bff6469f6670e044dca599239b31ba74e2fa9281900390910190a1600480546040805160e160020a630e0dc3b9028152600160a060020a038681169482019490945290519290911691631c1b87729160248082019260009290919082900301818387803b15801561068757600080fd5b505af115801561069b573d6000803e3d6000fd5b505060048054600160a060020a031916600160a060020a03861617905550505b600160a060020a038116156107975760055460408051600160a060020a039283168152918316602083015280517f37c2b164f8bd4e4a2b0cca866d1260948db487dfaaa8411aacddb72542c1f8659281900390910190a16005546040805160e160020a630e0dc3b9028152600160a060020a03848116600483015291519190921691631c1b877291602480830192600092919082900301818387803b15801561076357600080fd5b505af1158015610777573d6000803e3d6000fd5b505060058054600160a060020a031916600160a060020a03851617905550505b5050505050565b600154600160a060020a031681565b600054600160a060020a031681565b600454600160a060020a031681565b600054600160a060020a031633146107e257600080fd5b600160a060020a03811615156107f757600080fd5b60008054600160a060020a038316600160a060020a0319909116811790915560408051918252517f95fd54179c11867fb083dd94347ea50f144dd4cfd7612b7bca169f162824af169181900360200190a150565b600354600160a060020a0316815600a165627a7a72305820e26b7ac285b5667d416db2f18d5abffe1ff1a29cf11f6b4c3f77c990f13db3a40029",
  "source": "// Copyright 2018 Energy Web Foundation\n// This file is part of the Origin Application brought to you by the Energy Web Foundation,\n// a global non-profit organization focused on accelerating blockchain technology across the energy sector, \n// incorporated in Zug, Switzerland.\n//\n// The Origin Application is free software: you can redistribute it and/or modify\n// it under the terms of the GNU General Public License as published by\n// the Free Software Foundation, either version 3 of the License, or\n// (at your option) any later version.\n// This is distributed in the hope that it will be useful,\n// but WITHOUT ANY WARRANTY and without an implied warranty of\n// MERCHANTABILITY or FITNESS FOR A PARTICULAR PURPOSE.  See the\n// GNU General Public License for more details, at <http://www.gnu.org/licenses/>.\n//\n// @authors: slock.it GmbH, Martin Kuechler, martin.kuchler@slock.it\n\npragma solidity ^0.4.17;\n\nimport \"./Owned.sol\";\nimport \"./Updatable.sol\";\n\n/// @title Contract for storing the current logic-contracts-addresses for the certificate of origin\ncontract CoO is Owned {\n\n    event LogUserRegistryUpdated(address _old, address _new);\n    event LogAssetProducingRegistryUpdated(address _old, address _new);\n    event LogCertificateRegistryUpdated(address _old, address _new);\n    event LogDemandRegistryUpdated(address _old, address _new);\n    event LogAssetConsumingRegistryUpdated(address _old, address _new);\n\n    Updatable public userRegistry;\n    Updatable public assetProducingRegistry;\n    Updatable public certificateRegistry;\n    Updatable public demandRegistry;\n    Updatable public assetConsumingRegistry;\n\n    /// @notice The constructor of the UserDB\n    function CoO()\n        Owned(msg.sender) \n        public\n    {\n\n    } \n\n    /// @notice function to initialize the contracts, setting the needed contract-addresses\n    /// @param _userRegistry user-registry logic contract address\n    /// @param _assetProducingRegistry producing-asset-registry logic contract address\n    /// @param _certificateRegistry certificate-registry logic contract address\n    /// @param _demandRegistry demand-registry logic contract address\n    /// @param _assetConsumingRegistry consuming-asset-registry logic contract address\n    function init(\n        Updatable _userRegistry, \n        Updatable _assetProducingRegistry, \n        Updatable _certificateRegistry, \n        Updatable _demandRegistry, \n        Updatable _assetConsumingRegistry\n    ) \n        onlyOwner\n        external\n    {\n        require(    \n            _userRegistry != address(0) && _assetProducingRegistry != address(0) && _certificateRegistry != address(0) && _demandRegistry != address(0) && _assetConsumingRegistry != address(0)\n            && userRegistry == address(0) && assetProducingRegistry == address(0) && certificateRegistry == address(0) && demandRegistry == address(0) && assetConsumingRegistry == address(0)\n        );\n        userRegistry = _userRegistry;\n        assetProducingRegistry = _assetProducingRegistry;\n        certificateRegistry = _certificateRegistry;\n        demandRegistry = _demandRegistry;\n        assetConsumingRegistry = _assetConsumingRegistry;\n    }\n\n    /// @notice function to update one or more logic-contracts\n    /// @param _userRegistry address of the new user-registry-logic-contract\n    /// @param _assetProducingRegistry address of the new asset-registry-logic-contract\n    /// @param _certificateRegistry address of the new certificate-registry-logic-contract\n    /// @param _demandRegistry demand-registry logic contract address\n    /// @param _assetConsumingRegistry consuming-asset-registry logic contract address\n    function update(\n        Updatable _userRegistry,\n        Updatable _assetProducingRegistry, \n        Updatable _certificateRegistry, \n        Updatable _demandRegistry, \n        Updatable _assetConsumingRegistry\n    )\n        onlyOwner \n        external\n    {\n        if (_userRegistry != address(0)) {\n\n            LogUserRegistryUpdated(userRegistry, _userRegistry);\n            userRegistry.update(_userRegistry);\n            userRegistry = _userRegistry;\n        }\n\n        if (_assetProducingRegistry != address(0)) {\n            LogAssetProducingRegistryUpdated(assetProducingRegistry, _assetProducingRegistry);\n            assetProducingRegistry.update(_assetProducingRegistry);\n            assetProducingRegistry = _assetProducingRegistry;\n        }\n\n        if (_certificateRegistry != address(0)) {\n            LogCertificateRegistryUpdated(certificateRegistry, _certificateRegistry);\n            certificateRegistry.update(_certificateRegistry);\n            certificateRegistry = _certificateRegistry;\n        }\n\n        if (_demandRegistry != address(0)) {\n            LogDemandRegistryUpdated(demandRegistry, _demandRegistry);\n            demandRegistry.update(_demandRegistry);\n            demandRegistry = _demandRegistry;\n        }\n\n        if(_assetConsumingRegistry != address(0)) {\n            LogAssetConsumingRegistryUpdated(assetConsumingRegistry, _assetConsumingRegistry);\n            assetConsumingRegistry.update(_assetConsumingRegistry);\n            assetConsumingRegistry = _assetConsumingRegistry;\n        }        \n\n    }\n}",
  "sourcePath": "/Users/unomasanori/projects/DEMO_MVP/Ethereum-Madrid-Hackathon/stor-madrid/contracts/CoO.sol",
  "compiler": {
    "name": "solc",
    "version": "0.4.25+commit.59dbf8f1.Emscripten.clang"
  },
  "schemaVersion": "2.0.2",
  "updatedAt": "2019-05-25T12:04:23.133Z"
}